{
	"contracts/BridgeTnt.sol": {
		"BridgeTnt": {
			"abi": [
				{
					"inputs": [
						{
							"internalType": "address",
							"name": "token",
							"type": "address"
						}
					],
					"stateMutability": "nonpayable",
					"type": "constructor"
				},
				{
					"anonymous": false,
					"inputs": [
						{
							"indexed": false,
							"internalType": "address",
							"name": "from",
							"type": "address"
						},
						{
							"indexed": false,
							"internalType": "address",
							"name": "to",
							"type": "address"
						},
						{
							"indexed": false,
							"internalType": "uint256",
							"name": "amount",
							"type": "uint256"
						},
						{
							"indexed": false,
							"internalType": "uint256",
							"name": "date",
							"type": "uint256"
						},
						{
							"indexed": false,
							"internalType": "uint256",
							"name": "nonce",
							"type": "uint256"
						},
						{
							"indexed": false,
							"internalType": "bytes",
							"name": "signature",
							"type": "bytes"
						},
						{
							"indexed": true,
							"internalType": "enum BridgeBase.Step",
							"name": "step",
							"type": "uint8"
						}
					],
					"name": "Transfer",
					"type": "event"
				},
				{
					"inputs": [],
					"name": "admin",
					"outputs": [
						{
							"internalType": "address",
							"name": "",
							"type": "address"
						}
					],
					"stateMutability": "view",
					"type": "function"
				},
				{
					"inputs": [
						{
							"internalType": "address",
							"name": "to",
							"type": "address"
						},
						{
							"internalType": "uint256",
							"name": "amount",
							"type": "uint256"
						},
						{
							"internalType": "uint256",
							"name": "nonce",
							"type": "uint256"
						},
						{
							"internalType": "bytes",
							"name": "signature",
							"type": "bytes"
						}
					],
					"name": "burn",
					"outputs": [],
					"stateMutability": "nonpayable",
					"type": "function"
				},
				{
					"inputs": [
						{
							"internalType": "address",
							"name": "from",
							"type": "address"
						},
						{
							"internalType": "address",
							"name": "to",
							"type": "address"
						},
						{
							"internalType": "uint256",
							"name": "amount",
							"type": "uint256"
						},
						{
							"internalType": "uint256",
							"name": "nonce",
							"type": "uint256"
						},
						{
							"internalType": "bytes",
							"name": "signature",
							"type": "bytes"
						}
					],
					"name": "mint",
					"outputs": [],
					"stateMutability": "nonpayable",
					"type": "function"
				},
				{
					"inputs": [
						{
							"internalType": "address",
							"name": "",
							"type": "address"
						},
						{
							"internalType": "uint256",
							"name": "",
							"type": "uint256"
						}
					],
					"name": "processedNonces",
					"outputs": [
						{
							"internalType": "bool",
							"name": "",
							"type": "bool"
						}
					],
					"stateMutability": "view",
					"type": "function"
				},
				{
					"inputs": [],
					"name": "token",
					"outputs": [
						{
							"internalType": "contract IToken",
							"name": "",
							"type": "address"
						}
					],
					"stateMutability": "view",
					"type": "function"
				}
			],
			"devdoc": {
				"kind": "dev",
				"methods": {},
				"version": 1
			},
			"evm": {
				"assembly": "    /* \"contracts/BridgeTnt.sol\":89:177  contract BridgeTnt is BridgeBase {... */\n  mstore(0x40, 0x80)\n    /* \"contracts/BridgeTnt.sol\":128:175  constructor(address token) BridgeBase(token) {} */\n  callvalue\n  dup1\n  iszero\n  tag_1\n  jumpi\n  0x00\n  dup1\n  revert\ntag_1:\n  pop\n  mload(0x40)\n  sub(codesize, bytecodeSize)\n  dup1\n  bytecodeSize\n  dup4\n  codecopy\n  dup2\n  dup2\n  add\n  0x40\n  mstore\n  dup2\n  add\n  swap1\n  tag_2\n  swap2\n  swap1\n  tag_3\n  jump\t// in\ntag_2:\n    /* \"contracts/BridgeTnt.sol\":166:171  token */\n  dup1\n    /* \"@openzeppelin/contracts/security/ReentrancyGuard.sol\":1716:1717  1 */\n  0x01\n    /* \"@openzeppelin/contracts/security/ReentrancyGuard.sol\":1821:1828  _status */\n  0x00\n    /* \"@openzeppelin/contracts/security/ReentrancyGuard.sol\":1821:1843  _status = _NOT_ENTERED */\n  dup2\n  swap1\n  sstore\n  pop\n    /* \"contracts/BridgeBase.sol\":701:711  msg.sender */\n  caller\n    /* \"contracts/BridgeBase.sol\":693:698  admin */\n  0x01\n  0x00\n    /* \"contracts/BridgeBase.sol\":693:711  admin = msg.sender */\n  0x0100\n  exp\n  dup2\n  sload\n  dup2\n  0xffffffffffffffffffffffffffffffffffffffff\n  mul\n  not\n  and\n  swap1\n  dup4\n  0xffffffffffffffffffffffffffffffffffffffff\n  and\n  mul\n  or\n  swap1\n  sstore\n  pop\n    /* \"contracts/BridgeBase.sol\":736:742  _token */\n  dup1\n    /* \"contracts/BridgeBase.sol\":721:726  token */\n  0x02\n  0x00\n    /* \"contracts/BridgeBase.sol\":721:743  token = IToken(_token) */\n  0x0100\n  exp\n  dup2\n  sload\n  dup2\n  0xffffffffffffffffffffffffffffffffffffffff\n  mul\n  not\n  and\n  swap1\n  dup4\n  0xffffffffffffffffffffffffffffffffffffffff\n  and\n  mul\n  or\n  swap1\n  sstore\n  pop\n    /* \"contracts/BridgeBase.sol\":655:750  constructor(address _token) {... */\n  pop\n    /* \"contracts/BridgeTnt.sol\":128:175  constructor(address token) BridgeBase(token) {} */\n  pop\n    /* \"contracts/BridgeTnt.sol\":89:177  contract BridgeTnt is BridgeBase {... */\n  jump(tag_10)\n    /* \"#utility.yul\":88:205   */\ntag_12:\n    /* \"#utility.yul\":197:198   */\n  0x00\n    /* \"#utility.yul\":194:195   */\n  dup1\n    /* \"#utility.yul\":187:199   */\n  revert\n    /* \"#utility.yul\":334:460   */\ntag_14:\n    /* \"#utility.yul\":371:378   */\n  0x00\n    /* \"#utility.yul\":411:453   */\n  0xffffffffffffffffffffffffffffffffffffffff\n    /* \"#utility.yul\":404:409   */\n  dup3\n    /* \"#utility.yul\":400:454   */\n  and\n    /* \"#utility.yul\":389:454   */\n  swap1\n  pop\n    /* \"#utility.yul\":334:460   */\n  swap2\n  swap1\n  pop\n  jump\t// out\n    /* \"#utility.yul\":466:562   */\ntag_15:\n    /* \"#utility.yul\":503:510   */\n  0x00\n    /* \"#utility.yul\":532:556   */\n  tag_24\n    /* \"#utility.yul\":550:555   */\n  dup3\n    /* \"#utility.yul\":532:556   */\n  tag_14\n  jump\t// in\ntag_24:\n    /* \"#utility.yul\":521:556   */\n  swap1\n  pop\n    /* \"#utility.yul\":466:562   */\n  swap2\n  swap1\n  pop\n  jump\t// out\n    /* \"#utility.yul\":568:690   */\ntag_16:\n    /* \"#utility.yul\":641:665   */\n  tag_26\n    /* \"#utility.yul\":659:664   */\n  dup2\n    /* \"#utility.yul\":641:665   */\n  tag_15\n  jump\t// in\ntag_26:\n    /* \"#utility.yul\":634:639   */\n  dup2\n    /* \"#utility.yul\":631:666   */\n  eq\n    /* \"#utility.yul\":621:684   */\n  tag_27\n  jumpi\n    /* \"#utility.yul\":680:681   */\n  0x00\n    /* \"#utility.yul\":677:678   */\n  dup1\n    /* \"#utility.yul\":670:682   */\n  revert\n    /* \"#utility.yul\":621:684   */\ntag_27:\n    /* \"#utility.yul\":568:690   */\n  pop\n  jump\t// out\n    /* \"#utility.yul\":696:839   */\ntag_17:\n    /* \"#utility.yul\":753:758   */\n  0x00\n    /* \"#utility.yul\":784:790   */\n  dup2\n    /* \"#utility.yul\":778:791   */\n  mload\n    /* \"#utility.yul\":769:791   */\n  swap1\n  pop\n    /* \"#utility.yul\":800:833   */\n  tag_29\n    /* \"#utility.yul\":827:832   */\n  dup2\n    /* \"#utility.yul\":800:833   */\n  tag_16\n  jump\t// in\ntag_29:\n    /* \"#utility.yul\":696:839   */\n  swap3\n  swap2\n  pop\n  pop\n  jump\t// out\n    /* \"#utility.yul\":845:1196   */\ntag_3:\n    /* \"#utility.yul\":915:921   */\n  0x00\n    /* \"#utility.yul\":964:966   */\n  0x20\n    /* \"#utility.yul\":952:961   */\n  dup3\n    /* \"#utility.yul\":943:950   */\n  dup5\n    /* \"#utility.yul\":939:962   */\n  sub\n    /* \"#utility.yul\":935:967   */\n  slt\n    /* \"#utility.yul\":932:1051   */\n  iszero\n  tag_31\n  jumpi\n    /* \"#utility.yul\":970:1049   */\n  tag_32\n  tag_12\n  jump\t// in\ntag_32:\n    /* \"#utility.yul\":932:1051   */\ntag_31:\n    /* \"#utility.yul\":1090:1091   */\n  0x00\n    /* \"#utility.yul\":1115:1179   */\n  tag_33\n    /* \"#utility.yul\":1171:1178   */\n  dup5\n    /* \"#utility.yul\":1162:1168   */\n  dup3\n    /* \"#utility.yul\":1151:1160   */\n  dup6\n    /* \"#utility.yul\":1147:1169   */\n  add\n    /* \"#utility.yul\":1115:1179   */\n  tag_17\n  jump\t// in\ntag_33:\n    /* \"#utility.yul\":1105:1179   */\n  swap2\n  pop\n    /* \"#utility.yul\":1061:1189   */\n  pop\n    /* \"#utility.yul\":845:1196   */\n  swap3\n  swap2\n  pop\n  pop\n  jump\t// out\n    /* \"contracts/BridgeTnt.sol\":89:177  contract BridgeTnt is BridgeBase {... */\ntag_10:\n  dataSize(sub_0)\n  dup1\n  dataOffset(sub_0)\n  0x00\n  codecopy\n  0x00\n  return\nstop\n\nsub_0: assembly {\n        /* \"contracts/BridgeTnt.sol\":89:177  contract BridgeTnt is BridgeBase {... */\n      mstore(0x40, 0x80)\n      callvalue\n      dup1\n      iszero\n      tag_1\n      jumpi\n      0x00\n      dup1\n      revert\n    tag_1:\n      pop\n      jumpi(tag_2, lt(calldatasize, 0x04))\n      shr(0xe0, calldataload(0x00))\n      dup1\n      0x52555702\n      eq\n      tag_3\n      jumpi\n      dup1\n      0x7cc70240\n      eq\n      tag_4\n      jumpi\n      dup1\n      0x8a94b05f\n      eq\n      tag_5\n      jumpi\n      dup1\n      0xf851a440\n      eq\n      tag_6\n      jumpi\n      dup1\n      0xfc0c546a\n      eq\n      tag_7\n      jumpi\n    tag_2:\n      0x00\n      dup1\n      revert\n        /* \"contracts/BridgeBase.sol\":1434:2263  function mint(... */\n    tag_3:\n      tag_8\n      0x04\n      dup1\n      calldatasize\n      sub\n      dup2\n      add\n      swap1\n      tag_9\n      swap2\n      swap1\n      tag_10\n      jump\t// in\n    tag_9:\n      tag_11\n      jump\t// in\n    tag_8:\n      stop\n        /* \"contracts/BridgeBase.sol\":354:418  mapping(address => mapping(uint => bool)) public processedNonces */\n    tag_4:\n      tag_12\n      0x04\n      dup1\n      calldatasize\n      sub\n      dup2\n      add\n      swap1\n      tag_13\n      swap2\n      swap1\n      tag_14\n      jump\t// in\n    tag_13:\n      tag_15\n      jump\t// in\n    tag_12:\n      mload(0x40)\n      tag_16\n      swap2\n      swap1\n      tag_17\n      jump\t// in\n    tag_16:\n      mload(0x40)\n      dup1\n      swap2\n      sub\n      swap1\n      return\n        /* \"contracts/BridgeBase.sol\":756:1428  function burn(... */\n    tag_5:\n      tag_18\n      0x04\n      dup1\n      calldatasize\n      sub\n      dup2\n      add\n      swap1\n      tag_19\n      swap2\n      swap1\n      tag_20\n      jump\t// in\n    tag_19:\n      tag_21\n      jump\t// in\n    tag_18:\n      stop\n        /* \"contracts/BridgeBase.sol\":303:323  address public admin */\n    tag_6:\n      tag_22\n      tag_23\n      jump\t// in\n    tag_22:\n      mload(0x40)\n      tag_24\n      swap2\n      swap1\n      tag_25\n      jump\t// in\n    tag_24:\n      mload(0x40)\n      dup1\n      swap2\n      sub\n      swap1\n      return\n        /* \"contracts/BridgeBase.sol\":329:348  IToken public token */\n    tag_7:\n      tag_26\n      tag_27\n      jump\t// in\n    tag_26:\n      mload(0x40)\n      tag_28\n      swap2\n      swap1\n      tag_29\n      jump\t// in\n    tag_28:\n      mload(0x40)\n      dup1\n      swap2\n      sub\n      swap1\n      return\n        /* \"contracts/BridgeBase.sol\":1434:2263  function mint(... */\n    tag_11:\n        /* \"@openzeppelin/contracts/security/ReentrancyGuard.sol\":2261:2282  _nonReentrantBefore() */\n      tag_31\n        /* \"@openzeppelin/contracts/security/ReentrancyGuard.sol\":2261:2280  _nonReentrantBefore */\n      tag_32\n        /* \"@openzeppelin/contracts/security/ReentrancyGuard.sol\":2261:2282  _nonReentrantBefore() */\n      jump\t// in\n    tag_31:\n        /* \"contracts/BridgeBase.sol\":1941:1946  false */\n      0x00\n        /* \"contracts/BridgeBase.sol\":1909:1946  processedNonces[from][nonce] == false */\n      iszero\n      iszero\n        /* \"contracts/BridgeBase.sol\":1909:1924  processedNonces */\n      0x03\n        /* \"contracts/BridgeBase.sol\":1909:1930  processedNonces[from] */\n      0x00\n        /* \"contracts/BridgeBase.sol\":1925:1929  from */\n      dup9\n        /* \"contracts/BridgeBase.sol\":1909:1930  processedNonces[from] */\n      0xffffffffffffffffffffffffffffffffffffffff\n      and\n      0xffffffffffffffffffffffffffffffffffffffff\n      and\n      dup2\n      mstore\n      0x20\n      add\n      swap1\n      dup2\n      mstore\n      0x20\n      add\n      0x00\n      keccak256\n        /* \"contracts/BridgeBase.sol\":1909:1937  processedNonces[from][nonce] */\n      0x00\n        /* \"contracts/BridgeBase.sol\":1931:1936  nonce */\n      dup6\n        /* \"contracts/BridgeBase.sol\":1909:1937  processedNonces[from][nonce] */\n      dup2\n      mstore\n      0x20\n      add\n      swap1\n      dup2\n      mstore\n      0x20\n      add\n      0x00\n      keccak256\n      0x00\n      swap1\n      sload\n      swap1\n      0x0100\n      exp\n      swap1\n      div\n      0xff\n      and\n        /* \"contracts/BridgeBase.sol\":1909:1946  processedNonces[from][nonce] == false */\n      iszero\n      iszero\n      eq\n        /* \"contracts/BridgeBase.sol\":1888:1998  require(... */\n      tag_34\n      jumpi\n      mload(0x40)\n      0x08c379a000000000000000000000000000000000000000000000000000000000\n      dup2\n      mstore\n      0x04\n      add\n      tag_35\n      swap1\n      tag_36\n      jump\t// in\n    tag_35:\n      mload(0x40)\n      dup1\n      swap2\n      sub\n      swap1\n      revert\n    tag_34:\n        /* \"contracts/BridgeBase.sol\":2039:2043  true */\n      0x01\n        /* \"contracts/BridgeBase.sol\":2008:2023  processedNonces */\n      0x03\n        /* \"contracts/BridgeBase.sol\":2008:2029  processedNonces[from] */\n      0x00\n        /* \"contracts/BridgeBase.sol\":2024:2028  from */\n      dup9\n        /* \"contracts/BridgeBase.sol\":2008:2029  processedNonces[from] */\n      0xffffffffffffffffffffffffffffffffffffffff\n      and\n      0xffffffffffffffffffffffffffffffffffffffff\n      and\n      dup2\n      mstore\n      0x20\n      add\n      swap1\n      dup2\n      mstore\n      0x20\n      add\n      0x00\n      keccak256\n        /* \"contracts/BridgeBase.sol\":2008:2036  processedNonces[from][nonce] */\n      0x00\n        /* \"contracts/BridgeBase.sol\":2030:2035  nonce */\n      dup6\n        /* \"contracts/BridgeBase.sol\":2008:2036  processedNonces[from][nonce] */\n      dup2\n      mstore\n      0x20\n      add\n      swap1\n      dup2\n      mstore\n      0x20\n      add\n      0x00\n      keccak256\n      0x00\n        /* \"contracts/BridgeBase.sol\":2008:2043  processedNonces[from][nonce] = true */\n      0x0100\n      exp\n      dup2\n      sload\n      dup2\n      0xff\n      mul\n      not\n      and\n      swap1\n      dup4\n      iszero\n      iszero\n      mul\n      or\n      swap1\n      sstore\n      pop\n        /* \"contracts/BridgeBase.sol\":2053:2058  token */\n      0x02\n      0x00\n      swap1\n      sload\n      swap1\n      0x0100\n      exp\n      swap1\n      div\n      0xffffffffffffffffffffffffffffffffffffffff\n      and\n        /* \"contracts/BridgeBase.sol\":2053:2063  token.mint */\n      0xffffffffffffffffffffffffffffffffffffffff\n      and\n      0x40c10f19\n        /* \"contracts/BridgeBase.sol\":2064:2066  to */\n      dup7\n        /* \"contracts/BridgeBase.sol\":2068:2074  amount */\n      dup7\n        /* \"contracts/BridgeBase.sol\":2053:2075  token.mint(to, amount) */\n      mload(0x40)\n      dup4\n      0xffffffff\n      and\n      0xe0\n      shl\n      dup2\n      mstore\n      0x04\n      add\n      tag_37\n      swap3\n      swap2\n      swap1\n      tag_38\n      jump\t// in\n    tag_37:\n      0x00\n      mload(0x40)\n      dup1\n      dup4\n      sub\n      dup2\n      0x00\n      dup8\n      dup1\n      extcodesize\n      iszero\n      dup1\n      iszero\n      tag_39\n      jumpi\n      0x00\n      dup1\n      revert\n    tag_39:\n      pop\n      gas\n      call\n      iszero\n      dup1\n      iszero\n      tag_41\n      jumpi\n      returndatasize\n      0x00\n      dup1\n      returndatacopy\n      revert(0x00, returndatasize)\n    tag_41:\n      pop\n      pop\n      pop\n      pop\n        /* \"contracts/BridgeBase.sol\":2237:2246  Step.Mint */\n      0x01\n        /* \"contracts/BridgeBase.sol\":2090:2256  Transfer(... */\n      dup1\n      dup2\n      gt\n      iszero\n      tag_42\n      jumpi\n      tag_43\n      tag_44\n      jump\t// in\n    tag_43:\n    tag_42:\n      0xce5a9b86edd3b998c3948a7934c7ecf7dba73c4c5bcf56cf576bca4aa2beeb30\n        /* \"contracts/BridgeBase.sol\":2112:2116  from */\n      dup8\n        /* \"contracts/BridgeBase.sol\":2130:2132  to */\n      dup8\n        /* \"contracts/BridgeBase.sol\":2146:2152  amount */\n      dup8\n        /* \"contracts/BridgeBase.sol\":2166:2181  block.timestamp */\n      timestamp\n        /* \"contracts/BridgeBase.sol\":2195:2200  nonce */\n      dup9\n        /* \"contracts/BridgeBase.sol\":2214:2223  signature */\n      dup9\n      dup9\n        /* \"contracts/BridgeBase.sol\":2090:2256  Transfer(... */\n      mload(0x40)\n      tag_45\n      swap8\n      swap7\n      swap6\n      swap5\n      swap4\n      swap3\n      swap2\n      swap1\n      tag_46\n      jump\t// in\n    tag_45:\n      mload(0x40)\n      dup1\n      swap2\n      sub\n      swap1\n      log2\n        /* \"@openzeppelin/contracts/security/ReentrancyGuard.sol\":2303:2323  _nonReentrantAfter() */\n      tag_47\n        /* \"@openzeppelin/contracts/security/ReentrancyGuard.sol\":2303:2321  _nonReentrantAfter */\n      tag_48\n        /* \"@openzeppelin/contracts/security/ReentrancyGuard.sol\":2303:2323  _nonReentrantAfter() */\n      jump\t// in\n    tag_47:\n        /* \"contracts/BridgeBase.sol\":1434:2263  function mint(... */\n      pop\n      pop\n      pop\n      pop\n      pop\n      pop\n      jump\t// out\n        /* \"contracts/BridgeBase.sol\":354:418  mapping(address => mapping(uint => bool)) public processedNonces */\n    tag_15:\n      mstore(0x20, 0x03)\n      dup2\n      0x00\n      mstore\n      mstore(0x20, keccak256(0x00, 0x40))\n      dup1\n      0x00\n      mstore\n      keccak256(0x00, 0x40)\n      0x00\n      swap2\n      pop\n      swap2\n      pop\n      swap1\n      sload\n      swap1\n      0x0100\n      exp\n      swap1\n      div\n      0xff\n      and\n      dup2\n      jump\t// out\n        /* \"contracts/BridgeBase.sol\":756:1428  function burn(... */\n    tag_21:\n        /* \"@openzeppelin/contracts/security/ReentrancyGuard.sol\":2261:2282  _nonReentrantBefore() */\n      tag_50\n        /* \"@openzeppelin/contracts/security/ReentrancyGuard.sol\":2261:2280  _nonReentrantBefore */\n      tag_32\n        /* \"@openzeppelin/contracts/security/ReentrancyGuard.sol\":2261:2282  _nonReentrantBefore() */\n      jump\t// in\n    tag_50:\n        /* \"contracts/BridgeBase.sol\":962:967  false */\n      0x00\n        /* \"contracts/BridgeBase.sol\":924:967  processedNonces[msg.sender][nonce] == false */\n      iszero\n      iszero\n        /* \"contracts/BridgeBase.sol\":924:939  processedNonces */\n      0x03\n        /* \"contracts/BridgeBase.sol\":924:951  processedNonces[msg.sender] */\n      0x00\n        /* \"contracts/BridgeBase.sol\":940:950  msg.sender */\n      caller\n        /* \"contracts/BridgeBase.sol\":924:951  processedNonces[msg.sender] */\n      0xffffffffffffffffffffffffffffffffffffffff\n      and\n      0xffffffffffffffffffffffffffffffffffffffff\n      and\n      dup2\n      mstore\n      0x20\n      add\n      swap1\n      dup2\n      mstore\n      0x20\n      add\n      0x00\n      keccak256\n        /* \"contracts/BridgeBase.sol\":924:958  processedNonces[msg.sender][nonce] */\n      0x00\n        /* \"contracts/BridgeBase.sol\":952:957  nonce */\n      dup6\n        /* \"contracts/BridgeBase.sol\":924:958  processedNonces[msg.sender][nonce] */\n      dup2\n      mstore\n      0x20\n      add\n      swap1\n      dup2\n      mstore\n      0x20\n      add\n      0x00\n      keccak256\n      0x00\n      swap1\n      sload\n      swap1\n      0x0100\n      exp\n      swap1\n      div\n      0xff\n      and\n        /* \"contracts/BridgeBase.sol\":924:967  processedNonces[msg.sender][nonce] == false */\n      iszero\n      iszero\n      eq\n        /* \"contracts/BridgeBase.sol\":903:1019  require(... */\n      tag_52\n      jumpi\n      mload(0x40)\n      0x08c379a000000000000000000000000000000000000000000000000000000000\n      dup2\n      mstore\n      0x04\n      add\n      tag_53\n      swap1\n      tag_36\n      jump\t// in\n    tag_53:\n      mload(0x40)\n      dup1\n      swap2\n      sub\n      swap1\n      revert\n    tag_52:\n        /* \"contracts/BridgeBase.sol\":1066:1070  true */\n      0x01\n        /* \"contracts/BridgeBase.sol\":1029:1044  processedNonces */\n      0x03\n        /* \"contracts/BridgeBase.sol\":1029:1056  processedNonces[msg.sender] */\n      0x00\n        /* \"contracts/BridgeBase.sol\":1045:1055  msg.sender */\n      caller\n        /* \"contracts/BridgeBase.sol\":1029:1056  processedNonces[msg.sender] */\n      0xffffffffffffffffffffffffffffffffffffffff\n      and\n      0xffffffffffffffffffffffffffffffffffffffff\n      and\n      dup2\n      mstore\n      0x20\n      add\n      swap1\n      dup2\n      mstore\n      0x20\n      add\n      0x00\n      keccak256\n        /* \"contracts/BridgeBase.sol\":1029:1063  processedNonces[msg.sender][nonce] */\n      0x00\n        /* \"contracts/BridgeBase.sol\":1057:1062  nonce */\n      dup6\n        /* \"contracts/BridgeBase.sol\":1029:1063  processedNonces[msg.sender][nonce] */\n      dup2\n      mstore\n      0x20\n      add\n      swap1\n      dup2\n      mstore\n      0x20\n      add\n      0x00\n      keccak256\n      0x00\n        /* \"contracts/BridgeBase.sol\":1029:1070  processedNonces[msg.sender][nonce] = true */\n      0x0100\n      exp\n      dup2\n      sload\n      dup2\n      0xff\n      mul\n      not\n      and\n      swap1\n      dup4\n      iszero\n      iszero\n      mul\n      or\n      swap1\n      sstore\n      pop\n        /* \"contracts/BridgeBase.sol\":1080:1099  address burnAddress */\n      0x00\n        /* \"contracts/BridgeBase.sol\":1102:1144  0x000000000000000000000000000000000000dEaD */\n      0xdead\n        /* \"contracts/BridgeBase.sol\":1080:1144  address burnAddress = 0x000000000000000000000000000000000000dEaD */\n      swap1\n      pop\n        /* \"contracts/BridgeBase.sol\":1199:1204  token */\n      0x02\n      0x00\n      swap1\n      sload\n      swap1\n      0x0100\n      exp\n      swap1\n      div\n      0xffffffffffffffffffffffffffffffffffffffff\n      and\n        /* \"contracts/BridgeBase.sol\":1199:1213  token.transfer */\n      0xffffffffffffffffffffffffffffffffffffffff\n      and\n      0xa9059cbb\n        /* \"contracts/BridgeBase.sol\":1214:1225  burnAddress */\n      dup3\n        /* \"contracts/BridgeBase.sol\":1227:1233  amount */\n      dup8\n        /* \"contracts/BridgeBase.sol\":1199:1234  token.transfer(burnAddress, amount) */\n      mload(0x40)\n      dup4\n      0xffffffff\n      and\n      0xe0\n      shl\n      dup2\n      mstore\n      0x04\n      add\n      tag_54\n      swap3\n      swap2\n      swap1\n      tag_38\n      jump\t// in\n    tag_54:\n      0x00\n      mload(0x40)\n      dup1\n      dup4\n      sub\n      dup2\n      0x00\n      dup8\n      dup1\n      extcodesize\n      iszero\n      dup1\n      iszero\n      tag_55\n      jumpi\n      0x00\n      dup1\n      revert\n    tag_55:\n      pop\n      gas\n      call\n      iszero\n      dup1\n      iszero\n      tag_57\n      jumpi\n      returndatasize\n      0x00\n      dup1\n      returndatacopy\n      revert(0x00, returndatasize)\n    tag_57:\n      pop\n      pop\n      pop\n      pop\n        /* \"contracts/BridgeBase.sol\":1402:1411  Step.Burn */\n      0x00\n        /* \"contracts/BridgeBase.sol\":1249:1421  Transfer(... */\n      0x01\n      dup2\n      gt\n      iszero\n      tag_58\n      jumpi\n      tag_59\n      tag_44\n      jump\t// in\n    tag_59:\n    tag_58:\n      0xce5a9b86edd3b998c3948a7934c7ecf7dba73c4c5bcf56cf576bca4aa2beeb30\n        /* \"contracts/BridgeBase.sol\":1271:1281  msg.sender */\n      caller\n        /* \"contracts/BridgeBase.sol\":1295:1297  to */\n      dup9\n        /* \"contracts/BridgeBase.sol\":1311:1317  amount */\n      dup9\n        /* \"contracts/BridgeBase.sol\":1331:1346  block.timestamp */\n      timestamp\n        /* \"contracts/BridgeBase.sol\":1360:1365  nonce */\n      dup10\n        /* \"contracts/BridgeBase.sol\":1379:1388  signature */\n      dup10\n      dup10\n        /* \"contracts/BridgeBase.sol\":1249:1421  Transfer(... */\n      mload(0x40)\n      tag_60\n      swap8\n      swap7\n      swap6\n      swap5\n      swap4\n      swap3\n      swap2\n      swap1\n      tag_46\n      jump\t// in\n    tag_60:\n      mload(0x40)\n      dup1\n      swap2\n      sub\n      swap1\n      log2\n        /* \"contracts/BridgeBase.sol\":893:1428  {... */\n      pop\n        /* \"@openzeppelin/contracts/security/ReentrancyGuard.sol\":2303:2323  _nonReentrantAfter() */\n      tag_61\n        /* \"@openzeppelin/contracts/security/ReentrancyGuard.sol\":2303:2321  _nonReentrantAfter */\n      tag_48\n        /* \"@openzeppelin/contracts/security/ReentrancyGuard.sol\":2303:2323  _nonReentrantAfter() */\n      jump\t// in\n    tag_61:\n        /* \"contracts/BridgeBase.sol\":756:1428  function burn(... */\n      pop\n      pop\n      pop\n      pop\n      pop\n      jump\t// out\n        /* \"contracts/BridgeBase.sol\":303:323  address public admin */\n    tag_23:\n      0x01\n      0x00\n      swap1\n      sload\n      swap1\n      0x0100\n      exp\n      swap1\n      div\n      0xffffffffffffffffffffffffffffffffffffffff\n      and\n      dup2\n      jump\t// out\n        /* \"contracts/BridgeBase.sol\":329:348  IToken public token */\n    tag_27:\n      0x02\n      0x00\n      swap1\n      sload\n      swap1\n      0x0100\n      exp\n      swap1\n      div\n      0xffffffffffffffffffffffffffffffffffffffff\n      and\n      dup2\n      jump\t// out\n        /* \"@openzeppelin/contracts/security/ReentrancyGuard.sol\":2336:2623  function _nonReentrantBefore() private {... */\n    tag_32:\n        /* \"@openzeppelin/contracts/security/ReentrancyGuard.sol\":1759:1760  2 */\n      0x02\n        /* \"@openzeppelin/contracts/security/ReentrancyGuard.sol\":2468:2475  _status */\n      sload(0x00)\n        /* \"@openzeppelin/contracts/security/ReentrancyGuard.sol\":2468:2487  _status != _ENTERED */\n      sub\n        /* \"@openzeppelin/contracts/security/ReentrancyGuard.sol\":2460:2523  require(_status != _ENTERED, \"ReentrancyGuard: reentrant call\") */\n      tag_63\n      jumpi\n      mload(0x40)\n      0x08c379a000000000000000000000000000000000000000000000000000000000\n      dup2\n      mstore\n      0x04\n      add\n      tag_64\n      swap1\n      tag_65\n      jump\t// in\n    tag_64:\n      mload(0x40)\n      dup1\n      swap2\n      sub\n      swap1\n      revert\n    tag_63:\n        /* \"@openzeppelin/contracts/security/ReentrancyGuard.sol\":1759:1760  2 */\n      0x02\n        /* \"@openzeppelin/contracts/security/ReentrancyGuard.sol\":2598:2605  _status */\n      0x00\n        /* \"@openzeppelin/contracts/security/ReentrancyGuard.sol\":2598:2616  _status = _ENTERED */\n      dup2\n      swap1\n      sstore\n      pop\n        /* \"@openzeppelin/contracts/security/ReentrancyGuard.sol\":2336:2623  function _nonReentrantBefore() private {... */\n      jump\t// out\n        /* \"@openzeppelin/contracts/security/ReentrancyGuard.sol\":2629:2838  function _nonReentrantAfter() private {... */\n    tag_48:\n        /* \"@openzeppelin/contracts/security/ReentrancyGuard.sol\":1716:1717  1 */\n      0x01\n        /* \"@openzeppelin/contracts/security/ReentrancyGuard.sol\":2809:2816  _status */\n      0x00\n        /* \"@openzeppelin/contracts/security/ReentrancyGuard.sol\":2809:2831  _status = _NOT_ENTERED */\n      dup2\n      swap1\n      sstore\n      pop\n        /* \"@openzeppelin/contracts/security/ReentrancyGuard.sol\":2629:2838  function _nonReentrantAfter() private {... */\n      jump\t// out\n        /* \"#utility.yul\":88:205   */\n    tag_68:\n        /* \"#utility.yul\":197:198   */\n      0x00\n        /* \"#utility.yul\":194:195   */\n      dup1\n        /* \"#utility.yul\":187:199   */\n      revert\n        /* \"#utility.yul\":211:328   */\n    tag_69:\n        /* \"#utility.yul\":320:321   */\n      0x00\n        /* \"#utility.yul\":317:318   */\n      dup1\n        /* \"#utility.yul\":310:322   */\n      revert\n        /* \"#utility.yul\":334:460   */\n    tag_70:\n        /* \"#utility.yul\":371:378   */\n      0x00\n        /* \"#utility.yul\":411:453   */\n      0xffffffffffffffffffffffffffffffffffffffff\n        /* \"#utility.yul\":404:409   */\n      dup3\n        /* \"#utility.yul\":400:454   */\n      and\n        /* \"#utility.yul\":389:454   */\n      swap1\n      pop\n        /* \"#utility.yul\":334:460   */\n      swap2\n      swap1\n      pop\n      jump\t// out\n        /* \"#utility.yul\":466:562   */\n    tag_71:\n        /* \"#utility.yul\":503:510   */\n      0x00\n        /* \"#utility.yul\":532:556   */\n      tag_105\n        /* \"#utility.yul\":550:555   */\n      dup3\n        /* \"#utility.yul\":532:556   */\n      tag_70\n      jump\t// in\n    tag_105:\n        /* \"#utility.yul\":521:556   */\n      swap1\n      pop\n        /* \"#utility.yul\":466:562   */\n      swap2\n      swap1\n      pop\n      jump\t// out\n        /* \"#utility.yul\":568:690   */\n    tag_72:\n        /* \"#utility.yul\":641:665   */\n      tag_107\n        /* \"#utility.yul\":659:664   */\n      dup2\n        /* \"#utility.yul\":641:665   */\n      tag_71\n      jump\t// in\n    tag_107:\n        /* \"#utility.yul\":634:639   */\n      dup2\n        /* \"#utility.yul\":631:666   */\n      eq\n        /* \"#utility.yul\":621:684   */\n      tag_108\n      jumpi\n        /* \"#utility.yul\":680:681   */\n      0x00\n        /* \"#utility.yul\":677:678   */\n      dup1\n        /* \"#utility.yul\":670:682   */\n      revert\n        /* \"#utility.yul\":621:684   */\n    tag_108:\n        /* \"#utility.yul\":568:690   */\n      pop\n      jump\t// out\n        /* \"#utility.yul\":696:835   */\n    tag_73:\n        /* \"#utility.yul\":742:747   */\n      0x00\n        /* \"#utility.yul\":780:786   */\n      dup2\n        /* \"#utility.yul\":767:787   */\n      calldataload\n        /* \"#utility.yul\":758:787   */\n      swap1\n      pop\n        /* \"#utility.yul\":796:829   */\n      tag_110\n        /* \"#utility.yul\":823:828   */\n      dup2\n        /* \"#utility.yul\":796:829   */\n      tag_72\n      jump\t// in\n    tag_110:\n        /* \"#utility.yul\":696:835   */\n      swap3\n      swap2\n      pop\n      pop\n      jump\t// out\n        /* \"#utility.yul\":841:918   */\n    tag_74:\n        /* \"#utility.yul\":878:885   */\n      0x00\n        /* \"#utility.yul\":907:912   */\n      dup2\n        /* \"#utility.yul\":896:912   */\n      swap1\n      pop\n        /* \"#utility.yul\":841:918   */\n      swap2\n      swap1\n      pop\n      jump\t// out\n        /* \"#utility.yul\":924:1046   */\n    tag_75:\n        /* \"#utility.yul\":997:1021   */\n      tag_113\n        /* \"#utility.yul\":1015:1020   */\n      dup2\n        /* \"#utility.yul\":997:1021   */\n      tag_74\n      jump\t// in\n    tag_113:\n        /* \"#utility.yul\":990:995   */\n      dup2\n        /* \"#utility.yul\":987:1022   */\n      eq\n        /* \"#utility.yul\":977:1040   */\n      tag_114\n      jumpi\n        /* \"#utility.yul\":1036:1037   */\n      0x00\n        /* \"#utility.yul\":1033:1034   */\n      dup1\n        /* \"#utility.yul\":1026:1038   */\n      revert\n        /* \"#utility.yul\":977:1040   */\n    tag_114:\n        /* \"#utility.yul\":924:1046   */\n      pop\n      jump\t// out\n        /* \"#utility.yul\":1052:1191   */\n    tag_76:\n        /* \"#utility.yul\":1098:1103   */\n      0x00\n        /* \"#utility.yul\":1136:1142   */\n      dup2\n        /* \"#utility.yul\":1123:1143   */\n      calldataload\n        /* \"#utility.yul\":1114:1143   */\n      swap1\n      pop\n        /* \"#utility.yul\":1152:1185   */\n      tag_116\n        /* \"#utility.yul\":1179:1184   */\n      dup2\n        /* \"#utility.yul\":1152:1185   */\n      tag_75\n      jump\t// in\n    tag_116:\n        /* \"#utility.yul\":1052:1191   */\n      swap3\n      swap2\n      pop\n      pop\n      jump\t// out\n        /* \"#utility.yul\":1197:1314   */\n    tag_77:\n        /* \"#utility.yul\":1306:1307   */\n      0x00\n        /* \"#utility.yul\":1303:1304   */\n      dup1\n        /* \"#utility.yul\":1296:1308   */\n      revert\n        /* \"#utility.yul\":1320:1437   */\n    tag_78:\n        /* \"#utility.yul\":1429:1430   */\n      0x00\n        /* \"#utility.yul\":1426:1427   */\n      dup1\n        /* \"#utility.yul\":1419:1431   */\n      revert\n        /* \"#utility.yul\":1443:1560   */\n    tag_79:\n        /* \"#utility.yul\":1552:1553   */\n      0x00\n        /* \"#utility.yul\":1549:1550   */\n      dup1\n        /* \"#utility.yul\":1542:1554   */\n      revert\n        /* \"#utility.yul\":1579:2131   */\n    tag_80:\n        /* \"#utility.yul\":1636:1644   */\n      0x00\n        /* \"#utility.yul\":1646:1652   */\n      dup1\n        /* \"#utility.yul\":1696:1699   */\n      dup4\n        /* \"#utility.yul\":1689:1693   */\n      0x1f\n        /* \"#utility.yul\":1681:1687   */\n      dup5\n        /* \"#utility.yul\":1677:1694   */\n      add\n        /* \"#utility.yul\":1673:1700   */\n      slt\n        /* \"#utility.yul\":1663:1785   */\n      tag_121\n      jumpi\n        /* \"#utility.yul\":1704:1783   */\n      tag_122\n      tag_77\n      jump\t// in\n    tag_122:\n        /* \"#utility.yul\":1663:1785   */\n    tag_121:\n        /* \"#utility.yul\":1817:1823   */\n      dup3\n        /* \"#utility.yul\":1804:1824   */\n      calldataload\n        /* \"#utility.yul\":1794:1824   */\n      swap1\n      pop\n        /* \"#utility.yul\":1847:1865   */\n      0xffffffffffffffff\n        /* \"#utility.yul\":1839:1845   */\n      dup2\n        /* \"#utility.yul\":1836:1866   */\n      gt\n        /* \"#utility.yul\":1833:1950   */\n      iszero\n      tag_123\n      jumpi\n        /* \"#utility.yul\":1869:1948   */\n      tag_124\n      tag_78\n      jump\t// in\n    tag_124:\n        /* \"#utility.yul\":1833:1950   */\n    tag_123:\n        /* \"#utility.yul\":1983:1987   */\n      0x20\n        /* \"#utility.yul\":1975:1981   */\n      dup4\n        /* \"#utility.yul\":1971:1988   */\n      add\n        /* \"#utility.yul\":1959:1988   */\n      swap2\n      pop\n        /* \"#utility.yul\":2037:2040   */\n      dup4\n        /* \"#utility.yul\":2029:2033   */\n      0x01\n        /* \"#utility.yul\":2021:2027   */\n      dup3\n        /* \"#utility.yul\":2017:2034   */\n      mul\n        /* \"#utility.yul\":2007:2015   */\n      dup4\n        /* \"#utility.yul\":2003:2035   */\n      add\n        /* \"#utility.yul\":2000:2041   */\n      gt\n        /* \"#utility.yul\":1997:2125   */\n      iszero\n      tag_125\n      jumpi\n        /* \"#utility.yul\":2044:2123   */\n      tag_126\n      tag_79\n      jump\t// in\n    tag_126:\n        /* \"#utility.yul\":1997:2125   */\n    tag_125:\n        /* \"#utility.yul\":1579:2131   */\n      swap3\n      pop\n      swap3\n      swap1\n      pop\n      jump\t// out\n        /* \"#utility.yul\":2137:3246   */\n    tag_10:\n        /* \"#utility.yul\":2243:2249   */\n      0x00\n        /* \"#utility.yul\":2251:2257   */\n      dup1\n        /* \"#utility.yul\":2259:2265   */\n      0x00\n        /* \"#utility.yul\":2267:2273   */\n      dup1\n        /* \"#utility.yul\":2275:2281   */\n      0x00\n        /* \"#utility.yul\":2283:2289   */\n      dup1\n        /* \"#utility.yul\":2332:2335   */\n      0xa0\n        /* \"#utility.yul\":2320:2329   */\n      dup8\n        /* \"#utility.yul\":2311:2318   */\n      dup10\n        /* \"#utility.yul\":2307:2330   */\n      sub\n        /* \"#utility.yul\":2303:2336   */\n      slt\n        /* \"#utility.yul\":2300:2420   */\n      iszero\n      tag_128\n      jumpi\n        /* \"#utility.yul\":2339:2418   */\n      tag_129\n      tag_68\n      jump\t// in\n    tag_129:\n        /* \"#utility.yul\":2300:2420   */\n    tag_128:\n        /* \"#utility.yul\":2459:2460   */\n      0x00\n        /* \"#utility.yul\":2484:2537   */\n      tag_130\n        /* \"#utility.yul\":2529:2536   */\n      dup10\n        /* \"#utility.yul\":2520:2526   */\n      dup3\n        /* \"#utility.yul\":2509:2518   */\n      dup11\n        /* \"#utility.yul\":2505:2527   */\n      add\n        /* \"#utility.yul\":2484:2537   */\n      tag_73\n      jump\t// in\n    tag_130:\n        /* \"#utility.yul\":2474:2537   */\n      swap7\n      pop\n        /* \"#utility.yul\":2430:2547   */\n      pop\n        /* \"#utility.yul\":2586:2588   */\n      0x20\n        /* \"#utility.yul\":2612:2665   */\n      tag_131\n        /* \"#utility.yul\":2657:2664   */\n      dup10\n        /* \"#utility.yul\":2648:2654   */\n      dup3\n        /* \"#utility.yul\":2637:2646   */\n      dup11\n        /* \"#utility.yul\":2633:2655   */\n      add\n        /* \"#utility.yul\":2612:2665   */\n      tag_73\n      jump\t// in\n    tag_131:\n        /* \"#utility.yul\":2602:2665   */\n      swap6\n      pop\n        /* \"#utility.yul\":2557:2675   */\n      pop\n        /* \"#utility.yul\":2714:2716   */\n      0x40\n        /* \"#utility.yul\":2740:2793   */\n      tag_132\n        /* \"#utility.yul\":2785:2792   */\n      dup10\n        /* \"#utility.yul\":2776:2782   */\n      dup3\n        /* \"#utility.yul\":2765:2774   */\n      dup11\n        /* \"#utility.yul\":2761:2783   */\n      add\n        /* \"#utility.yul\":2740:2793   */\n      tag_76\n      jump\t// in\n    tag_132:\n        /* \"#utility.yul\":2730:2793   */\n      swap5\n      pop\n        /* \"#utility.yul\":2685:2803   */\n      pop\n        /* \"#utility.yul\":2842:2844   */\n      0x60\n        /* \"#utility.yul\":2868:2921   */\n      tag_133\n        /* \"#utility.yul\":2913:2920   */\n      dup10\n        /* \"#utility.yul\":2904:2910   */\n      dup3\n        /* \"#utility.yul\":2893:2902   */\n      dup11\n        /* \"#utility.yul\":2889:2911   */\n      add\n        /* \"#utility.yul\":2868:2921   */\n      tag_76\n      jump\t// in\n    tag_133:\n        /* \"#utility.yul\":2858:2921   */\n      swap4\n      pop\n        /* \"#utility.yul\":2813:2931   */\n      pop\n        /* \"#utility.yul\":2998:3001   */\n      0x80\n        /* \"#utility.yul\":2987:2996   */\n      dup8\n        /* \"#utility.yul\":2983:3002   */\n      add\n        /* \"#utility.yul\":2970:3003   */\n      calldataload\n        /* \"#utility.yul\":3030:3048   */\n      0xffffffffffffffff\n        /* \"#utility.yul\":3022:3028   */\n      dup2\n        /* \"#utility.yul\":3019:3049   */\n      gt\n        /* \"#utility.yul\":3016:3133   */\n      iszero\n      tag_134\n      jumpi\n        /* \"#utility.yul\":3052:3131   */\n      tag_135\n      tag_69\n      jump\t// in\n    tag_135:\n        /* \"#utility.yul\":3016:3133   */\n    tag_134:\n        /* \"#utility.yul\":3165:3229   */\n      tag_136\n        /* \"#utility.yul\":3221:3228   */\n      dup10\n        /* \"#utility.yul\":3212:3218   */\n      dup3\n        /* \"#utility.yul\":3201:3210   */\n      dup11\n        /* \"#utility.yul\":3197:3219   */\n      add\n        /* \"#utility.yul\":3165:3229   */\n      tag_80\n      jump\t// in\n    tag_136:\n        /* \"#utility.yul\":3147:3229   */\n      swap3\n      pop\n      swap3\n      pop\n        /* \"#utility.yul\":2941:3239   */\n      pop\n        /* \"#utility.yul\":2137:3246   */\n      swap3\n      swap6\n      pop\n      swap3\n      swap6\n      pop\n      swap3\n      swap6\n      jump\t// out\n        /* \"#utility.yul\":3252:3726   */\n    tag_14:\n        /* \"#utility.yul\":3320:3326   */\n      0x00\n        /* \"#utility.yul\":3328:3334   */\n      dup1\n        /* \"#utility.yul\":3377:3379   */\n      0x40\n        /* \"#utility.yul\":3365:3374   */\n      dup4\n        /* \"#utility.yul\":3356:3363   */\n      dup6\n        /* \"#utility.yul\":3352:3375   */\n      sub\n        /* \"#utility.yul\":3348:3380   */\n      slt\n        /* \"#utility.yul\":3345:3464   */\n      iszero\n      tag_138\n      jumpi\n        /* \"#utility.yul\":3383:3462   */\n      tag_139\n      tag_68\n      jump\t// in\n    tag_139:\n        /* \"#utility.yul\":3345:3464   */\n    tag_138:\n        /* \"#utility.yul\":3503:3504   */\n      0x00\n        /* \"#utility.yul\":3528:3581   */\n      tag_140\n        /* \"#utility.yul\":3573:3580   */\n      dup6\n        /* \"#utility.yul\":3564:3570   */\n      dup3\n        /* \"#utility.yul\":3553:3562   */\n      dup7\n        /* \"#utility.yul\":3549:3571   */\n      add\n        /* \"#utility.yul\":3528:3581   */\n      tag_73\n      jump\t// in\n    tag_140:\n        /* \"#utility.yul\":3518:3581   */\n      swap3\n      pop\n        /* \"#utility.yul\":3474:3591   */\n      pop\n        /* \"#utility.yul\":3630:3632   */\n      0x20\n        /* \"#utility.yul\":3656:3709   */\n      tag_141\n        /* \"#utility.yul\":3701:3708   */\n      dup6\n        /* \"#utility.yul\":3692:3698   */\n      dup3\n        /* \"#utility.yul\":3681:3690   */\n      dup7\n        /* \"#utility.yul\":3677:3699   */\n      add\n        /* \"#utility.yul\":3656:3709   */\n      tag_76\n      jump\t// in\n    tag_141:\n        /* \"#utility.yul\":3646:3709   */\n      swap2\n      pop\n        /* \"#utility.yul\":3601:3719   */\n      pop\n        /* \"#utility.yul\":3252:3726   */\n      swap3\n      pop\n      swap3\n      swap1\n      pop\n      jump\t// out\n        /* \"#utility.yul\":3732:3822   */\n    tag_81:\n        /* \"#utility.yul\":3766:3773   */\n      0x00\n        /* \"#utility.yul\":3809:3814   */\n      dup2\n        /* \"#utility.yul\":3802:3815   */\n      iszero\n        /* \"#utility.yul\":3795:3816   */\n      iszero\n        /* \"#utility.yul\":3784:3816   */\n      swap1\n      pop\n        /* \"#utility.yul\":3732:3822   */\n      swap2\n      swap1\n      pop\n      jump\t// out\n        /* \"#utility.yul\":3828:3937   */\n    tag_82:\n        /* \"#utility.yul\":3909:3930   */\n      tag_144\n        /* \"#utility.yul\":3924:3929   */\n      dup2\n        /* \"#utility.yul\":3909:3930   */\n      tag_81\n      jump\t// in\n    tag_144:\n        /* \"#utility.yul\":3904:3907   */\n      dup3\n        /* \"#utility.yul\":3897:3931   */\n      mstore\n        /* \"#utility.yul\":3828:3937   */\n      pop\n      pop\n      jump\t// out\n        /* \"#utility.yul\":3943:4153   */\n    tag_17:\n        /* \"#utility.yul\":4030:4034   */\n      0x00\n        /* \"#utility.yul\":4068:4070   */\n      0x20\n        /* \"#utility.yul\":4057:4066   */\n      dup3\n        /* \"#utility.yul\":4053:4071   */\n      add\n        /* \"#utility.yul\":4045:4071   */\n      swap1\n      pop\n        /* \"#utility.yul\":4081:4146   */\n      tag_146\n        /* \"#utility.yul\":4143:4144   */\n      0x00\n        /* \"#utility.yul\":4132:4141   */\n      dup4\n        /* \"#utility.yul\":4128:4145   */\n      add\n        /* \"#utility.yul\":4119:4125   */\n      dup5\n        /* \"#utility.yul\":4081:4146   */\n      tag_82\n      jump\t// in\n    tag_146:\n        /* \"#utility.yul\":3943:4153   */\n      swap3\n      swap2\n      pop\n      pop\n      jump\t// out\n        /* \"#utility.yul\":4159:5122   */\n    tag_20:\n        /* \"#utility.yul\":4256:4262   */\n      0x00\n        /* \"#utility.yul\":4264:4270   */\n      dup1\n        /* \"#utility.yul\":4272:4278   */\n      0x00\n        /* \"#utility.yul\":4280:4286   */\n      dup1\n        /* \"#utility.yul\":4288:4294   */\n      0x00\n        /* \"#utility.yul\":4337:4340   */\n      0x80\n        /* \"#utility.yul\":4325:4334   */\n      dup7\n        /* \"#utility.yul\":4316:4323   */\n      dup9\n        /* \"#utility.yul\":4312:4335   */\n      sub\n        /* \"#utility.yul\":4308:4341   */\n      slt\n        /* \"#utility.yul\":4305:4425   */\n      iszero\n      tag_148\n      jumpi\n        /* \"#utility.yul\":4344:4423   */\n      tag_149\n      tag_68\n      jump\t// in\n    tag_149:\n        /* \"#utility.yul\":4305:4425   */\n    tag_148:\n        /* \"#utility.yul\":4464:4465   */\n      0x00\n        /* \"#utility.yul\":4489:4542   */\n      tag_150\n        /* \"#utility.yul\":4534:4541   */\n      dup9\n        /* \"#utility.yul\":4525:4531   */\n      dup3\n        /* \"#utility.yul\":4514:4523   */\n      dup10\n        /* \"#utility.yul\":4510:4532   */\n      add\n        /* \"#utility.yul\":4489:4542   */\n      tag_73\n      jump\t// in\n    tag_150:\n        /* \"#utility.yul\":4479:4542   */\n      swap6\n      pop\n        /* \"#utility.yul\":4435:4552   */\n      pop\n        /* \"#utility.yul\":4591:4593   */\n      0x20\n        /* \"#utility.yul\":4617:4670   */\n      tag_151\n        /* \"#utility.yul\":4662:4669   */\n      dup9\n        /* \"#utility.yul\":4653:4659   */\n      dup3\n        /* \"#utility.yul\":4642:4651   */\n      dup10\n        /* \"#utility.yul\":4638:4660   */\n      add\n        /* \"#utility.yul\":4617:4670   */\n      tag_76\n      jump\t// in\n    tag_151:\n        /* \"#utility.yul\":4607:4670   */\n      swap5\n      pop\n        /* \"#utility.yul\":4562:4680   */\n      pop\n        /* \"#utility.yul\":4719:4721   */\n      0x40\n        /* \"#utility.yul\":4745:4798   */\n      tag_152\n        /* \"#utility.yul\":4790:4797   */\n      dup9\n        /* \"#utility.yul\":4781:4787   */\n      dup3\n        /* \"#utility.yul\":4770:4779   */\n      dup10\n        /* \"#utility.yul\":4766:4788   */\n      add\n        /* \"#utility.yul\":4745:4798   */\n      tag_76\n      jump\t// in\n    tag_152:\n        /* \"#utility.yul\":4735:4798   */\n      swap4\n      pop\n        /* \"#utility.yul\":4690:4808   */\n      pop\n        /* \"#utility.yul\":4875:4877   */\n      0x60\n        /* \"#utility.yul\":4864:4873   */\n      dup7\n        /* \"#utility.yul\":4860:4878   */\n      add\n        /* \"#utility.yul\":4847:4879   */\n      calldataload\n        /* \"#utility.yul\":4906:4924   */\n      0xffffffffffffffff\n        /* \"#utility.yul\":4898:4904   */\n      dup2\n        /* \"#utility.yul\":4895:4925   */\n      gt\n        /* \"#utility.yul\":4892:5009   */\n      iszero\n      tag_153\n      jumpi\n        /* \"#utility.yul\":4928:5007   */\n      tag_154\n      tag_69\n      jump\t// in\n    tag_154:\n        /* \"#utility.yul\":4892:5009   */\n    tag_153:\n        /* \"#utility.yul\":5041:5105   */\n      tag_155\n        /* \"#utility.yul\":5097:5104   */\n      dup9\n        /* \"#utility.yul\":5088:5094   */\n      dup3\n        /* \"#utility.yul\":5077:5086   */\n      dup10\n        /* \"#utility.yul\":5073:5095   */\n      add\n        /* \"#utility.yul\":5041:5105   */\n      tag_80\n      jump\t// in\n    tag_155:\n        /* \"#utility.yul\":5023:5105   */\n      swap3\n      pop\n      swap3\n      pop\n        /* \"#utility.yul\":4818:5115   */\n      pop\n        /* \"#utility.yul\":4159:5122   */\n      swap3\n      swap6\n      pop\n      swap3\n      swap6\n      swap1\n      swap4\n      pop\n      jump\t// out\n        /* \"#utility.yul\":5128:5246   */\n    tag_83:\n        /* \"#utility.yul\":5215:5239   */\n      tag_157\n        /* \"#utility.yul\":5233:5238   */\n      dup2\n        /* \"#utility.yul\":5215:5239   */\n      tag_71\n      jump\t// in\n    tag_157:\n        /* \"#utility.yul\":5210:5213   */\n      dup3\n        /* \"#utility.yul\":5203:5240   */\n      mstore\n        /* \"#utility.yul\":5128:5246   */\n      pop\n      pop\n      jump\t// out\n        /* \"#utility.yul\":5252:5474   */\n    tag_25:\n        /* \"#utility.yul\":5345:5349   */\n      0x00\n        /* \"#utility.yul\":5383:5385   */\n      0x20\n        /* \"#utility.yul\":5372:5381   */\n      dup3\n        /* \"#utility.yul\":5368:5386   */\n      add\n        /* \"#utility.yul\":5360:5386   */\n      swap1\n      pop\n        /* \"#utility.yul\":5396:5467   */\n      tag_159\n        /* \"#utility.yul\":5464:5465   */\n      0x00\n        /* \"#utility.yul\":5453:5462   */\n      dup4\n        /* \"#utility.yul\":5449:5466   */\n      add\n        /* \"#utility.yul\":5440:5446   */\n      dup5\n        /* \"#utility.yul\":5396:5467   */\n      tag_83\n      jump\t// in\n    tag_159:\n        /* \"#utility.yul\":5252:5474   */\n      swap3\n      swap2\n      pop\n      pop\n      jump\t// out\n        /* \"#utility.yul\":5480:5540   */\n    tag_84:\n        /* \"#utility.yul\":5508:5511   */\n      0x00\n        /* \"#utility.yul\":5529:5534   */\n      dup2\n        /* \"#utility.yul\":5522:5534   */\n      swap1\n      pop\n        /* \"#utility.yul\":5480:5540   */\n      swap2\n      swap1\n      pop\n      jump\t// out\n        /* \"#utility.yul\":5546:5688   */\n    tag_85:\n        /* \"#utility.yul\":5596:5605   */\n      0x00\n        /* \"#utility.yul\":5629:5682   */\n      tag_162\n        /* \"#utility.yul\":5647:5681   */\n      tag_163\n        /* \"#utility.yul\":5656:5680   */\n      tag_164\n        /* \"#utility.yul\":5674:5679   */\n      dup5\n        /* \"#utility.yul\":5656:5680   */\n      tag_70\n      jump\t// in\n    tag_164:\n        /* \"#utility.yul\":5647:5681   */\n      tag_84\n      jump\t// in\n    tag_163:\n        /* \"#utility.yul\":5629:5682   */\n      tag_70\n      jump\t// in\n    tag_162:\n        /* \"#utility.yul\":5616:5682   */\n      swap1\n      pop\n        /* \"#utility.yul\":5546:5688   */\n      swap2\n      swap1\n      pop\n      jump\t// out\n        /* \"#utility.yul\":5694:5820   */\n    tag_86:\n        /* \"#utility.yul\":5744:5753   */\n      0x00\n        /* \"#utility.yul\":5777:5814   */\n      tag_166\n        /* \"#utility.yul\":5808:5813   */\n      dup3\n        /* \"#utility.yul\":5777:5814   */\n      tag_85\n      jump\t// in\n    tag_166:\n        /* \"#utility.yul\":5764:5814   */\n      swap1\n      pop\n        /* \"#utility.yul\":5694:5820   */\n      swap2\n      swap1\n      pop\n      jump\t// out\n        /* \"#utility.yul\":5826:5966   */\n    tag_87:\n        /* \"#utility.yul\":5890:5899   */\n      0x00\n        /* \"#utility.yul\":5923:5960   */\n      tag_168\n        /* \"#utility.yul\":5954:5959   */\n      dup3\n        /* \"#utility.yul\":5923:5960   */\n      tag_86\n      jump\t// in\n    tag_168:\n        /* \"#utility.yul\":5910:5960   */\n      swap1\n      pop\n        /* \"#utility.yul\":5826:5966   */\n      swap2\n      swap1\n      pop\n      jump\t// out\n        /* \"#utility.yul\":5972:6131   */\n    tag_88:\n        /* \"#utility.yul\":6073:6124   */\n      tag_170\n        /* \"#utility.yul\":6118:6123   */\n      dup2\n        /* \"#utility.yul\":6073:6124   */\n      tag_87\n      jump\t// in\n    tag_170:\n        /* \"#utility.yul\":6068:6071   */\n      dup3\n        /* \"#utility.yul\":6061:6125   */\n      mstore\n        /* \"#utility.yul\":5972:6131   */\n      pop\n      pop\n      jump\t// out\n        /* \"#utility.yul\":6137:6387   */\n    tag_29:\n        /* \"#utility.yul\":6244:6248   */\n      0x00\n        /* \"#utility.yul\":6282:6284   */\n      0x20\n        /* \"#utility.yul\":6271:6280   */\n      dup3\n        /* \"#utility.yul\":6267:6285   */\n      add\n        /* \"#utility.yul\":6259:6285   */\n      swap1\n      pop\n        /* \"#utility.yul\":6295:6380   */\n      tag_172\n        /* \"#utility.yul\":6377:6378   */\n      0x00\n        /* \"#utility.yul\":6366:6375   */\n      dup4\n        /* \"#utility.yul\":6362:6379   */\n      add\n        /* \"#utility.yul\":6353:6359   */\n      dup5\n        /* \"#utility.yul\":6295:6380   */\n      tag_88\n      jump\t// in\n    tag_172:\n        /* \"#utility.yul\":6137:6387   */\n      swap3\n      swap2\n      pop\n      pop\n      jump\t// out\n        /* \"#utility.yul\":6393:6562   */\n    tag_89:\n        /* \"#utility.yul\":6477:6488   */\n      0x00\n        /* \"#utility.yul\":6511:6517   */\n      dup3\n        /* \"#utility.yul\":6506:6509   */\n      dup3\n        /* \"#utility.yul\":6499:6518   */\n      mstore\n        /* \"#utility.yul\":6551:6555   */\n      0x20\n        /* \"#utility.yul\":6546:6549   */\n      dup3\n        /* \"#utility.yul\":6542:6556   */\n      add\n        /* \"#utility.yul\":6527:6556   */\n      swap1\n      pop\n        /* \"#utility.yul\":6393:6562   */\n      swap3\n      swap2\n      pop\n      pop\n      jump\t// out\n        /* \"#utility.yul\":6568:6744   */\n    tag_90:\n        /* \"#utility.yul\":6708:6736   */\n      0x7472616e7366657220616c72656164792070726f636573736564000000000000\n        /* \"#utility.yul\":6704:6705   */\n      0x00\n        /* \"#utility.yul\":6696:6702   */\n      dup3\n        /* \"#utility.yul\":6692:6706   */\n      add\n        /* \"#utility.yul\":6685:6737   */\n      mstore\n        /* \"#utility.yul\":6568:6744   */\n      pop\n      jump\t// out\n        /* \"#utility.yul\":6750:7116   */\n    tag_91:\n        /* \"#utility.yul\":6892:6895   */\n      0x00\n        /* \"#utility.yul\":6913:6980   */\n      tag_176\n        /* \"#utility.yul\":6977:6979   */\n      0x1a\n        /* \"#utility.yul\":6972:6975   */\n      dup4\n        /* \"#utility.yul\":6913:6980   */\n      tag_89\n      jump\t// in\n    tag_176:\n        /* \"#utility.yul\":6906:6980   */\n      swap2\n      pop\n        /* \"#utility.yul\":6989:7082   */\n      tag_177\n        /* \"#utility.yul\":7078:7081   */\n      dup3\n        /* \"#utility.yul\":6989:7082   */\n      tag_90\n      jump\t// in\n    tag_177:\n        /* \"#utility.yul\":7107:7109   */\n      0x20\n        /* \"#utility.yul\":7102:7105   */\n      dup3\n        /* \"#utility.yul\":7098:7110   */\n      add\n        /* \"#utility.yul\":7091:7110   */\n      swap1\n      pop\n        /* \"#utility.yul\":6750:7116   */\n      swap2\n      swap1\n      pop\n      jump\t// out\n        /* \"#utility.yul\":7122:7541   */\n    tag_36:\n        /* \"#utility.yul\":7288:7292   */\n      0x00\n        /* \"#utility.yul\":7326:7328   */\n      0x20\n        /* \"#utility.yul\":7315:7324   */\n      dup3\n        /* \"#utility.yul\":7311:7329   */\n      add\n        /* \"#utility.yul\":7303:7329   */\n      swap1\n      pop\n        /* \"#utility.yul\":7375:7384   */\n      dup2\n        /* \"#utility.yul\":7369:7373   */\n      dup2\n        /* \"#utility.yul\":7365:7385   */\n      sub\n        /* \"#utility.yul\":7361:7362   */\n      0x00\n        /* \"#utility.yul\":7350:7359   */\n      dup4\n        /* \"#utility.yul\":7346:7363   */\n      add\n        /* \"#utility.yul\":7339:7386   */\n      mstore\n        /* \"#utility.yul\":7403:7534   */\n      tag_179\n        /* \"#utility.yul\":7529:7533   */\n      dup2\n        /* \"#utility.yul\":7403:7534   */\n      tag_91\n      jump\t// in\n    tag_179:\n        /* \"#utility.yul\":7395:7534   */\n      swap1\n      pop\n        /* \"#utility.yul\":7122:7541   */\n      swap2\n      swap1\n      pop\n      jump\t// out\n        /* \"#utility.yul\":7547:7665   */\n    tag_92:\n        /* \"#utility.yul\":7634:7658   */\n      tag_181\n        /* \"#utility.yul\":7652:7657   */\n      dup2\n        /* \"#utility.yul\":7634:7658   */\n      tag_74\n      jump\t// in\n    tag_181:\n        /* \"#utility.yul\":7629:7632   */\n      dup3\n        /* \"#utility.yul\":7622:7659   */\n      mstore\n        /* \"#utility.yul\":7547:7665   */\n      pop\n      pop\n      jump\t// out\n        /* \"#utility.yul\":7671:8003   */\n    tag_38:\n        /* \"#utility.yul\":7792:7796   */\n      0x00\n        /* \"#utility.yul\":7830:7832   */\n      0x40\n        /* \"#utility.yul\":7819:7828   */\n      dup3\n        /* \"#utility.yul\":7815:7833   */\n      add\n        /* \"#utility.yul\":7807:7833   */\n      swap1\n      pop\n        /* \"#utility.yul\":7843:7914   */\n      tag_183\n        /* \"#utility.yul\":7911:7912   */\n      0x00\n        /* \"#utility.yul\":7900:7909   */\n      dup4\n        /* \"#utility.yul\":7896:7913   */\n      add\n        /* \"#utility.yul\":7887:7893   */\n      dup6\n        /* \"#utility.yul\":7843:7914   */\n      tag_83\n      jump\t// in\n    tag_183:\n        /* \"#utility.yul\":7924:7996   */\n      tag_184\n        /* \"#utility.yul\":7992:7994   */\n      0x20\n        /* \"#utility.yul\":7981:7990   */\n      dup4\n        /* \"#utility.yul\":7977:7995   */\n      add\n        /* \"#utility.yul\":7968:7974   */\n      dup5\n        /* \"#utility.yul\":7924:7996   */\n      tag_92\n      jump\t// in\n    tag_184:\n        /* \"#utility.yul\":7671:8003   */\n      swap4\n      swap3\n      pop\n      pop\n      pop\n      jump\t// out\n        /* \"#utility.yul\":8009:8189   */\n    tag_44:\n        /* \"#utility.yul\":8057:8134   */\n      0x4e487b7100000000000000000000000000000000000000000000000000000000\n        /* \"#utility.yul\":8054:8055   */\n      0x00\n        /* \"#utility.yul\":8047:8135   */\n      mstore\n        /* \"#utility.yul\":8154:8158   */\n      0x21\n        /* \"#utility.yul\":8151:8152   */\n      0x04\n        /* \"#utility.yul\":8144:8159   */\n      mstore\n        /* \"#utility.yul\":8178:8182   */\n      0x24\n        /* \"#utility.yul\":8175:8176   */\n      0x00\n        /* \"#utility.yul\":8168:8183   */\n      revert\n        /* \"#utility.yul\":8195:8363   */\n    tag_93:\n        /* \"#utility.yul\":8278:8289   */\n      0x00\n        /* \"#utility.yul\":8312:8318   */\n      dup3\n        /* \"#utility.yul\":8307:8310   */\n      dup3\n        /* \"#utility.yul\":8300:8319   */\n      mstore\n        /* \"#utility.yul\":8352:8356   */\n      0x20\n        /* \"#utility.yul\":8347:8350   */\n      dup3\n        /* \"#utility.yul\":8343:8357   */\n      add\n        /* \"#utility.yul\":8328:8357   */\n      swap1\n      pop\n        /* \"#utility.yul\":8195:8363   */\n      swap3\n      swap2\n      pop\n      pop\n      jump\t// out\n        /* \"#utility.yul\":8369:8515   */\n    tag_94:\n        /* \"#utility.yul\":8466:8472   */\n      dup3\n        /* \"#utility.yul\":8461:8464   */\n      dup2\n        /* \"#utility.yul\":8456:8459   */\n      dup4\n        /* \"#utility.yul\":8443:8473   */\n      calldatacopy\n        /* \"#utility.yul\":8507:8508   */\n      0x00\n        /* \"#utility.yul\":8498:8504   */\n      dup4\n        /* \"#utility.yul\":8493:8496   */\n      dup4\n        /* \"#utility.yul\":8489:8505   */\n      add\n        /* \"#utility.yul\":8482:8509   */\n      mstore\n        /* \"#utility.yul\":8369:8515   */\n      pop\n      pop\n      pop\n      jump\t// out\n        /* \"#utility.yul\":8521:8623   */\n    tag_95:\n        /* \"#utility.yul\":8562:8568   */\n      0x00\n        /* \"#utility.yul\":8613:8615   */\n      0x1f\n        /* \"#utility.yul\":8609:8616   */\n      not\n        /* \"#utility.yul\":8604:8606   */\n      0x1f\n        /* \"#utility.yul\":8597:8602   */\n      dup4\n        /* \"#utility.yul\":8593:8607   */\n      add\n        /* \"#utility.yul\":8589:8617   */\n      and\n        /* \"#utility.yul\":8579:8617   */\n      swap1\n      pop\n        /* \"#utility.yul\":8521:8623   */\n      swap2\n      swap1\n      pop\n      jump\t// out\n        /* \"#utility.yul\":8651:8965   */\n    tag_96:\n        /* \"#utility.yul\":8747:8750   */\n      0x00\n        /* \"#utility.yul\":8768:8838   */\n      tag_190\n        /* \"#utility.yul\":8831:8837   */\n      dup4\n        /* \"#utility.yul\":8826:8829   */\n      dup6\n        /* \"#utility.yul\":8768:8838   */\n      tag_93\n      jump\t// in\n    tag_190:\n        /* \"#utility.yul\":8761:8838   */\n      swap4\n      pop\n        /* \"#utility.yul\":8848:8904   */\n      tag_191\n        /* \"#utility.yul\":8897:8903   */\n      dup4\n        /* \"#utility.yul\":8892:8895   */\n      dup6\n        /* \"#utility.yul\":8885:8890   */\n      dup5\n        /* \"#utility.yul\":8848:8904   */\n      tag_94\n      jump\t// in\n    tag_191:\n        /* \"#utility.yul\":8929:8958   */\n      tag_192\n        /* \"#utility.yul\":8951:8957   */\n      dup4\n        /* \"#utility.yul\":8929:8958   */\n      tag_95\n      jump\t// in\n    tag_192:\n        /* \"#utility.yul\":8924:8927   */\n      dup5\n        /* \"#utility.yul\":8920:8959   */\n      add\n        /* \"#utility.yul\":8913:8959   */\n      swap1\n      pop\n        /* \"#utility.yul\":8651:8965   */\n      swap4\n      swap3\n      pop\n      pop\n      pop\n      jump\t// out\n        /* \"#utility.yul\":8971:9853   */\n    tag_46:\n        /* \"#utility.yul\":9232:9236   */\n      0x00\n        /* \"#utility.yul\":9270:9273   */\n      0xc0\n        /* \"#utility.yul\":9259:9268   */\n      dup3\n        /* \"#utility.yul\":9255:9274   */\n      add\n        /* \"#utility.yul\":9247:9274   */\n      swap1\n      pop\n        /* \"#utility.yul\":9284:9355   */\n      tag_194\n        /* \"#utility.yul\":9352:9353   */\n      0x00\n        /* \"#utility.yul\":9341:9350   */\n      dup4\n        /* \"#utility.yul\":9337:9354   */\n      add\n        /* \"#utility.yul\":9328:9334   */\n      dup11\n        /* \"#utility.yul\":9284:9355   */\n      tag_83\n      jump\t// in\n    tag_194:\n        /* \"#utility.yul\":9365:9437   */\n      tag_195\n        /* \"#utility.yul\":9433:9435   */\n      0x20\n        /* \"#utility.yul\":9422:9431   */\n      dup4\n        /* \"#utility.yul\":9418:9436   */\n      add\n        /* \"#utility.yul\":9409:9415   */\n      dup10\n        /* \"#utility.yul\":9365:9437   */\n      tag_83\n      jump\t// in\n    tag_195:\n        /* \"#utility.yul\":9447:9519   */\n      tag_196\n        /* \"#utility.yul\":9515:9517   */\n      0x40\n        /* \"#utility.yul\":9504:9513   */\n      dup4\n        /* \"#utility.yul\":9500:9518   */\n      add\n        /* \"#utility.yul\":9491:9497   */\n      dup9\n        /* \"#utility.yul\":9447:9519   */\n      tag_92\n      jump\t// in\n    tag_196:\n        /* \"#utility.yul\":9529:9601   */\n      tag_197\n        /* \"#utility.yul\":9597:9599   */\n      0x60\n        /* \"#utility.yul\":9586:9595   */\n      dup4\n        /* \"#utility.yul\":9582:9600   */\n      add\n        /* \"#utility.yul\":9573:9579   */\n      dup8\n        /* \"#utility.yul\":9529:9601   */\n      tag_92\n      jump\t// in\n    tag_197:\n        /* \"#utility.yul\":9611:9684   */\n      tag_198\n        /* \"#utility.yul\":9679:9682   */\n      0x80\n        /* \"#utility.yul\":9668:9677   */\n      dup4\n        /* \"#utility.yul\":9664:9683   */\n      add\n        /* \"#utility.yul\":9655:9661   */\n      dup7\n        /* \"#utility.yul\":9611:9684   */\n      tag_92\n      jump\t// in\n    tag_198:\n        /* \"#utility.yul\":9732:9741   */\n      dup2\n        /* \"#utility.yul\":9726:9730   */\n      dup2\n        /* \"#utility.yul\":9722:9742   */\n      sub\n        /* \"#utility.yul\":9716:9719   */\n      0xa0\n        /* \"#utility.yul\":9705:9714   */\n      dup4\n        /* \"#utility.yul\":9701:9720   */\n      add\n        /* \"#utility.yul\":9694:9743   */\n      mstore\n        /* \"#utility.yul\":9760:9846   */\n      tag_199\n        /* \"#utility.yul\":9841:9845   */\n      dup2\n        /* \"#utility.yul\":9832:9838   */\n      dup5\n        /* \"#utility.yul\":9824:9830   */\n      dup7\n        /* \"#utility.yul\":9760:9846   */\n      tag_96\n      jump\t// in\n    tag_199:\n        /* \"#utility.yul\":9752:9846   */\n      swap1\n      pop\n        /* \"#utility.yul\":8971:9853   */\n      swap9\n      swap8\n      pop\n      pop\n      pop\n      pop\n      pop\n      pop\n      pop\n      pop\n      jump\t// out\n        /* \"#utility.yul\":9859:10040   */\n    tag_97:\n        /* \"#utility.yul\":9999:10032   */\n      0x5265656e7472616e637947756172643a207265656e7472616e742063616c6c00\n        /* \"#utility.yul\":9995:9996   */\n      0x00\n        /* \"#utility.yul\":9987:9993   */\n      dup3\n        /* \"#utility.yul\":9983:9997   */\n      add\n        /* \"#utility.yul\":9976:10033   */\n      mstore\n        /* \"#utility.yul\":9859:10040   */\n      pop\n      jump\t// out\n        /* \"#utility.yul\":10046:10412   */\n    tag_98:\n        /* \"#utility.yul\":10188:10191   */\n      0x00\n        /* \"#utility.yul\":10209:10276   */\n      tag_202\n        /* \"#utility.yul\":10273:10275   */\n      0x1f\n        /* \"#utility.yul\":10268:10271   */\n      dup4\n        /* \"#utility.yul\":10209:10276   */\n      tag_89\n      jump\t// in\n    tag_202:\n        /* \"#utility.yul\":10202:10276   */\n      swap2\n      pop\n        /* \"#utility.yul\":10285:10378   */\n      tag_203\n        /* \"#utility.yul\":10374:10377   */\n      dup3\n        /* \"#utility.yul\":10285:10378   */\n      tag_97\n      jump\t// in\n    tag_203:\n        /* \"#utility.yul\":10403:10405   */\n      0x20\n        /* \"#utility.yul\":10398:10401   */\n      dup3\n        /* \"#utility.yul\":10394:10406   */\n      add\n        /* \"#utility.yul\":10387:10406   */\n      swap1\n      pop\n        /* \"#utility.yul\":10046:10412   */\n      swap2\n      swap1\n      pop\n      jump\t// out\n        /* \"#utility.yul\":10418:10837   */\n    tag_65:\n        /* \"#utility.yul\":10584:10588   */\n      0x00\n        /* \"#utility.yul\":10622:10624   */\n      0x20\n        /* \"#utility.yul\":10611:10620   */\n      dup3\n        /* \"#utility.yul\":10607:10625   */\n      add\n        /* \"#utility.yul\":10599:10625   */\n      swap1\n      pop\n        /* \"#utility.yul\":10671:10680   */\n      dup2\n        /* \"#utility.yul\":10665:10669   */\n      dup2\n        /* \"#utility.yul\":10661:10681   */\n      sub\n        /* \"#utility.yul\":10657:10658   */\n      0x00\n        /* \"#utility.yul\":10646:10655   */\n      dup4\n        /* \"#utility.yul\":10642:10659   */\n      add\n        /* \"#utility.yul\":10635:10682   */\n      mstore\n        /* \"#utility.yul\":10699:10830   */\n      tag_205\n        /* \"#utility.yul\":10825:10829   */\n      dup2\n        /* \"#utility.yul\":10699:10830   */\n      tag_98\n      jump\t// in\n    tag_205:\n        /* \"#utility.yul\":10691:10830   */\n      swap1\n      pop\n        /* \"#utility.yul\":10418:10837   */\n      swap2\n      swap1\n      pop\n      jump\t// out\n\n    auxdata: 0xa264697066735822122007940d61a7e05b64830be991ae175547e1e7ba18d6d684cdc282330f89ce05ea64736f6c63430008180033\n}\n",
				"bytecode": {
					"linkReferences": {},
					"object": "608060405234801561000f575f80fd5b50604051610c6d380380610c6d8339818101604052810190610031919061011e565b8060015f819055503360015f6101000a81548173ffffffffffffffffffffffffffffffffffffffff021916908373ffffffffffffffffffffffffffffffffffffffff1602179055508060025f6101000a81548173ffffffffffffffffffffffffffffffffffffffff021916908373ffffffffffffffffffffffffffffffffffffffff1602179055505050610149565b5f80fd5b5f73ffffffffffffffffffffffffffffffffffffffff82169050919050565b5f6100ed826100c4565b9050919050565b6100fd816100e3565b8114610107575f80fd5b50565b5f81519050610118816100f4565b92915050565b5f60208284031215610133576101326100c0565b5b5f6101408482850161010a565b91505092915050565b610b17806101565f395ff3fe608060405234801561000f575f80fd5b5060043610610055575f3560e01c806352555702146100595780637cc70240146100755780638a94b05f146100a5578063f851a440146100c1578063fc0c546a146100df575b5f80fd5b610073600480360381019061006e91906106b5565b6100fd565b005b61008f600480360381019061008a919061074b565b6102f6565b60405161009c91906107a3565b60405180910390f35b6100bf60048036038101906100ba91906107bc565b610320565b005b6100c961051f565b6040516100d6919061084f565b60405180910390f35b6100e7610544565b6040516100f491906108c3565b60405180910390f35b610105610569565b5f151560035f8873ffffffffffffffffffffffffffffffffffffffff1673ffffffffffffffffffffffffffffffffffffffff1681526020019081526020015f205f8581526020019081526020015f205f9054906101000a900460ff161515146101a3576040517f08c379a000000000000000000000000000000000000000000000000000000000815260040161019a90610936565b60405180910390fd5b600160035f8873ffffffffffffffffffffffffffffffffffffffff1673ffffffffffffffffffffffffffffffffffffffff1681526020019081526020015f205f8581526020019081526020015f205f6101000a81548160ff02191690831515021790555060025f9054906101000a900473ffffffffffffffffffffffffffffffffffffffff1673ffffffffffffffffffffffffffffffffffffffff166340c10f1986866040518363ffffffff1660e01b8152600401610263929190610963565b5f604051808303815f87803b15801561027a575f80fd5b505af115801561028c573d5f803e3d5ffd5b505050506001808111156102a3576102a261098a565b5b7fce5a9b86edd3b998c3948a7934c7ecf7dba73c4c5bcf56cf576bca4aa2beeb30878787428888886040516102de9796959493929190610a11565b60405180910390a26102ee6105b6565b505050505050565b6003602052815f5260405f20602052805f5260405f205f915091509054906101000a900460ff1681565b610328610569565b5f151560035f3373ffffffffffffffffffffffffffffffffffffffff1673ffffffffffffffffffffffffffffffffffffffff1681526020019081526020015f205f8581526020019081526020015f205f9054906101000a900460ff161515146103c6576040517f08c379a00000000000000000000000000000000000000000000000000000000081526004016103bd90610936565b60405180910390fd5b600160035f3373ffffffffffffffffffffffffffffffffffffffff1673ffffffffffffffffffffffffffffffffffffffff1681526020019081526020015f205f8581526020019081526020015f205f6101000a81548160ff0219169083151502179055505f61dead905060025f9054906101000a900473ffffffffffffffffffffffffffffffffffffffff1673ffffffffffffffffffffffffffffffffffffffff1663a9059cbb82876040518363ffffffff1660e01b815260040161048c929190610963565b5f604051808303815f87803b1580156104a3575f80fd5b505af11580156104b5573d5f803e3d5ffd5b505050505f60018111156104cc576104cb61098a565b5b7fce5a9b86edd3b998c3948a7934c7ecf7dba73c4c5bcf56cf576bca4aa2beeb30338888428989896040516105079796959493929190610a11565b60405180910390a2506105186105b6565b5050505050565b60015f9054906101000a900473ffffffffffffffffffffffffffffffffffffffff1681565b60025f9054906101000a900473ffffffffffffffffffffffffffffffffffffffff1681565b60025f54036105ad576040517f08c379a00000000000000000000000000000000000000000000000000000000081526004016105a490610ac3565b60405180910390fd5b60025f81905550565b60015f81905550565b5f80fd5b5f80fd5b5f73ffffffffffffffffffffffffffffffffffffffff82169050919050565b5f6105f0826105c7565b9050919050565b610600816105e6565b811461060a575f80fd5b50565b5f8135905061061b816105f7565b92915050565b5f819050919050565b61063381610621565b811461063d575f80fd5b50565b5f8135905061064e8161062a565b92915050565b5f80fd5b5f80fd5b5f80fd5b5f8083601f84011261067557610674610654565b5b8235905067ffffffffffffffff81111561069257610691610658565b5b6020830191508360018202830111156106ae576106ad61065c565b5b9250929050565b5f805f805f8060a087890312156106cf576106ce6105bf565b5b5f6106dc89828a0161060d565b96505060206106ed89828a0161060d565b95505060406106fe89828a01610640565b945050606061070f89828a01610640565b935050608087013567ffffffffffffffff8111156107305761072f6105c3565b5b61073c89828a01610660565b92509250509295509295509295565b5f8060408385031215610761576107606105bf565b5b5f61076e8582860161060d565b925050602061077f85828601610640565b9150509250929050565b5f8115159050919050565b61079d81610789565b82525050565b5f6020820190506107b65f830184610794565b92915050565b5f805f805f608086880312156107d5576107d46105bf565b5b5f6107e28882890161060d565b95505060206107f388828901610640565b945050604061080488828901610640565b935050606086013567ffffffffffffffff811115610825576108246105c3565b5b61083188828901610660565b92509250509295509295909350565b610849816105e6565b82525050565b5f6020820190506108625f830184610840565b92915050565b5f819050919050565b5f61088b610886610881846105c7565b610868565b6105c7565b9050919050565b5f61089c82610871565b9050919050565b5f6108ad82610892565b9050919050565b6108bd816108a3565b82525050565b5f6020820190506108d65f8301846108b4565b92915050565b5f82825260208201905092915050565b7f7472616e7366657220616c72656164792070726f6365737365640000000000005f82015250565b5f610920601a836108dc565b915061092b826108ec565b602082019050919050565b5f6020820190508181035f83015261094d81610914565b9050919050565b61095d81610621565b82525050565b5f6040820190506109765f830185610840565b6109836020830184610954565b9392505050565b7f4e487b71000000000000000000000000000000000000000000000000000000005f52602160045260245ffd5b5f82825260208201905092915050565b828183375f83830152505050565b5f601f19601f8301169050919050565b5f6109f083856109b7565b93506109fd8385846109c7565b610a06836109d5565b840190509392505050565b5f60c082019050610a245f83018a610840565b610a316020830189610840565b610a3e6040830188610954565b610a4b6060830187610954565b610a586080830186610954565b81810360a0830152610a6b8184866109e5565b905098975050505050505050565b7f5265656e7472616e637947756172643a207265656e7472616e742063616c6c005f82015250565b5f610aad601f836108dc565b9150610ab882610a79565b602082019050919050565b5f6020820190508181035f830152610ada81610aa1565b905091905056fea264697066735822122007940d61a7e05b64830be991ae175547e1e7ba18d6d684cdc282330f89ce05ea64736f6c63430008180033",
					"opcodes": "PUSH1 0x80 PUSH1 0x40 MSTORE CALLVALUE DUP1 ISZERO PUSH2 0xF JUMPI PUSH0 DUP1 REVERT JUMPDEST POP PUSH1 0x40 MLOAD PUSH2 0xC6D CODESIZE SUB DUP1 PUSH2 0xC6D DUP4 CODECOPY DUP2 DUP2 ADD PUSH1 0x40 MSTORE DUP2 ADD SWAP1 PUSH2 0x31 SWAP2 SWAP1 PUSH2 0x11E JUMP JUMPDEST DUP1 PUSH1 0x1 PUSH0 DUP2 SWAP1 SSTORE POP CALLER PUSH1 0x1 PUSH0 PUSH2 0x100 EXP DUP2 SLOAD DUP2 PUSH20 0xFFFFFFFFFFFFFFFFFFFFFFFFFFFFFFFFFFFFFFFF MUL NOT AND SWAP1 DUP4 PUSH20 0xFFFFFFFFFFFFFFFFFFFFFFFFFFFFFFFFFFFFFFFF AND MUL OR SWAP1 SSTORE POP DUP1 PUSH1 0x2 PUSH0 PUSH2 0x100 EXP DUP2 SLOAD DUP2 PUSH20 0xFFFFFFFFFFFFFFFFFFFFFFFFFFFFFFFFFFFFFFFF MUL NOT AND SWAP1 DUP4 PUSH20 0xFFFFFFFFFFFFFFFFFFFFFFFFFFFFFFFFFFFFFFFF AND MUL OR SWAP1 SSTORE POP POP POP PUSH2 0x149 JUMP JUMPDEST PUSH0 DUP1 REVERT JUMPDEST PUSH0 PUSH20 0xFFFFFFFFFFFFFFFFFFFFFFFFFFFFFFFFFFFFFFFF DUP3 AND SWAP1 POP SWAP2 SWAP1 POP JUMP JUMPDEST PUSH0 PUSH2 0xED DUP3 PUSH2 0xC4 JUMP JUMPDEST SWAP1 POP SWAP2 SWAP1 POP JUMP JUMPDEST PUSH2 0xFD DUP2 PUSH2 0xE3 JUMP JUMPDEST DUP2 EQ PUSH2 0x107 JUMPI PUSH0 DUP1 REVERT JUMPDEST POP JUMP JUMPDEST PUSH0 DUP2 MLOAD SWAP1 POP PUSH2 0x118 DUP2 PUSH2 0xF4 JUMP JUMPDEST SWAP3 SWAP2 POP POP JUMP JUMPDEST PUSH0 PUSH1 0x20 DUP3 DUP5 SUB SLT ISZERO PUSH2 0x133 JUMPI PUSH2 0x132 PUSH2 0xC0 JUMP JUMPDEST JUMPDEST PUSH0 PUSH2 0x140 DUP5 DUP3 DUP6 ADD PUSH2 0x10A JUMP JUMPDEST SWAP2 POP POP SWAP3 SWAP2 POP POP JUMP JUMPDEST PUSH2 0xB17 DUP1 PUSH2 0x156 PUSH0 CODECOPY PUSH0 RETURN INVALID PUSH1 0x80 PUSH1 0x40 MSTORE CALLVALUE DUP1 ISZERO PUSH2 0xF JUMPI PUSH0 DUP1 REVERT JUMPDEST POP PUSH1 0x4 CALLDATASIZE LT PUSH2 0x55 JUMPI PUSH0 CALLDATALOAD PUSH1 0xE0 SHR DUP1 PUSH4 0x52555702 EQ PUSH2 0x59 JUMPI DUP1 PUSH4 0x7CC70240 EQ PUSH2 0x75 JUMPI DUP1 PUSH4 0x8A94B05F EQ PUSH2 0xA5 JUMPI DUP1 PUSH4 0xF851A440 EQ PUSH2 0xC1 JUMPI DUP1 PUSH4 0xFC0C546A EQ PUSH2 0xDF JUMPI JUMPDEST PUSH0 DUP1 REVERT JUMPDEST PUSH2 0x73 PUSH1 0x4 DUP1 CALLDATASIZE SUB DUP2 ADD SWAP1 PUSH2 0x6E SWAP2 SWAP1 PUSH2 0x6B5 JUMP JUMPDEST PUSH2 0xFD JUMP JUMPDEST STOP JUMPDEST PUSH2 0x8F PUSH1 0x4 DUP1 CALLDATASIZE SUB DUP2 ADD SWAP1 PUSH2 0x8A SWAP2 SWAP1 PUSH2 0x74B JUMP JUMPDEST PUSH2 0x2F6 JUMP JUMPDEST PUSH1 0x40 MLOAD PUSH2 0x9C SWAP2 SWAP1 PUSH2 0x7A3 JUMP JUMPDEST PUSH1 0x40 MLOAD DUP1 SWAP2 SUB SWAP1 RETURN JUMPDEST PUSH2 0xBF PUSH1 0x4 DUP1 CALLDATASIZE SUB DUP2 ADD SWAP1 PUSH2 0xBA SWAP2 SWAP1 PUSH2 0x7BC JUMP JUMPDEST PUSH2 0x320 JUMP JUMPDEST STOP JUMPDEST PUSH2 0xC9 PUSH2 0x51F JUMP JUMPDEST PUSH1 0x40 MLOAD PUSH2 0xD6 SWAP2 SWAP1 PUSH2 0x84F JUMP JUMPDEST PUSH1 0x40 MLOAD DUP1 SWAP2 SUB SWAP1 RETURN JUMPDEST PUSH2 0xE7 PUSH2 0x544 JUMP JUMPDEST PUSH1 0x40 MLOAD PUSH2 0xF4 SWAP2 SWAP1 PUSH2 0x8C3 JUMP JUMPDEST PUSH1 0x40 MLOAD DUP1 SWAP2 SUB SWAP1 RETURN JUMPDEST PUSH2 0x105 PUSH2 0x569 JUMP JUMPDEST PUSH0 ISZERO ISZERO PUSH1 0x3 PUSH0 DUP9 PUSH20 0xFFFFFFFFFFFFFFFFFFFFFFFFFFFFFFFFFFFFFFFF AND PUSH20 0xFFFFFFFFFFFFFFFFFFFFFFFFFFFFFFFFFFFFFFFF AND DUP2 MSTORE PUSH1 0x20 ADD SWAP1 DUP2 MSTORE PUSH1 0x20 ADD PUSH0 KECCAK256 PUSH0 DUP6 DUP2 MSTORE PUSH1 0x20 ADD SWAP1 DUP2 MSTORE PUSH1 0x20 ADD PUSH0 KECCAK256 PUSH0 SWAP1 SLOAD SWAP1 PUSH2 0x100 EXP SWAP1 DIV PUSH1 0xFF AND ISZERO ISZERO EQ PUSH2 0x1A3 JUMPI PUSH1 0x40 MLOAD PUSH32 0x8C379A000000000000000000000000000000000000000000000000000000000 DUP2 MSTORE PUSH1 0x4 ADD PUSH2 0x19A SWAP1 PUSH2 0x936 JUMP JUMPDEST PUSH1 0x40 MLOAD DUP1 SWAP2 SUB SWAP1 REVERT JUMPDEST PUSH1 0x1 PUSH1 0x3 PUSH0 DUP9 PUSH20 0xFFFFFFFFFFFFFFFFFFFFFFFFFFFFFFFFFFFFFFFF AND PUSH20 0xFFFFFFFFFFFFFFFFFFFFFFFFFFFFFFFFFFFFFFFF AND DUP2 MSTORE PUSH1 0x20 ADD SWAP1 DUP2 MSTORE PUSH1 0x20 ADD PUSH0 KECCAK256 PUSH0 DUP6 DUP2 MSTORE PUSH1 0x20 ADD SWAP1 DUP2 MSTORE PUSH1 0x20 ADD PUSH0 KECCAK256 PUSH0 PUSH2 0x100 EXP DUP2 SLOAD DUP2 PUSH1 0xFF MUL NOT AND SWAP1 DUP4 ISZERO ISZERO MUL OR SWAP1 SSTORE POP PUSH1 0x2 PUSH0 SWAP1 SLOAD SWAP1 PUSH2 0x100 EXP SWAP1 DIV PUSH20 0xFFFFFFFFFFFFFFFFFFFFFFFFFFFFFFFFFFFFFFFF AND PUSH20 0xFFFFFFFFFFFFFFFFFFFFFFFFFFFFFFFFFFFFFFFF AND PUSH4 0x40C10F19 DUP7 DUP7 PUSH1 0x40 MLOAD DUP4 PUSH4 0xFFFFFFFF AND PUSH1 0xE0 SHL DUP2 MSTORE PUSH1 0x4 ADD PUSH2 0x263 SWAP3 SWAP2 SWAP1 PUSH2 0x963 JUMP JUMPDEST PUSH0 PUSH1 0x40 MLOAD DUP1 DUP4 SUB DUP2 PUSH0 DUP8 DUP1 EXTCODESIZE ISZERO DUP1 ISZERO PUSH2 0x27A JUMPI PUSH0 DUP1 REVERT JUMPDEST POP GAS CALL ISZERO DUP1 ISZERO PUSH2 0x28C JUMPI RETURNDATASIZE PUSH0 DUP1 RETURNDATACOPY RETURNDATASIZE PUSH0 REVERT JUMPDEST POP POP POP POP PUSH1 0x1 DUP1 DUP2 GT ISZERO PUSH2 0x2A3 JUMPI PUSH2 0x2A2 PUSH2 0x98A JUMP JUMPDEST JUMPDEST PUSH32 0xCE5A9B86EDD3B998C3948A7934C7ECF7DBA73C4C5BCF56CF576BCA4AA2BEEB30 DUP8 DUP8 DUP8 TIMESTAMP DUP9 DUP9 DUP9 PUSH1 0x40 MLOAD PUSH2 0x2DE SWAP8 SWAP7 SWAP6 SWAP5 SWAP4 SWAP3 SWAP2 SWAP1 PUSH2 0xA11 JUMP JUMPDEST PUSH1 0x40 MLOAD DUP1 SWAP2 SUB SWAP1 LOG2 PUSH2 0x2EE PUSH2 0x5B6 JUMP JUMPDEST POP POP POP POP POP POP JUMP JUMPDEST PUSH1 0x3 PUSH1 0x20 MSTORE DUP2 PUSH0 MSTORE PUSH1 0x40 PUSH0 KECCAK256 PUSH1 0x20 MSTORE DUP1 PUSH0 MSTORE PUSH1 0x40 PUSH0 KECCAK256 PUSH0 SWAP2 POP SWAP2 POP SWAP1 SLOAD SWAP1 PUSH2 0x100 EXP SWAP1 DIV PUSH1 0xFF AND DUP2 JUMP JUMPDEST PUSH2 0x328 PUSH2 0x569 JUMP JUMPDEST PUSH0 ISZERO ISZERO PUSH1 0x3 PUSH0 CALLER PUSH20 0xFFFFFFFFFFFFFFFFFFFFFFFFFFFFFFFFFFFFFFFF AND PUSH20 0xFFFFFFFFFFFFFFFFFFFFFFFFFFFFFFFFFFFFFFFF AND DUP2 MSTORE PUSH1 0x20 ADD SWAP1 DUP2 MSTORE PUSH1 0x20 ADD PUSH0 KECCAK256 PUSH0 DUP6 DUP2 MSTORE PUSH1 0x20 ADD SWAP1 DUP2 MSTORE PUSH1 0x20 ADD PUSH0 KECCAK256 PUSH0 SWAP1 SLOAD SWAP1 PUSH2 0x100 EXP SWAP1 DIV PUSH1 0xFF AND ISZERO ISZERO EQ PUSH2 0x3C6 JUMPI PUSH1 0x40 MLOAD PUSH32 0x8C379A000000000000000000000000000000000000000000000000000000000 DUP2 MSTORE PUSH1 0x4 ADD PUSH2 0x3BD SWAP1 PUSH2 0x936 JUMP JUMPDEST PUSH1 0x40 MLOAD DUP1 SWAP2 SUB SWAP1 REVERT JUMPDEST PUSH1 0x1 PUSH1 0x3 PUSH0 CALLER PUSH20 0xFFFFFFFFFFFFFFFFFFFFFFFFFFFFFFFFFFFFFFFF AND PUSH20 0xFFFFFFFFFFFFFFFFFFFFFFFFFFFFFFFFFFFFFFFF AND DUP2 MSTORE PUSH1 0x20 ADD SWAP1 DUP2 MSTORE PUSH1 0x20 ADD PUSH0 KECCAK256 PUSH0 DUP6 DUP2 MSTORE PUSH1 0x20 ADD SWAP1 DUP2 MSTORE PUSH1 0x20 ADD PUSH0 KECCAK256 PUSH0 PUSH2 0x100 EXP DUP2 SLOAD DUP2 PUSH1 0xFF MUL NOT AND SWAP1 DUP4 ISZERO ISZERO MUL OR SWAP1 SSTORE POP PUSH0 PUSH2 0xDEAD SWAP1 POP PUSH1 0x2 PUSH0 SWAP1 SLOAD SWAP1 PUSH2 0x100 EXP SWAP1 DIV PUSH20 0xFFFFFFFFFFFFFFFFFFFFFFFFFFFFFFFFFFFFFFFF AND PUSH20 0xFFFFFFFFFFFFFFFFFFFFFFFFFFFFFFFFFFFFFFFF AND PUSH4 0xA9059CBB DUP3 DUP8 PUSH1 0x40 MLOAD DUP4 PUSH4 0xFFFFFFFF AND PUSH1 0xE0 SHL DUP2 MSTORE PUSH1 0x4 ADD PUSH2 0x48C SWAP3 SWAP2 SWAP1 PUSH2 0x963 JUMP JUMPDEST PUSH0 PUSH1 0x40 MLOAD DUP1 DUP4 SUB DUP2 PUSH0 DUP8 DUP1 EXTCODESIZE ISZERO DUP1 ISZERO PUSH2 0x4A3 JUMPI PUSH0 DUP1 REVERT JUMPDEST POP GAS CALL ISZERO DUP1 ISZERO PUSH2 0x4B5 JUMPI RETURNDATASIZE PUSH0 DUP1 RETURNDATACOPY RETURNDATASIZE PUSH0 REVERT JUMPDEST POP POP POP POP PUSH0 PUSH1 0x1 DUP2 GT ISZERO PUSH2 0x4CC JUMPI PUSH2 0x4CB PUSH2 0x98A JUMP JUMPDEST JUMPDEST PUSH32 0xCE5A9B86EDD3B998C3948A7934C7ECF7DBA73C4C5BCF56CF576BCA4AA2BEEB30 CALLER DUP9 DUP9 TIMESTAMP DUP10 DUP10 DUP10 PUSH1 0x40 MLOAD PUSH2 0x507 SWAP8 SWAP7 SWAP6 SWAP5 SWAP4 SWAP3 SWAP2 SWAP1 PUSH2 0xA11 JUMP JUMPDEST PUSH1 0x40 MLOAD DUP1 SWAP2 SUB SWAP1 LOG2 POP PUSH2 0x518 PUSH2 0x5B6 JUMP JUMPDEST POP POP POP POP POP JUMP JUMPDEST PUSH1 0x1 PUSH0 SWAP1 SLOAD SWAP1 PUSH2 0x100 EXP SWAP1 DIV PUSH20 0xFFFFFFFFFFFFFFFFFFFFFFFFFFFFFFFFFFFFFFFF AND DUP2 JUMP JUMPDEST PUSH1 0x2 PUSH0 SWAP1 SLOAD SWAP1 PUSH2 0x100 EXP SWAP1 DIV PUSH20 0xFFFFFFFFFFFFFFFFFFFFFFFFFFFFFFFFFFFFFFFF AND DUP2 JUMP JUMPDEST PUSH1 0x2 PUSH0 SLOAD SUB PUSH2 0x5AD JUMPI PUSH1 0x40 MLOAD PUSH32 0x8C379A000000000000000000000000000000000000000000000000000000000 DUP2 MSTORE PUSH1 0x4 ADD PUSH2 0x5A4 SWAP1 PUSH2 0xAC3 JUMP JUMPDEST PUSH1 0x40 MLOAD DUP1 SWAP2 SUB SWAP1 REVERT JUMPDEST PUSH1 0x2 PUSH0 DUP2 SWAP1 SSTORE POP JUMP JUMPDEST PUSH1 0x1 PUSH0 DUP2 SWAP1 SSTORE POP JUMP JUMPDEST PUSH0 DUP1 REVERT JUMPDEST PUSH0 DUP1 REVERT JUMPDEST PUSH0 PUSH20 0xFFFFFFFFFFFFFFFFFFFFFFFFFFFFFFFFFFFFFFFF DUP3 AND SWAP1 POP SWAP2 SWAP1 POP JUMP JUMPDEST PUSH0 PUSH2 0x5F0 DUP3 PUSH2 0x5C7 JUMP JUMPDEST SWAP1 POP SWAP2 SWAP1 POP JUMP JUMPDEST PUSH2 0x600 DUP2 PUSH2 0x5E6 JUMP JUMPDEST DUP2 EQ PUSH2 0x60A JUMPI PUSH0 DUP1 REVERT JUMPDEST POP JUMP JUMPDEST PUSH0 DUP2 CALLDATALOAD SWAP1 POP PUSH2 0x61B DUP2 PUSH2 0x5F7 JUMP JUMPDEST SWAP3 SWAP2 POP POP JUMP JUMPDEST PUSH0 DUP2 SWAP1 POP SWAP2 SWAP1 POP JUMP JUMPDEST PUSH2 0x633 DUP2 PUSH2 0x621 JUMP JUMPDEST DUP2 EQ PUSH2 0x63D JUMPI PUSH0 DUP1 REVERT JUMPDEST POP JUMP JUMPDEST PUSH0 DUP2 CALLDATALOAD SWAP1 POP PUSH2 0x64E DUP2 PUSH2 0x62A JUMP JUMPDEST SWAP3 SWAP2 POP POP JUMP JUMPDEST PUSH0 DUP1 REVERT JUMPDEST PUSH0 DUP1 REVERT JUMPDEST PUSH0 DUP1 REVERT JUMPDEST PUSH0 DUP1 DUP4 PUSH1 0x1F DUP5 ADD SLT PUSH2 0x675 JUMPI PUSH2 0x674 PUSH2 0x654 JUMP JUMPDEST JUMPDEST DUP3 CALLDATALOAD SWAP1 POP PUSH8 0xFFFFFFFFFFFFFFFF DUP2 GT ISZERO PUSH2 0x692 JUMPI PUSH2 0x691 PUSH2 0x658 JUMP JUMPDEST JUMPDEST PUSH1 0x20 DUP4 ADD SWAP2 POP DUP4 PUSH1 0x1 DUP3 MUL DUP4 ADD GT ISZERO PUSH2 0x6AE JUMPI PUSH2 0x6AD PUSH2 0x65C JUMP JUMPDEST JUMPDEST SWAP3 POP SWAP3 SWAP1 POP JUMP JUMPDEST PUSH0 DUP1 PUSH0 DUP1 PUSH0 DUP1 PUSH1 0xA0 DUP8 DUP10 SUB SLT ISZERO PUSH2 0x6CF JUMPI PUSH2 0x6CE PUSH2 0x5BF JUMP JUMPDEST JUMPDEST PUSH0 PUSH2 0x6DC DUP10 DUP3 DUP11 ADD PUSH2 0x60D JUMP JUMPDEST SWAP7 POP POP PUSH1 0x20 PUSH2 0x6ED DUP10 DUP3 DUP11 ADD PUSH2 0x60D JUMP JUMPDEST SWAP6 POP POP PUSH1 0x40 PUSH2 0x6FE DUP10 DUP3 DUP11 ADD PUSH2 0x640 JUMP JUMPDEST SWAP5 POP POP PUSH1 0x60 PUSH2 0x70F DUP10 DUP3 DUP11 ADD PUSH2 0x640 JUMP JUMPDEST SWAP4 POP POP PUSH1 0x80 DUP8 ADD CALLDATALOAD PUSH8 0xFFFFFFFFFFFFFFFF DUP2 GT ISZERO PUSH2 0x730 JUMPI PUSH2 0x72F PUSH2 0x5C3 JUMP JUMPDEST JUMPDEST PUSH2 0x73C DUP10 DUP3 DUP11 ADD PUSH2 0x660 JUMP JUMPDEST SWAP3 POP SWAP3 POP POP SWAP3 SWAP6 POP SWAP3 SWAP6 POP SWAP3 SWAP6 JUMP JUMPDEST PUSH0 DUP1 PUSH1 0x40 DUP4 DUP6 SUB SLT ISZERO PUSH2 0x761 JUMPI PUSH2 0x760 PUSH2 0x5BF JUMP JUMPDEST JUMPDEST PUSH0 PUSH2 0x76E DUP6 DUP3 DUP7 ADD PUSH2 0x60D JUMP JUMPDEST SWAP3 POP POP PUSH1 0x20 PUSH2 0x77F DUP6 DUP3 DUP7 ADD PUSH2 0x640 JUMP JUMPDEST SWAP2 POP POP SWAP3 POP SWAP3 SWAP1 POP JUMP JUMPDEST PUSH0 DUP2 ISZERO ISZERO SWAP1 POP SWAP2 SWAP1 POP JUMP JUMPDEST PUSH2 0x79D DUP2 PUSH2 0x789 JUMP JUMPDEST DUP3 MSTORE POP POP JUMP JUMPDEST PUSH0 PUSH1 0x20 DUP3 ADD SWAP1 POP PUSH2 0x7B6 PUSH0 DUP4 ADD DUP5 PUSH2 0x794 JUMP JUMPDEST SWAP3 SWAP2 POP POP JUMP JUMPDEST PUSH0 DUP1 PUSH0 DUP1 PUSH0 PUSH1 0x80 DUP7 DUP9 SUB SLT ISZERO PUSH2 0x7D5 JUMPI PUSH2 0x7D4 PUSH2 0x5BF JUMP JUMPDEST JUMPDEST PUSH0 PUSH2 0x7E2 DUP9 DUP3 DUP10 ADD PUSH2 0x60D JUMP JUMPDEST SWAP6 POP POP PUSH1 0x20 PUSH2 0x7F3 DUP9 DUP3 DUP10 ADD PUSH2 0x640 JUMP JUMPDEST SWAP5 POP POP PUSH1 0x40 PUSH2 0x804 DUP9 DUP3 DUP10 ADD PUSH2 0x640 JUMP JUMPDEST SWAP4 POP POP PUSH1 0x60 DUP7 ADD CALLDATALOAD PUSH8 0xFFFFFFFFFFFFFFFF DUP2 GT ISZERO PUSH2 0x825 JUMPI PUSH2 0x824 PUSH2 0x5C3 JUMP JUMPDEST JUMPDEST PUSH2 0x831 DUP9 DUP3 DUP10 ADD PUSH2 0x660 JUMP JUMPDEST SWAP3 POP SWAP3 POP POP SWAP3 SWAP6 POP SWAP3 SWAP6 SWAP1 SWAP4 POP JUMP JUMPDEST PUSH2 0x849 DUP2 PUSH2 0x5E6 JUMP JUMPDEST DUP3 MSTORE POP POP JUMP JUMPDEST PUSH0 PUSH1 0x20 DUP3 ADD SWAP1 POP PUSH2 0x862 PUSH0 DUP4 ADD DUP5 PUSH2 0x840 JUMP JUMPDEST SWAP3 SWAP2 POP POP JUMP JUMPDEST PUSH0 DUP2 SWAP1 POP SWAP2 SWAP1 POP JUMP JUMPDEST PUSH0 PUSH2 0x88B PUSH2 0x886 PUSH2 0x881 DUP5 PUSH2 0x5C7 JUMP JUMPDEST PUSH2 0x868 JUMP JUMPDEST PUSH2 0x5C7 JUMP JUMPDEST SWAP1 POP SWAP2 SWAP1 POP JUMP JUMPDEST PUSH0 PUSH2 0x89C DUP3 PUSH2 0x871 JUMP JUMPDEST SWAP1 POP SWAP2 SWAP1 POP JUMP JUMPDEST PUSH0 PUSH2 0x8AD DUP3 PUSH2 0x892 JUMP JUMPDEST SWAP1 POP SWAP2 SWAP1 POP JUMP JUMPDEST PUSH2 0x8BD DUP2 PUSH2 0x8A3 JUMP JUMPDEST DUP3 MSTORE POP POP JUMP JUMPDEST PUSH0 PUSH1 0x20 DUP3 ADD SWAP1 POP PUSH2 0x8D6 PUSH0 DUP4 ADD DUP5 PUSH2 0x8B4 JUMP JUMPDEST SWAP3 SWAP2 POP POP JUMP JUMPDEST PUSH0 DUP3 DUP3 MSTORE PUSH1 0x20 DUP3 ADD SWAP1 POP SWAP3 SWAP2 POP POP JUMP JUMPDEST PUSH32 0x7472616E7366657220616C72656164792070726F636573736564000000000000 PUSH0 DUP3 ADD MSTORE POP JUMP JUMPDEST PUSH0 PUSH2 0x920 PUSH1 0x1A DUP4 PUSH2 0x8DC JUMP JUMPDEST SWAP2 POP PUSH2 0x92B DUP3 PUSH2 0x8EC JUMP JUMPDEST PUSH1 0x20 DUP3 ADD SWAP1 POP SWAP2 SWAP1 POP JUMP JUMPDEST PUSH0 PUSH1 0x20 DUP3 ADD SWAP1 POP DUP2 DUP2 SUB PUSH0 DUP4 ADD MSTORE PUSH2 0x94D DUP2 PUSH2 0x914 JUMP JUMPDEST SWAP1 POP SWAP2 SWAP1 POP JUMP JUMPDEST PUSH2 0x95D DUP2 PUSH2 0x621 JUMP JUMPDEST DUP3 MSTORE POP POP JUMP JUMPDEST PUSH0 PUSH1 0x40 DUP3 ADD SWAP1 POP PUSH2 0x976 PUSH0 DUP4 ADD DUP6 PUSH2 0x840 JUMP JUMPDEST PUSH2 0x983 PUSH1 0x20 DUP4 ADD DUP5 PUSH2 0x954 JUMP JUMPDEST SWAP4 SWAP3 POP POP POP JUMP JUMPDEST PUSH32 0x4E487B7100000000000000000000000000000000000000000000000000000000 PUSH0 MSTORE PUSH1 0x21 PUSH1 0x4 MSTORE PUSH1 0x24 PUSH0 REVERT JUMPDEST PUSH0 DUP3 DUP3 MSTORE PUSH1 0x20 DUP3 ADD SWAP1 POP SWAP3 SWAP2 POP POP JUMP JUMPDEST DUP3 DUP2 DUP4 CALLDATACOPY PUSH0 DUP4 DUP4 ADD MSTORE POP POP POP JUMP JUMPDEST PUSH0 PUSH1 0x1F NOT PUSH1 0x1F DUP4 ADD AND SWAP1 POP SWAP2 SWAP1 POP JUMP JUMPDEST PUSH0 PUSH2 0x9F0 DUP4 DUP6 PUSH2 0x9B7 JUMP JUMPDEST SWAP4 POP PUSH2 0x9FD DUP4 DUP6 DUP5 PUSH2 0x9C7 JUMP JUMPDEST PUSH2 0xA06 DUP4 PUSH2 0x9D5 JUMP JUMPDEST DUP5 ADD SWAP1 POP SWAP4 SWAP3 POP POP POP JUMP JUMPDEST PUSH0 PUSH1 0xC0 DUP3 ADD SWAP1 POP PUSH2 0xA24 PUSH0 DUP4 ADD DUP11 PUSH2 0x840 JUMP JUMPDEST PUSH2 0xA31 PUSH1 0x20 DUP4 ADD DUP10 PUSH2 0x840 JUMP JUMPDEST PUSH2 0xA3E PUSH1 0x40 DUP4 ADD DUP9 PUSH2 0x954 JUMP JUMPDEST PUSH2 0xA4B PUSH1 0x60 DUP4 ADD DUP8 PUSH2 0x954 JUMP JUMPDEST PUSH2 0xA58 PUSH1 0x80 DUP4 ADD DUP7 PUSH2 0x954 JUMP JUMPDEST DUP2 DUP2 SUB PUSH1 0xA0 DUP4 ADD MSTORE PUSH2 0xA6B DUP2 DUP5 DUP7 PUSH2 0x9E5 JUMP JUMPDEST SWAP1 POP SWAP9 SWAP8 POP POP POP POP POP POP POP POP JUMP JUMPDEST PUSH32 0x5265656E7472616E637947756172643A207265656E7472616E742063616C6C00 PUSH0 DUP3 ADD MSTORE POP JUMP JUMPDEST PUSH0 PUSH2 0xAAD PUSH1 0x1F DUP4 PUSH2 0x8DC JUMP JUMPDEST SWAP2 POP PUSH2 0xAB8 DUP3 PUSH2 0xA79 JUMP JUMPDEST PUSH1 0x20 DUP3 ADD SWAP1 POP SWAP2 SWAP1 POP JUMP JUMPDEST PUSH0 PUSH1 0x20 DUP3 ADD SWAP1 POP DUP2 DUP2 SUB PUSH0 DUP4 ADD MSTORE PUSH2 0xADA DUP2 PUSH2 0xAA1 JUMP JUMPDEST SWAP1 POP SWAP2 SWAP1 POP JUMP INVALID LOG2 PUSH5 0x6970667358 0x22 SLT KECCAK256 SMOD SWAP5 0xD PUSH2 0xA7E0 JUMPDEST PUSH5 0x830BE991AE OR SSTORE SELFBALANCE 0xE1 0xE7 0xBA XOR 0xD6 0xD6 DUP5 0xCD 0xC2 DUP3 CALLER 0xF DUP10 0xCE SDIV 0xEA PUSH5 0x736F6C6343 STOP ADDMOD XOR STOP CALLER "
				},
				"gasEstimates": {
					"creation": {
						"codeDepositCost": "567800",
						"executionCost": "infinite",
						"totalCost": "infinite"
					},
					"external": {
						"admin()": "2552",
						"burn(address,uint256,uint256,bytes)": "infinite",
						"mint(address,address,uint256,uint256,bytes)": "infinite",
						"processedNonces(address,uint256)": "3071",
						"token()": "infinite"
					}
				},
				"methodIdentifiers": {
					"admin()": "f851a440",
					"burn(address,uint256,uint256,bytes)": "8a94b05f",
					"mint(address,address,uint256,uint256,bytes)": "52555702",
					"processedNonces(address,uint256)": "7cc70240",
					"token()": "fc0c546a"
				}
			},
			"storageLayout": {
				"storage": [
					{
						"astId": 10,
						"contract": "contracts/BridgeTnt.sol:BridgeTnt",
						"label": "_status",
						"offset": 0,
						"slot": "0",
						"type": "t_uint256"
					},
					{
						"astId": 467,
						"contract": "contracts/BridgeTnt.sol:BridgeTnt",
						"label": "admin",
						"offset": 0,
						"slot": "1",
						"type": "t_address"
					},
					{
						"astId": 470,
						"contract": "contracts/BridgeTnt.sol:BridgeTnt",
						"label": "token",
						"offset": 0,
						"slot": "2",
						"type": "t_contract(IToken)721"
					},
					{
						"astId": 476,
						"contract": "contracts/BridgeTnt.sol:BridgeTnt",
						"label": "processedNonces",
						"offset": 0,
						"slot": "3",
						"type": "t_mapping(t_address,t_mapping(t_uint256,t_bool))"
					}
				],
				"types": {
					"t_address": {
						"encoding": "inplace",
						"label": "address",
						"numberOfBytes": "20"
					},
					"t_bool": {
						"encoding": "inplace",
						"label": "bool",
						"numberOfBytes": "1"
					},
					"t_contract(IToken)721": {
						"encoding": "inplace",
						"label": "contract IToken",
						"numberOfBytes": "20"
					},
					"t_mapping(t_address,t_mapping(t_uint256,t_bool))": {
						"encoding": "mapping",
						"key": "t_address",
						"label": "mapping(address => mapping(uint256 => bool))",
						"numberOfBytes": "32",
						"value": "t_mapping(t_uint256,t_bool)"
					},
					"t_mapping(t_uint256,t_bool)": {
						"encoding": "mapping",
						"key": "t_uint256",
						"label": "mapping(uint256 => bool)",
						"numberOfBytes": "32",
						"value": "t_bool"
					},
					"t_uint256": {
						"encoding": "inplace",
						"label": "uint256",
						"numberOfBytes": "32"
					}
				}
			},
			"userdoc": {
				"kind": "user",
				"methods": {},
				"version": 1
			}
		}
	}
}