{
	"contracts/ReplayToken.sol": {
		"ReplayToken": {
			"abi": [
				{
					"inputs": [
						{
							"internalType": "string",
							"name": "name_",
							"type": "string"
						},
						{
							"internalType": "string",
							"name": "symbol_",
							"type": "string"
						},
						{
							"internalType": "uint8",
							"name": "decimals_",
							"type": "uint8"
						},
						{
							"internalType": "uint256",
							"name": "maxSupply_",
							"type": "uint256"
						},
						{
							"internalType": "address",
							"name": "minter_",
							"type": "address"
						},
						{
							"internalType": "uint256",
							"name": "stakerRewardPerBlock_",
							"type": "uint256"
						},
						{
							"internalType": "address",
							"name": "initDistrWallet_",
							"type": "address"
						},
						{
							"internalType": "uint256",
							"name": "initMintAmount_",
							"type": "uint256"
						},
						{
							"internalType": "address",
							"name": "admin_",
							"type": "address"
						}
					],
					"stateMutability": "nonpayable",
					"type": "constructor"
				},
				{
					"anonymous": false,
					"inputs": [
						{
							"indexed": true,
							"internalType": "address",
							"name": "owner",
							"type": "address"
						},
						{
							"indexed": true,
							"internalType": "address",
							"name": "spender",
							"type": "address"
						},
						{
							"indexed": false,
							"internalType": "uint256",
							"name": "value",
							"type": "uint256"
						}
					],
					"name": "Approval",
					"type": "event"
				},
				{
					"anonymous": false,
					"inputs": [
						{
							"indexed": true,
							"internalType": "address",
							"name": "previousPendingAdmin",
							"type": "address"
						},
						{
							"indexed": true,
							"internalType": "address",
							"name": "newPendingAdmin",
							"type": "address"
						}
					],
					"name": "SetPendingAdmin",
					"type": "event"
				},
				{
					"anonymous": false,
					"inputs": [
						{
							"indexed": true,
							"internalType": "address",
							"name": "from",
							"type": "address"
						},
						{
							"indexed": true,
							"internalType": "address",
							"name": "to",
							"type": "address"
						},
						{
							"indexed": false,
							"internalType": "uint256",
							"name": "value",
							"type": "uint256"
						}
					],
					"name": "Transfer",
					"type": "event"
				},
				{
					"anonymous": false,
					"inputs": [
						{
							"indexed": true,
							"internalType": "address",
							"name": "previousAdmin",
							"type": "address"
						},
						{
							"indexed": true,
							"internalType": "address",
							"name": "newAdmin",
							"type": "address"
						}
					],
					"name": "UpdateAdmin",
					"type": "event"
				},
				{
					"anonymous": false,
					"inputs": [
						{
							"indexed": true,
							"internalType": "address",
							"name": "previousMinter",
							"type": "address"
						},
						{
							"indexed": true,
							"internalType": "address",
							"name": "newMinter",
							"type": "address"
						}
					],
					"name": "UpdateMinter",
					"type": "event"
				},
				{
					"anonymous": false,
					"inputs": [
						{
							"indexed": false,
							"internalType": "uint256",
							"name": "newStakerRewardPerBlock",
							"type": "uint256"
						}
					],
					"name": "UpdateStakerRewardPerBlock",
					"type": "event"
				},
				{
					"inputs": [],
					"name": "admin",
					"outputs": [
						{
							"internalType": "address",
							"name": "",
							"type": "address"
						}
					],
					"stateMutability": "view",
					"type": "function"
				},
				{
					"inputs": [
						{
							"internalType": "address",
							"name": "owner",
							"type": "address"
						},
						{
							"internalType": "address",
							"name": "spender",
							"type": "address"
						}
					],
					"name": "allowance",
					"outputs": [
						{
							"internalType": "uint256",
							"name": "",
							"type": "uint256"
						}
					],
					"stateMutability": "view",
					"type": "function"
				},
				{
					"inputs": [
						{
							"internalType": "address",
							"name": "spender",
							"type": "address"
						},
						{
							"internalType": "uint256",
							"name": "amount",
							"type": "uint256"
						}
					],
					"name": "approve",
					"outputs": [
						{
							"internalType": "bool",
							"name": "",
							"type": "bool"
						}
					],
					"stateMutability": "nonpayable",
					"type": "function"
				},
				{
					"inputs": [
						{
							"internalType": "address",
							"name": "account",
							"type": "address"
						}
					],
					"name": "balanceOf",
					"outputs": [
						{
							"internalType": "uint256",
							"name": "",
							"type": "uint256"
						}
					],
					"stateMutability": "view",
					"type": "function"
				},
				{
					"inputs": [],
					"name": "decimals",
					"outputs": [
						{
							"internalType": "uint8",
							"name": "",
							"type": "uint8"
						}
					],
					"stateMutability": "view",
					"type": "function"
				},
				{
					"inputs": [
						{
							"internalType": "address",
							"name": "spender",
							"type": "address"
						},
						{
							"internalType": "uint256",
							"name": "subtractedValue",
							"type": "uint256"
						}
					],
					"name": "decreaseAllowance",
					"outputs": [
						{
							"internalType": "bool",
							"name": "",
							"type": "bool"
						}
					],
					"stateMutability": "nonpayable",
					"type": "function"
				},
				{
					"inputs": [
						{
							"internalType": "address",
							"name": "spender",
							"type": "address"
						},
						{
							"internalType": "uint256",
							"name": "addedValue",
							"type": "uint256"
						}
					],
					"name": "increaseAllowance",
					"outputs": [
						{
							"internalType": "bool",
							"name": "",
							"type": "bool"
						}
					],
					"stateMutability": "nonpayable",
					"type": "function"
				},
				{
					"inputs": [],
					"name": "maxSupply",
					"outputs": [
						{
							"internalType": "uint256",
							"name": "",
							"type": "uint256"
						}
					],
					"stateMutability": "view",
					"type": "function"
				},
				{
					"inputs": [
						{
							"internalType": "uint256",
							"name": "amount",
							"type": "uint256"
						}
					],
					"name": "mint",
					"outputs": [],
					"stateMutability": "nonpayable",
					"type": "function"
				},
				{
					"inputs": [
						{
							"internalType": "address",
							"name": "account",
							"type": "address"
						},
						{
							"internalType": "uint256",
							"name": "amount",
							"type": "uint256"
						}
					],
					"name": "mintStakerReward",
					"outputs": [
						{
							"internalType": "bool",
							"name": "",
							"type": "bool"
						}
					],
					"stateMutability": "nonpayable",
					"type": "function"
				},
				{
					"inputs": [],
					"name": "minter",
					"outputs": [
						{
							"internalType": "address",
							"name": "",
							"type": "address"
						}
					],
					"stateMutability": "view",
					"type": "function"
				},
				{
					"inputs": [],
					"name": "name",
					"outputs": [
						{
							"internalType": "string",
							"name": "",
							"type": "string"
						}
					],
					"stateMutability": "view",
					"type": "function"
				},
				{
					"inputs": [],
					"name": "pendingAdmin",
					"outputs": [
						{
							"internalType": "address",
							"name": "",
							"type": "address"
						}
					],
					"stateMutability": "view",
					"type": "function"
				},
				{
					"inputs": [],
					"name": "previousAdmin",
					"outputs": [
						{
							"internalType": "address",
							"name": "",
							"type": "address"
						}
					],
					"stateMutability": "view",
					"type": "function"
				},
				{
					"inputs": [],
					"name": "previousMinter",
					"outputs": [
						{
							"internalType": "address",
							"name": "",
							"type": "address"
						}
					],
					"stateMutability": "view",
					"type": "function"
				},
				{
					"inputs": [],
					"name": "previousPendingAdmin",
					"outputs": [
						{
							"internalType": "address",
							"name": "",
							"type": "address"
						}
					],
					"stateMutability": "view",
					"type": "function"
				},
				{
					"inputs": [
						{
							"internalType": "address",
							"name": "admin_",
							"type": "address"
						}
					],
					"name": "setPendingAdmin",
					"outputs": [],
					"stateMutability": "nonpayable",
					"type": "function"
				},
				{
					"inputs": [],
					"name": "stakerRewardPerBlock",
					"outputs": [
						{
							"internalType": "uint256",
							"name": "",
							"type": "uint256"
						}
					],
					"stateMutability": "view",
					"type": "function"
				},
				{
					"inputs": [],
					"name": "symbol",
					"outputs": [
						{
							"internalType": "string",
							"name": "",
							"type": "string"
						}
					],
					"stateMutability": "view",
					"type": "function"
				},
				{
					"inputs": [],
					"name": "totalSupply",
					"outputs": [
						{
							"internalType": "uint256",
							"name": "",
							"type": "uint256"
						}
					],
					"stateMutability": "view",
					"type": "function"
				},
				{
					"inputs": [
						{
							"internalType": "address",
							"name": "to",
							"type": "address"
						},
						{
							"internalType": "uint256",
							"name": "amount",
							"type": "uint256"
						}
					],
					"name": "transfer",
					"outputs": [
						{
							"internalType": "bool",
							"name": "",
							"type": "bool"
						}
					],
					"stateMutability": "nonpayable",
					"type": "function"
				},
				{
					"inputs": [
						{
							"internalType": "address",
							"name": "from",
							"type": "address"
						},
						{
							"internalType": "address",
							"name": "to",
							"type": "address"
						},
						{
							"internalType": "uint256",
							"name": "amount",
							"type": "uint256"
						}
					],
					"name": "transferFrom",
					"outputs": [
						{
							"internalType": "bool",
							"name": "",
							"type": "bool"
						}
					],
					"stateMutability": "nonpayable",
					"type": "function"
				},
				{
					"inputs": [],
					"name": "updateAdmin",
					"outputs": [],
					"stateMutability": "nonpayable",
					"type": "function"
				},
				{
					"inputs": [
						{
							"internalType": "address",
							"name": "minter_",
							"type": "address"
						}
					],
					"name": "updateMinter",
					"outputs": [],
					"stateMutability": "nonpayable",
					"type": "function"
				},
				{
					"inputs": [
						{
							"internalType": "uint256",
							"name": "stakerRewardPerBlock_",
							"type": "uint256"
						}
					],
					"name": "updateStakerRewardPerBlock",
					"outputs": [],
					"stateMutability": "nonpayable",
					"type": "function"
				}
			],
			"devdoc": {
				"details": "This token is the Governance token of Replay subchain on Theta Blockchain",
				"events": {
					"Approval(address,address,uint256)": {
						"details": "Emitted when the allowance of a `spender` for an `owner` is set by a call to {approve}. `value` is the new allowance."
					},
					"SetPendingAdmin(address,address)": {
						"details": "Event emitted when setPendingAdmin is updated by admin.",
						"params": {
							"newPendingAdmin": "- the current pendingAdmin value that was added by admin",
							"previousPendingAdmin": "- the previous pendingAdmin value that was updated by admin"
						}
					},
					"Transfer(address,address,uint256)": {
						"details": "Emitted when `value` tokens are moved from one account (`from`) to another (`to`). Note that `value` may be zero."
					},
					"UpdateAdmin(address,address)": {
						"details": "Event emitted when admin is updated - only pending admin can update.",
						"params": {
							"newAdmin": "- the current admin value - this is usually the pendingAdmin value and only called by pendingAdmin to perform this function",
							"previousAdmin": "- the previous admin value that was updated by pendingAdmin"
						}
					},
					"UpdateMinter(address,address)": {
						"details": "Event emitted when minted address is updated.",
						"params": {
							"newMinter": "- the address of current minter",
							"previousMinter": "- the address of previous minter"
						}
					},
					"UpdateStakerRewardPerBlock(uint256)": {
						"details": "Event emitted when _stakerRewardPerBlock is updated by admin.",
						"params": {
							"newStakerRewardPerBlock": "- this is the new _stakerRewardPerBlock value updated by admin."
						}
					}
				},
				"kind": "dev",
				"methods": {
					"allowance(address,address)": {
						"details": "See {IERC20-allowance}."
					},
					"approve(address,uint256)": {
						"details": "See {IERC20-approve}. NOTE: If `amount` is the maximum `uint256`, the allowance is not updated on `transferFrom`. This is semantically equivalent to an infinite approval. Requirements: - `spender` cannot be the zero address."
					},
					"balanceOf(address)": {
						"details": "See {IERC20-balanceOf}."
					},
					"constructor": {
						"details": "Initializes the contract during deployment",
						"params": {
							"admin_": "is the admin of the contract",
							"decimals_": "set to 18 on deploy.",
							"initDistrWallet_": "will hold the initial minted tokens",
							"initMintAmount_": "the initial mint tokens that will be held by initDistrWallet_",
							"maxSupply_": "is set to maxSupply of tokens allowed. The total supply of tokens should never exceed more than 1 billion",
							"minter_": "is the contract address of ValidatorStakeManager.",
							"name_": "is the name of the token",
							"stakerRewardPerBlock_": "will mint tokens based on stakerRewardPerBlock_ to reward the Subchain validator stakers.",
							"symbol_": "is the ticker symbol of the token"
						}
					},
					"decimals()": {
						"details": "Read only function for returning the decimals of token."
					},
					"decreaseAllowance(address,uint256)": {
						"details": "Atomically decreases the allowance granted to `spender` by the caller. This is an alternative to {approve} that can be used as a mitigation for problems described in {IERC20-approve}. Emits an {Approval} event indicating the updated allowance. Requirements: - `spender` cannot be the zero address. - `spender` must have allowance for the caller of at least `subtractedValue`."
					},
					"increaseAllowance(address,uint256)": {
						"details": "Atomically increases the allowance granted to `spender` by the caller. This is an alternative to {approve} that can be used as a mitigation for problems described in {IERC20-approve}. Emits an {Approval} event indicating the updated allowance. Requirements: - `spender` cannot be the zero address."
					},
					"mint(uint256)": {
						"details": "This function allows admin to mint additional tokens.",
						"params": {
							"amount": "- amount of tokens that will be minted by admin. They are minted to admin wallet."
						}
					},
					"mintStakerReward(address,uint256)": {
						"details": "This method allows the minter (e.g. the ValidatorStakeManager contract) to mint new tokens to reward, Minter is the ValidatorStakeManager contract.",
						"params": {
							"account": "- account to which the staker amount and rewards will be minted",
							"amount": "- amount that needs to be minted by the VSM"
						},
						"returns": {
							"_0": "bool - This returns true - if the rewards are minted and false if they are not."
						}
					},
					"name()": {
						"details": "Returns the name of the token."
					},
					"setPendingAdmin(address)": {
						"details": "Pending admin is an intermediate role which is only used to update an admin",
						"params": {
							"admin_": "the address of the pending admin that needs to be set"
						}
					},
					"stakerRewardPerBlock()": {
						"details": "This method tells the minter - ValidatorStakeManager contract how many new tokens are minted per block for the Subchain validator stakers",
						"returns": {
							"_0": "Returns reward per block that gets minted by minter for stakers based on their staked amount."
						}
					},
					"symbol()": {
						"details": "Returns the symbol of the token, usually a shorter version of the name."
					},
					"totalSupply()": {
						"details": "See {IERC20-totalSupply}."
					},
					"transfer(address,uint256)": {
						"details": "See {IERC20-transfer}. Requirements: - `to` cannot be the zero address. - the caller must have a balance of at least `amount`."
					},
					"transferFrom(address,address,uint256)": {
						"details": "See {IERC20-transferFrom}. Emits an {Approval} event indicating the updated allowance. This is not required by the EIP. See the note at the beginning of {ERC20}. NOTE: Does not update the allowance if the current allowance is the maximum `uint256`. Requirements: - `from` and `to` cannot be the zero address. - `from` must have a balance of at least `amount`. - the caller must have allowance for ``from``'s tokens of at least `amount`."
					},
					"updateAdmin()": {
						"details": "This function updates admin - only invoked by pending admin"
					},
					"updateMinter(address)": {
						"details": "This function updates Minter and can be called by admin only.",
						"params": {
							"minter_": "- The address of the minted contract this will be VSM - Validator Stake manager."
						}
					},
					"updateStakerRewardPerBlock(uint256)": {
						"details": "This function allows admin to update Staker reward per block",
						"params": {
							"stakerRewardPerBlock_": "- Minter will mint tokens based on stakerRewardPerBlock_ to reward the Subchain validator stakers."
						}
					}
				},
				"stateVariables": {
					"_decimals": {
						"details": "represents the decimal value of the token. Once set in constructor cannot be changes. Its set to 18"
					},
					"_stakerRewardPerBlock": {
						"details": "Rewards earned by staker per block based on staked amount"
					},
					"admin": {
						"details": "Admin of the contract - can mint tokens, change pendingAdmin and _stakerRewardPerBlock"
					},
					"maxSupply": {
						"details": "Max supply of the token"
					},
					"minter": {
						"details": "Minter is the one who mints tokens per each block based on _stakerRewardPerBlock"
					},
					"pendingAdmin": {
						"details": "Pending admin can update the admin"
					},
					"previousAdmin": {
						"details": "Previous Admin emitted when replaced by new pending admin"
					},
					"previousMinter": {
						"details": "Previous Minter emitted when replaced by new minter address"
					},
					"previousPendingAdmin": {
						"details": "Previous Pending Admin emitted when replaced by new admin"
					}
				},
				"title": "ReplayToken",
				"version": 1
			},
			"evm": {
				"assembly": "    /* \"contracts/ReplayToken.sol\":388:9307  contract ReplayToken is ERC20 {... */\n  mstore(0x40, 0xc0)\n    /* \"contracts/ReplayToken.sol\":4323:5526  constructor(... */\n  callvalue\n  dup1\n  iszero\n  tag_1\n  jumpi\n  0x00\n  dup1\n  revert\ntag_1:\n  pop\n  mload(0x40)\n  sub(codesize, bytecodeSize)\n  dup1\n  bytecodeSize\n  dup4\n  codecopy\n  dup2\n  dup2\n  add\n  0x40\n  mstore\n  dup2\n  add\n  swap1\n  tag_2\n  swap2\n  swap1\n  tag_3\n  jump\t// in\ntag_2:\n    /* \"contracts/ReplayToken.sol\":4615:4620  name_ */\n  dup9\n    /* \"contracts/ReplayToken.sol\":4622:4629  symbol_ */\n  dup9\n    /* \"@openzeppelin/contracts/token/ERC20/ERC20.sol\":2054:2059  name_ */\n  dup2\n    /* \"@openzeppelin/contracts/token/ERC20/ERC20.sol\":2046:2051  _name */\n  0x03\n    /* \"@openzeppelin/contracts/token/ERC20/ERC20.sol\":2046:2059  _name = name_ */\n  swap1\n  dup2\n  tag_7\n  swap2\n  swap1\n  tag_8\n  jump\t// in\ntag_7:\n  pop\n    /* \"@openzeppelin/contracts/token/ERC20/ERC20.sol\":2079:2086  symbol_ */\n  dup1\n    /* \"@openzeppelin/contracts/token/ERC20/ERC20.sol\":2069:2076  _symbol */\n  0x04\n    /* \"@openzeppelin/contracts/token/ERC20/ERC20.sol\":2069:2086  _symbol = symbol_ */\n  swap1\n  dup2\n  tag_9\n  swap2\n  swap1\n  tag_8\n  jump\t// in\ntag_9:\n  pop\n    /* \"@openzeppelin/contracts/token/ERC20/ERC20.sol\":1980:2093  constructor(string memory name_, string memory symbol_) {... */\n  pop\n  pop\n    /* \"contracts/ReplayToken.sol\":4671:4674  0x0 */\n  0x00\n    /* \"contracts/ReplayToken.sol\":4653:4675  admin_ != address(0x0) */\n  0xffffffffffffffffffffffffffffffffffffffff\n  and\n    /* \"contracts/ReplayToken.sol\":4653:4659  admin_ */\n  dup2\n    /* \"contracts/ReplayToken.sol\":4653:4675  admin_ != address(0x0) */\n  0xffffffffffffffffffffffffffffffffffffffff\n  and\n  sub\n    /* \"contracts/ReplayToken.sol\":4645:4701  require(admin_ != address(0x0), \"invalid admin address\") */\n  tag_11\n  jumpi\n  mload(0x40)\n  0x08c379a000000000000000000000000000000000000000000000000000000000\n  dup2\n  mstore\n  0x04\n  add\n  tag_12\n  swap1\n  tag_13\n  jump\t// in\ntag_12:\n  mload(0x40)\n  dup1\n  swap2\n  sub\n  swap1\n  revert\ntag_11:\n    /* \"contracts/ReplayToken.sol\":4738:4741  0x0 */\n  0x00\n    /* \"contracts/ReplayToken.sol\":4719:4742  minter_ != address(0x0) */\n  0xffffffffffffffffffffffffffffffffffffffff\n  and\n    /* \"contracts/ReplayToken.sol\":4719:4726  minter_ */\n  dup6\n    /* \"contracts/ReplayToken.sol\":4719:4742  minter_ != address(0x0) */\n  0xffffffffffffffffffffffffffffffffffffffff\n  and\n  sub\n    /* \"contracts/ReplayToken.sol\":4711:4770  require(minter_ != address(0x0), \"invalid minter_ address\") */\n  tag_14\n  jumpi\n  mload(0x40)\n  0x08c379a000000000000000000000000000000000000000000000000000000000\n  dup2\n  mstore\n  0x04\n  add\n  tag_15\n  swap1\n  tag_16\n  jump\t// in\ntag_15:\n  mload(0x40)\n  dup1\n  swap2\n  sub\n  swap1\n  revert\ntag_14:\n    /* \"contracts/ReplayToken.sol\":4816:4819  0x0 */\n  0x00\n    /* \"contracts/ReplayToken.sol\":4788:4820  initDistrWallet_ != address(0x0) */\n  0xffffffffffffffffffffffffffffffffffffffff\n  and\n    /* \"contracts/ReplayToken.sol\":4788:4804  initDistrWallet_ */\n  dup4\n    /* \"contracts/ReplayToken.sol\":4788:4820  initDistrWallet_ != address(0x0) */\n  0xffffffffffffffffffffffffffffffffffffffff\n  and\n  sub\n    /* \"contracts/ReplayToken.sol\":4780:4857  require(initDistrWallet_ != address(0x0), \"invalid initDistrWallet_ address\") */\n  tag_17\n  jumpi\n  mload(0x40)\n  0x08c379a000000000000000000000000000000000000000000000000000000000\n  dup2\n  mstore\n  0x04\n  add\n  tag_18\n  swap1\n  tag_19\n  jump\t// in\ntag_18:\n  mload(0x40)\n  dup1\n  swap2\n  sub\n  swap1\n  revert\ntag_17:\n    /* \"contracts/ReplayToken.sol\":4888:4889  0 */\n  0x00\n    /* \"contracts/ReplayToken.sol\":4875:4884  decimals_ */\n  dup8\n    /* \"contracts/ReplayToken.sol\":4875:4889  decimals_ != 0 */\n  0xff\n  and\n  sub\n    /* \"contracts/ReplayToken.sol\":4867:4910  require(decimals_ != 0, \"invalid decimals\") */\n  tag_20\n  jumpi\n  mload(0x40)\n  0x08c379a000000000000000000000000000000000000000000000000000000000\n  dup2\n  mstore\n  0x04\n  add\n  tag_21\n  swap1\n  tag_22\n  jump\t// in\ntag_21:\n  mload(0x40)\n  dup1\n  swap2\n  sub\n  swap1\n  revert\ntag_20:\n    /* \"contracts/ReplayToken.sol\":4942:4943  0 */\n  0x00\n    /* \"contracts/ReplayToken.sol\":4928:4938  maxSupply_ */\n  dup7\n    /* \"contracts/ReplayToken.sol\":4928:4943  maxSupply_ != 0 */\n  sub\n    /* \"contracts/ReplayToken.sol\":4920:4965  require(maxSupply_ != 0, \"invalid maxSupply\") */\n  tag_23\n  jumpi\n  mload(0x40)\n  0x08c379a000000000000000000000000000000000000000000000000000000000\n  dup2\n  mstore\n  0x04\n  add\n  tag_24\n  swap1\n  tag_25\n  jump\t// in\ntag_24:\n  mload(0x40)\n  dup1\n  swap2\n  sub\n  swap1\n  revert\ntag_23:\n    /* \"contracts/ReplayToken.sol\":4997:5005  10 ** 27 */\n  0x033b2e3c9fd0803ce8000000\n    /* \"contracts/ReplayToken.sol\":4983:4993  maxSupply_ */\n  dup7\n    /* \"contracts/ReplayToken.sol\":4983:5005  maxSupply_ <= 10 ** 27 */\n  gt\n  iszero\n    /* \"contracts/ReplayToken.sol\":4975:5029  require(maxSupply_ <= 10 ** 27, \"maxSupply too large\") */\n  tag_26\n  jumpi\n  mload(0x40)\n  0x08c379a000000000000000000000000000000000000000000000000000000000\n  dup2\n  mstore\n  0x04\n  add\n  tag_27\n  swap1\n  tag_28\n  jump\t// in\ntag_27:\n  mload(0x40)\n  dup1\n  swap2\n  sub\n  swap1\n  revert\ntag_26:\n    /* \"contracts/ReplayToken.sol\":5078:5088  maxSupply_ */\n  dup6\n    /* \"contracts/ReplayToken.sol\":5060:5075  initMintAmount_ */\n  dup3\n    /* \"contracts/ReplayToken.sol\":5060:5088  initMintAmount_ < maxSupply_ */\n  lt\n    /* \"contracts/ReplayToken.sol\":5039:5138  require(... */\n  tag_29\n  jumpi\n  mload(0x40)\n  0x08c379a000000000000000000000000000000000000000000000000000000000\n  dup2\n  mstore\n  0x04\n  add\n  tag_30\n  swap1\n  tag_31\n  jump\t// in\ntag_30:\n  mload(0x40)\n  dup1\n  swap2\n  sub\n  swap1\n  revert\ntag_29:\n    /* \"contracts/ReplayToken.sol\":5160:5169  decimals_ */\n  dup7\n    /* \"contracts/ReplayToken.sol\":5148:5169  _decimals = decimals_ */\n  0xff\n  and\n  0x80\n  dup2\n  0xff\n  and\n  dup2\n  mstore\n  pop\n  pop\n    /* \"contracts/ReplayToken.sol\":5191:5201  maxSupply_ */\n  dup6\n    /* \"contracts/ReplayToken.sol\":5179:5201  maxSupply = maxSupply_ */\n  0xa0\n  dup2\n  dup2\n  mstore\n  pop\n  pop\n    /* \"contracts/ReplayToken.sol\":5220:5227  minter_ */\n  dup5\n    /* \"contracts/ReplayToken.sol\":5211:5217  minter */\n  0x06\n  0x00\n    /* \"contracts/ReplayToken.sol\":5211:5227  minter = minter_ */\n  0x0100\n  exp\n  dup2\n  sload\n  dup2\n  0xffffffffffffffffffffffffffffffffffffffff\n  mul\n  not\n  and\n  swap1\n  dup4\n  0xffffffffffffffffffffffffffffffffffffffff\n  and\n  mul\n  or\n  swap1\n  sstore\n  pop\n    /* \"contracts/ReplayToken.sol\":5261:5282  stakerRewardPerBlock_ */\n  dup4\n    /* \"contracts/ReplayToken.sol\":5237:5258  _stakerRewardPerBlock */\n  0x05\n    /* \"contracts/ReplayToken.sol\":5237:5282  _stakerRewardPerBlock = stakerRewardPerBlock_ */\n  dup2\n  swap1\n  sstore\n  pop\n    /* \"contracts/ReplayToken.sol\":5300:5306  admin_ */\n  dup1\n    /* \"contracts/ReplayToken.sol\":5292:5297  admin */\n  0x07\n  0x00\n    /* \"contracts/ReplayToken.sol\":5292:5306  admin = admin_ */\n  0x0100\n  exp\n  dup2\n  sload\n  dup2\n  0xffffffffffffffffffffffffffffffffffffffff\n  mul\n  not\n  and\n  swap1\n  dup4\n  0xffffffffffffffffffffffffffffffffffffffff\n  and\n  mul\n  or\n  swap1\n  sstore\n  pop\n    /* \"contracts/ReplayToken.sol\":5316:5356  _mint(initDistrWallet_, initMintAmount_) */\n  tag_32\n    /* \"contracts/ReplayToken.sol\":5322:5338  initDistrWallet_ */\n  dup4\n    /* \"contracts/ReplayToken.sol\":5340:5355  initMintAmount_ */\n  dup4\n    /* \"contracts/ReplayToken.sol\":5316:5321  _mint */\n  shl(0x20, tag_33)\n    /* \"contracts/ReplayToken.sol\":5316:5356  _mint(initDistrWallet_, initMintAmount_) */\n  0x20\n  shr\n  jump\t// in\ntag_32:\n    /* \"contracts/ReplayToken.sol\":5400:5406  minter */\n  0x06\n  0x00\n  swap1\n  sload\n  swap1\n  0x0100\n  exp\n  swap1\n  div\n  0xffffffffffffffffffffffffffffffffffffffff\n  and\n    /* \"contracts/ReplayToken.sol\":5371:5407  UpdateMinter(previousMinter, minter) */\n  0xffffffffffffffffffffffffffffffffffffffff\n  and\n    /* \"contracts/ReplayToken.sol\":5384:5398  previousMinter */\n  0x09\n  0x00\n  swap1\n  sload\n  swap1\n  0x0100\n  exp\n  swap1\n  div\n  0xffffffffffffffffffffffffffffffffffffffff\n  and\n    /* \"contracts/ReplayToken.sol\":5371:5407  UpdateMinter(previousMinter, minter) */\n  0xffffffffffffffffffffffffffffffffffffffff\n  and\n  0xfb80f39493422136408edd986f7ca83c10534204422dd1dfebb055de4ef0fd53\n  mload(0x40)\n  mload(0x40)\n  dup1\n  swap2\n  sub\n  swap1\n  log3\n    /* \"contracts/ReplayToken.sol\":5449:5454  admin */\n  0x07\n  0x00\n  swap1\n  sload\n  swap1\n  0x0100\n  exp\n  swap1\n  div\n  0xffffffffffffffffffffffffffffffffffffffff\n  and\n    /* \"contracts/ReplayToken.sol\":5422:5455  UpdateAdmin(previousAdmin, admin) */\n  0xffffffffffffffffffffffffffffffffffffffff\n  and\n    /* \"contracts/ReplayToken.sol\":5434:5447  previousAdmin */\n  0x0b\n  0x00\n  swap1\n  sload\n  swap1\n  0x0100\n  exp\n  swap1\n  div\n  0xffffffffffffffffffffffffffffffffffffffff\n  and\n    /* \"contracts/ReplayToken.sol\":5422:5455  UpdateAdmin(previousAdmin, admin) */\n  0xffffffffffffffffffffffffffffffffffffffff\n  and\n  0xcd6ba6b7da89e039d53b5d981527a893755342bb9d8e5c2f61f6638f1fb5192b\n  mload(0x40)\n  mload(0x40)\n  dup1\n  swap2\n  sub\n  swap1\n  log3\n    /* \"contracts/ReplayToken.sol\":5470:5519  UpdateStakerRewardPerBlock(_stakerRewardPerBlock) */\n  0xd65d781db82f0bd55f732ea1b96f4c6565750df815c18a70962cd8405274e243\n    /* \"contracts/ReplayToken.sol\":5497:5518  _stakerRewardPerBlock */\n  sload(0x05)\n    /* \"contracts/ReplayToken.sol\":5470:5519  UpdateStakerRewardPerBlock(_stakerRewardPerBlock) */\n  mload(0x40)\n  tag_34\n  swap2\n  swap1\n  tag_35\n  jump\t// in\ntag_34:\n  mload(0x40)\n  dup1\n  swap2\n  sub\n  swap1\n  log1\n    /* \"contracts/ReplayToken.sol\":4323:5526  constructor(... */\n  pop\n  pop\n  pop\n  pop\n  pop\n  pop\n  pop\n  pop\n  pop\n    /* \"contracts/ReplayToken.sol\":388:9307  contract ReplayToken is ERC20 {... */\n  jump(tag_36)\n    /* \"@openzeppelin/contracts/token/ERC20/ERC20.sol\":8520:9055  function _mint(address account, uint256 amount) internal virtual {... */\ntag_33:\n    /* \"@openzeppelin/contracts/token/ERC20/ERC20.sol\":8622:8623  0 */\n  0x00\n    /* \"@openzeppelin/contracts/token/ERC20/ERC20.sol\":8603:8624  account != address(0) */\n  0xffffffffffffffffffffffffffffffffffffffff\n  and\n    /* \"@openzeppelin/contracts/token/ERC20/ERC20.sol\":8603:8610  account */\n  dup3\n    /* \"@openzeppelin/contracts/token/ERC20/ERC20.sol\":8603:8624  account != address(0) */\n  0xffffffffffffffffffffffffffffffffffffffff\n  and\n  sub\n    /* \"@openzeppelin/contracts/token/ERC20/ERC20.sol\":8595:8660  require(account != address(0), \"ERC20: mint to the zero address\") */\n  tag_38\n  jumpi\n  mload(0x40)\n  0x08c379a000000000000000000000000000000000000000000000000000000000\n  dup2\n  mstore\n  0x04\n  add\n  tag_39\n  swap1\n  tag_40\n  jump\t// in\ntag_39:\n  mload(0x40)\n  dup1\n  swap2\n  sub\n  swap1\n  revert\ntag_38:\n    /* \"@openzeppelin/contracts/token/ERC20/ERC20.sol\":8671:8720  _beforeTokenTransfer(address(0), account, amount) */\n  tag_41\n    /* \"@openzeppelin/contracts/token/ERC20/ERC20.sol\":8700:8701  0 */\n  0x00\n    /* \"@openzeppelin/contracts/token/ERC20/ERC20.sol\":8704:8711  account */\n  dup4\n    /* \"@openzeppelin/contracts/token/ERC20/ERC20.sol\":8713:8719  amount */\n  dup4\n    /* \"@openzeppelin/contracts/token/ERC20/ERC20.sol\":8671:8691  _beforeTokenTransfer */\n  shl(0x20, tag_42)\n    /* \"@openzeppelin/contracts/token/ERC20/ERC20.sol\":8671:8720  _beforeTokenTransfer(address(0), account, amount) */\n  0x20\n  shr\n  jump\t// in\ntag_41:\n    /* \"@openzeppelin/contracts/token/ERC20/ERC20.sol\":8747:8753  amount */\n  dup1\n    /* \"@openzeppelin/contracts/token/ERC20/ERC20.sol\":8731:8743  _totalSupply */\n  0x02\n  0x00\n    /* \"@openzeppelin/contracts/token/ERC20/ERC20.sol\":8731:8753  _totalSupply += amount */\n  dup3\n  dup3\n  sload\n  tag_43\n  swap2\n  swap1\n  tag_44\n  jump\t// in\ntag_43:\n  swap3\n  pop\n  pop\n  dup2\n  swap1\n  sstore\n  pop\n    /* \"@openzeppelin/contracts/token/ERC20/ERC20.sol\":8921:8927  amount */\n  dup1\n    /* \"@openzeppelin/contracts/token/ERC20/ERC20.sol\":8899:8908  _balances */\n  0x00\n    /* \"@openzeppelin/contracts/token/ERC20/ERC20.sol\":8899:8917  _balances[account] */\n  dup1\n    /* \"@openzeppelin/contracts/token/ERC20/ERC20.sol\":8909:8916  account */\n  dup5\n    /* \"@openzeppelin/contracts/token/ERC20/ERC20.sol\":8899:8917  _balances[account] */\n  0xffffffffffffffffffffffffffffffffffffffff\n  and\n  0xffffffffffffffffffffffffffffffffffffffff\n  and\n  dup2\n  mstore\n  0x20\n  add\n  swap1\n  dup2\n  mstore\n  0x20\n  add\n  0x00\n  keccak256\n  0x00\n    /* \"@openzeppelin/contracts/token/ERC20/ERC20.sol\":8899:8927  _balances[account] += amount */\n  dup3\n  dup3\n  sload\n  add\n  swap3\n  pop\n  pop\n  dup2\n  swap1\n  sstore\n  pop\n    /* \"@openzeppelin/contracts/token/ERC20/ERC20.sol\":8973:8980  account */\n  dup2\n    /* \"@openzeppelin/contracts/token/ERC20/ERC20.sol\":8952:8989  Transfer(address(0), account, amount) */\n  0xffffffffffffffffffffffffffffffffffffffff\n  and\n    /* \"@openzeppelin/contracts/token/ERC20/ERC20.sol\":8969:8970  0 */\n  0x00\n    /* \"@openzeppelin/contracts/token/ERC20/ERC20.sol\":8952:8989  Transfer(address(0), account, amount) */\n  0xffffffffffffffffffffffffffffffffffffffff\n  and\n  0xddf252ad1be2c89b69c2b068fc378daa952ba7f163c4a11628f55a4df523b3ef\n    /* \"@openzeppelin/contracts/token/ERC20/ERC20.sol\":8982:8988  amount */\n  dup4\n    /* \"@openzeppelin/contracts/token/ERC20/ERC20.sol\":8952:8989  Transfer(address(0), account, amount) */\n  mload(0x40)\n  tag_45\n  swap2\n  swap1\n  tag_35\n  jump\t// in\ntag_45:\n  mload(0x40)\n  dup1\n  swap2\n  sub\n  swap1\n  log3\n    /* \"@openzeppelin/contracts/token/ERC20/ERC20.sol\":9000:9048  _afterTokenTransfer(address(0), account, amount) */\n  tag_46\n    /* \"@openzeppelin/contracts/token/ERC20/ERC20.sol\":9028:9029  0 */\n  0x00\n    /* \"@openzeppelin/contracts/token/ERC20/ERC20.sol\":9032:9039  account */\n  dup4\n    /* \"@openzeppelin/contracts/token/ERC20/ERC20.sol\":9041:9047  amount */\n  dup4\n    /* \"@openzeppelin/contracts/token/ERC20/ERC20.sol\":9000:9019  _afterTokenTransfer */\n  shl(0x20, tag_47)\n    /* \"@openzeppelin/contracts/token/ERC20/ERC20.sol\":9000:9048  _afterTokenTransfer(address(0), account, amount) */\n  0x20\n  shr\n  jump\t// in\ntag_46:\n    /* \"@openzeppelin/contracts/token/ERC20/ERC20.sol\":8520:9055  function _mint(address account, uint256 amount) internal virtual {... */\n  pop\n  pop\n  jump\t// out\n    /* \"@openzeppelin/contracts/token/ERC20/ERC20.sol\":12073:12164  function _beforeTokenTransfer(address from, address to, uint256 amount) internal virtual {} */\ntag_42:\n  pop\n  pop\n  pop\n  jump\t// out\n    /* \"@openzeppelin/contracts/token/ERC20/ERC20.sol\":12752:12842  function _afterTokenTransfer(address from, address to, uint256 amount) internal virtual {} */\ntag_47:\n  pop\n  pop\n  pop\n  jump\t// out\n    /* \"#utility.yul\":7:82   */\ntag_50:\n    /* \"#utility.yul\":40:46   */\n  0x00\n    /* \"#utility.yul\":73:75   */\n  0x40\n    /* \"#utility.yul\":67:76   */\n  mload\n    /* \"#utility.yul\":57:76   */\n  swap1\n  pop\n    /* \"#utility.yul\":7:82   */\n  swap1\n  jump\t// out\n    /* \"#utility.yul\":88:205   */\ntag_51:\n    /* \"#utility.yul\":197:198   */\n  0x00\n    /* \"#utility.yul\":194:195   */\n  dup1\n    /* \"#utility.yul\":187:199   */\n  revert\n    /* \"#utility.yul\":211:328   */\ntag_52:\n    /* \"#utility.yul\":320:321   */\n  0x00\n    /* \"#utility.yul\":317:318   */\n  dup1\n    /* \"#utility.yul\":310:322   */\n  revert\n    /* \"#utility.yul\":334:451   */\ntag_53:\n    /* \"#utility.yul\":443:444   */\n  0x00\n    /* \"#utility.yul\":440:441   */\n  dup1\n    /* \"#utility.yul\":433:445   */\n  revert\n    /* \"#utility.yul\":457:574   */\ntag_54:\n    /* \"#utility.yul\":566:567   */\n  0x00\n    /* \"#utility.yul\":563:564   */\n  dup1\n    /* \"#utility.yul\":556:568   */\n  revert\n    /* \"#utility.yul\":580:682   */\ntag_55:\n    /* \"#utility.yul\":621:627   */\n  0x00\n    /* \"#utility.yul\":672:674   */\n  0x1f\n    /* \"#utility.yul\":668:675   */\n  not\n    /* \"#utility.yul\":663:665   */\n  0x1f\n    /* \"#utility.yul\":656:661   */\n  dup4\n    /* \"#utility.yul\":652:666   */\n  add\n    /* \"#utility.yul\":648:676   */\n  and\n    /* \"#utility.yul\":638:676   */\n  swap1\n  pop\n    /* \"#utility.yul\":580:682   */\n  swap2\n  swap1\n  pop\n  jump\t// out\n    /* \"#utility.yul\":688:868   */\ntag_56:\n    /* \"#utility.yul\":736:813   */\n  0x4e487b7100000000000000000000000000000000000000000000000000000000\n    /* \"#utility.yul\":733:734   */\n  0x00\n    /* \"#utility.yul\":726:814   */\n  mstore\n    /* \"#utility.yul\":833:837   */\n  0x41\n    /* \"#utility.yul\":830:831   */\n  0x04\n    /* \"#utility.yul\":823:838   */\n  mstore\n    /* \"#utility.yul\":857:861   */\n  0x24\n    /* \"#utility.yul\":854:855   */\n  0x00\n    /* \"#utility.yul\":847:862   */\n  revert\n    /* \"#utility.yul\":874:1155   */\ntag_57:\n    /* \"#utility.yul\":957:984   */\n  tag_119\n    /* \"#utility.yul\":979:983   */\n  dup3\n    /* \"#utility.yul\":957:984   */\n  tag_55\n  jump\t// in\ntag_119:\n    /* \"#utility.yul\":949:955   */\n  dup2\n    /* \"#utility.yul\":945:985   */\n  add\n    /* \"#utility.yul\":1087:1093   */\n  dup2\n    /* \"#utility.yul\":1075:1085   */\n  dup2\n    /* \"#utility.yul\":1072:1094   */\n  lt\n    /* \"#utility.yul\":1051:1069   */\n  0xffffffffffffffff\n    /* \"#utility.yul\":1039:1049   */\n  dup3\n    /* \"#utility.yul\":1036:1070   */\n  gt\n    /* \"#utility.yul\":1033:1095   */\n  or\n    /* \"#utility.yul\":1030:1118   */\n  iszero\n  tag_120\n  jumpi\n    /* \"#utility.yul\":1098:1116   */\n  tag_121\n  tag_56\n  jump\t// in\ntag_121:\n    /* \"#utility.yul\":1030:1118   */\ntag_120:\n    /* \"#utility.yul\":1138:1148   */\n  dup1\n    /* \"#utility.yul\":1134:1136   */\n  0x40\n    /* \"#utility.yul\":1127:1149   */\n  mstore\n    /* \"#utility.yul\":917:1155   */\n  pop\n    /* \"#utility.yul\":874:1155   */\n  pop\n  pop\n  jump\t// out\n    /* \"#utility.yul\":1161:1290   */\ntag_58:\n    /* \"#utility.yul\":1195:1201   */\n  0x00\n    /* \"#utility.yul\":1222:1242   */\n  tag_123\n  tag_50\n  jump\t// in\ntag_123:\n    /* \"#utility.yul\":1212:1242   */\n  swap1\n  pop\n    /* \"#utility.yul\":1251:1284   */\n  tag_124\n    /* \"#utility.yul\":1279:1283   */\n  dup3\n    /* \"#utility.yul\":1271:1277   */\n  dup3\n    /* \"#utility.yul\":1251:1284   */\n  tag_57\n  jump\t// in\ntag_124:\n    /* \"#utility.yul\":1161:1290   */\n  swap2\n  swap1\n  pop\n  jump\t// out\n    /* \"#utility.yul\":1296:1604   */\ntag_59:\n    /* \"#utility.yul\":1358:1362   */\n  0x00\n    /* \"#utility.yul\":1448:1466   */\n  0xffffffffffffffff\n    /* \"#utility.yul\":1440:1446   */\n  dup3\n    /* \"#utility.yul\":1437:1467   */\n  gt\n    /* \"#utility.yul\":1434:1490   */\n  iszero\n  tag_126\n  jumpi\n    /* \"#utility.yul\":1470:1488   */\n  tag_127\n  tag_56\n  jump\t// in\ntag_127:\n    /* \"#utility.yul\":1434:1490   */\ntag_126:\n    /* \"#utility.yul\":1508:1537   */\n  tag_128\n    /* \"#utility.yul\":1530:1536   */\n  dup3\n    /* \"#utility.yul\":1508:1537   */\n  tag_55\n  jump\t// in\ntag_128:\n    /* \"#utility.yul\":1500:1537   */\n  swap1\n  pop\n    /* \"#utility.yul\":1592:1596   */\n  0x20\n    /* \"#utility.yul\":1586:1590   */\n  dup2\n    /* \"#utility.yul\":1582:1597   */\n  add\n    /* \"#utility.yul\":1574:1597   */\n  swap1\n  pop\n    /* \"#utility.yul\":1296:1604   */\n  swap2\n  swap1\n  pop\n  jump\t// out\n    /* \"#utility.yul\":1610:1856   */\ntag_60:\n    /* \"#utility.yul\":1691:1692   */\n  0x00\n    /* \"#utility.yul\":1701:1814   */\ntag_130:\n    /* \"#utility.yul\":1715:1721   */\n  dup4\n    /* \"#utility.yul\":1712:1713   */\n  dup2\n    /* \"#utility.yul\":1709:1722   */\n  lt\n    /* \"#utility.yul\":1701:1814   */\n  iszero\n  tag_132\n  jumpi\n    /* \"#utility.yul\":1800:1801   */\n  dup1\n    /* \"#utility.yul\":1795:1798   */\n  dup3\n    /* \"#utility.yul\":1791:1802   */\n  add\n    /* \"#utility.yul\":1785:1803   */\n  mload\n    /* \"#utility.yul\":1781:1782   */\n  dup2\n    /* \"#utility.yul\":1776:1779   */\n  dup5\n    /* \"#utility.yul\":1772:1783   */\n  add\n    /* \"#utility.yul\":1765:1804   */\n  mstore\n    /* \"#utility.yul\":1737:1739   */\n  0x20\n    /* \"#utility.yul\":1734:1735   */\n  dup2\n    /* \"#utility.yul\":1730:1740   */\n  add\n    /* \"#utility.yul\":1725:1740   */\n  swap1\n  pop\n    /* \"#utility.yul\":1701:1814   */\n  jump(tag_130)\ntag_132:\n    /* \"#utility.yul\":1848:1849   */\n  0x00\n    /* \"#utility.yul\":1839:1845   */\n  dup5\n    /* \"#utility.yul\":1834:1837   */\n  dup5\n    /* \"#utility.yul\":1830:1846   */\n  add\n    /* \"#utility.yul\":1823:1850   */\n  mstore\n    /* \"#utility.yul\":1672:1856   */\n  pop\n    /* \"#utility.yul\":1610:1856   */\n  pop\n  pop\n  pop\n  jump\t// out\n    /* \"#utility.yul\":1862:2296   */\ntag_61:\n    /* \"#utility.yul\":1951:1956   */\n  0x00\n    /* \"#utility.yul\":1976:2042   */\n  tag_134\n    /* \"#utility.yul\":1992:2041   */\n  tag_135\n    /* \"#utility.yul\":2034:2040   */\n  dup5\n    /* \"#utility.yul\":1992:2041   */\n  tag_59\n  jump\t// in\ntag_135:\n    /* \"#utility.yul\":1976:2042   */\n  tag_58\n  jump\t// in\ntag_134:\n    /* \"#utility.yul\":1967:2042   */\n  swap1\n  pop\n    /* \"#utility.yul\":2065:2071   */\n  dup3\n    /* \"#utility.yul\":2058:2063   */\n  dup2\n    /* \"#utility.yul\":2051:2072   */\n  mstore\n    /* \"#utility.yul\":2103:2107   */\n  0x20\n    /* \"#utility.yul\":2096:2101   */\n  dup2\n    /* \"#utility.yul\":2092:2108   */\n  add\n    /* \"#utility.yul\":2141:2144   */\n  dup5\n    /* \"#utility.yul\":2132:2138   */\n  dup5\n    /* \"#utility.yul\":2127:2130   */\n  dup5\n    /* \"#utility.yul\":2123:2139   */\n  add\n    /* \"#utility.yul\":2120:2145   */\n  gt\n    /* \"#utility.yul\":2117:2229   */\n  iszero\n  tag_136\n  jumpi\n    /* \"#utility.yul\":2148:2227   */\n  tag_137\n  tag_54\n  jump\t// in\ntag_137:\n    /* \"#utility.yul\":2117:2229   */\ntag_136:\n    /* \"#utility.yul\":2238:2290   */\n  tag_138\n    /* \"#utility.yul\":2283:2289   */\n  dup5\n    /* \"#utility.yul\":2278:2281   */\n  dup3\n    /* \"#utility.yul\":2273:2276   */\n  dup6\n    /* \"#utility.yul\":2238:2290   */\n  tag_60\n  jump\t// in\ntag_138:\n    /* \"#utility.yul\":1957:2296   */\n  pop\n    /* \"#utility.yul\":1862:2296   */\n  swap4\n  swap3\n  pop\n  pop\n  pop\n  jump\t// out\n    /* \"#utility.yul\":2316:2671   */\ntag_62:\n    /* \"#utility.yul\":2383:2388   */\n  0x00\n    /* \"#utility.yul\":2432:2435   */\n  dup3\n    /* \"#utility.yul\":2425:2429   */\n  0x1f\n    /* \"#utility.yul\":2417:2423   */\n  dup4\n    /* \"#utility.yul\":2413:2430   */\n  add\n    /* \"#utility.yul\":2409:2436   */\n  slt\n    /* \"#utility.yul\":2399:2521   */\n  tag_140\n  jumpi\n    /* \"#utility.yul\":2440:2519   */\n  tag_141\n  tag_53\n  jump\t// in\ntag_141:\n    /* \"#utility.yul\":2399:2521   */\ntag_140:\n    /* \"#utility.yul\":2550:2556   */\n  dup2\n    /* \"#utility.yul\":2544:2557   */\n  mload\n    /* \"#utility.yul\":2575:2665   */\n  tag_142\n    /* \"#utility.yul\":2661:2664   */\n  dup5\n    /* \"#utility.yul\":2653:2659   */\n  dup3\n    /* \"#utility.yul\":2646:2650   */\n  0x20\n    /* \"#utility.yul\":2638:2644   */\n  dup7\n    /* \"#utility.yul\":2634:2651   */\n  add\n    /* \"#utility.yul\":2575:2665   */\n  tag_61\n  jump\t// in\ntag_142:\n    /* \"#utility.yul\":2566:2665   */\n  swap2\n  pop\n    /* \"#utility.yul\":2389:2671   */\n  pop\n    /* \"#utility.yul\":2316:2671   */\n  swap3\n  swap2\n  pop\n  pop\n  jump\t// out\n    /* \"#utility.yul\":2677:2763   */\ntag_63:\n    /* \"#utility.yul\":2712:2719   */\n  0x00\n    /* \"#utility.yul\":2752:2756   */\n  0xff\n    /* \"#utility.yul\":2745:2750   */\n  dup3\n    /* \"#utility.yul\":2741:2757   */\n  and\n    /* \"#utility.yul\":2730:2757   */\n  swap1\n  pop\n    /* \"#utility.yul\":2677:2763   */\n  swap2\n  swap1\n  pop\n  jump\t// out\n    /* \"#utility.yul\":2769:2887   */\ntag_64:\n    /* \"#utility.yul\":2840:2862   */\n  tag_145\n    /* \"#utility.yul\":2856:2861   */\n  dup2\n    /* \"#utility.yul\":2840:2862   */\n  tag_63\n  jump\t// in\ntag_145:\n    /* \"#utility.yul\":2833:2838   */\n  dup2\n    /* \"#utility.yul\":2830:2863   */\n  eq\n    /* \"#utility.yul\":2820:2881   */\n  tag_146\n  jumpi\n    /* \"#utility.yul\":2877:2878   */\n  0x00\n    /* \"#utility.yul\":2874:2875   */\n  dup1\n    /* \"#utility.yul\":2867:2879   */\n  revert\n    /* \"#utility.yul\":2820:2881   */\ntag_146:\n    /* \"#utility.yul\":2769:2887   */\n  pop\n  jump\t// out\n    /* \"#utility.yul\":2893:3032   */\ntag_65:\n    /* \"#utility.yul\":2948:2953   */\n  0x00\n    /* \"#utility.yul\":2979:2985   */\n  dup2\n    /* \"#utility.yul\":2973:2986   */\n  mload\n    /* \"#utility.yul\":2964:2986   */\n  swap1\n  pop\n    /* \"#utility.yul\":2995:3026   */\n  tag_148\n    /* \"#utility.yul\":3020:3025   */\n  dup2\n    /* \"#utility.yul\":2995:3026   */\n  tag_64\n  jump\t// in\ntag_148:\n    /* \"#utility.yul\":2893:3032   */\n  swap3\n  swap2\n  pop\n  pop\n  jump\t// out\n    /* \"#utility.yul\":3038:3115   */\ntag_66:\n    /* \"#utility.yul\":3075:3082   */\n  0x00\n    /* \"#utility.yul\":3104:3109   */\n  dup2\n    /* \"#utility.yul\":3093:3109   */\n  swap1\n  pop\n    /* \"#utility.yul\":3038:3115   */\n  swap2\n  swap1\n  pop\n  jump\t// out\n    /* \"#utility.yul\":3121:3243   */\ntag_67:\n    /* \"#utility.yul\":3194:3218   */\n  tag_151\n    /* \"#utility.yul\":3212:3217   */\n  dup2\n    /* \"#utility.yul\":3194:3218   */\n  tag_66\n  jump\t// in\ntag_151:\n    /* \"#utility.yul\":3187:3192   */\n  dup2\n    /* \"#utility.yul\":3184:3219   */\n  eq\n    /* \"#utility.yul\":3174:3237   */\n  tag_152\n  jumpi\n    /* \"#utility.yul\":3233:3234   */\n  0x00\n    /* \"#utility.yul\":3230:3231   */\n  dup1\n    /* \"#utility.yul\":3223:3235   */\n  revert\n    /* \"#utility.yul\":3174:3237   */\ntag_152:\n    /* \"#utility.yul\":3121:3243   */\n  pop\n  jump\t// out\n    /* \"#utility.yul\":3249:3392   */\ntag_68:\n    /* \"#utility.yul\":3306:3311   */\n  0x00\n    /* \"#utility.yul\":3337:3343   */\n  dup2\n    /* \"#utility.yul\":3331:3344   */\n  mload\n    /* \"#utility.yul\":3322:3344   */\n  swap1\n  pop\n    /* \"#utility.yul\":3353:3386   */\n  tag_154\n    /* \"#utility.yul\":3380:3385   */\n  dup2\n    /* \"#utility.yul\":3353:3386   */\n  tag_67\n  jump\t// in\ntag_154:\n    /* \"#utility.yul\":3249:3392   */\n  swap3\n  swap2\n  pop\n  pop\n  jump\t// out\n    /* \"#utility.yul\":3398:3524   */\ntag_69:\n    /* \"#utility.yul\":3435:3442   */\n  0x00\n    /* \"#utility.yul\":3475:3517   */\n  0xffffffffffffffffffffffffffffffffffffffff\n    /* \"#utility.yul\":3468:3473   */\n  dup3\n    /* \"#utility.yul\":3464:3518   */\n  and\n    /* \"#utility.yul\":3453:3518   */\n  swap1\n  pop\n    /* \"#utility.yul\":3398:3524   */\n  swap2\n  swap1\n  pop\n  jump\t// out\n    /* \"#utility.yul\":3530:3626   */\ntag_70:\n    /* \"#utility.yul\":3567:3574   */\n  0x00\n    /* \"#utility.yul\":3596:3620   */\n  tag_157\n    /* \"#utility.yul\":3614:3619   */\n  dup3\n    /* \"#utility.yul\":3596:3620   */\n  tag_69\n  jump\t// in\ntag_157:\n    /* \"#utility.yul\":3585:3620   */\n  swap1\n  pop\n    /* \"#utility.yul\":3530:3626   */\n  swap2\n  swap1\n  pop\n  jump\t// out\n    /* \"#utility.yul\":3632:3754   */\ntag_71:\n    /* \"#utility.yul\":3705:3729   */\n  tag_159\n    /* \"#utility.yul\":3723:3728   */\n  dup2\n    /* \"#utility.yul\":3705:3729   */\n  tag_70\n  jump\t// in\ntag_159:\n    /* \"#utility.yul\":3698:3703   */\n  dup2\n    /* \"#utility.yul\":3695:3730   */\n  eq\n    /* \"#utility.yul\":3685:3748   */\n  tag_160\n  jumpi\n    /* \"#utility.yul\":3744:3745   */\n  0x00\n    /* \"#utility.yul\":3741:3742   */\n  dup1\n    /* \"#utility.yul\":3734:3746   */\n  revert\n    /* \"#utility.yul\":3685:3748   */\ntag_160:\n    /* \"#utility.yul\":3632:3754   */\n  pop\n  jump\t// out\n    /* \"#utility.yul\":3760:3903   */\ntag_72:\n    /* \"#utility.yul\":3817:3822   */\n  0x00\n    /* \"#utility.yul\":3848:3854   */\n  dup2\n    /* \"#utility.yul\":3842:3855   */\n  mload\n    /* \"#utility.yul\":3833:3855   */\n  swap1\n  pop\n    /* \"#utility.yul\":3864:3897   */\n  tag_162\n    /* \"#utility.yul\":3891:3896   */\n  dup2\n    /* \"#utility.yul\":3864:3897   */\n  tag_71\n  jump\t// in\ntag_162:\n    /* \"#utility.yul\":3760:3903   */\n  swap3\n  swap2\n  pop\n  pop\n  jump\t// out\n    /* \"#utility.yul\":3909:5856   */\ntag_3:\n    /* \"#utility.yul\":4069:4075   */\n  0x00\n    /* \"#utility.yul\":4077:4083   */\n  dup1\n    /* \"#utility.yul\":4085:4091   */\n  0x00\n    /* \"#utility.yul\":4093:4099   */\n  dup1\n    /* \"#utility.yul\":4101:4107   */\n  0x00\n    /* \"#utility.yul\":4109:4115   */\n  dup1\n    /* \"#utility.yul\":4117:4123   */\n  0x00\n    /* \"#utility.yul\":4125:4131   */\n  dup1\n    /* \"#utility.yul\":4133:4139   */\n  0x00\n    /* \"#utility.yul\":4182:4185   */\n  0x0120\n    /* \"#utility.yul\":4170:4179   */\n  dup11\n    /* \"#utility.yul\":4161:4168   */\n  dup13\n    /* \"#utility.yul\":4157:4180   */\n  sub\n    /* \"#utility.yul\":4153:4186   */\n  slt\n    /* \"#utility.yul\":4150:4270   */\n  iszero\n  tag_164\n  jumpi\n    /* \"#utility.yul\":4189:4268   */\n  tag_165\n  tag_51\n  jump\t// in\ntag_165:\n    /* \"#utility.yul\":4150:4270   */\ntag_164:\n    /* \"#utility.yul\":4330:4331   */\n  0x00\n    /* \"#utility.yul\":4319:4328   */\n  dup11\n    /* \"#utility.yul\":4315:4332   */\n  add\n    /* \"#utility.yul\":4309:4333   */\n  mload\n    /* \"#utility.yul\":4360:4378   */\n  0xffffffffffffffff\n    /* \"#utility.yul\":4352:4358   */\n  dup2\n    /* \"#utility.yul\":4349:4379   */\n  gt\n    /* \"#utility.yul\":4346:4463   */\n  iszero\n  tag_166\n  jumpi\n    /* \"#utility.yul\":4382:4461   */\n  tag_167\n  tag_52\n  jump\t// in\ntag_167:\n    /* \"#utility.yul\":4346:4463   */\ntag_166:\n    /* \"#utility.yul\":4487:4561   */\n  tag_168\n    /* \"#utility.yul\":4553:4560   */\n  dup13\n    /* \"#utility.yul\":4544:4550   */\n  dup3\n    /* \"#utility.yul\":4533:4542   */\n  dup14\n    /* \"#utility.yul\":4529:4551   */\n  add\n    /* \"#utility.yul\":4487:4561   */\n  tag_62\n  jump\t// in\ntag_168:\n    /* \"#utility.yul\":4477:4561   */\n  swap10\n  pop\n    /* \"#utility.yul\":4280:4571   */\n  pop\n    /* \"#utility.yul\":4631:4633   */\n  0x20\n    /* \"#utility.yul\":4620:4629   */\n  dup11\n    /* \"#utility.yul\":4616:4634   */\n  add\n    /* \"#utility.yul\":4610:4635   */\n  mload\n    /* \"#utility.yul\":4662:4680   */\n  0xffffffffffffffff\n    /* \"#utility.yul\":4654:4660   */\n  dup2\n    /* \"#utility.yul\":4651:4681   */\n  gt\n    /* \"#utility.yul\":4648:4765   */\n  iszero\n  tag_169\n  jumpi\n    /* \"#utility.yul\":4684:4763   */\n  tag_170\n  tag_52\n  jump\t// in\ntag_170:\n    /* \"#utility.yul\":4648:4765   */\ntag_169:\n    /* \"#utility.yul\":4789:4863   */\n  tag_171\n    /* \"#utility.yul\":4855:4862   */\n  dup13\n    /* \"#utility.yul\":4846:4852   */\n  dup3\n    /* \"#utility.yul\":4835:4844   */\n  dup14\n    /* \"#utility.yul\":4831:4853   */\n  add\n    /* \"#utility.yul\":4789:4863   */\n  tag_62\n  jump\t// in\ntag_171:\n    /* \"#utility.yul\":4779:4863   */\n  swap9\n  pop\n    /* \"#utility.yul\":4581:4873   */\n  pop\n    /* \"#utility.yul\":4912:4914   */\n  0x40\n    /* \"#utility.yul\":4938:5000   */\n  tag_172\n    /* \"#utility.yul\":4992:4999   */\n  dup13\n    /* \"#utility.yul\":4983:4989   */\n  dup3\n    /* \"#utility.yul\":4972:4981   */\n  dup14\n    /* \"#utility.yul\":4968:4990   */\n  add\n    /* \"#utility.yul\":4938:5000   */\n  tag_65\n  jump\t// in\ntag_172:\n    /* \"#utility.yul\":4928:5000   */\n  swap8\n  pop\n    /* \"#utility.yul\":4883:5010   */\n  pop\n    /* \"#utility.yul\":5049:5051   */\n  0x60\n    /* \"#utility.yul\":5075:5139   */\n  tag_173\n    /* \"#utility.yul\":5131:5138   */\n  dup13\n    /* \"#utility.yul\":5122:5128   */\n  dup3\n    /* \"#utility.yul\":5111:5120   */\n  dup14\n    /* \"#utility.yul\":5107:5129   */\n  add\n    /* \"#utility.yul\":5075:5139   */\n  tag_68\n  jump\t// in\ntag_173:\n    /* \"#utility.yul\":5065:5139   */\n  swap7\n  pop\n    /* \"#utility.yul\":5020:5149   */\n  pop\n    /* \"#utility.yul\":5188:5191   */\n  0x80\n    /* \"#utility.yul\":5215:5279   */\n  tag_174\n    /* \"#utility.yul\":5271:5278   */\n  dup13\n    /* \"#utility.yul\":5262:5268   */\n  dup3\n    /* \"#utility.yul\":5251:5260   */\n  dup14\n    /* \"#utility.yul\":5247:5269   */\n  add\n    /* \"#utility.yul\":5215:5279   */\n  tag_72\n  jump\t// in\ntag_174:\n    /* \"#utility.yul\":5205:5279   */\n  swap6\n  pop\n    /* \"#utility.yul\":5159:5289   */\n  pop\n    /* \"#utility.yul\":5328:5331   */\n  0xa0\n    /* \"#utility.yul\":5355:5419   */\n  tag_175\n    /* \"#utility.yul\":5411:5418   */\n  dup13\n    /* \"#utility.yul\":5402:5408   */\n  dup3\n    /* \"#utility.yul\":5391:5400   */\n  dup14\n    /* \"#utility.yul\":5387:5409   */\n  add\n    /* \"#utility.yul\":5355:5419   */\n  tag_68\n  jump\t// in\ntag_175:\n    /* \"#utility.yul\":5345:5419   */\n  swap5\n  pop\n    /* \"#utility.yul\":5299:5429   */\n  pop\n    /* \"#utility.yul\":5468:5471   */\n  0xc0\n    /* \"#utility.yul\":5495:5559   */\n  tag_176\n    /* \"#utility.yul\":5551:5558   */\n  dup13\n    /* \"#utility.yul\":5542:5548   */\n  dup3\n    /* \"#utility.yul\":5531:5540   */\n  dup14\n    /* \"#utility.yul\":5527:5549   */\n  add\n    /* \"#utility.yul\":5495:5559   */\n  tag_72\n  jump\t// in\ntag_176:\n    /* \"#utility.yul\":5485:5559   */\n  swap4\n  pop\n    /* \"#utility.yul\":5439:5569   */\n  pop\n    /* \"#utility.yul\":5608:5611   */\n  0xe0\n    /* \"#utility.yul\":5635:5699   */\n  tag_177\n    /* \"#utility.yul\":5691:5698   */\n  dup13\n    /* \"#utility.yul\":5682:5688   */\n  dup3\n    /* \"#utility.yul\":5671:5680   */\n  dup14\n    /* \"#utility.yul\":5667:5689   */\n  add\n    /* \"#utility.yul\":5635:5699   */\n  tag_68\n  jump\t// in\ntag_177:\n    /* \"#utility.yul\":5625:5699   */\n  swap3\n  pop\n    /* \"#utility.yul\":5579:5709   */\n  pop\n    /* \"#utility.yul\":5748:5751   */\n  0x0100\n    /* \"#utility.yul\":5775:5839   */\n  tag_178\n    /* \"#utility.yul\":5831:5838   */\n  dup13\n    /* \"#utility.yul\":5822:5828   */\n  dup3\n    /* \"#utility.yul\":5811:5820   */\n  dup14\n    /* \"#utility.yul\":5807:5829   */\n  add\n    /* \"#utility.yul\":5775:5839   */\n  tag_72\n  jump\t// in\ntag_178:\n    /* \"#utility.yul\":5765:5839   */\n  swap2\n  pop\n    /* \"#utility.yul\":5719:5849   */\n  pop\n    /* \"#utility.yul\":3909:5856   */\n  swap3\n  swap6\n  swap9\n  pop\n  swap3\n  swap6\n  swap9\n  pop\n  swap3\n  swap6\n  swap9\n  jump\t// out\n    /* \"#utility.yul\":5862:5961   */\ntag_73:\n    /* \"#utility.yul\":5914:5920   */\n  0x00\n    /* \"#utility.yul\":5948:5953   */\n  dup2\n    /* \"#utility.yul\":5942:5954   */\n  mload\n    /* \"#utility.yul\":5932:5954   */\n  swap1\n  pop\n    /* \"#utility.yul\":5862:5961   */\n  swap2\n  swap1\n  pop\n  jump\t// out\n    /* \"#utility.yul\":5967:6147   */\ntag_74:\n    /* \"#utility.yul\":6015:6092   */\n  0x4e487b7100000000000000000000000000000000000000000000000000000000\n    /* \"#utility.yul\":6012:6013   */\n  0x00\n    /* \"#utility.yul\":6005:6093   */\n  mstore\n    /* \"#utility.yul\":6112:6116   */\n  0x22\n    /* \"#utility.yul\":6109:6110   */\n  0x04\n    /* \"#utility.yul\":6102:6117   */\n  mstore\n    /* \"#utility.yul\":6136:6140   */\n  0x24\n    /* \"#utility.yul\":6133:6134   */\n  0x00\n    /* \"#utility.yul\":6126:6141   */\n  revert\n    /* \"#utility.yul\":6153:6473   */\ntag_75:\n    /* \"#utility.yul\":6197:6203   */\n  0x00\n    /* \"#utility.yul\":6234:6235   */\n  0x02\n    /* \"#utility.yul\":6228:6232   */\n  dup3\n    /* \"#utility.yul\":6224:6236   */\n  div\n    /* \"#utility.yul\":6214:6236   */\n  swap1\n  pop\n    /* \"#utility.yul\":6281:6282   */\n  0x01\n    /* \"#utility.yul\":6275:6279   */\n  dup3\n    /* \"#utility.yul\":6271:6283   */\n  and\n    /* \"#utility.yul\":6302:6320   */\n  dup1\n    /* \"#utility.yul\":6292:6373   */\n  tag_182\n  jumpi\n    /* \"#utility.yul\":6358:6362   */\n  0x7f\n    /* \"#utility.yul\":6350:6356   */\n  dup3\n    /* \"#utility.yul\":6346:6363   */\n  and\n    /* \"#utility.yul\":6336:6363   */\n  swap2\n  pop\n    /* \"#utility.yul\":6292:6373   */\ntag_182:\n    /* \"#utility.yul\":6420:6422   */\n  0x20\n    /* \"#utility.yul\":6412:6418   */\n  dup3\n    /* \"#utility.yul\":6409:6423   */\n  lt\n    /* \"#utility.yul\":6389:6407   */\n  dup2\n    /* \"#utility.yul\":6386:6424   */\n  sub\n    /* \"#utility.yul\":6383:6467   */\n  tag_183\n  jumpi\n    /* \"#utility.yul\":6439:6457   */\n  tag_184\n  tag_74\n  jump\t// in\ntag_184:\n    /* \"#utility.yul\":6383:6467   */\ntag_183:\n    /* \"#utility.yul\":6204:6473   */\n  pop\n    /* \"#utility.yul\":6153:6473   */\n  swap2\n  swap1\n  pop\n  jump\t// out\n    /* \"#utility.yul\":6479:6620   */\ntag_76:\n    /* \"#utility.yul\":6528:6532   */\n  0x00\n    /* \"#utility.yul\":6551:6554   */\n  dup2\n    /* \"#utility.yul\":6543:6554   */\n  swap1\n  pop\n    /* \"#utility.yul\":6574:6577   */\n  dup2\n    /* \"#utility.yul\":6571:6572   */\n  0x00\n    /* \"#utility.yul\":6564:6578   */\n  mstore\n    /* \"#utility.yul\":6608:6612   */\n  0x20\n    /* \"#utility.yul\":6605:6606   */\n  0x00\n    /* \"#utility.yul\":6595:6613   */\n  keccak256\n    /* \"#utility.yul\":6587:6613   */\n  swap1\n  pop\n    /* \"#utility.yul\":6479:6620   */\n  swap2\n  swap1\n  pop\n  jump\t// out\n    /* \"#utility.yul\":6626:6719   */\ntag_77:\n    /* \"#utility.yul\":6663:6669   */\n  0x00\n    /* \"#utility.yul\":6710:6712   */\n  0x20\n    /* \"#utility.yul\":6705:6707   */\n  0x1f\n    /* \"#utility.yul\":6698:6703   */\n  dup4\n    /* \"#utility.yul\":6694:6708   */\n  add\n    /* \"#utility.yul\":6690:6713   */\n  div\n    /* \"#utility.yul\":6680:6713   */\n  swap1\n  pop\n    /* \"#utility.yul\":6626:6719   */\n  swap2\n  swap1\n  pop\n  jump\t// out\n    /* \"#utility.yul\":6725:6832   */\ntag_78:\n    /* \"#utility.yul\":6769:6777   */\n  0x00\n    /* \"#utility.yul\":6819:6824   */\n  dup3\n    /* \"#utility.yul\":6813:6817   */\n  dup3\n    /* \"#utility.yul\":6809:6825   */\n  shl\n    /* \"#utility.yul\":6788:6825   */\n  swap1\n  pop\n    /* \"#utility.yul\":6725:6832   */\n  swap3\n  swap2\n  pop\n  pop\n  jump\t// out\n    /* \"#utility.yul\":6838:7231   */\ntag_79:\n    /* \"#utility.yul\":6907:6913   */\n  0x00\n    /* \"#utility.yul\":6957:6958   */\n  0x08\n    /* \"#utility.yul\":6945:6955   */\n  dup4\n    /* \"#utility.yul\":6941:6959   */\n  mul\n    /* \"#utility.yul\":6980:7077   */\n  tag_189\n    /* \"#utility.yul\":7010:7076   */\n  0xffffffffffffffffffffffffffffffffffffffffffffffffffffffffffffffff\n    /* \"#utility.yul\":6999:7008   */\n  dup3\n    /* \"#utility.yul\":6980:7077   */\n  tag_78\n  jump\t// in\ntag_189:\n    /* \"#utility.yul\":7098:7137   */\n  tag_190\n    /* \"#utility.yul\":7128:7136   */\n  dup7\n    /* \"#utility.yul\":7117:7126   */\n  dup4\n    /* \"#utility.yul\":7098:7137   */\n  tag_78\n  jump\t// in\ntag_190:\n    /* \"#utility.yul\":7086:7137   */\n  swap6\n  pop\n    /* \"#utility.yul\":7170:7174   */\n  dup1\n    /* \"#utility.yul\":7166:7175   */\n  not\n    /* \"#utility.yul\":7159:7164   */\n  dup5\n    /* \"#utility.yul\":7155:7176   */\n  and\n    /* \"#utility.yul\":7146:7176   */\n  swap4\n  pop\n    /* \"#utility.yul\":7219:7223   */\n  dup1\n    /* \"#utility.yul\":7209:7217   */\n  dup7\n    /* \"#utility.yul\":7205:7224   */\n  and\n    /* \"#utility.yul\":7198:7203   */\n  dup5\n    /* \"#utility.yul\":7195:7225   */\n  or\n    /* \"#utility.yul\":7185:7225   */\n  swap3\n  pop\n    /* \"#utility.yul\":6914:7231   */\n  pop\n  pop\n    /* \"#utility.yul\":6838:7231   */\n  swap4\n  swap3\n  pop\n  pop\n  pop\n  jump\t// out\n    /* \"#utility.yul\":7237:7297   */\ntag_80:\n    /* \"#utility.yul\":7265:7268   */\n  0x00\n    /* \"#utility.yul\":7286:7291   */\n  dup2\n    /* \"#utility.yul\":7279:7291   */\n  swap1\n  pop\n    /* \"#utility.yul\":7237:7297   */\n  swap2\n  swap1\n  pop\n  jump\t// out\n    /* \"#utility.yul\":7303:7445   */\ntag_81:\n    /* \"#utility.yul\":7353:7362   */\n  0x00\n    /* \"#utility.yul\":7386:7439   */\n  tag_193\n    /* \"#utility.yul\":7404:7438   */\n  tag_194\n    /* \"#utility.yul\":7413:7437   */\n  tag_195\n    /* \"#utility.yul\":7431:7436   */\n  dup5\n    /* \"#utility.yul\":7413:7437   */\n  tag_66\n  jump\t// in\ntag_195:\n    /* \"#utility.yul\":7404:7438   */\n  tag_80\n  jump\t// in\ntag_194:\n    /* \"#utility.yul\":7386:7439   */\n  tag_66\n  jump\t// in\ntag_193:\n    /* \"#utility.yul\":7373:7439   */\n  swap1\n  pop\n    /* \"#utility.yul\":7303:7445   */\n  swap2\n  swap1\n  pop\n  jump\t// out\n    /* \"#utility.yul\":7451:7526   */\ntag_82:\n    /* \"#utility.yul\":7494:7497   */\n  0x00\n    /* \"#utility.yul\":7515:7520   */\n  dup2\n    /* \"#utility.yul\":7508:7520   */\n  swap1\n  pop\n    /* \"#utility.yul\":7451:7526   */\n  swap2\n  swap1\n  pop\n  jump\t// out\n    /* \"#utility.yul\":7532:7801   */\ntag_83:\n    /* \"#utility.yul\":7642:7681   */\n  tag_198\n    /* \"#utility.yul\":7673:7680   */\n  dup4\n    /* \"#utility.yul\":7642:7681   */\n  tag_81\n  jump\t// in\ntag_198:\n    /* \"#utility.yul\":7703:7794   */\n  tag_199\n    /* \"#utility.yul\":7752:7793   */\n  tag_200\n    /* \"#utility.yul\":7776:7792   */\n  dup3\n    /* \"#utility.yul\":7752:7793   */\n  tag_82\n  jump\t// in\ntag_200:\n    /* \"#utility.yul\":7744:7750   */\n  dup5\n    /* \"#utility.yul\":7737:7741   */\n  dup5\n    /* \"#utility.yul\":7731:7742   */\n  sload\n    /* \"#utility.yul\":7703:7794   */\n  tag_79\n  jump\t// in\ntag_199:\n    /* \"#utility.yul\":7697:7701   */\n  dup3\n    /* \"#utility.yul\":7690:7795   */\n  sstore\n    /* \"#utility.yul\":7608:7801   */\n  pop\n    /* \"#utility.yul\":7532:7801   */\n  pop\n  pop\n  pop\n  jump\t// out\n    /* \"#utility.yul\":7807:7880   */\ntag_84:\n    /* \"#utility.yul\":7852:7855   */\n  0x00\n    /* \"#utility.yul\":7807:7880   */\n  swap1\n  jump\t// out\n    /* \"#utility.yul\":7886:8075   */\ntag_85:\n    /* \"#utility.yul\":7963:7995   */\n  tag_203\n  tag_84\n  jump\t// in\ntag_203:\n    /* \"#utility.yul\":8004:8069   */\n  tag_204\n    /* \"#utility.yul\":8062:8068   */\n  dup2\n    /* \"#utility.yul\":8054:8060   */\n  dup5\n    /* \"#utility.yul\":8048:8052   */\n  dup5\n    /* \"#utility.yul\":8004:8069   */\n  tag_83\n  jump\t// in\ntag_204:\n    /* \"#utility.yul\":7939:8075   */\n  pop\n    /* \"#utility.yul\":7886:8075   */\n  pop\n  pop\n  jump\t// out\n    /* \"#utility.yul\":8081:8267   */\ntag_86:\n    /* \"#utility.yul\":8141:8261   */\ntag_206:\n    /* \"#utility.yul\":8158:8161   */\n  dup2\n    /* \"#utility.yul\":8151:8156   */\n  dup2\n    /* \"#utility.yul\":8148:8162   */\n  lt\n    /* \"#utility.yul\":8141:8261   */\n  iszero\n  tag_208\n  jumpi\n    /* \"#utility.yul\":8212:8251   */\n  tag_209\n    /* \"#utility.yul\":8249:8250   */\n  0x00\n    /* \"#utility.yul\":8242:8247   */\n  dup3\n    /* \"#utility.yul\":8212:8251   */\n  tag_85\n  jump\t// in\ntag_209:\n    /* \"#utility.yul\":8185:8186   */\n  0x01\n    /* \"#utility.yul\":8178:8183   */\n  dup2\n    /* \"#utility.yul\":8174:8187   */\n  add\n    /* \"#utility.yul\":8165:8187   */\n  swap1\n  pop\n    /* \"#utility.yul\":8141:8261   */\n  jump(tag_206)\ntag_208:\n    /* \"#utility.yul\":8081:8267   */\n  pop\n  pop\n  jump\t// out\n    /* \"#utility.yul\":8273:8816   */\ntag_87:\n    /* \"#utility.yul\":8374:8376   */\n  0x1f\n    /* \"#utility.yul\":8369:8372   */\n  dup3\n    /* \"#utility.yul\":8366:8377   */\n  gt\n    /* \"#utility.yul\":8363:8809   */\n  iszero\n  tag_211\n  jumpi\n    /* \"#utility.yul\":8408:8446   */\n  tag_212\n    /* \"#utility.yul\":8440:8445   */\n  dup2\n    /* \"#utility.yul\":8408:8446   */\n  tag_76\n  jump\t// in\ntag_212:\n    /* \"#utility.yul\":8492:8521   */\n  tag_213\n    /* \"#utility.yul\":8510:8520   */\n  dup5\n    /* \"#utility.yul\":8492:8521   */\n  tag_77\n  jump\t// in\ntag_213:\n    /* \"#utility.yul\":8482:8490   */\n  dup2\n    /* \"#utility.yul\":8478:8522   */\n  add\n    /* \"#utility.yul\":8675:8677   */\n  0x20\n    /* \"#utility.yul\":8663:8673   */\n  dup6\n    /* \"#utility.yul\":8660:8678   */\n  lt\n    /* \"#utility.yul\":8657:8706   */\n  iszero\n  tag_214\n  jumpi\n    /* \"#utility.yul\":8696:8704   */\n  dup2\n    /* \"#utility.yul\":8681:8704   */\n  swap1\n  pop\n    /* \"#utility.yul\":8657:8706   */\ntag_214:\n    /* \"#utility.yul\":8719:8799   */\n  tag_215\n    /* \"#utility.yul\":8775:8797   */\n  tag_216\n    /* \"#utility.yul\":8793:8796   */\n  dup6\n    /* \"#utility.yul\":8775:8797   */\n  tag_77\n  jump\t// in\ntag_216:\n    /* \"#utility.yul\":8765:8773   */\n  dup4\n    /* \"#utility.yul\":8761:8798   */\n  add\n    /* \"#utility.yul\":8748:8759   */\n  dup3\n    /* \"#utility.yul\":8719:8799   */\n  tag_86\n  jump\t// in\ntag_215:\n    /* \"#utility.yul\":8378:8809   */\n  pop\n  pop\n    /* \"#utility.yul\":8363:8809   */\ntag_211:\n    /* \"#utility.yul\":8273:8816   */\n  pop\n  pop\n  pop\n  jump\t// out\n    /* \"#utility.yul\":8822:8939   */\ntag_88:\n    /* \"#utility.yul\":8876:8884   */\n  0x00\n    /* \"#utility.yul\":8926:8931   */\n  dup3\n    /* \"#utility.yul\":8920:8924   */\n  dup3\n    /* \"#utility.yul\":8916:8932   */\n  shr\n    /* \"#utility.yul\":8895:8932   */\n  swap1\n  pop\n    /* \"#utility.yul\":8822:8939   */\n  swap3\n  swap2\n  pop\n  pop\n  jump\t// out\n    /* \"#utility.yul\":8945:9114   */\ntag_89:\n    /* \"#utility.yul\":8989:8995   */\n  0x00\n    /* \"#utility.yul\":9022:9073   */\n  tag_219\n    /* \"#utility.yul\":9070:9071   */\n  0x00\n    /* \"#utility.yul\":9066:9072   */\n  not\n    /* \"#utility.yul\":9058:9063   */\n  dup5\n    /* \"#utility.yul\":9055:9056   */\n  0x08\n    /* \"#utility.yul\":9051:9064   */\n  mul\n    /* \"#utility.yul\":9022:9073   */\n  tag_88\n  jump\t// in\ntag_219:\n    /* \"#utility.yul\":9018:9074   */\n  not\n    /* \"#utility.yul\":9103:9107   */\n  dup1\n    /* \"#utility.yul\":9097:9101   */\n  dup4\n    /* \"#utility.yul\":9093:9108   */\n  and\n    /* \"#utility.yul\":9083:9108   */\n  swap2\n  pop\n    /* \"#utility.yul\":8996:9114   */\n  pop\n    /* \"#utility.yul\":8945:9114   */\n  swap3\n  swap2\n  pop\n  pop\n  jump\t// out\n    /* \"#utility.yul\":9119:9414   */\ntag_90:\n    /* \"#utility.yul\":9195:9199   */\n  0x00\n    /* \"#utility.yul\":9341:9370   */\n  tag_221\n    /* \"#utility.yul\":9366:9369   */\n  dup4\n    /* \"#utility.yul\":9360:9364   */\n  dup4\n    /* \"#utility.yul\":9341:9370   */\n  tag_89\n  jump\t// in\ntag_221:\n    /* \"#utility.yul\":9333:9370   */\n  swap2\n  pop\n    /* \"#utility.yul\":9403:9406   */\n  dup3\n    /* \"#utility.yul\":9400:9401   */\n  0x02\n    /* \"#utility.yul\":9396:9407   */\n  mul\n    /* \"#utility.yul\":9390:9394   */\n  dup3\n    /* \"#utility.yul\":9387:9408   */\n  or\n    /* \"#utility.yul\":9379:9408   */\n  swap1\n  pop\n    /* \"#utility.yul\":9119:9414   */\n  swap3\n  swap2\n  pop\n  pop\n  jump\t// out\n    /* \"#utility.yul\":9419:10814   */\ntag_8:\n    /* \"#utility.yul\":9536:9573   */\n  tag_223\n    /* \"#utility.yul\":9569:9572   */\n  dup3\n    /* \"#utility.yul\":9536:9573   */\n  tag_73\n  jump\t// in\ntag_223:\n    /* \"#utility.yul\":9638:9656   */\n  0xffffffffffffffff\n    /* \"#utility.yul\":9630:9636   */\n  dup2\n    /* \"#utility.yul\":9627:9657   */\n  gt\n    /* \"#utility.yul\":9624:9680   */\n  iszero\n  tag_224\n  jumpi\n    /* \"#utility.yul\":9660:9678   */\n  tag_225\n  tag_56\n  jump\t// in\ntag_225:\n    /* \"#utility.yul\":9624:9680   */\ntag_224:\n    /* \"#utility.yul\":9704:9742   */\n  tag_226\n    /* \"#utility.yul\":9736:9740   */\n  dup3\n    /* \"#utility.yul\":9730:9741   */\n  sload\n    /* \"#utility.yul\":9704:9742   */\n  tag_75\n  jump\t// in\ntag_226:\n    /* \"#utility.yul\":9789:9856   */\n  tag_227\n    /* \"#utility.yul\":9849:9855   */\n  dup3\n    /* \"#utility.yul\":9841:9847   */\n  dup3\n    /* \"#utility.yul\":9835:9839   */\n  dup6\n    /* \"#utility.yul\":9789:9856   */\n  tag_87\n  jump\t// in\ntag_227:\n    /* \"#utility.yul\":9883:9884   */\n  0x00\n    /* \"#utility.yul\":9907:9911   */\n  0x20\n    /* \"#utility.yul\":9894:9911   */\n  swap1\n  pop\n    /* \"#utility.yul\":9939:9941   */\n  0x1f\n    /* \"#utility.yul\":9931:9937   */\n  dup4\n    /* \"#utility.yul\":9928:9942   */\n  gt\n    /* \"#utility.yul\":9956:9957   */\n  0x01\n    /* \"#utility.yul\":9951:10569   */\n  dup2\n  eq\n  tag_229\n  jumpi\n    /* \"#utility.yul\":10613:10614   */\n  0x00\n    /* \"#utility.yul\":10630:10636   */\n  dup5\n    /* \"#utility.yul\":10627:10704   */\n  iszero\n  tag_230\n  jumpi\n    /* \"#utility.yul\":10679:10688   */\n  dup3\n    /* \"#utility.yul\":10674:10677   */\n  dup8\n    /* \"#utility.yul\":10670:10689   */\n  add\n    /* \"#utility.yul\":10664:10690   */\n  mload\n    /* \"#utility.yul\":10655:10690   */\n  swap1\n  pop\n    /* \"#utility.yul\":10627:10704   */\ntag_230:\n    /* \"#utility.yul\":10730:10797   */\n  tag_231\n    /* \"#utility.yul\":10790:10796   */\n  dup6\n    /* \"#utility.yul\":10783:10788   */\n  dup3\n    /* \"#utility.yul\":10730:10797   */\n  tag_90\n  jump\t// in\ntag_231:\n    /* \"#utility.yul\":10724:10728   */\n  dup7\n    /* \"#utility.yul\":10717:10798   */\n  sstore\n    /* \"#utility.yul\":10586:10808   */\n  pop\n    /* \"#utility.yul\":9921:10808   */\n  jump(tag_228)\n    /* \"#utility.yul\":9951:10569   */\ntag_229:\n    /* \"#utility.yul\":10003:10007   */\n  0x1f\n    /* \"#utility.yul\":9999:10008   */\n  not\n    /* \"#utility.yul\":9991:9997   */\n  dup5\n    /* \"#utility.yul\":9987:10009   */\n  and\n    /* \"#utility.yul\":10037:10074   */\n  tag_232\n    /* \"#utility.yul\":10069:10073   */\n  dup7\n    /* \"#utility.yul\":10037:10074   */\n  tag_76\n  jump\t// in\ntag_232:\n    /* \"#utility.yul\":10096:10097   */\n  0x00\n    /* \"#utility.yul\":10110:10318   */\ntag_233:\n    /* \"#utility.yul\":10124:10131   */\n  dup3\n    /* \"#utility.yul\":10121:10122   */\n  dup2\n    /* \"#utility.yul\":10118:10132   */\n  lt\n    /* \"#utility.yul\":10110:10318   */\n  iszero\n  tag_235\n  jumpi\n    /* \"#utility.yul\":10203:10212   */\n  dup5\n    /* \"#utility.yul\":10198:10201   */\n  dup10\n    /* \"#utility.yul\":10194:10213   */\n  add\n    /* \"#utility.yul\":10188:10214   */\n  mload\n    /* \"#utility.yul\":10180:10186   */\n  dup3\n    /* \"#utility.yul\":10173:10215   */\n  sstore\n    /* \"#utility.yul\":10254:10255   */\n  0x01\n    /* \"#utility.yul\":10246:10252   */\n  dup3\n    /* \"#utility.yul\":10242:10256   */\n  add\n    /* \"#utility.yul\":10232:10256   */\n  swap2\n  pop\n    /* \"#utility.yul\":10301:10303   */\n  0x20\n    /* \"#utility.yul\":10290:10299   */\n  dup6\n    /* \"#utility.yul\":10286:10304   */\n  add\n    /* \"#utility.yul\":10273:10304   */\n  swap5\n  pop\n    /* \"#utility.yul\":10147:10151   */\n  0x20\n    /* \"#utility.yul\":10144:10145   */\n  dup2\n    /* \"#utility.yul\":10140:10152   */\n  add\n    /* \"#utility.yul\":10135:10152   */\n  swap1\n  pop\n    /* \"#utility.yul\":10110:10318   */\n  jump(tag_233)\ntag_235:\n    /* \"#utility.yul\":10346:10352   */\n  dup7\n    /* \"#utility.yul\":10337:10344   */\n  dup4\n    /* \"#utility.yul\":10334:10353   */\n  lt\n    /* \"#utility.yul\":10331:10510   */\n  iszero\n  tag_236\n  jumpi\n    /* \"#utility.yul\":10404:10413   */\n  dup5\n    /* \"#utility.yul\":10399:10402   */\n  dup10\n    /* \"#utility.yul\":10395:10414   */\n  add\n    /* \"#utility.yul\":10389:10415   */\n  mload\n    /* \"#utility.yul\":10447:10495   */\n  tag_237\n    /* \"#utility.yul\":10489:10493   */\n  0x1f\n    /* \"#utility.yul\":10481:10487   */\n  dup10\n    /* \"#utility.yul\":10477:10494   */\n  and\n    /* \"#utility.yul\":10466:10475   */\n  dup3\n    /* \"#utility.yul\":10447:10495   */\n  tag_89\n  jump\t// in\ntag_237:\n    /* \"#utility.yul\":10439:10445   */\n  dup4\n    /* \"#utility.yul\":10432:10496   */\n  sstore\n    /* \"#utility.yul\":10354:10510   */\n  pop\n    /* \"#utility.yul\":10331:10510   */\ntag_236:\n    /* \"#utility.yul\":10556:10557   */\n  0x01\n    /* \"#utility.yul\":10552:10553   */\n  0x02\n    /* \"#utility.yul\":10544:10550   */\n  dup9\n    /* \"#utility.yul\":10540:10554   */\n  mul\n    /* \"#utility.yul\":10536:10558   */\n  add\n    /* \"#utility.yul\":10530:10534   */\n  dup9\n    /* \"#utility.yul\":10523:10559   */\n  sstore\n    /* \"#utility.yul\":9958:10569   */\n  pop\n  pop\n  pop\n    /* \"#utility.yul\":9921:10808   */\ntag_228:\n  pop\n    /* \"#utility.yul\":9511:10814   */\n  pop\n  pop\n  pop\n    /* \"#utility.yul\":9419:10814   */\n  pop\n  pop\n  jump\t// out\n    /* \"#utility.yul\":10820:10989   */\ntag_91:\n    /* \"#utility.yul\":10904:10915   */\n  0x00\n    /* \"#utility.yul\":10938:10944   */\n  dup3\n    /* \"#utility.yul\":10933:10936   */\n  dup3\n    /* \"#utility.yul\":10926:10945   */\n  mstore\n    /* \"#utility.yul\":10978:10982   */\n  0x20\n    /* \"#utility.yul\":10973:10976   */\n  dup3\n    /* \"#utility.yul\":10969:10983   */\n  add\n    /* \"#utility.yul\":10954:10983   */\n  swap1\n  pop\n    /* \"#utility.yul\":10820:10989   */\n  swap3\n  swap2\n  pop\n  pop\n  jump\t// out\n    /* \"#utility.yul\":10995:11166   */\ntag_92:\n    /* \"#utility.yul\":11135:11158   */\n  0x696e76616c69642061646d696e20616464726573730000000000000000000000\n    /* \"#utility.yul\":11131:11132   */\n  0x00\n    /* \"#utility.yul\":11123:11129   */\n  dup3\n    /* \"#utility.yul\":11119:11133   */\n  add\n    /* \"#utility.yul\":11112:11159   */\n  mstore\n    /* \"#utility.yul\":10995:11166   */\n  pop\n  jump\t// out\n    /* \"#utility.yul\":11172:11538   */\ntag_93:\n    /* \"#utility.yul\":11314:11317   */\n  0x00\n    /* \"#utility.yul\":11335:11402   */\n  tag_241\n    /* \"#utility.yul\":11399:11401   */\n  0x15\n    /* \"#utility.yul\":11394:11397   */\n  dup4\n    /* \"#utility.yul\":11335:11402   */\n  tag_91\n  jump\t// in\ntag_241:\n    /* \"#utility.yul\":11328:11402   */\n  swap2\n  pop\n    /* \"#utility.yul\":11411:11504   */\n  tag_242\n    /* \"#utility.yul\":11500:11503   */\n  dup3\n    /* \"#utility.yul\":11411:11504   */\n  tag_92\n  jump\t// in\ntag_242:\n    /* \"#utility.yul\":11529:11531   */\n  0x20\n    /* \"#utility.yul\":11524:11527   */\n  dup3\n    /* \"#utility.yul\":11520:11532   */\n  add\n    /* \"#utility.yul\":11513:11532   */\n  swap1\n  pop\n    /* \"#utility.yul\":11172:11538   */\n  swap2\n  swap1\n  pop\n  jump\t// out\n    /* \"#utility.yul\":11544:11963   */\ntag_13:\n    /* \"#utility.yul\":11710:11714   */\n  0x00\n    /* \"#utility.yul\":11748:11750   */\n  0x20\n    /* \"#utility.yul\":11737:11746   */\n  dup3\n    /* \"#utility.yul\":11733:11751   */\n  add\n    /* \"#utility.yul\":11725:11751   */\n  swap1\n  pop\n    /* \"#utility.yul\":11797:11806   */\n  dup2\n    /* \"#utility.yul\":11791:11795   */\n  dup2\n    /* \"#utility.yul\":11787:11807   */\n  sub\n    /* \"#utility.yul\":11783:11784   */\n  0x00\n    /* \"#utility.yul\":11772:11781   */\n  dup4\n    /* \"#utility.yul\":11768:11785   */\n  add\n    /* \"#utility.yul\":11761:11808   */\n  mstore\n    /* \"#utility.yul\":11825:11956   */\n  tag_244\n    /* \"#utility.yul\":11951:11955   */\n  dup2\n    /* \"#utility.yul\":11825:11956   */\n  tag_93\n  jump\t// in\ntag_244:\n    /* \"#utility.yul\":11817:11956   */\n  swap1\n  pop\n    /* \"#utility.yul\":11544:11963   */\n  swap2\n  swap1\n  pop\n  jump\t// out\n    /* \"#utility.yul\":11969:12142   */\ntag_94:\n    /* \"#utility.yul\":12109:12134   */\n  0x696e76616c6964206d696e7465725f2061646472657373000000000000000000\n    /* \"#utility.yul\":12105:12106   */\n  0x00\n    /* \"#utility.yul\":12097:12103   */\n  dup3\n    /* \"#utility.yul\":12093:12107   */\n  add\n    /* \"#utility.yul\":12086:12135   */\n  mstore\n    /* \"#utility.yul\":11969:12142   */\n  pop\n  jump\t// out\n    /* \"#utility.yul\":12148:12514   */\ntag_95:\n    /* \"#utility.yul\":12290:12293   */\n  0x00\n    /* \"#utility.yul\":12311:12378   */\n  tag_247\n    /* \"#utility.yul\":12375:12377   */\n  0x17\n    /* \"#utility.yul\":12370:12373   */\n  dup4\n    /* \"#utility.yul\":12311:12378   */\n  tag_91\n  jump\t// in\ntag_247:\n    /* \"#utility.yul\":12304:12378   */\n  swap2\n  pop\n    /* \"#utility.yul\":12387:12480   */\n  tag_248\n    /* \"#utility.yul\":12476:12479   */\n  dup3\n    /* \"#utility.yul\":12387:12480   */\n  tag_94\n  jump\t// in\ntag_248:\n    /* \"#utility.yul\":12505:12507   */\n  0x20\n    /* \"#utility.yul\":12500:12503   */\n  dup3\n    /* \"#utility.yul\":12496:12508   */\n  add\n    /* \"#utility.yul\":12489:12508   */\n  swap1\n  pop\n    /* \"#utility.yul\":12148:12514   */\n  swap2\n  swap1\n  pop\n  jump\t// out\n    /* \"#utility.yul\":12520:12939   */\ntag_16:\n    /* \"#utility.yul\":12686:12690   */\n  0x00\n    /* \"#utility.yul\":12724:12726   */\n  0x20\n    /* \"#utility.yul\":12713:12722   */\n  dup3\n    /* \"#utility.yul\":12709:12727   */\n  add\n    /* \"#utility.yul\":12701:12727   */\n  swap1\n  pop\n    /* \"#utility.yul\":12773:12782   */\n  dup2\n    /* \"#utility.yul\":12767:12771   */\n  dup2\n    /* \"#utility.yul\":12763:12783   */\n  sub\n    /* \"#utility.yul\":12759:12760   */\n  0x00\n    /* \"#utility.yul\":12748:12757   */\n  dup4\n    /* \"#utility.yul\":12744:12761   */\n  add\n    /* \"#utility.yul\":12737:12784   */\n  mstore\n    /* \"#utility.yul\":12801:12932   */\n  tag_250\n    /* \"#utility.yul\":12927:12931   */\n  dup2\n    /* \"#utility.yul\":12801:12932   */\n  tag_95\n  jump\t// in\ntag_250:\n    /* \"#utility.yul\":12793:12932   */\n  swap1\n  pop\n    /* \"#utility.yul\":12520:12939   */\n  swap2\n  swap1\n  pop\n  jump\t// out\n    /* \"#utility.yul\":12945:13127   */\ntag_96:\n    /* \"#utility.yul\":13085:13119   */\n  0x696e76616c696420696e6974446973747257616c6c65745f2061646472657373\n    /* \"#utility.yul\":13081:13082   */\n  0x00\n    /* \"#utility.yul\":13073:13079   */\n  dup3\n    /* \"#utility.yul\":13069:13083   */\n  add\n    /* \"#utility.yul\":13062:13120   */\n  mstore\n    /* \"#utility.yul\":12945:13127   */\n  pop\n  jump\t// out\n    /* \"#utility.yul\":13133:13499   */\ntag_97:\n    /* \"#utility.yul\":13275:13278   */\n  0x00\n    /* \"#utility.yul\":13296:13363   */\n  tag_253\n    /* \"#utility.yul\":13360:13362   */\n  0x20\n    /* \"#utility.yul\":13355:13358   */\n  dup4\n    /* \"#utility.yul\":13296:13363   */\n  tag_91\n  jump\t// in\ntag_253:\n    /* \"#utility.yul\":13289:13363   */\n  swap2\n  pop\n    /* \"#utility.yul\":13372:13465   */\n  tag_254\n    /* \"#utility.yul\":13461:13464   */\n  dup3\n    /* \"#utility.yul\":13372:13465   */\n  tag_96\n  jump\t// in\ntag_254:\n    /* \"#utility.yul\":13490:13492   */\n  0x20\n    /* \"#utility.yul\":13485:13488   */\n  dup3\n    /* \"#utility.yul\":13481:13493   */\n  add\n    /* \"#utility.yul\":13474:13493   */\n  swap1\n  pop\n    /* \"#utility.yul\":13133:13499   */\n  swap2\n  swap1\n  pop\n  jump\t// out\n    /* \"#utility.yul\":13505:13924   */\ntag_19:\n    /* \"#utility.yul\":13671:13675   */\n  0x00\n    /* \"#utility.yul\":13709:13711   */\n  0x20\n    /* \"#utility.yul\":13698:13707   */\n  dup3\n    /* \"#utility.yul\":13694:13712   */\n  add\n    /* \"#utility.yul\":13686:13712   */\n  swap1\n  pop\n    /* \"#utility.yul\":13758:13767   */\n  dup2\n    /* \"#utility.yul\":13752:13756   */\n  dup2\n    /* \"#utility.yul\":13748:13768   */\n  sub\n    /* \"#utility.yul\":13744:13745   */\n  0x00\n    /* \"#utility.yul\":13733:13742   */\n  dup4\n    /* \"#utility.yul\":13729:13746   */\n  add\n    /* \"#utility.yul\":13722:13769   */\n  mstore\n    /* \"#utility.yul\":13786:13917   */\n  tag_256\n    /* \"#utility.yul\":13912:13916   */\n  dup2\n    /* \"#utility.yul\":13786:13917   */\n  tag_97\n  jump\t// in\ntag_256:\n    /* \"#utility.yul\":13778:13917   */\n  swap1\n  pop\n    /* \"#utility.yul\":13505:13924   */\n  swap2\n  swap1\n  pop\n  jump\t// out\n    /* \"#utility.yul\":13930:14096   */\ntag_98:\n    /* \"#utility.yul\":14070:14088   */\n  0x696e76616c696420646563696d616c7300000000000000000000000000000000\n    /* \"#utility.yul\":14066:14067   */\n  0x00\n    /* \"#utility.yul\":14058:14064   */\n  dup3\n    /* \"#utility.yul\":14054:14068   */\n  add\n    /* \"#utility.yul\":14047:14089   */\n  mstore\n    /* \"#utility.yul\":13930:14096   */\n  pop\n  jump\t// out\n    /* \"#utility.yul\":14102:14468   */\ntag_99:\n    /* \"#utility.yul\":14244:14247   */\n  0x00\n    /* \"#utility.yul\":14265:14332   */\n  tag_259\n    /* \"#utility.yul\":14329:14331   */\n  0x10\n    /* \"#utility.yul\":14324:14327   */\n  dup4\n    /* \"#utility.yul\":14265:14332   */\n  tag_91\n  jump\t// in\ntag_259:\n    /* \"#utility.yul\":14258:14332   */\n  swap2\n  pop\n    /* \"#utility.yul\":14341:14434   */\n  tag_260\n    /* \"#utility.yul\":14430:14433   */\n  dup3\n    /* \"#utility.yul\":14341:14434   */\n  tag_98\n  jump\t// in\ntag_260:\n    /* \"#utility.yul\":14459:14461   */\n  0x20\n    /* \"#utility.yul\":14454:14457   */\n  dup3\n    /* \"#utility.yul\":14450:14462   */\n  add\n    /* \"#utility.yul\":14443:14462   */\n  swap1\n  pop\n    /* \"#utility.yul\":14102:14468   */\n  swap2\n  swap1\n  pop\n  jump\t// out\n    /* \"#utility.yul\":14474:14893   */\ntag_22:\n    /* \"#utility.yul\":14640:14644   */\n  0x00\n    /* \"#utility.yul\":14678:14680   */\n  0x20\n    /* \"#utility.yul\":14667:14676   */\n  dup3\n    /* \"#utility.yul\":14663:14681   */\n  add\n    /* \"#utility.yul\":14655:14681   */\n  swap1\n  pop\n    /* \"#utility.yul\":14727:14736   */\n  dup2\n    /* \"#utility.yul\":14721:14725   */\n  dup2\n    /* \"#utility.yul\":14717:14737   */\n  sub\n    /* \"#utility.yul\":14713:14714   */\n  0x00\n    /* \"#utility.yul\":14702:14711   */\n  dup4\n    /* \"#utility.yul\":14698:14715   */\n  add\n    /* \"#utility.yul\":14691:14738   */\n  mstore\n    /* \"#utility.yul\":14755:14886   */\n  tag_262\n    /* \"#utility.yul\":14881:14885   */\n  dup2\n    /* \"#utility.yul\":14755:14886   */\n  tag_99\n  jump\t// in\ntag_262:\n    /* \"#utility.yul\":14747:14886   */\n  swap1\n  pop\n    /* \"#utility.yul\":14474:14893   */\n  swap2\n  swap1\n  pop\n  jump\t// out\n    /* \"#utility.yul\":14899:15066   */\ntag_100:\n    /* \"#utility.yul\":15039:15058   */\n  0x696e76616c6964206d6178537570706c79000000000000000000000000000000\n    /* \"#utility.yul\":15035:15036   */\n  0x00\n    /* \"#utility.yul\":15027:15033   */\n  dup3\n    /* \"#utility.yul\":15023:15037   */\n  add\n    /* \"#utility.yul\":15016:15059   */\n  mstore\n    /* \"#utility.yul\":14899:15066   */\n  pop\n  jump\t// out\n    /* \"#utility.yul\":15072:15438   */\ntag_101:\n    /* \"#utility.yul\":15214:15217   */\n  0x00\n    /* \"#utility.yul\":15235:15302   */\n  tag_265\n    /* \"#utility.yul\":15299:15301   */\n  0x11\n    /* \"#utility.yul\":15294:15297   */\n  dup4\n    /* \"#utility.yul\":15235:15302   */\n  tag_91\n  jump\t// in\ntag_265:\n    /* \"#utility.yul\":15228:15302   */\n  swap2\n  pop\n    /* \"#utility.yul\":15311:15404   */\n  tag_266\n    /* \"#utility.yul\":15400:15403   */\n  dup3\n    /* \"#utility.yul\":15311:15404   */\n  tag_100\n  jump\t// in\ntag_266:\n    /* \"#utility.yul\":15429:15431   */\n  0x20\n    /* \"#utility.yul\":15424:15427   */\n  dup3\n    /* \"#utility.yul\":15420:15432   */\n  add\n    /* \"#utility.yul\":15413:15432   */\n  swap1\n  pop\n    /* \"#utility.yul\":15072:15438   */\n  swap2\n  swap1\n  pop\n  jump\t// out\n    /* \"#utility.yul\":15444:15863   */\ntag_25:\n    /* \"#utility.yul\":15610:15614   */\n  0x00\n    /* \"#utility.yul\":15648:15650   */\n  0x20\n    /* \"#utility.yul\":15637:15646   */\n  dup3\n    /* \"#utility.yul\":15633:15651   */\n  add\n    /* \"#utility.yul\":15625:15651   */\n  swap1\n  pop\n    /* \"#utility.yul\":15697:15706   */\n  dup2\n    /* \"#utility.yul\":15691:15695   */\n  dup2\n    /* \"#utility.yul\":15687:15707   */\n  sub\n    /* \"#utility.yul\":15683:15684   */\n  0x00\n    /* \"#utility.yul\":15672:15681   */\n  dup4\n    /* \"#utility.yul\":15668:15685   */\n  add\n    /* \"#utility.yul\":15661:15708   */\n  mstore\n    /* \"#utility.yul\":15725:15856   */\n  tag_268\n    /* \"#utility.yul\":15851:15855   */\n  dup2\n    /* \"#utility.yul\":15725:15856   */\n  tag_101\n  jump\t// in\ntag_268:\n    /* \"#utility.yul\":15717:15856   */\n  swap1\n  pop\n    /* \"#utility.yul\":15444:15863   */\n  swap2\n  swap1\n  pop\n  jump\t// out\n    /* \"#utility.yul\":15869:16038   */\ntag_102:\n    /* \"#utility.yul\":16009:16030   */\n  0x6d6178537570706c7920746f6f206c6172676500000000000000000000000000\n    /* \"#utility.yul\":16005:16006   */\n  0x00\n    /* \"#utility.yul\":15997:16003   */\n  dup3\n    /* \"#utility.yul\":15993:16007   */\n  add\n    /* \"#utility.yul\":15986:16031   */\n  mstore\n    /* \"#utility.yul\":15869:16038   */\n  pop\n  jump\t// out\n    /* \"#utility.yul\":16044:16410   */\ntag_103:\n    /* \"#utility.yul\":16186:16189   */\n  0x00\n    /* \"#utility.yul\":16207:16274   */\n  tag_271\n    /* \"#utility.yul\":16271:16273   */\n  0x13\n    /* \"#utility.yul\":16266:16269   */\n  dup4\n    /* \"#utility.yul\":16207:16274   */\n  tag_91\n  jump\t// in\ntag_271:\n    /* \"#utility.yul\":16200:16274   */\n  swap2\n  pop\n    /* \"#utility.yul\":16283:16376   */\n  tag_272\n    /* \"#utility.yul\":16372:16375   */\n  dup3\n    /* \"#utility.yul\":16283:16376   */\n  tag_102\n  jump\t// in\ntag_272:\n    /* \"#utility.yul\":16401:16403   */\n  0x20\n    /* \"#utility.yul\":16396:16399   */\n  dup3\n    /* \"#utility.yul\":16392:16404   */\n  add\n    /* \"#utility.yul\":16385:16404   */\n  swap1\n  pop\n    /* \"#utility.yul\":16044:16410   */\n  swap2\n  swap1\n  pop\n  jump\t// out\n    /* \"#utility.yul\":16416:16835   */\ntag_28:\n    /* \"#utility.yul\":16582:16586   */\n  0x00\n    /* \"#utility.yul\":16620:16622   */\n  0x20\n    /* \"#utility.yul\":16609:16618   */\n  dup3\n    /* \"#utility.yul\":16605:16623   */\n  add\n    /* \"#utility.yul\":16597:16623   */\n  swap1\n  pop\n    /* \"#utility.yul\":16669:16678   */\n  dup2\n    /* \"#utility.yul\":16663:16667   */\n  dup2\n    /* \"#utility.yul\":16659:16679   */\n  sub\n    /* \"#utility.yul\":16655:16656   */\n  0x00\n    /* \"#utility.yul\":16644:16653   */\n  dup4\n    /* \"#utility.yul\":16640:16657   */\n  add\n    /* \"#utility.yul\":16633:16680   */\n  mstore\n    /* \"#utility.yul\":16697:16828   */\n  tag_274\n    /* \"#utility.yul\":16823:16827   */\n  dup2\n    /* \"#utility.yul\":16697:16828   */\n  tag_103\n  jump\t// in\ntag_274:\n    /* \"#utility.yul\":16689:16828   */\n  swap1\n  pop\n    /* \"#utility.yul\":16416:16835   */\n  swap2\n  swap1\n  pop\n  jump\t// out\n    /* \"#utility.yul\":16841:17015   */\ntag_104:\n    /* \"#utility.yul\":16981:17007   */\n  0x496e697469616c20737570706c7920746f6f206c617267650000000000000000\n    /* \"#utility.yul\":16977:16978   */\n  0x00\n    /* \"#utility.yul\":16969:16975   */\n  dup3\n    /* \"#utility.yul\":16965:16979   */\n  add\n    /* \"#utility.yul\":16958:17008   */\n  mstore\n    /* \"#utility.yul\":16841:17015   */\n  pop\n  jump\t// out\n    /* \"#utility.yul\":17021:17387   */\ntag_105:\n    /* \"#utility.yul\":17163:17166   */\n  0x00\n    /* \"#utility.yul\":17184:17251   */\n  tag_277\n    /* \"#utility.yul\":17248:17250   */\n  0x18\n    /* \"#utility.yul\":17243:17246   */\n  dup4\n    /* \"#utility.yul\":17184:17251   */\n  tag_91\n  jump\t// in\ntag_277:\n    /* \"#utility.yul\":17177:17251   */\n  swap2\n  pop\n    /* \"#utility.yul\":17260:17353   */\n  tag_278\n    /* \"#utility.yul\":17349:17352   */\n  dup3\n    /* \"#utility.yul\":17260:17353   */\n  tag_104\n  jump\t// in\ntag_278:\n    /* \"#utility.yul\":17378:17380   */\n  0x20\n    /* \"#utility.yul\":17373:17376   */\n  dup3\n    /* \"#utility.yul\":17369:17381   */\n  add\n    /* \"#utility.yul\":17362:17381   */\n  swap1\n  pop\n    /* \"#utility.yul\":17021:17387   */\n  swap2\n  swap1\n  pop\n  jump\t// out\n    /* \"#utility.yul\":17393:17812   */\ntag_31:\n    /* \"#utility.yul\":17559:17563   */\n  0x00\n    /* \"#utility.yul\":17597:17599   */\n  0x20\n    /* \"#utility.yul\":17586:17595   */\n  dup3\n    /* \"#utility.yul\":17582:17600   */\n  add\n    /* \"#utility.yul\":17574:17600   */\n  swap1\n  pop\n    /* \"#utility.yul\":17646:17655   */\n  dup2\n    /* \"#utility.yul\":17640:17644   */\n  dup2\n    /* \"#utility.yul\":17636:17656   */\n  sub\n    /* \"#utility.yul\":17632:17633   */\n  0x00\n    /* \"#utility.yul\":17621:17630   */\n  dup4\n    /* \"#utility.yul\":17617:17634   */\n  add\n    /* \"#utility.yul\":17610:17657   */\n  mstore\n    /* \"#utility.yul\":17674:17805   */\n  tag_280\n    /* \"#utility.yul\":17800:17804   */\n  dup2\n    /* \"#utility.yul\":17674:17805   */\n  tag_105\n  jump\t// in\ntag_280:\n    /* \"#utility.yul\":17666:17805   */\n  swap1\n  pop\n    /* \"#utility.yul\":17393:17812   */\n  swap2\n  swap1\n  pop\n  jump\t// out\n    /* \"#utility.yul\":17818:17936   */\ntag_106:\n    /* \"#utility.yul\":17905:17929   */\n  tag_282\n    /* \"#utility.yul\":17923:17928   */\n  dup2\n    /* \"#utility.yul\":17905:17929   */\n  tag_66\n  jump\t// in\ntag_282:\n    /* \"#utility.yul\":17900:17903   */\n  dup3\n    /* \"#utility.yul\":17893:17930   */\n  mstore\n    /* \"#utility.yul\":17818:17936   */\n  pop\n  pop\n  jump\t// out\n    /* \"#utility.yul\":17942:18164   */\ntag_35:\n    /* \"#utility.yul\":18035:18039   */\n  0x00\n    /* \"#utility.yul\":18073:18075   */\n  0x20\n    /* \"#utility.yul\":18062:18071   */\n  dup3\n    /* \"#utility.yul\":18058:18076   */\n  add\n    /* \"#utility.yul\":18050:18076   */\n  swap1\n  pop\n    /* \"#utility.yul\":18086:18157   */\n  tag_284\n    /* \"#utility.yul\":18154:18155   */\n  0x00\n    /* \"#utility.yul\":18143:18152   */\n  dup4\n    /* \"#utility.yul\":18139:18156   */\n  add\n    /* \"#utility.yul\":18130:18136   */\n  dup5\n    /* \"#utility.yul\":18086:18157   */\n  tag_106\n  jump\t// in\ntag_284:\n    /* \"#utility.yul\":17942:18164   */\n  swap3\n  swap2\n  pop\n  pop\n  jump\t// out\n    /* \"#utility.yul\":18170:18351   */\ntag_107:\n    /* \"#utility.yul\":18310:18343   */\n  0x45524332303a206d696e7420746f20746865207a65726f206164647265737300\n    /* \"#utility.yul\":18306:18307   */\n  0x00\n    /* \"#utility.yul\":18298:18304   */\n  dup3\n    /* \"#utility.yul\":18294:18308   */\n  add\n    /* \"#utility.yul\":18287:18344   */\n  mstore\n    /* \"#utility.yul\":18170:18351   */\n  pop\n  jump\t// out\n    /* \"#utility.yul\":18357:18723   */\ntag_108:\n    /* \"#utility.yul\":18499:18502   */\n  0x00\n    /* \"#utility.yul\":18520:18587   */\n  tag_287\n    /* \"#utility.yul\":18584:18586   */\n  0x1f\n    /* \"#utility.yul\":18579:18582   */\n  dup4\n    /* \"#utility.yul\":18520:18587   */\n  tag_91\n  jump\t// in\ntag_287:\n    /* \"#utility.yul\":18513:18587   */\n  swap2\n  pop\n    /* \"#utility.yul\":18596:18689   */\n  tag_288\n    /* \"#utility.yul\":18685:18688   */\n  dup3\n    /* \"#utility.yul\":18596:18689   */\n  tag_107\n  jump\t// in\ntag_288:\n    /* \"#utility.yul\":18714:18716   */\n  0x20\n    /* \"#utility.yul\":18709:18712   */\n  dup3\n    /* \"#utility.yul\":18705:18717   */\n  add\n    /* \"#utility.yul\":18698:18717   */\n  swap1\n  pop\n    /* \"#utility.yul\":18357:18723   */\n  swap2\n  swap1\n  pop\n  jump\t// out\n    /* \"#utility.yul\":18729:19148   */\ntag_40:\n    /* \"#utility.yul\":18895:18899   */\n  0x00\n    /* \"#utility.yul\":18933:18935   */\n  0x20\n    /* \"#utility.yul\":18922:18931   */\n  dup3\n    /* \"#utility.yul\":18918:18936   */\n  add\n    /* \"#utility.yul\":18910:18936   */\n  swap1\n  pop\n    /* \"#utility.yul\":18982:18991   */\n  dup2\n    /* \"#utility.yul\":18976:18980   */\n  dup2\n    /* \"#utility.yul\":18972:18992   */\n  sub\n    /* \"#utility.yul\":18968:18969   */\n  0x00\n    /* \"#utility.yul\":18957:18966   */\n  dup4\n    /* \"#utility.yul\":18953:18970   */\n  add\n    /* \"#utility.yul\":18946:18993   */\n  mstore\n    /* \"#utility.yul\":19010:19141   */\n  tag_290\n    /* \"#utility.yul\":19136:19140   */\n  dup2\n    /* \"#utility.yul\":19010:19141   */\n  tag_108\n  jump\t// in\ntag_290:\n    /* \"#utility.yul\":19002:19141   */\n  swap1\n  pop\n    /* \"#utility.yul\":18729:19148   */\n  swap2\n  swap1\n  pop\n  jump\t// out\n    /* \"#utility.yul\":19154:19334   */\ntag_109:\n    /* \"#utility.yul\":19202:19279   */\n  0x4e487b7100000000000000000000000000000000000000000000000000000000\n    /* \"#utility.yul\":19199:19200   */\n  0x00\n    /* \"#utility.yul\":19192:19280   */\n  mstore\n    /* \"#utility.yul\":19299:19303   */\n  0x11\n    /* \"#utility.yul\":19296:19297   */\n  0x04\n    /* \"#utility.yul\":19289:19304   */\n  mstore\n    /* \"#utility.yul\":19323:19327   */\n  0x24\n    /* \"#utility.yul\":19320:19321   */\n  0x00\n    /* \"#utility.yul\":19313:19328   */\n  revert\n    /* \"#utility.yul\":19340:19531   */\ntag_44:\n    /* \"#utility.yul\":19380:19383   */\n  0x00\n    /* \"#utility.yul\":19399:19419   */\n  tag_293\n    /* \"#utility.yul\":19417:19418   */\n  dup3\n    /* \"#utility.yul\":19399:19419   */\n  tag_66\n  jump\t// in\ntag_293:\n    /* \"#utility.yul\":19394:19419   */\n  swap2\n  pop\n    /* \"#utility.yul\":19433:19453   */\n  tag_294\n    /* \"#utility.yul\":19451:19452   */\n  dup4\n    /* \"#utility.yul\":19433:19453   */\n  tag_66\n  jump\t// in\ntag_294:\n    /* \"#utility.yul\":19428:19453   */\n  swap3\n  pop\n    /* \"#utility.yul\":19476:19477   */\n  dup3\n    /* \"#utility.yul\":19473:19474   */\n  dup3\n    /* \"#utility.yul\":19469:19478   */\n  add\n    /* \"#utility.yul\":19462:19478   */\n  swap1\n  pop\n    /* \"#utility.yul\":19497:19500   */\n  dup1\n    /* \"#utility.yul\":19494:19495   */\n  dup3\n    /* \"#utility.yul\":19491:19501   */\n  gt\n    /* \"#utility.yul\":19488:19524   */\n  iszero\n  tag_295\n  jumpi\n    /* \"#utility.yul\":19504:19522   */\n  tag_296\n  tag_109\n  jump\t// in\ntag_296:\n    /* \"#utility.yul\":19488:19524   */\ntag_295:\n    /* \"#utility.yul\":19340:19531   */\n  swap3\n  swap2\n  pop\n  pop\n  jump\t// out\n    /* \"contracts/ReplayToken.sol\":388:9307  contract ReplayToken is ERC20 {... */\ntag_36:\n  mload(0x80)\n  mload(0xa0)\n  codecopy(0x00, dataOffset(sub_0), dataSize(sub_0))\n  0x00\n  assignImmutable(\"0x91aca35d2323f1aee5ba294cf6472d107c931b44a833a4780d457097227aec52\")\n  0x00\n  assignImmutable(\"0x37b508745ef6ef6c67c799f632cf7fcfe700c87034ef7848ed620ca48b2d446b\")\n  return(0x00, dataSize(sub_0))\nstop\n\nsub_0: assembly {\n        /* \"contracts/ReplayToken.sol\":388:9307  contract ReplayToken is ERC20 {... */\n      mstore(0x40, 0x80)\n      callvalue\n      dup1\n      iszero\n      tag_1\n      jumpi\n      0x00\n      dup1\n      revert\n    tag_1:\n      pop\n      jumpi(tag_2, lt(calldatasize, 0x04))\n      shr(0xe0, calldataload(0x00))\n      dup1\n      0x4dd18bf5\n      gt\n      tag_28\n      jumpi\n      dup1\n      0xa457c2d7\n      gt\n      tag_29\n      jumpi\n      dup1\n      0xd3b2f598\n      gt\n      tag_30\n      jumpi\n      dup1\n      0xd3b2f598\n      eq\n      tag_24\n      jumpi\n      dup1\n      0xd5abeb01\n      eq\n      tag_25\n      jumpi\n      dup1\n      0xdd62ed3e\n      eq\n      tag_26\n      jumpi\n      dup1\n      0xf851a440\n      eq\n      tag_27\n      jumpi\n      jump(tag_2)\n    tag_30:\n      dup1\n      0xa457c2d7\n      eq\n      tag_21\n      jumpi\n      dup1\n      0xa9059cbb\n      eq\n      tag_22\n      jumpi\n      dup1\n      0xab8e786f\n      eq\n      tag_23\n      jumpi\n      jump(tag_2)\n    tag_29:\n      dup1\n      0x4dd18bf5\n      eq\n      tag_15\n      jumpi\n      dup1\n      0x4eb03f6e\n      eq\n      tag_16\n      jumpi\n      dup1\n      0x70a08231\n      eq\n      tag_17\n      jumpi\n      dup1\n      0x909d6cb4\n      eq\n      tag_18\n      jumpi\n      dup1\n      0x95d89b41\n      eq\n      tag_19\n      jumpi\n      dup1\n      0xa0712d68\n      eq\n      tag_20\n      jumpi\n      jump(tag_2)\n    tag_28:\n      dup1\n      0x23b872dd\n      gt\n      tag_31\n      jumpi\n      dup1\n      0x23b872dd\n      eq\n      tag_9\n      jumpi\n      dup1\n      0x24e770d0\n      eq\n      tag_10\n      jumpi\n      dup1\n      0x26782247\n      eq\n      tag_11\n      jumpi\n      dup1\n      0x29fb7ef6\n      eq\n      tag_12\n      jumpi\n      dup1\n      0x313ce567\n      eq\n      tag_13\n      jumpi\n      dup1\n      0x39509351\n      eq\n      tag_14\n      jumpi\n      jump(tag_2)\n    tag_31:\n      dup1\n      0x06fdde03\n      eq\n      tag_3\n      jumpi\n      dup1\n      0x07546172\n      eq\n      tag_4\n      jumpi\n      dup1\n      0x095ea7b3\n      eq\n      tag_5\n      jumpi\n      dup1\n      0x0b064976\n      eq\n      tag_6\n      jumpi\n      dup1\n      0x18160ddd\n      eq\n      tag_7\n      jumpi\n      dup1\n      0x2147425f\n      eq\n      tag_8\n      jumpi\n    tag_2:\n      0x00\n      dup1\n      revert\n        /* \"@openzeppelin/contracts/token/ERC20/ERC20.sol\":2158:2256  function name() public view virtual override returns (string memory) {... */\n    tag_3:\n      tag_32\n      tag_33\n      jump\t// in\n    tag_32:\n      mload(0x40)\n      tag_34\n      swap2\n      swap1\n      tag_35\n      jump\t// in\n    tag_34:\n      mload(0x40)\n      dup1\n      swap2\n      sub\n      swap1\n      return\n        /* \"contracts/ReplayToken.sol\":956:977  address public minter */\n    tag_4:\n      tag_36\n      tag_37\n      jump\t// in\n    tag_36:\n      mload(0x40)\n      tag_38\n      swap2\n      swap1\n      tag_39\n      jump\t// in\n    tag_38:\n      mload(0x40)\n      dup1\n      swap2\n      sub\n      swap1\n      return\n        /* \"@openzeppelin/contracts/token/ERC20/ERC20.sol\":4444:4641  function approve(address spender, uint256 amount) public virtual override returns (bool) {... */\n    tag_5:\n      tag_40\n      0x04\n      dup1\n      calldatasize\n      sub\n      dup2\n      add\n      swap1\n      tag_41\n      swap2\n      swap1\n      tag_42\n      jump\t// in\n    tag_41:\n      tag_43\n      jump\t// in\n    tag_40:\n      mload(0x40)\n      tag_44\n      swap2\n      swap1\n      tag_45\n      jump\t// in\n    tag_44:\n      mload(0x40)\n      dup1\n      swap2\n      sub\n      swap1\n      return\n        /* \"contracts/ReplayToken.sol\":1561:1589  address public previousAdmin */\n    tag_6:\n      tag_46\n      tag_47\n      jump\t// in\n    tag_46:\n      mload(0x40)\n      tag_48\n      swap2\n      swap1\n      tag_39\n      jump\t// in\n    tag_48:\n      mload(0x40)\n      dup1\n      swap2\n      sub\n      swap1\n      return\n        /* \"@openzeppelin/contracts/token/ERC20/ERC20.sol\":3255:3361  function totalSupply() public view virtual override returns (uint256) {... */\n    tag_7:\n      tag_49\n      tag_50\n      jump\t// in\n    tag_49:\n      mload(0x40)\n      tag_51\n      swap2\n      swap1\n      tag_52\n      jump\t// in\n    tag_51:\n      mload(0x40)\n      dup1\n      swap2\n      sub\n      swap1\n      return\n        /* \"contracts/ReplayToken.sol\":1311:1340  address public previousMinter */\n    tag_8:\n      tag_53\n      tag_54\n      jump\t// in\n    tag_53:\n      mload(0x40)\n      tag_55\n      swap2\n      swap1\n      tag_39\n      jump\t// in\n    tag_55:\n      mload(0x40)\n      dup1\n      swap2\n      sub\n      swap1\n      return\n        /* \"@openzeppelin/contracts/token/ERC20/ERC20.sol\":5203:5459  function transferFrom(address from, address to, uint256 amount) public virtual override returns (bool) {... */\n    tag_9:\n      tag_56\n      0x04\n      dup1\n      calldatasize\n      sub\n      dup2\n      add\n      swap1\n      tag_57\n      swap2\n      swap1\n      tag_58\n      jump\t// in\n    tag_57:\n      tag_59\n      jump\t// in\n    tag_56:\n      mload(0x40)\n      tag_60\n      swap2\n      swap1\n      tag_45\n      jump\t// in\n    tag_60:\n      mload(0x40)\n      dup1\n      swap2\n      sub\n      swap1\n      return\n        /* \"contracts/ReplayToken.sol\":9008:9117  function stakerRewardPerBlock() external view returns (uint256) {... */\n    tag_10:\n      tag_61\n      tag_62\n      jump\t// in\n    tag_61:\n      mload(0x40)\n      tag_63\n      swap2\n      swap1\n      tag_52\n      jump\t// in\n    tag_63:\n      mload(0x40)\n      dup1\n      swap2\n      sub\n      swap1\n      return\n        /* \"contracts/ReplayToken.sol\":1189:1216  address public pendingAdmin */\n    tag_11:\n      tag_64\n      tag_65\n      jump\t// in\n    tag_64:\n      mload(0x40)\n      tag_66\n      swap2\n      swap1\n      tag_39\n      jump\t// in\n    tag_66:\n      mload(0x40)\n      dup1\n      swap2\n      sub\n      swap1\n      return\n        /* \"contracts/ReplayToken.sol\":7326:7558  function updateStakerRewardPerBlock(uint256 stakerRewardPerBlock_)... */\n    tag_12:\n      tag_67\n      0x04\n      dup1\n      calldatasize\n      sub\n      dup2\n      add\n      swap1\n      tag_68\n      swap2\n      swap1\n      tag_69\n      jump\t// in\n    tag_68:\n      tag_70\n      jump\t// in\n    tag_67:\n      stop\n        /* \"contracts/ReplayToken.sol\":9207:9305  function decimals() public view virtual override returns (uint8) {... */\n    tag_13:\n      tag_71\n      tag_72\n      jump\t// in\n    tag_71:\n      mload(0x40)\n      tag_73\n      swap2\n      swap1\n      tag_74\n      jump\t// in\n    tag_73:\n      mload(0x40)\n      dup1\n      swap2\n      sub\n      swap1\n      return\n        /* \"@openzeppelin/contracts/token/ERC20/ERC20.sol\":5854:6088  function increaseAllowance(address spender, uint256 addedValue) public virtual returns (bool) {... */\n    tag_14:\n      tag_75\n      0x04\n      dup1\n      calldatasize\n      sub\n      dup2\n      add\n      swap1\n      tag_76\n      swap2\n      swap1\n      tag_42\n      jump\t// in\n    tag_76:\n      tag_77\n      jump\t// in\n    tag_75:\n      mload(0x40)\n      tag_78\n      swap2\n      swap1\n      tag_45\n      jump\t// in\n    tag_78:\n      mload(0x40)\n      dup1\n      swap2\n      sub\n      swap1\n      return\n        /* \"contracts/ReplayToken.sol\":8185:8468  function setPendingAdmin(address admin_) external adminOnly {... */\n    tag_15:\n      tag_79\n      0x04\n      dup1\n      calldatasize\n      sub\n      dup2\n      add\n      swap1\n      tag_80\n      swap2\n      swap1\n      tag_81\n      jump\t// in\n    tag_80:\n      tag_82\n      jump\t// in\n    tag_79:\n      stop\n        /* \"contracts/ReplayToken.sol\":7757:8000  function updateMinter(address minter_) external adminOnly {... */\n    tag_16:\n      tag_83\n      0x04\n      dup1\n      calldatasize\n      sub\n      dup2\n      add\n      swap1\n      tag_84\n      swap2\n      swap1\n      tag_81\n      jump\t// in\n    tag_84:\n      tag_85\n      jump\t// in\n    tag_83:\n      stop\n        /* \"@openzeppelin/contracts/token/ERC20/ERC20.sol\":3419:3544  function balanceOf(address account) public view virtual override returns (uint256) {... */\n    tag_17:\n      tag_86\n      0x04\n      dup1\n      calldatasize\n      sub\n      dup2\n      add\n      swap1\n      tag_87\n      swap2\n      swap1\n      tag_81\n      jump\t// in\n    tag_87:\n      tag_88\n      jump\t// in\n    tag_86:\n      mload(0x40)\n      tag_89\n      swap2\n      swap1\n      tag_52\n      jump\t// in\n    tag_89:\n      mload(0x40)\n      dup1\n      swap2\n      sub\n      swap1\n      return\n        /* \"contracts/ReplayToken.sol\":1433:1468  address public previousPendingAdmin */\n    tag_18:\n      tag_90\n      tag_91\n      jump\t// in\n    tag_90:\n      mload(0x40)\n      tag_92\n      swap2\n      swap1\n      tag_39\n      jump\t// in\n    tag_92:\n      mload(0x40)\n      dup1\n      swap2\n      sub\n      swap1\n      return\n        /* \"@openzeppelin/contracts/token/ERC20/ERC20.sol\":2369:2471  function symbol() public view virtual override returns (string memory) {... */\n    tag_19:\n      tag_93\n      tag_94\n      jump\t// in\n    tag_93:\n      mload(0x40)\n      tag_95\n      swap2\n      swap1\n      tag_35\n      jump\t// in\n    tag_95:\n      mload(0x40)\n      dup1\n      swap2\n      sub\n      swap1\n      return\n        /* \"contracts/ReplayToken.sol\":6646:7011  function mint(uint256 amount) external adminOnly {... */\n    tag_20:\n      tag_96\n      0x04\n      dup1\n      calldatasize\n      sub\n      dup2\n      add\n      swap1\n      tag_97\n      swap2\n      swap1\n      tag_69\n      jump\t// in\n    tag_97:\n      tag_98\n      jump\t// in\n    tag_96:\n      stop\n        /* \"@openzeppelin/contracts/token/ERC20/ERC20.sol\":6575:7002  function decreaseAllowance(address spender, uint256 subtractedValue) public virtual returns (bool) {... */\n    tag_21:\n      tag_99\n      0x04\n      dup1\n      calldatasize\n      sub\n      dup2\n      add\n      swap1\n      tag_100\n      swap2\n      swap1\n      tag_42\n      jump\t// in\n    tag_100:\n      tag_101\n      jump\t// in\n    tag_99:\n      mload(0x40)\n      tag_102\n      swap2\n      swap1\n      tag_45\n      jump\t// in\n    tag_102:\n      mload(0x40)\n      dup1\n      swap2\n      sub\n      swap1\n      return\n        /* \"@openzeppelin/contracts/token/ERC20/ERC20.sol\":3740:3929  function transfer(address to, uint256 amount) public virtual override returns (bool) {... */\n    tag_22:\n      tag_103\n      0x04\n      dup1\n      calldatasize\n      sub\n      dup2\n      add\n      swap1\n      tag_104\n      swap2\n      swap1\n      tag_42\n      jump\t// in\n    tag_104:\n      tag_105\n      jump\t// in\n    tag_103:\n      mload(0x40)\n      tag_106\n      swap2\n      swap1\n      tag_45\n      jump\t// in\n    tag_106:\n      mload(0x40)\n      dup1\n      swap2\n      sub\n      swap1\n      return\n        /* \"contracts/ReplayToken.sol\":5954:6455  function mintStakerReward(address account, uint256 amount)... */\n    tag_23:\n      tag_107\n      0x04\n      dup1\n      calldatasize\n      sub\n      dup2\n      add\n      swap1\n      tag_108\n      swap2\n      swap1\n      tag_42\n      jump\t// in\n    tag_108:\n      tag_109\n      jump\t// in\n    tag_107:\n      mload(0x40)\n      tag_110\n      swap2\n      swap1\n      tag_45\n      jump\t// in\n    tag_110:\n      mload(0x40)\n      dup1\n      swap2\n      sub\n      swap1\n      return\n        /* \"contracts/ReplayToken.sol\":8562:8727  function updateAdmin() external pendingAdminOnly {... */\n    tag_24:\n      tag_111\n      tag_112\n      jump\t// in\n    tag_111:\n      stop\n        /* \"contracts/ReplayToken.sol\":806:840  uint256 public immutable maxSupply */\n    tag_25:\n      tag_113\n      tag_114\n      jump\t// in\n    tag_113:\n      mload(0x40)\n      tag_115\n      swap2\n      swap1\n      tag_52\n      jump\t// in\n    tag_115:\n      mload(0x40)\n      dup1\n      swap2\n      sub\n      swap1\n      return\n        /* \"@openzeppelin/contracts/token/ERC20/ERC20.sol\":3987:4136  function allowance(address owner, address spender) public view virtual override returns (uint256) {... */\n    tag_26:\n      tag_116\n      0x04\n      dup1\n      calldatasize\n      sub\n      dup2\n      add\n      swap1\n      tag_117\n      swap2\n      swap1\n      tag_118\n      jump\t// in\n    tag_117:\n      tag_119\n      jump\t// in\n    tag_116:\n      mload(0x40)\n      tag_120\n      swap2\n      swap1\n      tag_52\n      jump\t// in\n    tag_120:\n      mload(0x40)\n      dup1\n      swap2\n      sub\n      swap1\n      return\n        /* \"contracts/ReplayToken.sol\":1099:1119  address public admin */\n    tag_27:\n      tag_121\n      tag_122\n      jump\t// in\n    tag_121:\n      mload(0x40)\n      tag_123\n      swap2\n      swap1\n      tag_39\n      jump\t// in\n    tag_123:\n      mload(0x40)\n      dup1\n      swap2\n      sub\n      swap1\n      return\n        /* \"@openzeppelin/contracts/token/ERC20/ERC20.sol\":2158:2256  function name() public view virtual override returns (string memory) {... */\n    tag_33:\n        /* \"@openzeppelin/contracts/token/ERC20/ERC20.sol\":2212:2225  string memory */\n      0x60\n        /* \"@openzeppelin/contracts/token/ERC20/ERC20.sol\":2244:2249  _name */\n      0x03\n        /* \"@openzeppelin/contracts/token/ERC20/ERC20.sol\":2237:2249  return _name */\n      dup1\n      sload\n      tag_125\n      swap1\n      tag_126\n      jump\t// in\n    tag_125:\n      dup1\n      0x1f\n      add\n      0x20\n      dup1\n      swap2\n      div\n      mul\n      0x20\n      add\n      mload(0x40)\n      swap1\n      dup2\n      add\n      0x40\n      mstore\n      dup1\n      swap3\n      swap2\n      swap1\n      dup2\n      dup2\n      mstore\n      0x20\n      add\n      dup3\n      dup1\n      sload\n      tag_127\n      swap1\n      tag_126\n      jump\t// in\n    tag_127:\n      dup1\n      iszero\n      tag_128\n      jumpi\n      dup1\n      0x1f\n      lt\n      tag_129\n      jumpi\n      0x0100\n      dup1\n      dup4\n      sload\n      div\n      mul\n      dup4\n      mstore\n      swap2\n      0x20\n      add\n      swap2\n      jump(tag_128)\n    tag_129:\n      dup3\n      add\n      swap2\n      swap1\n      0x00\n      mstore\n      keccak256(0x00, 0x20)\n      swap1\n    tag_130:\n      dup2\n      sload\n      dup2\n      mstore\n      swap1\n      0x01\n      add\n      swap1\n      0x20\n      add\n      dup1\n      dup4\n      gt\n      tag_130\n      jumpi\n      dup3\n      swap1\n      sub\n      0x1f\n      and\n      dup3\n      add\n      swap2\n    tag_128:\n      pop\n      pop\n      pop\n      pop\n      pop\n      swap1\n      pop\n        /* \"@openzeppelin/contracts/token/ERC20/ERC20.sol\":2158:2256  function name() public view virtual override returns (string memory) {... */\n      swap1\n      jump\t// out\n        /* \"contracts/ReplayToken.sol\":956:977  address public minter */\n    tag_37:\n      0x06\n      0x00\n      swap1\n      sload\n      swap1\n      0x0100\n      exp\n      swap1\n      div\n      0xffffffffffffffffffffffffffffffffffffffff\n      and\n      dup2\n      jump\t// out\n        /* \"@openzeppelin/contracts/token/ERC20/ERC20.sol\":4444:4641  function approve(address spender, uint256 amount) public virtual override returns (bool) {... */\n    tag_43:\n        /* \"@openzeppelin/contracts/token/ERC20/ERC20.sol\":4527:4531  bool */\n      0x00\n        /* \"@openzeppelin/contracts/token/ERC20/ERC20.sol\":4543:4556  address owner */\n      dup1\n        /* \"@openzeppelin/contracts/token/ERC20/ERC20.sol\":4559:4571  _msgSender() */\n      tag_132\n        /* \"@openzeppelin/contracts/token/ERC20/ERC20.sol\":4559:4569  _msgSender */\n      tag_133\n        /* \"@openzeppelin/contracts/token/ERC20/ERC20.sol\":4559:4571  _msgSender() */\n      jump\t// in\n    tag_132:\n        /* \"@openzeppelin/contracts/token/ERC20/ERC20.sol\":4543:4571  address owner = _msgSender() */\n      swap1\n      pop\n        /* \"@openzeppelin/contracts/token/ERC20/ERC20.sol\":4581:4613  _approve(owner, spender, amount) */\n      tag_134\n        /* \"@openzeppelin/contracts/token/ERC20/ERC20.sol\":4590:4595  owner */\n      dup2\n        /* \"@openzeppelin/contracts/token/ERC20/ERC20.sol\":4597:4604  spender */\n      dup6\n        /* \"@openzeppelin/contracts/token/ERC20/ERC20.sol\":4606:4612  amount */\n      dup6\n        /* \"@openzeppelin/contracts/token/ERC20/ERC20.sol\":4581:4589  _approve */\n      tag_135\n        /* \"@openzeppelin/contracts/token/ERC20/ERC20.sol\":4581:4613  _approve(owner, spender, amount) */\n      jump\t// in\n    tag_134:\n        /* \"@openzeppelin/contracts/token/ERC20/ERC20.sol\":4630:4634  true */\n      0x01\n        /* \"@openzeppelin/contracts/token/ERC20/ERC20.sol\":4623:4634  return true */\n      swap2\n      pop\n      pop\n        /* \"@openzeppelin/contracts/token/ERC20/ERC20.sol\":4444:4641  function approve(address spender, uint256 amount) public virtual override returns (bool) {... */\n      swap3\n      swap2\n      pop\n      pop\n      jump\t// out\n        /* \"contracts/ReplayToken.sol\":1561:1589  address public previousAdmin */\n    tag_47:\n      0x0b\n      0x00\n      swap1\n      sload\n      swap1\n      0x0100\n      exp\n      swap1\n      div\n      0xffffffffffffffffffffffffffffffffffffffff\n      and\n      dup2\n      jump\t// out\n        /* \"@openzeppelin/contracts/token/ERC20/ERC20.sol\":3255:3361  function totalSupply() public view virtual override returns (uint256) {... */\n    tag_50:\n        /* \"@openzeppelin/contracts/token/ERC20/ERC20.sol\":3316:3323  uint256 */\n      0x00\n        /* \"@openzeppelin/contracts/token/ERC20/ERC20.sol\":3342:3354  _totalSupply */\n      sload(0x02)\n        /* \"@openzeppelin/contracts/token/ERC20/ERC20.sol\":3335:3354  return _totalSupply */\n      swap1\n      pop\n        /* \"@openzeppelin/contracts/token/ERC20/ERC20.sol\":3255:3361  function totalSupply() public view virtual override returns (uint256) {... */\n      swap1\n      jump\t// out\n        /* \"contracts/ReplayToken.sol\":1311:1340  address public previousMinter */\n    tag_54:\n      0x09\n      0x00\n      swap1\n      sload\n      swap1\n      0x0100\n      exp\n      swap1\n      div\n      0xffffffffffffffffffffffffffffffffffffffff\n      and\n      dup2\n      jump\t// out\n        /* \"@openzeppelin/contracts/token/ERC20/ERC20.sol\":5203:5459  function transferFrom(address from, address to, uint256 amount) public virtual override returns (bool) {... */\n    tag_59:\n        /* \"@openzeppelin/contracts/token/ERC20/ERC20.sol\":5300:5304  bool */\n      0x00\n        /* \"@openzeppelin/contracts/token/ERC20/ERC20.sol\":5316:5331  address spender */\n      dup1\n        /* \"@openzeppelin/contracts/token/ERC20/ERC20.sol\":5334:5346  _msgSender() */\n      tag_138\n        /* \"@openzeppelin/contracts/token/ERC20/ERC20.sol\":5334:5344  _msgSender */\n      tag_133\n        /* \"@openzeppelin/contracts/token/ERC20/ERC20.sol\":5334:5346  _msgSender() */\n      jump\t// in\n    tag_138:\n        /* \"@openzeppelin/contracts/token/ERC20/ERC20.sol\":5316:5346  address spender = _msgSender() */\n      swap1\n      pop\n        /* \"@openzeppelin/contracts/token/ERC20/ERC20.sol\":5356:5394  _spendAllowance(from, spender, amount) */\n      tag_139\n        /* \"@openzeppelin/contracts/token/ERC20/ERC20.sol\":5372:5376  from */\n      dup6\n        /* \"@openzeppelin/contracts/token/ERC20/ERC20.sol\":5378:5385  spender */\n      dup3\n        /* \"@openzeppelin/contracts/token/ERC20/ERC20.sol\":5387:5393  amount */\n      dup6\n        /* \"@openzeppelin/contracts/token/ERC20/ERC20.sol\":5356:5371  _spendAllowance */\n      tag_140\n        /* \"@openzeppelin/contracts/token/ERC20/ERC20.sol\":5356:5394  _spendAllowance(from, spender, amount) */\n      jump\t// in\n    tag_139:\n        /* \"@openzeppelin/contracts/token/ERC20/ERC20.sol\":5404:5431  _transfer(from, to, amount) */\n      tag_141\n        /* \"@openzeppelin/contracts/token/ERC20/ERC20.sol\":5414:5418  from */\n      dup6\n        /* \"@openzeppelin/contracts/token/ERC20/ERC20.sol\":5420:5422  to */\n      dup6\n        /* \"@openzeppelin/contracts/token/ERC20/ERC20.sol\":5424:5430  amount */\n      dup6\n        /* \"@openzeppelin/contracts/token/ERC20/ERC20.sol\":5404:5413  _transfer */\n      tag_142\n        /* \"@openzeppelin/contracts/token/ERC20/ERC20.sol\":5404:5431  _transfer(from, to, amount) */\n      jump\t// in\n    tag_141:\n        /* \"@openzeppelin/contracts/token/ERC20/ERC20.sol\":5448:5452  true */\n      0x01\n        /* \"@openzeppelin/contracts/token/ERC20/ERC20.sol\":5441:5452  return true */\n      swap2\n      pop\n      pop\n        /* \"@openzeppelin/contracts/token/ERC20/ERC20.sol\":5203:5459  function transferFrom(address from, address to, uint256 amount) public virtual override returns (bool) {... */\n      swap4\n      swap3\n      pop\n      pop\n      pop\n      jump\t// out\n        /* \"contracts/ReplayToken.sol\":9008:9117  function stakerRewardPerBlock() external view returns (uint256) {... */\n    tag_62:\n        /* \"contracts/ReplayToken.sol\":9063:9070  uint256 */\n      0x00\n        /* \"contracts/ReplayToken.sol\":9089:9110  _stakerRewardPerBlock */\n      sload(0x05)\n        /* \"contracts/ReplayToken.sol\":9082:9110  return _stakerRewardPerBlock */\n      swap1\n      pop\n        /* \"contracts/ReplayToken.sol\":9008:9117  function stakerRewardPerBlock() external view returns (uint256) {... */\n      swap1\n      jump\t// out\n        /* \"contracts/ReplayToken.sol\":1189:1216  address public pendingAdmin */\n    tag_65:\n      0x08\n      0x00\n      swap1\n      sload\n      swap1\n      0x0100\n      exp\n      swap1\n      div\n      0xffffffffffffffffffffffffffffffffffffffff\n      and\n      dup2\n      jump\t// out\n        /* \"contracts/ReplayToken.sol\":7326:7558  function updateStakerRewardPerBlock(uint256 stakerRewardPerBlock_)... */\n    tag_70:\n        /* \"contracts/ReplayToken.sol\":3060:3065  admin */\n      0x07\n      0x00\n      swap1\n      sload\n      swap1\n      0x0100\n      exp\n      swap1\n      div\n      0xffffffffffffffffffffffffffffffffffffffff\n      and\n        /* \"contracts/ReplayToken.sol\":3046:3065  msg.sender == admin */\n      0xffffffffffffffffffffffffffffffffffffffff\n      and\n        /* \"contracts/ReplayToken.sol\":3046:3056  msg.sender */\n      caller\n        /* \"contracts/ReplayToken.sol\":3046:3065  msg.sender == admin */\n      0xffffffffffffffffffffffffffffffffffffffff\n      and\n      eq\n        /* \"contracts/ReplayToken.sol\":3038:3099  require(msg.sender == admin, \"Only admin can make this call\") */\n      tag_145\n      jumpi\n      mload(0x40)\n      0x08c379a000000000000000000000000000000000000000000000000000000000\n      dup2\n      mstore\n      0x04\n      add\n      tag_146\n      swap1\n      tag_147\n      jump\t// in\n    tag_146:\n      mload(0x40)\n      dup1\n      swap2\n      sub\n      swap1\n      revert\n    tag_145:\n        /* \"contracts/ReplayToken.sol\":7466:7487  stakerRewardPerBlock_ */\n      dup1\n        /* \"contracts/ReplayToken.sol\":7442:7463  _stakerRewardPerBlock */\n      0x05\n        /* \"contracts/ReplayToken.sol\":7442:7487  _stakerRewardPerBlock = stakerRewardPerBlock_ */\n      dup2\n      swap1\n      sstore\n      pop\n        /* \"contracts/ReplayToken.sol\":7502:7551  UpdateStakerRewardPerBlock(_stakerRewardPerBlock) */\n      0xd65d781db82f0bd55f732ea1b96f4c6565750df815c18a70962cd8405274e243\n        /* \"contracts/ReplayToken.sol\":7529:7550  _stakerRewardPerBlock */\n      sload(0x05)\n        /* \"contracts/ReplayToken.sol\":7502:7551  UpdateStakerRewardPerBlock(_stakerRewardPerBlock) */\n      mload(0x40)\n      tag_149\n      swap2\n      swap1\n      tag_52\n      jump\t// in\n    tag_149:\n      mload(0x40)\n      dup1\n      swap2\n      sub\n      swap1\n      log1\n        /* \"contracts/ReplayToken.sol\":7326:7558  function updateStakerRewardPerBlock(uint256 stakerRewardPerBlock_)... */\n      pop\n      jump\t// out\n        /* \"contracts/ReplayToken.sol\":9207:9305  function decimals() public view virtual override returns (uint8) {... */\n    tag_72:\n        /* \"contracts/ReplayToken.sol\":9265:9270  uint8 */\n      0x00\n        /* \"contracts/ReplayToken.sol\":9289:9298  _decimals */\n      immutable(\"0x37b508745ef6ef6c67c799f632cf7fcfe700c87034ef7848ed620ca48b2d446b\")\n        /* \"contracts/ReplayToken.sol\":9282:9298  return _decimals */\n      swap1\n      pop\n        /* \"contracts/ReplayToken.sol\":9207:9305  function decimals() public view virtual override returns (uint8) {... */\n      swap1\n      jump\t// out\n        /* \"@openzeppelin/contracts/token/ERC20/ERC20.sol\":5854:6088  function increaseAllowance(address spender, uint256 addedValue) public virtual returns (bool) {... */\n    tag_77:\n        /* \"@openzeppelin/contracts/token/ERC20/ERC20.sol\":5942:5946  bool */\n      0x00\n        /* \"@openzeppelin/contracts/token/ERC20/ERC20.sol\":5958:5971  address owner */\n      dup1\n        /* \"@openzeppelin/contracts/token/ERC20/ERC20.sol\":5974:5986  _msgSender() */\n      tag_152\n        /* \"@openzeppelin/contracts/token/ERC20/ERC20.sol\":5974:5984  _msgSender */\n      tag_133\n        /* \"@openzeppelin/contracts/token/ERC20/ERC20.sol\":5974:5986  _msgSender() */\n      jump\t// in\n    tag_152:\n        /* \"@openzeppelin/contracts/token/ERC20/ERC20.sol\":5958:5986  address owner = _msgSender() */\n      swap1\n      pop\n        /* \"@openzeppelin/contracts/token/ERC20/ERC20.sol\":5996:6060  _approve(owner, spender, allowance(owner, spender) + addedValue) */\n      tag_153\n        /* \"@openzeppelin/contracts/token/ERC20/ERC20.sol\":6005:6010  owner */\n      dup2\n        /* \"@openzeppelin/contracts/token/ERC20/ERC20.sol\":6012:6019  spender */\n      dup6\n        /* \"@openzeppelin/contracts/token/ERC20/ERC20.sol\":6049:6059  addedValue */\n      dup6\n        /* \"@openzeppelin/contracts/token/ERC20/ERC20.sol\":6021:6046  allowance(owner, spender) */\n      tag_154\n        /* \"@openzeppelin/contracts/token/ERC20/ERC20.sol\":6031:6036  owner */\n      dup6\n        /* \"@openzeppelin/contracts/token/ERC20/ERC20.sol\":6038:6045  spender */\n      dup10\n        /* \"@openzeppelin/contracts/token/ERC20/ERC20.sol\":6021:6030  allowance */\n      tag_119\n        /* \"@openzeppelin/contracts/token/ERC20/ERC20.sol\":6021:6046  allowance(owner, spender) */\n      jump\t// in\n    tag_154:\n        /* \"@openzeppelin/contracts/token/ERC20/ERC20.sol\":6021:6059  allowance(owner, spender) + addedValue */\n      tag_155\n      swap2\n      swap1\n      tag_156\n      jump\t// in\n    tag_155:\n        /* \"@openzeppelin/contracts/token/ERC20/ERC20.sol\":5996:6004  _approve */\n      tag_135\n        /* \"@openzeppelin/contracts/token/ERC20/ERC20.sol\":5996:6060  _approve(owner, spender, allowance(owner, spender) + addedValue) */\n      jump\t// in\n    tag_153:\n        /* \"@openzeppelin/contracts/token/ERC20/ERC20.sol\":6077:6081  true */\n      0x01\n        /* \"@openzeppelin/contracts/token/ERC20/ERC20.sol\":6070:6081  return true */\n      swap2\n      pop\n      pop\n        /* \"@openzeppelin/contracts/token/ERC20/ERC20.sol\":5854:6088  function increaseAllowance(address spender, uint256 addedValue) public virtual returns (bool) {... */\n      swap3\n      swap2\n      pop\n      pop\n      jump\t// out\n        /* \"contracts/ReplayToken.sol\":8185:8468  function setPendingAdmin(address admin_) external adminOnly {... */\n    tag_82:\n        /* \"contracts/ReplayToken.sol\":3060:3065  admin */\n      0x07\n      0x00\n      swap1\n      sload\n      swap1\n      0x0100\n      exp\n      swap1\n      div\n      0xffffffffffffffffffffffffffffffffffffffff\n      and\n        /* \"contracts/ReplayToken.sol\":3046:3065  msg.sender == admin */\n      0xffffffffffffffffffffffffffffffffffffffff\n      and\n        /* \"contracts/ReplayToken.sol\":3046:3056  msg.sender */\n      caller\n        /* \"contracts/ReplayToken.sol\":3046:3065  msg.sender == admin */\n      0xffffffffffffffffffffffffffffffffffffffff\n      and\n      eq\n        /* \"contracts/ReplayToken.sol\":3038:3099  require(msg.sender == admin, \"Only admin can make this call\") */\n      tag_158\n      jumpi\n      mload(0x40)\n      0x08c379a000000000000000000000000000000000000000000000000000000000\n      dup2\n      mstore\n      0x04\n      add\n      tag_159\n      swap1\n      tag_147\n      jump\t// in\n    tag_159:\n      mload(0x40)\n      dup1\n      swap2\n      sub\n      swap1\n      revert\n    tag_158:\n        /* \"contracts/ReplayToken.sol\":8281:8284  0x0 */\n      0x00\n        /* \"contracts/ReplayToken.sol\":8263:8285  admin_ != address(0x0) */\n      0xffffffffffffffffffffffffffffffffffffffff\n      and\n        /* \"contracts/ReplayToken.sol\":8263:8269  admin_ */\n      dup2\n        /* \"contracts/ReplayToken.sol\":8263:8285  admin_ != address(0x0) */\n      0xffffffffffffffffffffffffffffffffffffffff\n      and\n      sub\n        /* \"contracts/ReplayToken.sol\":8255:8319  require(admin_ != address(0x0), \"invalid pending admin address\") */\n      tag_161\n      jumpi\n      mload(0x40)\n      0x08c379a000000000000000000000000000000000000000000000000000000000\n      dup2\n      mstore\n      0x04\n      add\n      tag_162\n      swap1\n      tag_163\n      jump\t// in\n    tag_162:\n      mload(0x40)\n      dup1\n      swap2\n      sub\n      swap1\n      revert\n    tag_161:\n        /* \"contracts/ReplayToken.sol\":8352:8364  pendingAdmin */\n      0x08\n      0x00\n      swap1\n      sload\n      swap1\n      0x0100\n      exp\n      swap1\n      div\n      0xffffffffffffffffffffffffffffffffffffffff\n      and\n        /* \"contracts/ReplayToken.sol\":8329:8349  previousPendingAdmin */\n      0x0a\n      0x00\n        /* \"contracts/ReplayToken.sol\":8329:8364  previousPendingAdmin = pendingAdmin */\n      0x0100\n      exp\n      dup2\n      sload\n      dup2\n      0xffffffffffffffffffffffffffffffffffffffff\n      mul\n      not\n      and\n      swap1\n      dup4\n      0xffffffffffffffffffffffffffffffffffffffff\n      and\n      mul\n      or\n      swap1\n      sstore\n      pop\n        /* \"contracts/ReplayToken.sol\":8389:8395  admin_ */\n      dup1\n        /* \"contracts/ReplayToken.sol\":8374:8386  pendingAdmin */\n      0x08\n      0x00\n        /* \"contracts/ReplayToken.sol\":8374:8395  pendingAdmin = admin_ */\n      0x0100\n      exp\n      dup2\n      sload\n      dup2\n      0xffffffffffffffffffffffffffffffffffffffff\n      mul\n      not\n      and\n      swap1\n      dup4\n      0xffffffffffffffffffffffffffffffffffffffff\n      and\n      mul\n      or\n      swap1\n      sstore\n      pop\n        /* \"contracts/ReplayToken.sol\":8448:8460  pendingAdmin */\n      0x08\n      0x00\n      swap1\n      sload\n      swap1\n      0x0100\n      exp\n      swap1\n      div\n      0xffffffffffffffffffffffffffffffffffffffff\n      and\n        /* \"contracts/ReplayToken.sol\":8410:8461  SetPendingAdmin(previousPendingAdmin, pendingAdmin) */\n      0xffffffffffffffffffffffffffffffffffffffff\n      and\n        /* \"contracts/ReplayToken.sol\":8426:8446  previousPendingAdmin */\n      0x0a\n      0x00\n      swap1\n      sload\n      swap1\n      0x0100\n      exp\n      swap1\n      div\n      0xffffffffffffffffffffffffffffffffffffffff\n      and\n        /* \"contracts/ReplayToken.sol\":8410:8461  SetPendingAdmin(previousPendingAdmin, pendingAdmin) */\n      0xffffffffffffffffffffffffffffffffffffffff\n      and\n      0xed1a3b5dea5773c7660d05cc9884b43f5e8e0b581713e873f013560558890f49\n      mload(0x40)\n      mload(0x40)\n      dup1\n      swap2\n      sub\n      swap1\n      log3\n        /* \"contracts/ReplayToken.sol\":8185:8468  function setPendingAdmin(address admin_) external adminOnly {... */\n      pop\n      jump\t// out\n        /* \"contracts/ReplayToken.sol\":7757:8000  function updateMinter(address minter_) external adminOnly {... */\n    tag_85:\n        /* \"contracts/ReplayToken.sol\":3060:3065  admin */\n      0x07\n      0x00\n      swap1\n      sload\n      swap1\n      0x0100\n      exp\n      swap1\n      div\n      0xffffffffffffffffffffffffffffffffffffffff\n      and\n        /* \"contracts/ReplayToken.sol\":3046:3065  msg.sender == admin */\n      0xffffffffffffffffffffffffffffffffffffffff\n      and\n        /* \"contracts/ReplayToken.sol\":3046:3056  msg.sender */\n      caller\n        /* \"contracts/ReplayToken.sol\":3046:3065  msg.sender == admin */\n      0xffffffffffffffffffffffffffffffffffffffff\n      and\n      eq\n        /* \"contracts/ReplayToken.sol\":3038:3099  require(msg.sender == admin, \"Only admin can make this call\") */\n      tag_165\n      jumpi\n      mload(0x40)\n      0x08c379a000000000000000000000000000000000000000000000000000000000\n      dup2\n      mstore\n      0x04\n      add\n      tag_166\n      swap1\n      tag_147\n      jump\t// in\n    tag_166:\n      mload(0x40)\n      dup1\n      swap2\n      sub\n      swap1\n      revert\n    tag_165:\n        /* \"contracts/ReplayToken.sol\":7852:7855  0x0 */\n      0x00\n        /* \"contracts/ReplayToken.sol\":7833:7856  minter_ != address(0x0) */\n      0xffffffffffffffffffffffffffffffffffffffff\n      and\n        /* \"contracts/ReplayToken.sol\":7833:7840  minter_ */\n      dup2\n        /* \"contracts/ReplayToken.sol\":7833:7856  minter_ != address(0x0) */\n      0xffffffffffffffffffffffffffffffffffffffff\n      and\n      sub\n        /* \"contracts/ReplayToken.sol\":7825:7883  require(minter_ != address(0x0), \"invalid minter address\") */\n      tag_168\n      jumpi\n      mload(0x40)\n      0x08c379a000000000000000000000000000000000000000000000000000000000\n      dup2\n      mstore\n      0x04\n      add\n      tag_169\n      swap1\n      tag_170\n      jump\t// in\n    tag_169:\n      mload(0x40)\n      dup1\n      swap2\n      sub\n      swap1\n      revert\n    tag_168:\n        /* \"contracts/ReplayToken.sol\":7910:7916  minter */\n      0x06\n      0x00\n      swap1\n      sload\n      swap1\n      0x0100\n      exp\n      swap1\n      div\n      0xffffffffffffffffffffffffffffffffffffffff\n      and\n        /* \"contracts/ReplayToken.sol\":7893:7907  previousMinter */\n      0x09\n      0x00\n        /* \"contracts/ReplayToken.sol\":7893:7916  previousMinter = minter */\n      0x0100\n      exp\n      dup2\n      sload\n      dup2\n      0xffffffffffffffffffffffffffffffffffffffff\n      mul\n      not\n      and\n      swap1\n      dup4\n      0xffffffffffffffffffffffffffffffffffffffff\n      and\n      mul\n      or\n      swap1\n      sstore\n      pop\n        /* \"contracts/ReplayToken.sol\":7935:7942  minter_ */\n      dup1\n        /* \"contracts/ReplayToken.sol\":7926:7932  minter */\n      0x06\n      0x00\n        /* \"contracts/ReplayToken.sol\":7926:7942  minter = minter_ */\n      0x0100\n      exp\n      dup2\n      sload\n      dup2\n      0xffffffffffffffffffffffffffffffffffffffff\n      mul\n      not\n      and\n      swap1\n      dup4\n      0xffffffffffffffffffffffffffffffffffffffff\n      and\n      mul\n      or\n      swap1\n      sstore\n      pop\n        /* \"contracts/ReplayToken.sol\":7986:7992  minter */\n      0x06\n      0x00\n      swap1\n      sload\n      swap1\n      0x0100\n      exp\n      swap1\n      div\n      0xffffffffffffffffffffffffffffffffffffffff\n      and\n        /* \"contracts/ReplayToken.sol\":7957:7993  UpdateMinter(previousMinter, minter) */\n      0xffffffffffffffffffffffffffffffffffffffff\n      and\n        /* \"contracts/ReplayToken.sol\":7970:7984  previousMinter */\n      0x09\n      0x00\n      swap1\n      sload\n      swap1\n      0x0100\n      exp\n      swap1\n      div\n      0xffffffffffffffffffffffffffffffffffffffff\n      and\n        /* \"contracts/ReplayToken.sol\":7957:7993  UpdateMinter(previousMinter, minter) */\n      0xffffffffffffffffffffffffffffffffffffffff\n      and\n      0xfb80f39493422136408edd986f7ca83c10534204422dd1dfebb055de4ef0fd53\n      mload(0x40)\n      mload(0x40)\n      dup1\n      swap2\n      sub\n      swap1\n      log3\n        /* \"contracts/ReplayToken.sol\":7757:8000  function updateMinter(address minter_) external adminOnly {... */\n      pop\n      jump\t// out\n        /* \"@openzeppelin/contracts/token/ERC20/ERC20.sol\":3419:3544  function balanceOf(address account) public view virtual override returns (uint256) {... */\n    tag_88:\n        /* \"@openzeppelin/contracts/token/ERC20/ERC20.sol\":3493:3500  uint256 */\n      0x00\n        /* \"@openzeppelin/contracts/token/ERC20/ERC20.sol\":3519:3528  _balances */\n      dup1\n        /* \"@openzeppelin/contracts/token/ERC20/ERC20.sol\":3519:3537  _balances[account] */\n      0x00\n        /* \"@openzeppelin/contracts/token/ERC20/ERC20.sol\":3529:3536  account */\n      dup4\n        /* \"@openzeppelin/contracts/token/ERC20/ERC20.sol\":3519:3537  _balances[account] */\n      0xffffffffffffffffffffffffffffffffffffffff\n      and\n      0xffffffffffffffffffffffffffffffffffffffff\n      and\n      dup2\n      mstore\n      0x20\n      add\n      swap1\n      dup2\n      mstore\n      0x20\n      add\n      0x00\n      keccak256\n      sload\n        /* \"@openzeppelin/contracts/token/ERC20/ERC20.sol\":3512:3537  return _balances[account] */\n      swap1\n      pop\n        /* \"@openzeppelin/contracts/token/ERC20/ERC20.sol\":3419:3544  function balanceOf(address account) public view virtual override returns (uint256) {... */\n      swap2\n      swap1\n      pop\n      jump\t// out\n        /* \"contracts/ReplayToken.sol\":1433:1468  address public previousPendingAdmin */\n    tag_91:\n      0x0a\n      0x00\n      swap1\n      sload\n      swap1\n      0x0100\n      exp\n      swap1\n      div\n      0xffffffffffffffffffffffffffffffffffffffff\n      and\n      dup2\n      jump\t// out\n        /* \"@openzeppelin/contracts/token/ERC20/ERC20.sol\":2369:2471  function symbol() public view virtual override returns (string memory) {... */\n    tag_94:\n        /* \"@openzeppelin/contracts/token/ERC20/ERC20.sol\":2425:2438  string memory */\n      0x60\n        /* \"@openzeppelin/contracts/token/ERC20/ERC20.sol\":2457:2464  _symbol */\n      0x04\n        /* \"@openzeppelin/contracts/token/ERC20/ERC20.sol\":2450:2464  return _symbol */\n      dup1\n      sload\n      tag_173\n      swap1\n      tag_126\n      jump\t// in\n    tag_173:\n      dup1\n      0x1f\n      add\n      0x20\n      dup1\n      swap2\n      div\n      mul\n      0x20\n      add\n      mload(0x40)\n      swap1\n      dup2\n      add\n      0x40\n      mstore\n      dup1\n      swap3\n      swap2\n      swap1\n      dup2\n      dup2\n      mstore\n      0x20\n      add\n      dup3\n      dup1\n      sload\n      tag_174\n      swap1\n      tag_126\n      jump\t// in\n    tag_174:\n      dup1\n      iszero\n      tag_175\n      jumpi\n      dup1\n      0x1f\n      lt\n      tag_176\n      jumpi\n      0x0100\n      dup1\n      dup4\n      sload\n      div\n      mul\n      dup4\n      mstore\n      swap2\n      0x20\n      add\n      swap2\n      jump(tag_175)\n    tag_176:\n      dup3\n      add\n      swap2\n      swap1\n      0x00\n      mstore\n      keccak256(0x00, 0x20)\n      swap1\n    tag_177:\n      dup2\n      sload\n      dup2\n      mstore\n      swap1\n      0x01\n      add\n      swap1\n      0x20\n      add\n      dup1\n      dup4\n      gt\n      tag_177\n      jumpi\n      dup3\n      swap1\n      sub\n      0x1f\n      and\n      dup3\n      add\n      swap2\n    tag_175:\n      pop\n      pop\n      pop\n      pop\n      pop\n      swap1\n      pop\n        /* \"@openzeppelin/contracts/token/ERC20/ERC20.sol\":2369:2471  function symbol() public view virtual override returns (string memory) {... */\n      swap1\n      jump\t// out\n        /* \"contracts/ReplayToken.sol\":6646:7011  function mint(uint256 amount) external adminOnly {... */\n    tag_98:\n        /* \"contracts/ReplayToken.sol\":3060:3065  admin */\n      0x07\n      0x00\n      swap1\n      sload\n      swap1\n      0x0100\n      exp\n      swap1\n      div\n      0xffffffffffffffffffffffffffffffffffffffff\n      and\n        /* \"contracts/ReplayToken.sol\":3046:3065  msg.sender == admin */\n      0xffffffffffffffffffffffffffffffffffffffff\n      and\n        /* \"contracts/ReplayToken.sol\":3046:3056  msg.sender */\n      caller\n        /* \"contracts/ReplayToken.sol\":3046:3065  msg.sender == admin */\n      0xffffffffffffffffffffffffffffffffffffffff\n      and\n      eq\n        /* \"contracts/ReplayToken.sol\":3038:3099  require(msg.sender == admin, \"Only admin can make this call\") */\n      tag_179\n      jumpi\n      mload(0x40)\n      0x08c379a000000000000000000000000000000000000000000000000000000000\n      dup2\n      mstore\n      0x04\n      add\n      tag_180\n      swap1\n      tag_147\n      jump\t// in\n    tag_180:\n      mload(0x40)\n      dup1\n      swap2\n      sub\n      swap1\n      revert\n    tag_179:\n        /* \"contracts/ReplayToken.sol\":6727:6732  admin */\n      0x07\n      0x00\n      swap1\n      sload\n      swap1\n      0x0100\n      exp\n      swap1\n      div\n      0xffffffffffffffffffffffffffffffffffffffff\n      and\n        /* \"contracts/ReplayToken.sol\":6713:6732  msg.sender == admin */\n      0xffffffffffffffffffffffffffffffffffffffff\n      and\n        /* \"contracts/ReplayToken.sol\":6713:6723  msg.sender */\n      caller\n        /* \"contracts/ReplayToken.sol\":6713:6732  msg.sender == admin */\n      0xffffffffffffffffffffffffffffffffffffffff\n      and\n      eq\n        /* \"contracts/ReplayToken.sol\":6705:6756  require(msg.sender == admin, \"only admin can mint\") */\n      tag_182\n      jumpi\n      mload(0x40)\n      0x08c379a000000000000000000000000000000000000000000000000000000000\n      dup2\n      mstore\n      0x04\n      add\n      tag_183\n      swap1\n      tag_184\n      jump\t// in\n    tag_183:\n      mload(0x40)\n      dup1\n      swap2\n      sub\n      swap1\n      revert\n    tag_182:\n        /* \"contracts/ReplayToken.sol\":6766:6787  uint256 currentSupply */\n      0x00\n        /* \"contracts/ReplayToken.sol\":6790:6794  this */\n      address\n        /* \"contracts/ReplayToken.sol\":6790:6806  this.totalSupply */\n      0xffffffffffffffffffffffffffffffffffffffff\n      and\n      0x18160ddd\n        /* \"contracts/ReplayToken.sol\":6790:6808  this.totalSupply() */\n      mload(0x40)\n      dup2\n      0xffffffff\n      and\n      0xe0\n      shl\n      dup2\n      mstore\n      0x04\n      add\n      0x20\n      mload(0x40)\n      dup1\n      dup4\n      sub\n      dup2\n      dup7\n      gas\n      staticcall\n      iszero\n      dup1\n      iszero\n      tag_186\n      jumpi\n      returndatasize\n      0x00\n      dup1\n      returndatacopy\n      revert(0x00, returndatasize)\n    tag_186:\n      pop\n      pop\n      pop\n      pop\n      mload(0x40)\n      returndatasize\n      not(0x1f)\n      0x1f\n      dup3\n      add\n      and\n      dup3\n      add\n      dup1\n      0x40\n      mstore\n      pop\n      dup2\n      add\n      swap1\n      tag_187\n      swap2\n      swap1\n      tag_188\n      jump\t// in\n    tag_187:\n        /* \"contracts/ReplayToken.sol\":6766:6808  uint256 currentSupply = this.totalSupply() */\n      swap1\n      pop\n        /* \"contracts/ReplayToken.sol\":6843:6852  maxSupply */\n      immutable(\"0x91aca35d2323f1aee5ba294cf6472d107c931b44a833a4780d457097227aec52\")\n        /* \"contracts/ReplayToken.sol\":6826:6839  currentSupply */\n      dup2\n        /* \"contracts/ReplayToken.sol\":6826:6852  currentSupply <= maxSupply */\n      gt\n      iszero\n        /* \"contracts/ReplayToken.sol\":6818:6884  require(currentSupply <= maxSupply, \"already exceeded max supply\") */\n      tag_189\n      jumpi\n      mload(0x40)\n      0x08c379a000000000000000000000000000000000000000000000000000000000\n      dup2\n      mstore\n      0x04\n      add\n      tag_190\n      swap1\n      tag_191\n      jump\t// in\n    tag_190:\n      mload(0x40)\n      dup1\n      swap2\n      sub\n      swap1\n      revert\n    tag_189:\n        /* \"contracts/ReplayToken.sol\":6930:6939  maxSupply */\n      immutable(\"0x91aca35d2323f1aee5ba294cf6472d107c931b44a833a4780d457097227aec52\")\n        /* \"contracts/ReplayToken.sol\":6902:6927  currentSupply.add(amount) */\n      tag_192\n        /* \"contracts/ReplayToken.sol\":6920:6926  amount */\n      dup4\n        /* \"contracts/ReplayToken.sol\":6902:6915  currentSupply */\n      dup4\n        /* \"contracts/ReplayToken.sol\":6902:6919  currentSupply.add */\n      tag_193\n      swap1\n        /* \"contracts/ReplayToken.sol\":6902:6927  currentSupply.add(amount) */\n      swap2\n      swap1\n      0xffffffff\n      and\n      jump\t// in\n    tag_192:\n        /* \"contracts/ReplayToken.sol\":6902:6939  currentSupply.add(amount) < maxSupply */\n      lt\n        /* \"contracts/ReplayToken.sol\":6894:6974  require(currentSupply.add(amount) < maxSupply, \"exceeded max supply of tokens\" ) */\n      tag_194\n      jumpi\n      mload(0x40)\n      0x08c379a000000000000000000000000000000000000000000000000000000000\n      dup2\n      mstore\n      0x04\n      add\n      tag_195\n      swap1\n      tag_196\n      jump\t// in\n    tag_195:\n      mload(0x40)\n      dup1\n      swap2\n      sub\n      swap1\n      revert\n    tag_194:\n        /* \"contracts/ReplayToken.sol\":6984:7004  _mint(admin, amount) */\n      tag_197\n        /* \"contracts/ReplayToken.sol\":6990:6995  admin */\n      0x07\n      0x00\n      swap1\n      sload\n      swap1\n      0x0100\n      exp\n      swap1\n      div\n      0xffffffffffffffffffffffffffffffffffffffff\n      and\n        /* \"contracts/ReplayToken.sol\":6997:7003  amount */\n      dup4\n        /* \"contracts/ReplayToken.sol\":6984:6989  _mint */\n      tag_198\n        /* \"contracts/ReplayToken.sol\":6984:7004  _mint(admin, amount) */\n      jump\t// in\n    tag_197:\n        /* \"contracts/ReplayToken.sol\":6695:7011  {... */\n      pop\n        /* \"contracts/ReplayToken.sol\":6646:7011  function mint(uint256 amount) external adminOnly {... */\n      pop\n      jump\t// out\n        /* \"@openzeppelin/contracts/token/ERC20/ERC20.sol\":6575:7002  function decreaseAllowance(address spender, uint256 subtractedValue) public virtual returns (bool) {... */\n    tag_101:\n        /* \"@openzeppelin/contracts/token/ERC20/ERC20.sol\":6668:6672  bool */\n      0x00\n        /* \"@openzeppelin/contracts/token/ERC20/ERC20.sol\":6684:6697  address owner */\n      dup1\n        /* \"@openzeppelin/contracts/token/ERC20/ERC20.sol\":6700:6712  _msgSender() */\n      tag_200\n        /* \"@openzeppelin/contracts/token/ERC20/ERC20.sol\":6700:6710  _msgSender */\n      tag_133\n        /* \"@openzeppelin/contracts/token/ERC20/ERC20.sol\":6700:6712  _msgSender() */\n      jump\t// in\n    tag_200:\n        /* \"@openzeppelin/contracts/token/ERC20/ERC20.sol\":6684:6712  address owner = _msgSender() */\n      swap1\n      pop\n        /* \"@openzeppelin/contracts/token/ERC20/ERC20.sol\":6722:6746  uint256 currentAllowance */\n      0x00\n        /* \"@openzeppelin/contracts/token/ERC20/ERC20.sol\":6749:6774  allowance(owner, spender) */\n      tag_201\n        /* \"@openzeppelin/contracts/token/ERC20/ERC20.sol\":6759:6764  owner */\n      dup3\n        /* \"@openzeppelin/contracts/token/ERC20/ERC20.sol\":6766:6773  spender */\n      dup7\n        /* \"@openzeppelin/contracts/token/ERC20/ERC20.sol\":6749:6758  allowance */\n      tag_119\n        /* \"@openzeppelin/contracts/token/ERC20/ERC20.sol\":6749:6774  allowance(owner, spender) */\n      jump\t// in\n    tag_201:\n        /* \"@openzeppelin/contracts/token/ERC20/ERC20.sol\":6722:6774  uint256 currentAllowance = allowance(owner, spender) */\n      swap1\n      pop\n        /* \"@openzeppelin/contracts/token/ERC20/ERC20.sol\":6812:6827  subtractedValue */\n      dup4\n        /* \"@openzeppelin/contracts/token/ERC20/ERC20.sol\":6792:6808  currentAllowance */\n      dup2\n        /* \"@openzeppelin/contracts/token/ERC20/ERC20.sol\":6792:6827  currentAllowance >= subtractedValue */\n      lt\n      iszero\n        /* \"@openzeppelin/contracts/token/ERC20/ERC20.sol\":6784:6869  require(currentAllowance >= subtractedValue, \"ERC20: decreased allowance below zero\") */\n      tag_202\n      jumpi\n      mload(0x40)\n      0x08c379a000000000000000000000000000000000000000000000000000000000\n      dup2\n      mstore\n      0x04\n      add\n      tag_203\n      swap1\n      tag_204\n      jump\t// in\n    tag_203:\n      mload(0x40)\n      dup1\n      swap2\n      sub\n      swap1\n      revert\n    tag_202:\n        /* \"@openzeppelin/contracts/token/ERC20/ERC20.sol\":6903:6963  _approve(owner, spender, currentAllowance - subtractedValue) */\n      tag_205\n        /* \"@openzeppelin/contracts/token/ERC20/ERC20.sol\":6912:6917  owner */\n      dup3\n        /* \"@openzeppelin/contracts/token/ERC20/ERC20.sol\":6919:6926  spender */\n      dup7\n        /* \"@openzeppelin/contracts/token/ERC20/ERC20.sol\":6947:6962  subtractedValue */\n      dup7\n        /* \"@openzeppelin/contracts/token/ERC20/ERC20.sol\":6928:6944  currentAllowance */\n      dup5\n        /* \"@openzeppelin/contracts/token/ERC20/ERC20.sol\":6928:6962  currentAllowance - subtractedValue */\n      sub\n        /* \"@openzeppelin/contracts/token/ERC20/ERC20.sol\":6903:6911  _approve */\n      tag_135\n        /* \"@openzeppelin/contracts/token/ERC20/ERC20.sol\":6903:6963  _approve(owner, spender, currentAllowance - subtractedValue) */\n      jump\t// in\n    tag_205:\n        /* \"@openzeppelin/contracts/token/ERC20/ERC20.sol\":6991:6995  true */\n      0x01\n        /* \"@openzeppelin/contracts/token/ERC20/ERC20.sol\":6984:6995  return true */\n      swap3\n      pop\n      pop\n      pop\n        /* \"@openzeppelin/contracts/token/ERC20/ERC20.sol\":6575:7002  function decreaseAllowance(address spender, uint256 subtractedValue) public virtual returns (bool) {... */\n      swap3\n      swap2\n      pop\n      pop\n      jump\t// out\n        /* \"@openzeppelin/contracts/token/ERC20/ERC20.sol\":3740:3929  function transfer(address to, uint256 amount) public virtual override returns (bool) {... */\n    tag_105:\n        /* \"@openzeppelin/contracts/token/ERC20/ERC20.sol\":3819:3823  bool */\n      0x00\n        /* \"@openzeppelin/contracts/token/ERC20/ERC20.sol\":3835:3848  address owner */\n      dup1\n        /* \"@openzeppelin/contracts/token/ERC20/ERC20.sol\":3851:3863  _msgSender() */\n      tag_207\n        /* \"@openzeppelin/contracts/token/ERC20/ERC20.sol\":3851:3861  _msgSender */\n      tag_133\n        /* \"@openzeppelin/contracts/token/ERC20/ERC20.sol\":3851:3863  _msgSender() */\n      jump\t// in\n    tag_207:\n        /* \"@openzeppelin/contracts/token/ERC20/ERC20.sol\":3835:3863  address owner = _msgSender() */\n      swap1\n      pop\n        /* \"@openzeppelin/contracts/token/ERC20/ERC20.sol\":3873:3901  _transfer(owner, to, amount) */\n      tag_208\n        /* \"@openzeppelin/contracts/token/ERC20/ERC20.sol\":3883:3888  owner */\n      dup2\n        /* \"@openzeppelin/contracts/token/ERC20/ERC20.sol\":3890:3892  to */\n      dup6\n        /* \"@openzeppelin/contracts/token/ERC20/ERC20.sol\":3894:3900  amount */\n      dup6\n        /* \"@openzeppelin/contracts/token/ERC20/ERC20.sol\":3873:3882  _transfer */\n      tag_142\n        /* \"@openzeppelin/contracts/token/ERC20/ERC20.sol\":3873:3901  _transfer(owner, to, amount) */\n      jump\t// in\n    tag_208:\n        /* \"@openzeppelin/contracts/token/ERC20/ERC20.sol\":3918:3922  true */\n      0x01\n        /* \"@openzeppelin/contracts/token/ERC20/ERC20.sol\":3911:3922  return true */\n      swap2\n      pop\n      pop\n        /* \"@openzeppelin/contracts/token/ERC20/ERC20.sol\":3740:3929  function transfer(address to, uint256 amount) public virtual override returns (bool) {... */\n      swap3\n      swap2\n      pop\n      pop\n      jump\t// out\n        /* \"contracts/ReplayToken.sol\":5954:6455  function mintStakerReward(address account, uint256 amount)... */\n    tag_109:\n        /* \"contracts/ReplayToken.sol\":6066:6070  bool */\n      0x00\n        /* \"contracts/ReplayToken.sol\":3503:3509  minter */\n      0x06\n      0x00\n      swap1\n      sload\n      swap1\n      0x0100\n      exp\n      swap1\n      div\n      0xffffffffffffffffffffffffffffffffffffffff\n      and\n        /* \"contracts/ReplayToken.sol\":3489:3509  msg.sender == minter */\n      0xffffffffffffffffffffffffffffffffffffffff\n      and\n        /* \"contracts/ReplayToken.sol\":3489:3499  msg.sender */\n      caller\n        /* \"contracts/ReplayToken.sol\":3489:3509  msg.sender == minter */\n      0xffffffffffffffffffffffffffffffffffffffff\n      and\n      eq\n        /* \"contracts/ReplayToken.sol\":3481:3544  require(msg.sender == minter, \"Only minter can make this call\") */\n      tag_210\n      jumpi\n      mload(0x40)\n      0x08c379a000000000000000000000000000000000000000000000000000000000\n      dup2\n      mstore\n      0x04\n      add\n      tag_211\n      swap1\n      tag_212\n      jump\t// in\n    tag_211:\n      mload(0x40)\n      dup1\n      swap2\n      sub\n      swap1\n      revert\n    tag_210:\n        /* \"contracts/ReplayToken.sol\":6109:6112  0x0 */\n      0x00\n        /* \"contracts/ReplayToken.sol\":6090:6113  account == address(0x0) */\n      0xffffffffffffffffffffffffffffffffffffffff\n      and\n        /* \"contracts/ReplayToken.sol\":6090:6097  account */\n      dup4\n        /* \"contracts/ReplayToken.sol\":6090:6113  account == address(0x0) */\n      0xffffffffffffffffffffffffffffffffffffffff\n      and\n      sub\n        /* \"contracts/ReplayToken.sol\":6086:6152  if (account == address(0x0)) {... */\n      tag_214\n      jumpi\n        /* \"contracts/ReplayToken.sol\":6136:6141  false */\n      0x00\n        /* \"contracts/ReplayToken.sol\":6129:6141  return false */\n      swap1\n      pop\n      jump(tag_213)\n        /* \"contracts/ReplayToken.sol\":6086:6152  if (account == address(0x0)) {... */\n    tag_214:\n        /* \"contracts/ReplayToken.sol\":6161:6182  uint256 currentSupply */\n      0x00\n        /* \"contracts/ReplayToken.sol\":6185:6189  this */\n      address\n        /* \"contracts/ReplayToken.sol\":6185:6201  this.totalSupply */\n      0xffffffffffffffffffffffffffffffffffffffff\n      and\n      0x18160ddd\n        /* \"contracts/ReplayToken.sol\":6185:6203  this.totalSupply() */\n      mload(0x40)\n      dup2\n      0xffffffff\n      and\n      0xe0\n      shl\n      dup2\n      mstore\n      0x04\n      add\n      0x20\n      mload(0x40)\n      dup1\n      dup4\n      sub\n      dup2\n      dup7\n      gas\n      staticcall\n      iszero\n      dup1\n      iszero\n      tag_216\n      jumpi\n      returndatasize\n      0x00\n      dup1\n      returndatacopy\n      revert(0x00, returndatasize)\n    tag_216:\n      pop\n      pop\n      pop\n      pop\n      mload(0x40)\n      returndatasize\n      not(0x1f)\n      0x1f\n      dup3\n      add\n      and\n      dup3\n      add\n      dup1\n      0x40\n      mstore\n      pop\n      dup2\n      add\n      swap1\n      tag_217\n      swap2\n      swap1\n      tag_188\n      jump\t// in\n    tag_217:\n        /* \"contracts/ReplayToken.sol\":6161:6203  uint256 currentSupply = this.totalSupply() */\n      swap1\n      pop\n        /* \"contracts/ReplayToken.sol\":6234:6243  maxSupply */\n      immutable(\"0x91aca35d2323f1aee5ba294cf6472d107c931b44a833a4780d457097227aec52\")\n        /* \"contracts/ReplayToken.sol\":6217:6230  currentSupply */\n      dup2\n        /* \"contracts/ReplayToken.sol\":6217:6243  currentSupply >= maxSupply */\n      lt\n        /* \"contracts/ReplayToken.sol\":6213:6282  if (currentSupply >= maxSupply) {... */\n      tag_218\n      jumpi\n        /* \"contracts/ReplayToken.sol\":6266:6271  false */\n      0x00\n        /* \"contracts/ReplayToken.sol\":6259:6271  return false */\n      swap2\n      pop\n      pop\n      jump(tag_213)\n        /* \"contracts/ReplayToken.sol\":6213:6282  if (currentSupply >= maxSupply) {... */\n    tag_218:\n        /* \"contracts/ReplayToken.sol\":6323:6332  maxSupply */\n      immutable(\"0x91aca35d2323f1aee5ba294cf6472d107c931b44a833a4780d457097227aec52\")\n        /* \"contracts/ReplayToken.sol\":6295:6320  currentSupply.add(amount) */\n      tag_219\n        /* \"contracts/ReplayToken.sol\":6313:6319  amount */\n      dup5\n        /* \"contracts/ReplayToken.sol\":6295:6308  currentSupply */\n      dup4\n        /* \"contracts/ReplayToken.sol\":6295:6312  currentSupply.add */\n      tag_193\n      swap1\n        /* \"contracts/ReplayToken.sol\":6295:6320  currentSupply.add(amount) */\n      swap2\n      swap1\n      0xffffffff\n      and\n      jump\t// in\n    tag_219:\n        /* \"contracts/ReplayToken.sol\":6295:6332  currentSupply.add(amount) > maxSupply */\n      gt\n        /* \"contracts/ReplayToken.sol\":6291:6396  if (currentSupply.add(amount) > maxSupply) {... */\n      iszero\n      tag_220\n      jumpi\n        /* \"contracts/ReplayToken.sol\":6357:6385  maxSupply.sub(currentSupply) */\n      tag_221\n        /* \"contracts/ReplayToken.sol\":6371:6384  currentSupply */\n      dup2\n        /* \"contracts/ReplayToken.sol\":6357:6366  maxSupply */\n      immutable(\"0x91aca35d2323f1aee5ba294cf6472d107c931b44a833a4780d457097227aec52\")\n        /* \"contracts/ReplayToken.sol\":6357:6370  maxSupply.sub */\n      tag_222\n      swap1\n        /* \"contracts/ReplayToken.sol\":6357:6385  maxSupply.sub(currentSupply) */\n      swap2\n      swap1\n      0xffffffff\n      and\n      jump\t// in\n    tag_221:\n        /* \"contracts/ReplayToken.sol\":6348:6385  amount = maxSupply.sub(currentSupply) */\n      swap3\n      pop\n        /* \"contracts/ReplayToken.sol\":6291:6396  if (currentSupply.add(amount) > maxSupply) {... */\n    tag_220:\n        /* \"contracts/ReplayToken.sol\":6405:6427  _mint(account, amount) */\n      tag_223\n        /* \"contracts/ReplayToken.sol\":6411:6418  account */\n      dup5\n        /* \"contracts/ReplayToken.sol\":6420:6426  amount */\n      dup5\n        /* \"contracts/ReplayToken.sol\":6405:6410  _mint */\n      tag_198\n        /* \"contracts/ReplayToken.sol\":6405:6427  _mint(account, amount) */\n      jump\t// in\n    tag_223:\n        /* \"contracts/ReplayToken.sol\":6444:6448  true */\n      0x01\n        /* \"contracts/ReplayToken.sol\":6437:6448  return true */\n      swap2\n      pop\n      pop\n        /* \"contracts/ReplayToken.sol\":3554:3555  _ */\n    tag_213:\n        /* \"contracts/ReplayToken.sol\":5954:6455  function mintStakerReward(address account, uint256 amount)... */\n      swap3\n      swap2\n      pop\n      pop\n      jump\t// out\n        /* \"contracts/ReplayToken.sol\":8562:8727  function updateAdmin() external pendingAdminOnly {... */\n    tag_112:\n        /* \"contracts/ReplayToken.sol\":3283:3295  pendingAdmin */\n      0x08\n      0x00\n      swap1\n      sload\n      swap1\n      0x0100\n      exp\n      swap1\n      div\n      0xffffffffffffffffffffffffffffffffffffffff\n      and\n        /* \"contracts/ReplayToken.sol\":3269:3295  msg.sender == pendingAdmin */\n      0xffffffffffffffffffffffffffffffffffffffff\n      and\n        /* \"contracts/ReplayToken.sol\":3269:3279  msg.sender */\n      caller\n        /* \"contracts/ReplayToken.sol\":3269:3295  msg.sender == pendingAdmin */\n      0xffffffffffffffffffffffffffffffffffffffff\n      and\n      eq\n        /* \"contracts/ReplayToken.sol\":3261:3337  require(msg.sender == pendingAdmin, \"Only pending admin can make this call\") */\n      tag_225\n      jumpi\n      mload(0x40)\n      0x08c379a000000000000000000000000000000000000000000000000000000000\n      dup2\n      mstore\n      0x04\n      add\n      tag_226\n      swap1\n      tag_227\n      jump\t// in\n    tag_226:\n      mload(0x40)\n      dup1\n      swap2\n      sub\n      swap1\n      revert\n    tag_225:\n        /* \"contracts/ReplayToken.sol\":8637:8642  admin */\n      0x07\n      0x00\n      swap1\n      sload\n      swap1\n      0x0100\n      exp\n      swap1\n      div\n      0xffffffffffffffffffffffffffffffffffffffff\n      and\n        /* \"contracts/ReplayToken.sol\":8621:8634  previousAdmin */\n      0x0b\n      0x00\n        /* \"contracts/ReplayToken.sol\":8621:8642  previousAdmin = admin */\n      0x0100\n      exp\n      dup2\n      sload\n      dup2\n      0xffffffffffffffffffffffffffffffffffffffff\n      mul\n      not\n      and\n      swap1\n      dup4\n      0xffffffffffffffffffffffffffffffffffffffff\n      and\n      mul\n      or\n      swap1\n      sstore\n      pop\n        /* \"contracts/ReplayToken.sol\":8660:8672  pendingAdmin */\n      0x08\n      0x00\n      swap1\n      sload\n      swap1\n      0x0100\n      exp\n      swap1\n      div\n      0xffffffffffffffffffffffffffffffffffffffff\n      and\n        /* \"contracts/ReplayToken.sol\":8652:8657  admin */\n      0x07\n      0x00\n        /* \"contracts/ReplayToken.sol\":8652:8672  admin = pendingAdmin */\n      0x0100\n      exp\n      dup2\n      sload\n      dup2\n      0xffffffffffffffffffffffffffffffffffffffff\n      mul\n      not\n      and\n      swap1\n      dup4\n      0xffffffffffffffffffffffffffffffffffffffff\n      and\n      mul\n      or\n      swap1\n      sstore\n      pop\n        /* \"contracts/ReplayToken.sol\":8714:8719  admin */\n      0x07\n      0x00\n      swap1\n      sload\n      swap1\n      0x0100\n      exp\n      swap1\n      div\n      0xffffffffffffffffffffffffffffffffffffffff\n      and\n        /* \"contracts/ReplayToken.sol\":8687:8720  UpdateAdmin(previousAdmin, admin) */\n      0xffffffffffffffffffffffffffffffffffffffff\n      and\n        /* \"contracts/ReplayToken.sol\":8699:8712  previousAdmin */\n      0x0b\n      0x00\n      swap1\n      sload\n      swap1\n      0x0100\n      exp\n      swap1\n      div\n      0xffffffffffffffffffffffffffffffffffffffff\n      and\n        /* \"contracts/ReplayToken.sol\":8687:8720  UpdateAdmin(previousAdmin, admin) */\n      0xffffffffffffffffffffffffffffffffffffffff\n      and\n      0xcd6ba6b7da89e039d53b5d981527a893755342bb9d8e5c2f61f6638f1fb5192b\n      mload(0x40)\n      mload(0x40)\n      dup1\n      swap2\n      sub\n      swap1\n      log3\n        /* \"contracts/ReplayToken.sol\":8562:8727  function updateAdmin() external pendingAdminOnly {... */\n      jump\t// out\n        /* \"contracts/ReplayToken.sol\":806:840  uint256 public immutable maxSupply */\n    tag_114:\n      immutable(\"0x91aca35d2323f1aee5ba294cf6472d107c931b44a833a4780d457097227aec52\")\n      dup2\n      jump\t// out\n        /* \"@openzeppelin/contracts/token/ERC20/ERC20.sol\":3987:4136  function allowance(address owner, address spender) public view virtual override returns (uint256) {... */\n    tag_119:\n        /* \"@openzeppelin/contracts/token/ERC20/ERC20.sol\":4076:4083  uint256 */\n      0x00\n        /* \"@openzeppelin/contracts/token/ERC20/ERC20.sol\":4102:4113  _allowances */\n      0x01\n        /* \"@openzeppelin/contracts/token/ERC20/ERC20.sol\":4102:4120  _allowances[owner] */\n      0x00\n        /* \"@openzeppelin/contracts/token/ERC20/ERC20.sol\":4114:4119  owner */\n      dup5\n        /* \"@openzeppelin/contracts/token/ERC20/ERC20.sol\":4102:4120  _allowances[owner] */\n      0xffffffffffffffffffffffffffffffffffffffff\n      and\n      0xffffffffffffffffffffffffffffffffffffffff\n      and\n      dup2\n      mstore\n      0x20\n      add\n      swap1\n      dup2\n      mstore\n      0x20\n      add\n      0x00\n      keccak256\n        /* \"@openzeppelin/contracts/token/ERC20/ERC20.sol\":4102:4129  _allowances[owner][spender] */\n      0x00\n        /* \"@openzeppelin/contracts/token/ERC20/ERC20.sol\":4121:4128  spender */\n      dup4\n        /* \"@openzeppelin/contracts/token/ERC20/ERC20.sol\":4102:4129  _allowances[owner][spender] */\n      0xffffffffffffffffffffffffffffffffffffffff\n      and\n      0xffffffffffffffffffffffffffffffffffffffff\n      and\n      dup2\n      mstore\n      0x20\n      add\n      swap1\n      dup2\n      mstore\n      0x20\n      add\n      0x00\n      keccak256\n      sload\n        /* \"@openzeppelin/contracts/token/ERC20/ERC20.sol\":4095:4129  return _allowances[owner][spender] */\n      swap1\n      pop\n        /* \"@openzeppelin/contracts/token/ERC20/ERC20.sol\":3987:4136  function allowance(address owner, address spender) public view virtual override returns (uint256) {... */\n      swap3\n      swap2\n      pop\n      pop\n      jump\t// out\n        /* \"contracts/ReplayToken.sol\":1099:1119  address public admin */\n    tag_122:\n      0x07\n      0x00\n      swap1\n      sload\n      swap1\n      0x0100\n      exp\n      swap1\n      div\n      0xffffffffffffffffffffffffffffffffffffffff\n      and\n      dup2\n      jump\t// out\n        /* \"@openzeppelin/contracts/utils/Context.sol\":655:751  function _msgSender() internal view virtual returns (address) {... */\n    tag_133:\n        /* \"@openzeppelin/contracts/utils/Context.sol\":708:715  address */\n      0x00\n        /* \"@openzeppelin/contracts/utils/Context.sol\":734:744  msg.sender */\n      caller\n        /* \"@openzeppelin/contracts/utils/Context.sol\":727:744  return msg.sender */\n      swap1\n      pop\n        /* \"@openzeppelin/contracts/utils/Context.sol\":655:751  function _msgSender() internal view virtual returns (address) {... */\n      swap1\n      jump\t// out\n        /* \"@openzeppelin/contracts/token/ERC20/ERC20.sol\":10457:10797  function _approve(address owner, address spender, uint256 amount) internal virtual {... */\n    tag_135:\n        /* \"@openzeppelin/contracts/token/ERC20/ERC20.sol\":10575:10576  0 */\n      0x00\n        /* \"@openzeppelin/contracts/token/ERC20/ERC20.sol\":10558:10577  owner != address(0) */\n      0xffffffffffffffffffffffffffffffffffffffff\n      and\n        /* \"@openzeppelin/contracts/token/ERC20/ERC20.sol\":10558:10563  owner */\n      dup4\n        /* \"@openzeppelin/contracts/token/ERC20/ERC20.sol\":10558:10577  owner != address(0) */\n      0xffffffffffffffffffffffffffffffffffffffff\n      and\n      sub\n        /* \"@openzeppelin/contracts/token/ERC20/ERC20.sol\":10550:10618  require(owner != address(0), \"ERC20: approve from the zero address\") */\n      tag_232\n      jumpi\n      mload(0x40)\n      0x08c379a000000000000000000000000000000000000000000000000000000000\n      dup2\n      mstore\n      0x04\n      add\n      tag_233\n      swap1\n      tag_234\n      jump\t// in\n    tag_233:\n      mload(0x40)\n      dup1\n      swap2\n      sub\n      swap1\n      revert\n    tag_232:\n        /* \"@openzeppelin/contracts/token/ERC20/ERC20.sol\":10655:10656  0 */\n      0x00\n        /* \"@openzeppelin/contracts/token/ERC20/ERC20.sol\":10636:10657  spender != address(0) */\n      0xffffffffffffffffffffffffffffffffffffffff\n      and\n        /* \"@openzeppelin/contracts/token/ERC20/ERC20.sol\":10636:10643  spender */\n      dup3\n        /* \"@openzeppelin/contracts/token/ERC20/ERC20.sol\":10636:10657  spender != address(0) */\n      0xffffffffffffffffffffffffffffffffffffffff\n      and\n      sub\n        /* \"@openzeppelin/contracts/token/ERC20/ERC20.sol\":10628:10696  require(spender != address(0), \"ERC20: approve to the zero address\") */\n      tag_235\n      jumpi\n      mload(0x40)\n      0x08c379a000000000000000000000000000000000000000000000000000000000\n      dup2\n      mstore\n      0x04\n      add\n      tag_236\n      swap1\n      tag_237\n      jump\t// in\n    tag_236:\n      mload(0x40)\n      dup1\n      swap2\n      sub\n      swap1\n      revert\n    tag_235:\n        /* \"@openzeppelin/contracts/token/ERC20/ERC20.sol\":10737:10743  amount */\n      dup1\n        /* \"@openzeppelin/contracts/token/ERC20/ERC20.sol\":10707:10718  _allowances */\n      0x01\n        /* \"@openzeppelin/contracts/token/ERC20/ERC20.sol\":10707:10725  _allowances[owner] */\n      0x00\n        /* \"@openzeppelin/contracts/token/ERC20/ERC20.sol\":10719:10724  owner */\n      dup6\n        /* \"@openzeppelin/contracts/token/ERC20/ERC20.sol\":10707:10725  _allowances[owner] */\n      0xffffffffffffffffffffffffffffffffffffffff\n      and\n      0xffffffffffffffffffffffffffffffffffffffff\n      and\n      dup2\n      mstore\n      0x20\n      add\n      swap1\n      dup2\n      mstore\n      0x20\n      add\n      0x00\n      keccak256\n        /* \"@openzeppelin/contracts/token/ERC20/ERC20.sol\":10707:10734  _allowances[owner][spender] */\n      0x00\n        /* \"@openzeppelin/contracts/token/ERC20/ERC20.sol\":10726:10733  spender */\n      dup5\n        /* \"@openzeppelin/contracts/token/ERC20/ERC20.sol\":10707:10734  _allowances[owner][spender] */\n      0xffffffffffffffffffffffffffffffffffffffff\n      and\n      0xffffffffffffffffffffffffffffffffffffffff\n      and\n      dup2\n      mstore\n      0x20\n      add\n      swap1\n      dup2\n      mstore\n      0x20\n      add\n      0x00\n      keccak256\n        /* \"@openzeppelin/contracts/token/ERC20/ERC20.sol\":10707:10743  _allowances[owner][spender] = amount */\n      dup2\n      swap1\n      sstore\n      pop\n        /* \"@openzeppelin/contracts/token/ERC20/ERC20.sol\":10774:10781  spender */\n      dup2\n        /* \"@openzeppelin/contracts/token/ERC20/ERC20.sol\":10758:10790  Approval(owner, spender, amount) */\n      0xffffffffffffffffffffffffffffffffffffffff\n      and\n        /* \"@openzeppelin/contracts/token/ERC20/ERC20.sol\":10767:10772  owner */\n      dup4\n        /* \"@openzeppelin/contracts/token/ERC20/ERC20.sol\":10758:10790  Approval(owner, spender, amount) */\n      0xffffffffffffffffffffffffffffffffffffffff\n      and\n      0x8c5be1e5ebec7d5bd14f71427d1e84f3dd0314c0f7b2291e5b200ac8c7c3b925\n        /* \"@openzeppelin/contracts/token/ERC20/ERC20.sol\":10783:10789  amount */\n      dup4\n        /* \"@openzeppelin/contracts/token/ERC20/ERC20.sol\":10758:10790  Approval(owner, spender, amount) */\n      mload(0x40)\n      tag_238\n      swap2\n      swap1\n      tag_52\n      jump\t// in\n    tag_238:\n      mload(0x40)\n      dup1\n      swap2\n      sub\n      swap1\n      log3\n        /* \"@openzeppelin/contracts/token/ERC20/ERC20.sol\":10457:10797  function _approve(address owner, address spender, uint256 amount) internal virtual {... */\n      pop\n      pop\n      pop\n      jump\t// out\n        /* \"@openzeppelin/contracts/token/ERC20/ERC20.sol\":11078:11489  function _spendAllowance(address owner, address spender, uint256 amount) internal virtual {... */\n    tag_140:\n        /* \"@openzeppelin/contracts/token/ERC20/ERC20.sol\":11178:11202  uint256 currentAllowance */\n      0x00\n        /* \"@openzeppelin/contracts/token/ERC20/ERC20.sol\":11205:11230  allowance(owner, spender) */\n      tag_240\n        /* \"@openzeppelin/contracts/token/ERC20/ERC20.sol\":11215:11220  owner */\n      dup5\n        /* \"@openzeppelin/contracts/token/ERC20/ERC20.sol\":11222:11229  spender */\n      dup5\n        /* \"@openzeppelin/contracts/token/ERC20/ERC20.sol\":11205:11214  allowance */\n      tag_119\n        /* \"@openzeppelin/contracts/token/ERC20/ERC20.sol\":11205:11230  allowance(owner, spender) */\n      jump\t// in\n    tag_240:\n        /* \"@openzeppelin/contracts/token/ERC20/ERC20.sol\":11178:11230  uint256 currentAllowance = allowance(owner, spender) */\n      swap1\n      pop\n        /* \"@openzeppelin/contracts/token/ERC20/ERC20.sol\":11264:11281  type(uint256).max */\n      0xffffffffffffffffffffffffffffffffffffffffffffffffffffffffffffffff\n        /* \"@openzeppelin/contracts/token/ERC20/ERC20.sol\":11244:11260  currentAllowance */\n      dup2\n        /* \"@openzeppelin/contracts/token/ERC20/ERC20.sol\":11244:11281  currentAllowance != type(uint256).max */\n      eq\n        /* \"@openzeppelin/contracts/token/ERC20/ERC20.sol\":11240:11483  if (currentAllowance != type(uint256).max) {... */\n      tag_241\n      jumpi\n        /* \"@openzeppelin/contracts/token/ERC20/ERC20.sol\":11325:11331  amount */\n      dup2\n        /* \"@openzeppelin/contracts/token/ERC20/ERC20.sol\":11305:11321  currentAllowance */\n      dup2\n        /* \"@openzeppelin/contracts/token/ERC20/ERC20.sol\":11305:11331  currentAllowance >= amount */\n      lt\n      iszero\n        /* \"@openzeppelin/contracts/token/ERC20/ERC20.sol\":11297:11365  require(currentAllowance >= amount, \"ERC20: insufficient allowance\") */\n      tag_242\n      jumpi\n      mload(0x40)\n      0x08c379a000000000000000000000000000000000000000000000000000000000\n      dup2\n      mstore\n      0x04\n      add\n      tag_243\n      swap1\n      tag_244\n      jump\t// in\n    tag_243:\n      mload(0x40)\n      dup1\n      swap2\n      sub\n      swap1\n      revert\n    tag_242:\n        /* \"@openzeppelin/contracts/token/ERC20/ERC20.sol\":11407:11458  _approve(owner, spender, currentAllowance - amount) */\n      tag_245\n        /* \"@openzeppelin/contracts/token/ERC20/ERC20.sol\":11416:11421  owner */\n      dup5\n        /* \"@openzeppelin/contracts/token/ERC20/ERC20.sol\":11423:11430  spender */\n      dup5\n        /* \"@openzeppelin/contracts/token/ERC20/ERC20.sol\":11451:11457  amount */\n      dup5\n        /* \"@openzeppelin/contracts/token/ERC20/ERC20.sol\":11432:11448  currentAllowance */\n      dup5\n        /* \"@openzeppelin/contracts/token/ERC20/ERC20.sol\":11432:11457  currentAllowance - amount */\n      sub\n        /* \"@openzeppelin/contracts/token/ERC20/ERC20.sol\":11407:11415  _approve */\n      tag_135\n        /* \"@openzeppelin/contracts/token/ERC20/ERC20.sol\":11407:11458  _approve(owner, spender, currentAllowance - amount) */\n      jump\t// in\n    tag_245:\n        /* \"@openzeppelin/contracts/token/ERC20/ERC20.sol\":11240:11483  if (currentAllowance != type(uint256).max) {... */\n    tag_241:\n        /* \"@openzeppelin/contracts/token/ERC20/ERC20.sol\":11168:11489  {... */\n      pop\n        /* \"@openzeppelin/contracts/token/ERC20/ERC20.sol\":11078:11489  function _spendAllowance(address owner, address spender, uint256 amount) internal virtual {... */\n      pop\n      pop\n      pop\n      jump\t// out\n        /* \"@openzeppelin/contracts/token/ERC20/ERC20.sol\":7456:8244  function _transfer(address from, address to, uint256 amount) internal virtual {... */\n    tag_142:\n        /* \"@openzeppelin/contracts/token/ERC20/ERC20.sol\":7568:7569  0 */\n      0x00\n        /* \"@openzeppelin/contracts/token/ERC20/ERC20.sol\":7552:7570  from != address(0) */\n      0xffffffffffffffffffffffffffffffffffffffff\n      and\n        /* \"@openzeppelin/contracts/token/ERC20/ERC20.sol\":7552:7556  from */\n      dup4\n        /* \"@openzeppelin/contracts/token/ERC20/ERC20.sol\":7552:7570  from != address(0) */\n      0xffffffffffffffffffffffffffffffffffffffff\n      and\n      sub\n        /* \"@openzeppelin/contracts/token/ERC20/ERC20.sol\":7544:7612  require(from != address(0), \"ERC20: transfer from the zero address\") */\n      tag_247\n      jumpi\n      mload(0x40)\n      0x08c379a000000000000000000000000000000000000000000000000000000000\n      dup2\n      mstore\n      0x04\n      add\n      tag_248\n      swap1\n      tag_249\n      jump\t// in\n    tag_248:\n      mload(0x40)\n      dup1\n      swap2\n      sub\n      swap1\n      revert\n    tag_247:\n        /* \"@openzeppelin/contracts/token/ERC20/ERC20.sol\":7644:7645  0 */\n      0x00\n        /* \"@openzeppelin/contracts/token/ERC20/ERC20.sol\":7630:7646  to != address(0) */\n      0xffffffffffffffffffffffffffffffffffffffff\n      and\n        /* \"@openzeppelin/contracts/token/ERC20/ERC20.sol\":7630:7632  to */\n      dup3\n        /* \"@openzeppelin/contracts/token/ERC20/ERC20.sol\":7630:7646  to != address(0) */\n      0xffffffffffffffffffffffffffffffffffffffff\n      and\n      sub\n        /* \"@openzeppelin/contracts/token/ERC20/ERC20.sol\":7622:7686  require(to != address(0), \"ERC20: transfer to the zero address\") */\n      tag_250\n      jumpi\n      mload(0x40)\n      0x08c379a000000000000000000000000000000000000000000000000000000000\n      dup2\n      mstore\n      0x04\n      add\n      tag_251\n      swap1\n      tag_252\n      jump\t// in\n    tag_251:\n      mload(0x40)\n      dup1\n      swap2\n      sub\n      swap1\n      revert\n    tag_250:\n        /* \"@openzeppelin/contracts/token/ERC20/ERC20.sol\":7697:7735  _beforeTokenTransfer(from, to, amount) */\n      tag_253\n        /* \"@openzeppelin/contracts/token/ERC20/ERC20.sol\":7718:7722  from */\n      dup4\n        /* \"@openzeppelin/contracts/token/ERC20/ERC20.sol\":7724:7726  to */\n      dup4\n        /* \"@openzeppelin/contracts/token/ERC20/ERC20.sol\":7728:7734  amount */\n      dup4\n        /* \"@openzeppelin/contracts/token/ERC20/ERC20.sol\":7697:7717  _beforeTokenTransfer */\n      tag_254\n        /* \"@openzeppelin/contracts/token/ERC20/ERC20.sol\":7697:7735  _beforeTokenTransfer(from, to, amount) */\n      jump\t// in\n    tag_253:\n        /* \"@openzeppelin/contracts/token/ERC20/ERC20.sol\":7746:7765  uint256 fromBalance */\n      0x00\n        /* \"@openzeppelin/contracts/token/ERC20/ERC20.sol\":7768:7777  _balances */\n      dup1\n        /* \"@openzeppelin/contracts/token/ERC20/ERC20.sol\":7768:7783  _balances[from] */\n      0x00\n        /* \"@openzeppelin/contracts/token/ERC20/ERC20.sol\":7778:7782  from */\n      dup6\n        /* \"@openzeppelin/contracts/token/ERC20/ERC20.sol\":7768:7783  _balances[from] */\n      0xffffffffffffffffffffffffffffffffffffffff\n      and\n      0xffffffffffffffffffffffffffffffffffffffff\n      and\n      dup2\n      mstore\n      0x20\n      add\n      swap1\n      dup2\n      mstore\n      0x20\n      add\n      0x00\n      keccak256\n      sload\n        /* \"@openzeppelin/contracts/token/ERC20/ERC20.sol\":7746:7783  uint256 fromBalance = _balances[from] */\n      swap1\n      pop\n        /* \"@openzeppelin/contracts/token/ERC20/ERC20.sol\":7816:7822  amount */\n      dup2\n        /* \"@openzeppelin/contracts/token/ERC20/ERC20.sol\":7801:7812  fromBalance */\n      dup2\n        /* \"@openzeppelin/contracts/token/ERC20/ERC20.sol\":7801:7822  fromBalance >= amount */\n      lt\n      iszero\n        /* \"@openzeppelin/contracts/token/ERC20/ERC20.sol\":7793:7865  require(fromBalance >= amount, \"ERC20: transfer amount exceeds balance\") */\n      tag_255\n      jumpi\n      mload(0x40)\n      0x08c379a000000000000000000000000000000000000000000000000000000000\n      dup2\n      mstore\n      0x04\n      add\n      tag_256\n      swap1\n      tag_257\n      jump\t// in\n    tag_256:\n      mload(0x40)\n      dup1\n      swap2\n      sub\n      swap1\n      revert\n    tag_255:\n        /* \"@openzeppelin/contracts/token/ERC20/ERC20.sol\":7931:7937  amount */\n      dup2\n        /* \"@openzeppelin/contracts/token/ERC20/ERC20.sol\":7917:7928  fromBalance */\n      dup2\n        /* \"@openzeppelin/contracts/token/ERC20/ERC20.sol\":7917:7937  fromBalance - amount */\n      sub\n        /* \"@openzeppelin/contracts/token/ERC20/ERC20.sol\":7899:7908  _balances */\n      0x00\n        /* \"@openzeppelin/contracts/token/ERC20/ERC20.sol\":7899:7914  _balances[from] */\n      dup1\n        /* \"@openzeppelin/contracts/token/ERC20/ERC20.sol\":7909:7913  from */\n      dup7\n        /* \"@openzeppelin/contracts/token/ERC20/ERC20.sol\":7899:7914  _balances[from] */\n      0xffffffffffffffffffffffffffffffffffffffff\n      and\n      0xffffffffffffffffffffffffffffffffffffffff\n      and\n      dup2\n      mstore\n      0x20\n      add\n      swap1\n      dup2\n      mstore\n      0x20\n      add\n      0x00\n      keccak256\n        /* \"@openzeppelin/contracts/token/ERC20/ERC20.sol\":7899:7937  _balances[from] = fromBalance - amount */\n      dup2\n      swap1\n      sstore\n      pop\n        /* \"@openzeppelin/contracts/token/ERC20/ERC20.sol\":8131:8137  amount */\n      dup2\n        /* \"@openzeppelin/contracts/token/ERC20/ERC20.sol\":8114:8123  _balances */\n      0x00\n        /* \"@openzeppelin/contracts/token/ERC20/ERC20.sol\":8114:8127  _balances[to] */\n      dup1\n        /* \"@openzeppelin/contracts/token/ERC20/ERC20.sol\":8124:8126  to */\n      dup6\n        /* \"@openzeppelin/contracts/token/ERC20/ERC20.sol\":8114:8127  _balances[to] */\n      0xffffffffffffffffffffffffffffffffffffffff\n      and\n      0xffffffffffffffffffffffffffffffffffffffff\n      and\n      dup2\n      mstore\n      0x20\n      add\n      swap1\n      dup2\n      mstore\n      0x20\n      add\n      0x00\n      keccak256\n      0x00\n        /* \"@openzeppelin/contracts/token/ERC20/ERC20.sol\":8114:8137  _balances[to] += amount */\n      dup3\n      dup3\n      sload\n      add\n      swap3\n      pop\n      pop\n      dup2\n      swap1\n      sstore\n      pop\n        /* \"@openzeppelin/contracts/token/ERC20/ERC20.sol\":8178:8180  to */\n      dup3\n        /* \"@openzeppelin/contracts/token/ERC20/ERC20.sol\":8163:8189  Transfer(from, to, amount) */\n      0xffffffffffffffffffffffffffffffffffffffff\n      and\n        /* \"@openzeppelin/contracts/token/ERC20/ERC20.sol\":8172:8176  from */\n      dup5\n        /* \"@openzeppelin/contracts/token/ERC20/ERC20.sol\":8163:8189  Transfer(from, to, amount) */\n      0xffffffffffffffffffffffffffffffffffffffff\n      and\n      0xddf252ad1be2c89b69c2b068fc378daa952ba7f163c4a11628f55a4df523b3ef\n        /* \"@openzeppelin/contracts/token/ERC20/ERC20.sol\":8182:8188  amount */\n      dup5\n        /* \"@openzeppelin/contracts/token/ERC20/ERC20.sol\":8163:8189  Transfer(from, to, amount) */\n      mload(0x40)\n      tag_258\n      swap2\n      swap1\n      tag_52\n      jump\t// in\n    tag_258:\n      mload(0x40)\n      dup1\n      swap2\n      sub\n      swap1\n      log3\n        /* \"@openzeppelin/contracts/token/ERC20/ERC20.sol\":8200:8237  _afterTokenTransfer(from, to, amount) */\n      tag_259\n        /* \"@openzeppelin/contracts/token/ERC20/ERC20.sol\":8220:8224  from */\n      dup5\n        /* \"@openzeppelin/contracts/token/ERC20/ERC20.sol\":8226:8228  to */\n      dup5\n        /* \"@openzeppelin/contracts/token/ERC20/ERC20.sol\":8230:8236  amount */\n      dup5\n        /* \"@openzeppelin/contracts/token/ERC20/ERC20.sol\":8200:8219  _afterTokenTransfer */\n      tag_260\n        /* \"@openzeppelin/contracts/token/ERC20/ERC20.sol\":8200:8237  _afterTokenTransfer(from, to, amount) */\n      jump\t// in\n    tag_259:\n        /* \"@openzeppelin/contracts/token/ERC20/ERC20.sol\":7534:8244  {... */\n      pop\n        /* \"@openzeppelin/contracts/token/ERC20/ERC20.sol\":7456:8244  function _transfer(address from, address to, uint256 amount) internal virtual {... */\n      pop\n      pop\n      pop\n      jump\t// out\n        /* \"@openzeppelin/contracts/utils/math/SafeMath.sol\":2755:2851  function add(uint256 a, uint256 b) internal pure returns (uint256) {... */\n    tag_193:\n        /* \"@openzeppelin/contracts/utils/math/SafeMath.sol\":2813:2820  uint256 */\n      0x00\n        /* \"@openzeppelin/contracts/utils/math/SafeMath.sol\":2843:2844  b */\n      dup2\n        /* \"@openzeppelin/contracts/utils/math/SafeMath.sol\":2839:2840  a */\n      dup4\n        /* \"@openzeppelin/contracts/utils/math/SafeMath.sol\":2839:2844  a + b */\n      tag_262\n      swap2\n      swap1\n      tag_156\n      jump\t// in\n    tag_262:\n        /* \"@openzeppelin/contracts/utils/math/SafeMath.sol\":2832:2844  return a + b */\n      swap1\n      pop\n        /* \"@openzeppelin/contracts/utils/math/SafeMath.sol\":2755:2851  function add(uint256 a, uint256 b) internal pure returns (uint256) {... */\n      swap3\n      swap2\n      pop\n      pop\n      jump\t// out\n        /* \"@openzeppelin/contracts/token/ERC20/ERC20.sol\":8520:9055  function _mint(address account, uint256 amount) internal virtual {... */\n    tag_198:\n        /* \"@openzeppelin/contracts/token/ERC20/ERC20.sol\":8622:8623  0 */\n      0x00\n        /* \"@openzeppelin/contracts/token/ERC20/ERC20.sol\":8603:8624  account != address(0) */\n      0xffffffffffffffffffffffffffffffffffffffff\n      and\n        /* \"@openzeppelin/contracts/token/ERC20/ERC20.sol\":8603:8610  account */\n      dup3\n        /* \"@openzeppelin/contracts/token/ERC20/ERC20.sol\":8603:8624  account != address(0) */\n      0xffffffffffffffffffffffffffffffffffffffff\n      and\n      sub\n        /* \"@openzeppelin/contracts/token/ERC20/ERC20.sol\":8595:8660  require(account != address(0), \"ERC20: mint to the zero address\") */\n      tag_264\n      jumpi\n      mload(0x40)\n      0x08c379a000000000000000000000000000000000000000000000000000000000\n      dup2\n      mstore\n      0x04\n      add\n      tag_265\n      swap1\n      tag_266\n      jump\t// in\n    tag_265:\n      mload(0x40)\n      dup1\n      swap2\n      sub\n      swap1\n      revert\n    tag_264:\n        /* \"@openzeppelin/contracts/token/ERC20/ERC20.sol\":8671:8720  _beforeTokenTransfer(address(0), account, amount) */\n      tag_267\n        /* \"@openzeppelin/contracts/token/ERC20/ERC20.sol\":8700:8701  0 */\n      0x00\n        /* \"@openzeppelin/contracts/token/ERC20/ERC20.sol\":8704:8711  account */\n      dup4\n        /* \"@openzeppelin/contracts/token/ERC20/ERC20.sol\":8713:8719  amount */\n      dup4\n        /* \"@openzeppelin/contracts/token/ERC20/ERC20.sol\":8671:8691  _beforeTokenTransfer */\n      tag_254\n        /* \"@openzeppelin/contracts/token/ERC20/ERC20.sol\":8671:8720  _beforeTokenTransfer(address(0), account, amount) */\n      jump\t// in\n    tag_267:\n        /* \"@openzeppelin/contracts/token/ERC20/ERC20.sol\":8747:8753  amount */\n      dup1\n        /* \"@openzeppelin/contracts/token/ERC20/ERC20.sol\":8731:8743  _totalSupply */\n      0x02\n      0x00\n        /* \"@openzeppelin/contracts/token/ERC20/ERC20.sol\":8731:8753  _totalSupply += amount */\n      dup3\n      dup3\n      sload\n      tag_268\n      swap2\n      swap1\n      tag_156\n      jump\t// in\n    tag_268:\n      swap3\n      pop\n      pop\n      dup2\n      swap1\n      sstore\n      pop\n        /* \"@openzeppelin/contracts/token/ERC20/ERC20.sol\":8921:8927  amount */\n      dup1\n        /* \"@openzeppelin/contracts/token/ERC20/ERC20.sol\":8899:8908  _balances */\n      0x00\n        /* \"@openzeppelin/contracts/token/ERC20/ERC20.sol\":8899:8917  _balances[account] */\n      dup1\n        /* \"@openzeppelin/contracts/token/ERC20/ERC20.sol\":8909:8916  account */\n      dup5\n        /* \"@openzeppelin/contracts/token/ERC20/ERC20.sol\":8899:8917  _balances[account] */\n      0xffffffffffffffffffffffffffffffffffffffff\n      and\n      0xffffffffffffffffffffffffffffffffffffffff\n      and\n      dup2\n      mstore\n      0x20\n      add\n      swap1\n      dup2\n      mstore\n      0x20\n      add\n      0x00\n      keccak256\n      0x00\n        /* \"@openzeppelin/contracts/token/ERC20/ERC20.sol\":8899:8927  _balances[account] += amount */\n      dup3\n      dup3\n      sload\n      add\n      swap3\n      pop\n      pop\n      dup2\n      swap1\n      sstore\n      pop\n        /* \"@openzeppelin/contracts/token/ERC20/ERC20.sol\":8973:8980  account */\n      dup2\n        /* \"@openzeppelin/contracts/token/ERC20/ERC20.sol\":8952:8989  Transfer(address(0), account, amount) */\n      0xffffffffffffffffffffffffffffffffffffffff\n      and\n        /* \"@openzeppelin/contracts/token/ERC20/ERC20.sol\":8969:8970  0 */\n      0x00\n        /* \"@openzeppelin/contracts/token/ERC20/ERC20.sol\":8952:8989  Transfer(address(0), account, amount) */\n      0xffffffffffffffffffffffffffffffffffffffff\n      and\n      0xddf252ad1be2c89b69c2b068fc378daa952ba7f163c4a11628f55a4df523b3ef\n        /* \"@openzeppelin/contracts/token/ERC20/ERC20.sol\":8982:8988  amount */\n      dup4\n        /* \"@openzeppelin/contracts/token/ERC20/ERC20.sol\":8952:8989  Transfer(address(0), account, amount) */\n      mload(0x40)\n      tag_269\n      swap2\n      swap1\n      tag_52\n      jump\t// in\n    tag_269:\n      mload(0x40)\n      dup1\n      swap2\n      sub\n      swap1\n      log3\n        /* \"@openzeppelin/contracts/token/ERC20/ERC20.sol\":9000:9048  _afterTokenTransfer(address(0), account, amount) */\n      tag_270\n        /* \"@openzeppelin/contracts/token/ERC20/ERC20.sol\":9028:9029  0 */\n      0x00\n        /* \"@openzeppelin/contracts/token/ERC20/ERC20.sol\":9032:9039  account */\n      dup4\n        /* \"@openzeppelin/contracts/token/ERC20/ERC20.sol\":9041:9047  amount */\n      dup4\n        /* \"@openzeppelin/contracts/token/ERC20/ERC20.sol\":9000:9019  _afterTokenTransfer */\n      tag_260\n        /* \"@openzeppelin/contracts/token/ERC20/ERC20.sol\":9000:9048  _afterTokenTransfer(address(0), account, amount) */\n      jump\t// in\n    tag_270:\n        /* \"@openzeppelin/contracts/token/ERC20/ERC20.sol\":8520:9055  function _mint(address account, uint256 amount) internal virtual {... */\n      pop\n      pop\n      jump\t// out\n        /* \"@openzeppelin/contracts/utils/math/SafeMath.sol\":3122:3218  function sub(uint256 a, uint256 b) internal pure returns (uint256) {... */\n    tag_222:\n        /* \"@openzeppelin/contracts/utils/math/SafeMath.sol\":3180:3187  uint256 */\n      0x00\n        /* \"@openzeppelin/contracts/utils/math/SafeMath.sol\":3210:3211  b */\n      dup2\n        /* \"@openzeppelin/contracts/utils/math/SafeMath.sol\":3206:3207  a */\n      dup4\n        /* \"@openzeppelin/contracts/utils/math/SafeMath.sol\":3206:3211  a - b */\n      tag_272\n      swap2\n      swap1\n      tag_273\n      jump\t// in\n    tag_272:\n        /* \"@openzeppelin/contracts/utils/math/SafeMath.sol\":3199:3211  return a - b */\n      swap1\n      pop\n        /* \"@openzeppelin/contracts/utils/math/SafeMath.sol\":3122:3218  function sub(uint256 a, uint256 b) internal pure returns (uint256) {... */\n      swap3\n      swap2\n      pop\n      pop\n      jump\t// out\n        /* \"@openzeppelin/contracts/token/ERC20/ERC20.sol\":12073:12164  function _beforeTokenTransfer(address from, address to, uint256 amount) internal virtual {} */\n    tag_254:\n      pop\n      pop\n      pop\n      jump\t// out\n        /* \"@openzeppelin/contracts/token/ERC20/ERC20.sol\":12752:12842  function _afterTokenTransfer(address from, address to, uint256 amount) internal virtual {} */\n    tag_260:\n      pop\n      pop\n      pop\n      jump\t// out\n        /* \"#utility.yul\":7:106   */\n    tag_276:\n        /* \"#utility.yul\":59:65   */\n      0x00\n        /* \"#utility.yul\":93:98   */\n      dup2\n        /* \"#utility.yul\":87:99   */\n      mload\n        /* \"#utility.yul\":77:99   */\n      swap1\n      pop\n        /* \"#utility.yul\":7:106   */\n      swap2\n      swap1\n      pop\n      jump\t// out\n        /* \"#utility.yul\":112:281   */\n    tag_277:\n        /* \"#utility.yul\":196:207   */\n      0x00\n        /* \"#utility.yul\":230:236   */\n      dup3\n        /* \"#utility.yul\":225:228   */\n      dup3\n        /* \"#utility.yul\":218:237   */\n      mstore\n        /* \"#utility.yul\":270:274   */\n      0x20\n        /* \"#utility.yul\":265:268   */\n      dup3\n        /* \"#utility.yul\":261:275   */\n      add\n        /* \"#utility.yul\":246:275   */\n      swap1\n      pop\n        /* \"#utility.yul\":112:281   */\n      swap3\n      swap2\n      pop\n      pop\n      jump\t// out\n        /* \"#utility.yul\":287:533   */\n    tag_278:\n        /* \"#utility.yul\":368:369   */\n      0x00\n        /* \"#utility.yul\":378:491   */\n    tag_336:\n        /* \"#utility.yul\":392:398   */\n      dup4\n        /* \"#utility.yul\":389:390   */\n      dup2\n        /* \"#utility.yul\":386:399   */\n      lt\n        /* \"#utility.yul\":378:491   */\n      iszero\n      tag_338\n      jumpi\n        /* \"#utility.yul\":477:478   */\n      dup1\n        /* \"#utility.yul\":472:475   */\n      dup3\n        /* \"#utility.yul\":468:479   */\n      add\n        /* \"#utility.yul\":462:480   */\n      mload\n        /* \"#utility.yul\":458:459   */\n      dup2\n        /* \"#utility.yul\":453:456   */\n      dup5\n        /* \"#utility.yul\":449:460   */\n      add\n        /* \"#utility.yul\":442:481   */\n      mstore\n        /* \"#utility.yul\":414:416   */\n      0x20\n        /* \"#utility.yul\":411:412   */\n      dup2\n        /* \"#utility.yul\":407:417   */\n      add\n        /* \"#utility.yul\":402:417   */\n      swap1\n      pop\n        /* \"#utility.yul\":378:491   */\n      jump(tag_336)\n    tag_338:\n        /* \"#utility.yul\":525:526   */\n      0x00\n        /* \"#utility.yul\":516:522   */\n      dup5\n        /* \"#utility.yul\":511:514   */\n      dup5\n        /* \"#utility.yul\":507:523   */\n      add\n        /* \"#utility.yul\":500:527   */\n      mstore\n        /* \"#utility.yul\":349:533   */\n      pop\n        /* \"#utility.yul\":287:533   */\n      pop\n      pop\n      pop\n      jump\t// out\n        /* \"#utility.yul\":539:641   */\n    tag_279:\n        /* \"#utility.yul\":580:586   */\n      0x00\n        /* \"#utility.yul\":631:633   */\n      0x1f\n        /* \"#utility.yul\":627:634   */\n      not\n        /* \"#utility.yul\":622:624   */\n      0x1f\n        /* \"#utility.yul\":615:620   */\n      dup4\n        /* \"#utility.yul\":611:625   */\n      add\n        /* \"#utility.yul\":607:635   */\n      and\n        /* \"#utility.yul\":597:635   */\n      swap1\n      pop\n        /* \"#utility.yul\":539:641   */\n      swap2\n      swap1\n      pop\n      jump\t// out\n        /* \"#utility.yul\":647:1024   */\n    tag_280:\n        /* \"#utility.yul\":735:738   */\n      0x00\n        /* \"#utility.yul\":763:802   */\n      tag_341\n        /* \"#utility.yul\":796:801   */\n      dup3\n        /* \"#utility.yul\":763:802   */\n      tag_276\n      jump\t// in\n    tag_341:\n        /* \"#utility.yul\":818:889   */\n      tag_342\n        /* \"#utility.yul\":882:888   */\n      dup2\n        /* \"#utility.yul\":877:880   */\n      dup6\n        /* \"#utility.yul\":818:889   */\n      tag_277\n      jump\t// in\n    tag_342:\n        /* \"#utility.yul\":811:889   */\n      swap4\n      pop\n        /* \"#utility.yul\":898:963   */\n      tag_343\n        /* \"#utility.yul\":956:962   */\n      dup2\n        /* \"#utility.yul\":951:954   */\n      dup6\n        /* \"#utility.yul\":944:948   */\n      0x20\n        /* \"#utility.yul\":937:942   */\n      dup7\n        /* \"#utility.yul\":933:949   */\n      add\n        /* \"#utility.yul\":898:963   */\n      tag_278\n      jump\t// in\n    tag_343:\n        /* \"#utility.yul\":988:1017   */\n      tag_344\n        /* \"#utility.yul\":1010:1016   */\n      dup2\n        /* \"#utility.yul\":988:1017   */\n      tag_279\n      jump\t// in\n    tag_344:\n        /* \"#utility.yul\":983:986   */\n      dup5\n        /* \"#utility.yul\":979:1018   */\n      add\n        /* \"#utility.yul\":972:1018   */\n      swap2\n      pop\n        /* \"#utility.yul\":739:1024   */\n      pop\n        /* \"#utility.yul\":647:1024   */\n      swap3\n      swap2\n      pop\n      pop\n      jump\t// out\n        /* \"#utility.yul\":1030:1343   */\n    tag_35:\n        /* \"#utility.yul\":1143:1147   */\n      0x00\n        /* \"#utility.yul\":1181:1183   */\n      0x20\n        /* \"#utility.yul\":1170:1179   */\n      dup3\n        /* \"#utility.yul\":1166:1184   */\n      add\n        /* \"#utility.yul\":1158:1184   */\n      swap1\n      pop\n        /* \"#utility.yul\":1230:1239   */\n      dup2\n        /* \"#utility.yul\":1224:1228   */\n      dup2\n        /* \"#utility.yul\":1220:1240   */\n      sub\n        /* \"#utility.yul\":1216:1217   */\n      0x00\n        /* \"#utility.yul\":1205:1214   */\n      dup4\n        /* \"#utility.yul\":1201:1218   */\n      add\n        /* \"#utility.yul\":1194:1241   */\n      mstore\n        /* \"#utility.yul\":1258:1336   */\n      tag_346\n        /* \"#utility.yul\":1331:1335   */\n      dup2\n        /* \"#utility.yul\":1322:1328   */\n      dup5\n        /* \"#utility.yul\":1258:1336   */\n      tag_280\n      jump\t// in\n    tag_346:\n        /* \"#utility.yul\":1250:1336   */\n      swap1\n      pop\n        /* \"#utility.yul\":1030:1343   */\n      swap3\n      swap2\n      pop\n      pop\n      jump\t// out\n        /* \"#utility.yul\":1349:1475   */\n    tag_281:\n        /* \"#utility.yul\":1386:1393   */\n      0x00\n        /* \"#utility.yul\":1426:1468   */\n      0xffffffffffffffffffffffffffffffffffffffff\n        /* \"#utility.yul\":1419:1424   */\n      dup3\n        /* \"#utility.yul\":1415:1469   */\n      and\n        /* \"#utility.yul\":1404:1469   */\n      swap1\n      pop\n        /* \"#utility.yul\":1349:1475   */\n      swap2\n      swap1\n      pop\n      jump\t// out\n        /* \"#utility.yul\":1481:1577   */\n    tag_282:\n        /* \"#utility.yul\":1518:1525   */\n      0x00\n        /* \"#utility.yul\":1547:1571   */\n      tag_349\n        /* \"#utility.yul\":1565:1570   */\n      dup3\n        /* \"#utility.yul\":1547:1571   */\n      tag_281\n      jump\t// in\n    tag_349:\n        /* \"#utility.yul\":1536:1571   */\n      swap1\n      pop\n        /* \"#utility.yul\":1481:1577   */\n      swap2\n      swap1\n      pop\n      jump\t// out\n        /* \"#utility.yul\":1583:1701   */\n    tag_283:\n        /* \"#utility.yul\":1670:1694   */\n      tag_351\n        /* \"#utility.yul\":1688:1693   */\n      dup2\n        /* \"#utility.yul\":1670:1694   */\n      tag_282\n      jump\t// in\n    tag_351:\n        /* \"#utility.yul\":1665:1668   */\n      dup3\n        /* \"#utility.yul\":1658:1695   */\n      mstore\n        /* \"#utility.yul\":1583:1701   */\n      pop\n      pop\n      jump\t// out\n        /* \"#utility.yul\":1707:1929   */\n    tag_39:\n        /* \"#utility.yul\":1800:1804   */\n      0x00\n        /* \"#utility.yul\":1838:1840   */\n      0x20\n        /* \"#utility.yul\":1827:1836   */\n      dup3\n        /* \"#utility.yul\":1823:1841   */\n      add\n        /* \"#utility.yul\":1815:1841   */\n      swap1\n      pop\n        /* \"#utility.yul\":1851:1922   */\n      tag_353\n        /* \"#utility.yul\":1919:1920   */\n      0x00\n        /* \"#utility.yul\":1908:1917   */\n      dup4\n        /* \"#utility.yul\":1904:1921   */\n      add\n        /* \"#utility.yul\":1895:1901   */\n      dup5\n        /* \"#utility.yul\":1851:1922   */\n      tag_283\n      jump\t// in\n    tag_353:\n        /* \"#utility.yul\":1707:1929   */\n      swap3\n      swap2\n      pop\n      pop\n      jump\t// out\n        /* \"#utility.yul\":2016:2133   */\n    tag_285:\n        /* \"#utility.yul\":2125:2126   */\n      0x00\n        /* \"#utility.yul\":2122:2123   */\n      dup1\n        /* \"#utility.yul\":2115:2127   */\n      revert\n        /* \"#utility.yul\":2262:2384   */\n    tag_287:\n        /* \"#utility.yul\":2335:2359   */\n      tag_358\n        /* \"#utility.yul\":2353:2358   */\n      dup2\n        /* \"#utility.yul\":2335:2359   */\n      tag_282\n      jump\t// in\n    tag_358:\n        /* \"#utility.yul\":2328:2333   */\n      dup2\n        /* \"#utility.yul\":2325:2360   */\n      eq\n        /* \"#utility.yul\":2315:2378   */\n      tag_359\n      jumpi\n        /* \"#utility.yul\":2374:2375   */\n      0x00\n        /* \"#utility.yul\":2371:2372   */\n      dup1\n        /* \"#utility.yul\":2364:2376   */\n      revert\n        /* \"#utility.yul\":2315:2378   */\n    tag_359:\n        /* \"#utility.yul\":2262:2384   */\n      pop\n      jump\t// out\n        /* \"#utility.yul\":2390:2529   */\n    tag_288:\n        /* \"#utility.yul\":2436:2441   */\n      0x00\n        /* \"#utility.yul\":2474:2480   */\n      dup2\n        /* \"#utility.yul\":2461:2481   */\n      calldataload\n        /* \"#utility.yul\":2452:2481   */\n      swap1\n      pop\n        /* \"#utility.yul\":2490:2523   */\n      tag_361\n        /* \"#utility.yul\":2517:2522   */\n      dup2\n        /* \"#utility.yul\":2490:2523   */\n      tag_287\n      jump\t// in\n    tag_361:\n        /* \"#utility.yul\":2390:2529   */\n      swap3\n      swap2\n      pop\n      pop\n      jump\t// out\n        /* \"#utility.yul\":2535:2612   */\n    tag_289:\n        /* \"#utility.yul\":2572:2579   */\n      0x00\n        /* \"#utility.yul\":2601:2606   */\n      dup2\n        /* \"#utility.yul\":2590:2606   */\n      swap1\n      pop\n        /* \"#utility.yul\":2535:2612   */\n      swap2\n      swap1\n      pop\n      jump\t// out\n        /* \"#utility.yul\":2618:2740   */\n    tag_290:\n        /* \"#utility.yul\":2691:2715   */\n      tag_364\n        /* \"#utility.yul\":2709:2714   */\n      dup2\n        /* \"#utility.yul\":2691:2715   */\n      tag_289\n      jump\t// in\n    tag_364:\n        /* \"#utility.yul\":2684:2689   */\n      dup2\n        /* \"#utility.yul\":2681:2716   */\n      eq\n        /* \"#utility.yul\":2671:2734   */\n      tag_365\n      jumpi\n        /* \"#utility.yul\":2730:2731   */\n      0x00\n        /* \"#utility.yul\":2727:2728   */\n      dup1\n        /* \"#utility.yul\":2720:2732   */\n      revert\n        /* \"#utility.yul\":2671:2734   */\n    tag_365:\n        /* \"#utility.yul\":2618:2740   */\n      pop\n      jump\t// out\n        /* \"#utility.yul\":2746:2885   */\n    tag_291:\n        /* \"#utility.yul\":2792:2797   */\n      0x00\n        /* \"#utility.yul\":2830:2836   */\n      dup2\n        /* \"#utility.yul\":2817:2837   */\n      calldataload\n        /* \"#utility.yul\":2808:2837   */\n      swap1\n      pop\n        /* \"#utility.yul\":2846:2879   */\n      tag_367\n        /* \"#utility.yul\":2873:2878   */\n      dup2\n        /* \"#utility.yul\":2846:2879   */\n      tag_290\n      jump\t// in\n    tag_367:\n        /* \"#utility.yul\":2746:2885   */\n      swap3\n      swap2\n      pop\n      pop\n      jump\t// out\n        /* \"#utility.yul\":2891:3365   */\n    tag_42:\n        /* \"#utility.yul\":2959:2965   */\n      0x00\n        /* \"#utility.yul\":2967:2973   */\n      dup1\n        /* \"#utility.yul\":3016:3018   */\n      0x40\n        /* \"#utility.yul\":3004:3013   */\n      dup4\n        /* \"#utility.yul\":2995:3002   */\n      dup6\n        /* \"#utility.yul\":2991:3014   */\n      sub\n        /* \"#utility.yul\":2987:3019   */\n      slt\n        /* \"#utility.yul\":2984:3103   */\n      iszero\n      tag_369\n      jumpi\n        /* \"#utility.yul\":3022:3101   */\n      tag_370\n      tag_285\n      jump\t// in\n    tag_370:\n        /* \"#utility.yul\":2984:3103   */\n    tag_369:\n        /* \"#utility.yul\":3142:3143   */\n      0x00\n        /* \"#utility.yul\":3167:3220   */\n      tag_371\n        /* \"#utility.yul\":3212:3219   */\n      dup6\n        /* \"#utility.yul\":3203:3209   */\n      dup3\n        /* \"#utility.yul\":3192:3201   */\n      dup7\n        /* \"#utility.yul\":3188:3210   */\n      add\n        /* \"#utility.yul\":3167:3220   */\n      tag_288\n      jump\t// in\n    tag_371:\n        /* \"#utility.yul\":3157:3220   */\n      swap3\n      pop\n        /* \"#utility.yul\":3113:3230   */\n      pop\n        /* \"#utility.yul\":3269:3271   */\n      0x20\n        /* \"#utility.yul\":3295:3348   */\n      tag_372\n        /* \"#utility.yul\":3340:3347   */\n      dup6\n        /* \"#utility.yul\":3331:3337   */\n      dup3\n        /* \"#utility.yul\":3320:3329   */\n      dup7\n        /* \"#utility.yul\":3316:3338   */\n      add\n        /* \"#utility.yul\":3295:3348   */\n      tag_291\n      jump\t// in\n    tag_372:\n        /* \"#utility.yul\":3285:3348   */\n      swap2\n      pop\n        /* \"#utility.yul\":3240:3358   */\n      pop\n        /* \"#utility.yul\":2891:3365   */\n      swap3\n      pop\n      swap3\n      swap1\n      pop\n      jump\t// out\n        /* \"#utility.yul\":3371:3461   */\n    tag_292:\n        /* \"#utility.yul\":3405:3412   */\n      0x00\n        /* \"#utility.yul\":3448:3453   */\n      dup2\n        /* \"#utility.yul\":3441:3454   */\n      iszero\n        /* \"#utility.yul\":3434:3455   */\n      iszero\n        /* \"#utility.yul\":3423:3455   */\n      swap1\n      pop\n        /* \"#utility.yul\":3371:3461   */\n      swap2\n      swap1\n      pop\n      jump\t// out\n        /* \"#utility.yul\":3467:3576   */\n    tag_293:\n        /* \"#utility.yul\":3548:3569   */\n      tag_375\n        /* \"#utility.yul\":3563:3568   */\n      dup2\n        /* \"#utility.yul\":3548:3569   */\n      tag_292\n      jump\t// in\n    tag_375:\n        /* \"#utility.yul\":3543:3546   */\n      dup3\n        /* \"#utility.yul\":3536:3570   */\n      mstore\n        /* \"#utility.yul\":3467:3576   */\n      pop\n      pop\n      jump\t// out\n        /* \"#utility.yul\":3582:3792   */\n    tag_45:\n        /* \"#utility.yul\":3669:3673   */\n      0x00\n        /* \"#utility.yul\":3707:3709   */\n      0x20\n        /* \"#utility.yul\":3696:3705   */\n      dup3\n        /* \"#utility.yul\":3692:3710   */\n      add\n        /* \"#utility.yul\":3684:3710   */\n      swap1\n      pop\n        /* \"#utility.yul\":3720:3785   */\n      tag_377\n        /* \"#utility.yul\":3782:3783   */\n      0x00\n        /* \"#utility.yul\":3771:3780   */\n      dup4\n        /* \"#utility.yul\":3767:3784   */\n      add\n        /* \"#utility.yul\":3758:3764   */\n      dup5\n        /* \"#utility.yul\":3720:3785   */\n      tag_293\n      jump\t// in\n    tag_377:\n        /* \"#utility.yul\":3582:3792   */\n      swap3\n      swap2\n      pop\n      pop\n      jump\t// out\n        /* \"#utility.yul\":3798:3916   */\n    tag_294:\n        /* \"#utility.yul\":3885:3909   */\n      tag_379\n        /* \"#utility.yul\":3903:3908   */\n      dup2\n        /* \"#utility.yul\":3885:3909   */\n      tag_289\n      jump\t// in\n    tag_379:\n        /* \"#utility.yul\":3880:3883   */\n      dup3\n        /* \"#utility.yul\":3873:3910   */\n      mstore\n        /* \"#utility.yul\":3798:3916   */\n      pop\n      pop\n      jump\t// out\n        /* \"#utility.yul\":3922:4144   */\n    tag_52:\n        /* \"#utility.yul\":4015:4019   */\n      0x00\n        /* \"#utility.yul\":4053:4055   */\n      0x20\n        /* \"#utility.yul\":4042:4051   */\n      dup3\n        /* \"#utility.yul\":4038:4056   */\n      add\n        /* \"#utility.yul\":4030:4056   */\n      swap1\n      pop\n        /* \"#utility.yul\":4066:4137   */\n      tag_381\n        /* \"#utility.yul\":4134:4135   */\n      0x00\n        /* \"#utility.yul\":4123:4132   */\n      dup4\n        /* \"#utility.yul\":4119:4136   */\n      add\n        /* \"#utility.yul\":4110:4116   */\n      dup5\n        /* \"#utility.yul\":4066:4137   */\n      tag_294\n      jump\t// in\n    tag_381:\n        /* \"#utility.yul\":3922:4144   */\n      swap3\n      swap2\n      pop\n      pop\n      jump\t// out\n        /* \"#utility.yul\":4150:4769   */\n    tag_58:\n        /* \"#utility.yul\":4227:4233   */\n      0x00\n        /* \"#utility.yul\":4235:4241   */\n      dup1\n        /* \"#utility.yul\":4243:4249   */\n      0x00\n        /* \"#utility.yul\":4292:4294   */\n      0x60\n        /* \"#utility.yul\":4280:4289   */\n      dup5\n        /* \"#utility.yul\":4271:4278   */\n      dup7\n        /* \"#utility.yul\":4267:4290   */\n      sub\n        /* \"#utility.yul\":4263:4295   */\n      slt\n        /* \"#utility.yul\":4260:4379   */\n      iszero\n      tag_383\n      jumpi\n        /* \"#utility.yul\":4298:4377   */\n      tag_384\n      tag_285\n      jump\t// in\n    tag_384:\n        /* \"#utility.yul\":4260:4379   */\n    tag_383:\n        /* \"#utility.yul\":4418:4419   */\n      0x00\n        /* \"#utility.yul\":4443:4496   */\n      tag_385\n        /* \"#utility.yul\":4488:4495   */\n      dup7\n        /* \"#utility.yul\":4479:4485   */\n      dup3\n        /* \"#utility.yul\":4468:4477   */\n      dup8\n        /* \"#utility.yul\":4464:4486   */\n      add\n        /* \"#utility.yul\":4443:4496   */\n      tag_288\n      jump\t// in\n    tag_385:\n        /* \"#utility.yul\":4433:4496   */\n      swap4\n      pop\n        /* \"#utility.yul\":4389:4506   */\n      pop\n        /* \"#utility.yul\":4545:4547   */\n      0x20\n        /* \"#utility.yul\":4571:4624   */\n      tag_386\n        /* \"#utility.yul\":4616:4623   */\n      dup7\n        /* \"#utility.yul\":4607:4613   */\n      dup3\n        /* \"#utility.yul\":4596:4605   */\n      dup8\n        /* \"#utility.yul\":4592:4614   */\n      add\n        /* \"#utility.yul\":4571:4624   */\n      tag_288\n      jump\t// in\n    tag_386:\n        /* \"#utility.yul\":4561:4624   */\n      swap3\n      pop\n        /* \"#utility.yul\":4516:4634   */\n      pop\n        /* \"#utility.yul\":4673:4675   */\n      0x40\n        /* \"#utility.yul\":4699:4752   */\n      tag_387\n        /* \"#utility.yul\":4744:4751   */\n      dup7\n        /* \"#utility.yul\":4735:4741   */\n      dup3\n        /* \"#utility.yul\":4724:4733   */\n      dup8\n        /* \"#utility.yul\":4720:4742   */\n      add\n        /* \"#utility.yul\":4699:4752   */\n      tag_291\n      jump\t// in\n    tag_387:\n        /* \"#utility.yul\":4689:4752   */\n      swap2\n      pop\n        /* \"#utility.yul\":4644:4762   */\n      pop\n        /* \"#utility.yul\":4150:4769   */\n      swap3\n      pop\n      swap3\n      pop\n      swap3\n      jump\t// out\n        /* \"#utility.yul\":4775:5104   */\n    tag_69:\n        /* \"#utility.yul\":4834:4840   */\n      0x00\n        /* \"#utility.yul\":4883:4885   */\n      0x20\n        /* \"#utility.yul\":4871:4880   */\n      dup3\n        /* \"#utility.yul\":4862:4869   */\n      dup5\n        /* \"#utility.yul\":4858:4881   */\n      sub\n        /* \"#utility.yul\":4854:4886   */\n      slt\n        /* \"#utility.yul\":4851:4970   */\n      iszero\n      tag_389\n      jumpi\n        /* \"#utility.yul\":4889:4968   */\n      tag_390\n      tag_285\n      jump\t// in\n    tag_390:\n        /* \"#utility.yul\":4851:4970   */\n    tag_389:\n        /* \"#utility.yul\":5009:5010   */\n      0x00\n        /* \"#utility.yul\":5034:5087   */\n      tag_391\n        /* \"#utility.yul\":5079:5086   */\n      dup5\n        /* \"#utility.yul\":5070:5076   */\n      dup3\n        /* \"#utility.yul\":5059:5068   */\n      dup6\n        /* \"#utility.yul\":5055:5077   */\n      add\n        /* \"#utility.yul\":5034:5087   */\n      tag_291\n      jump\t// in\n    tag_391:\n        /* \"#utility.yul\":5024:5087   */\n      swap2\n      pop\n        /* \"#utility.yul\":4980:5097   */\n      pop\n        /* \"#utility.yul\":4775:5104   */\n      swap3\n      swap2\n      pop\n      pop\n      jump\t// out\n        /* \"#utility.yul\":5110:5196   */\n    tag_295:\n        /* \"#utility.yul\":5145:5152   */\n      0x00\n        /* \"#utility.yul\":5185:5189   */\n      0xff\n        /* \"#utility.yul\":5178:5183   */\n      dup3\n        /* \"#utility.yul\":5174:5190   */\n      and\n        /* \"#utility.yul\":5163:5190   */\n      swap1\n      pop\n        /* \"#utility.yul\":5110:5196   */\n      swap2\n      swap1\n      pop\n      jump\t// out\n        /* \"#utility.yul\":5202:5314   */\n    tag_296:\n        /* \"#utility.yul\":5285:5307   */\n      tag_394\n        /* \"#utility.yul\":5301:5306   */\n      dup2\n        /* \"#utility.yul\":5285:5307   */\n      tag_295\n      jump\t// in\n    tag_394:\n        /* \"#utility.yul\":5280:5283   */\n      dup3\n        /* \"#utility.yul\":5273:5308   */\n      mstore\n        /* \"#utility.yul\":5202:5314   */\n      pop\n      pop\n      jump\t// out\n        /* \"#utility.yul\":5320:5534   */\n    tag_74:\n        /* \"#utility.yul\":5409:5413   */\n      0x00\n        /* \"#utility.yul\":5447:5449   */\n      0x20\n        /* \"#utility.yul\":5436:5445   */\n      dup3\n        /* \"#utility.yul\":5432:5450   */\n      add\n        /* \"#utility.yul\":5424:5450   */\n      swap1\n      pop\n        /* \"#utility.yul\":5460:5527   */\n      tag_396\n        /* \"#utility.yul\":5524:5525   */\n      0x00\n        /* \"#utility.yul\":5513:5522   */\n      dup4\n        /* \"#utility.yul\":5509:5526   */\n      add\n        /* \"#utility.yul\":5500:5506   */\n      dup5\n        /* \"#utility.yul\":5460:5527   */\n      tag_296\n      jump\t// in\n    tag_396:\n        /* \"#utility.yul\":5320:5534   */\n      swap3\n      swap2\n      pop\n      pop\n      jump\t// out\n        /* \"#utility.yul\":5540:5869   */\n    tag_81:\n        /* \"#utility.yul\":5599:5605   */\n      0x00\n        /* \"#utility.yul\":5648:5650   */\n      0x20\n        /* \"#utility.yul\":5636:5645   */\n      dup3\n        /* \"#utility.yul\":5627:5634   */\n      dup5\n        /* \"#utility.yul\":5623:5646   */\n      sub\n        /* \"#utility.yul\":5619:5651   */\n      slt\n        /* \"#utility.yul\":5616:5735   */\n      iszero\n      tag_398\n      jumpi\n        /* \"#utility.yul\":5654:5733   */\n      tag_399\n      tag_285\n      jump\t// in\n    tag_399:\n        /* \"#utility.yul\":5616:5735   */\n    tag_398:\n        /* \"#utility.yul\":5774:5775   */\n      0x00\n        /* \"#utility.yul\":5799:5852   */\n      tag_400\n        /* \"#utility.yul\":5844:5851   */\n      dup5\n        /* \"#utility.yul\":5835:5841   */\n      dup3\n        /* \"#utility.yul\":5824:5833   */\n      dup6\n        /* \"#utility.yul\":5820:5842   */\n      add\n        /* \"#utility.yul\":5799:5852   */\n      tag_288\n      jump\t// in\n    tag_400:\n        /* \"#utility.yul\":5789:5852   */\n      swap2\n      pop\n        /* \"#utility.yul\":5745:5862   */\n      pop\n        /* \"#utility.yul\":5540:5869   */\n      swap3\n      swap2\n      pop\n      pop\n      jump\t// out\n        /* \"#utility.yul\":5875:6349   */\n    tag_118:\n        /* \"#utility.yul\":5943:5949   */\n      0x00\n        /* \"#utility.yul\":5951:5957   */\n      dup1\n        /* \"#utility.yul\":6000:6002   */\n      0x40\n        /* \"#utility.yul\":5988:5997   */\n      dup4\n        /* \"#utility.yul\":5979:5986   */\n      dup6\n        /* \"#utility.yul\":5975:5998   */\n      sub\n        /* \"#utility.yul\":5971:6003   */\n      slt\n        /* \"#utility.yul\":5968:6087   */\n      iszero\n      tag_402\n      jumpi\n        /* \"#utility.yul\":6006:6085   */\n      tag_403\n      tag_285\n      jump\t// in\n    tag_403:\n        /* \"#utility.yul\":5968:6087   */\n    tag_402:\n        /* \"#utility.yul\":6126:6127   */\n      0x00\n        /* \"#utility.yul\":6151:6204   */\n      tag_404\n        /* \"#utility.yul\":6196:6203   */\n      dup6\n        /* \"#utility.yul\":6187:6193   */\n      dup3\n        /* \"#utility.yul\":6176:6185   */\n      dup7\n        /* \"#utility.yul\":6172:6194   */\n      add\n        /* \"#utility.yul\":6151:6204   */\n      tag_288\n      jump\t// in\n    tag_404:\n        /* \"#utility.yul\":6141:6204   */\n      swap3\n      pop\n        /* \"#utility.yul\":6097:6214   */\n      pop\n        /* \"#utility.yul\":6253:6255   */\n      0x20\n        /* \"#utility.yul\":6279:6332   */\n      tag_405\n        /* \"#utility.yul\":6324:6331   */\n      dup6\n        /* \"#utility.yul\":6315:6321   */\n      dup3\n        /* \"#utility.yul\":6304:6313   */\n      dup7\n        /* \"#utility.yul\":6300:6322   */\n      add\n        /* \"#utility.yul\":6279:6332   */\n      tag_288\n      jump\t// in\n    tag_405:\n        /* \"#utility.yul\":6269:6332   */\n      swap2\n      pop\n        /* \"#utility.yul\":6224:6342   */\n      pop\n        /* \"#utility.yul\":5875:6349   */\n      swap3\n      pop\n      swap3\n      swap1\n      pop\n      jump\t// out\n        /* \"#utility.yul\":6355:6535   */\n    tag_297:\n        /* \"#utility.yul\":6403:6480   */\n      0x4e487b7100000000000000000000000000000000000000000000000000000000\n        /* \"#utility.yul\":6400:6401   */\n      0x00\n        /* \"#utility.yul\":6393:6481   */\n      mstore\n        /* \"#utility.yul\":6500:6504   */\n      0x22\n        /* \"#utility.yul\":6497:6498   */\n      0x04\n        /* \"#utility.yul\":6490:6505   */\n      mstore\n        /* \"#utility.yul\":6524:6528   */\n      0x24\n        /* \"#utility.yul\":6521:6522   */\n      0x00\n        /* \"#utility.yul\":6514:6529   */\n      revert\n        /* \"#utility.yul\":6541:6861   */\n    tag_126:\n        /* \"#utility.yul\":6585:6591   */\n      0x00\n        /* \"#utility.yul\":6622:6623   */\n      0x02\n        /* \"#utility.yul\":6616:6620   */\n      dup3\n        /* \"#utility.yul\":6612:6624   */\n      div\n        /* \"#utility.yul\":6602:6624   */\n      swap1\n      pop\n        /* \"#utility.yul\":6669:6670   */\n      0x01\n        /* \"#utility.yul\":6663:6667   */\n      dup3\n        /* \"#utility.yul\":6659:6671   */\n      and\n        /* \"#utility.yul\":6690:6708   */\n      dup1\n        /* \"#utility.yul\":6680:6761   */\n      tag_408\n      jumpi\n        /* \"#utility.yul\":6746:6750   */\n      0x7f\n        /* \"#utility.yul\":6738:6744   */\n      dup3\n        /* \"#utility.yul\":6734:6751   */\n      and\n        /* \"#utility.yul\":6724:6751   */\n      swap2\n      pop\n        /* \"#utility.yul\":6680:6761   */\n    tag_408:\n        /* \"#utility.yul\":6808:6810   */\n      0x20\n        /* \"#utility.yul\":6800:6806   */\n      dup3\n        /* \"#utility.yul\":6797:6811   */\n      lt\n        /* \"#utility.yul\":6777:6795   */\n      dup2\n        /* \"#utility.yul\":6774:6812   */\n      sub\n        /* \"#utility.yul\":6771:6855   */\n      tag_409\n      jumpi\n        /* \"#utility.yul\":6827:6845   */\n      tag_410\n      tag_297\n      jump\t// in\n    tag_410:\n        /* \"#utility.yul\":6771:6855   */\n    tag_409:\n        /* \"#utility.yul\":6592:6861   */\n      pop\n        /* \"#utility.yul\":6541:6861   */\n      swap2\n      swap1\n      pop\n      jump\t// out\n        /* \"#utility.yul\":6867:7046   */\n    tag_298:\n        /* \"#utility.yul\":7007:7038   */\n      0x4f6e6c792061646d696e2063616e206d616b6520746869732063616c6c000000\n        /* \"#utility.yul\":7003:7004   */\n      0x00\n        /* \"#utility.yul\":6995:7001   */\n      dup3\n        /* \"#utility.yul\":6991:7005   */\n      add\n        /* \"#utility.yul\":6984:7039   */\n      mstore\n        /* \"#utility.yul\":6867:7046   */\n      pop\n      jump\t// out\n        /* \"#utility.yul\":7052:7418   */\n    tag_299:\n        /* \"#utility.yul\":7194:7197   */\n      0x00\n        /* \"#utility.yul\":7215:7282   */\n      tag_413\n        /* \"#utility.yul\":7279:7281   */\n      0x1d\n        /* \"#utility.yul\":7274:7277   */\n      dup4\n        /* \"#utility.yul\":7215:7282   */\n      tag_277\n      jump\t// in\n    tag_413:\n        /* \"#utility.yul\":7208:7282   */\n      swap2\n      pop\n        /* \"#utility.yul\":7291:7384   */\n      tag_414\n        /* \"#utility.yul\":7380:7383   */\n      dup3\n        /* \"#utility.yul\":7291:7384   */\n      tag_298\n      jump\t// in\n    tag_414:\n        /* \"#utility.yul\":7409:7411   */\n      0x20\n        /* \"#utility.yul\":7404:7407   */\n      dup3\n        /* \"#utility.yul\":7400:7412   */\n      add\n        /* \"#utility.yul\":7393:7412   */\n      swap1\n      pop\n        /* \"#utility.yul\":7052:7418   */\n      swap2\n      swap1\n      pop\n      jump\t// out\n        /* \"#utility.yul\":7424:7843   */\n    tag_147:\n        /* \"#utility.yul\":7590:7594   */\n      0x00\n        /* \"#utility.yul\":7628:7630   */\n      0x20\n        /* \"#utility.yul\":7617:7626   */\n      dup3\n        /* \"#utility.yul\":7613:7631   */\n      add\n        /* \"#utility.yul\":7605:7631   */\n      swap1\n      pop\n        /* \"#utility.yul\":7677:7686   */\n      dup2\n        /* \"#utility.yul\":7671:7675   */\n      dup2\n        /* \"#utility.yul\":7667:7687   */\n      sub\n        /* \"#utility.yul\":7663:7664   */\n      0x00\n        /* \"#utility.yul\":7652:7661   */\n      dup4\n        /* \"#utility.yul\":7648:7665   */\n      add\n        /* \"#utility.yul\":7641:7688   */\n      mstore\n        /* \"#utility.yul\":7705:7836   */\n      tag_416\n        /* \"#utility.yul\":7831:7835   */\n      dup2\n        /* \"#utility.yul\":7705:7836   */\n      tag_299\n      jump\t// in\n    tag_416:\n        /* \"#utility.yul\":7697:7836   */\n      swap1\n      pop\n        /* \"#utility.yul\":7424:7843   */\n      swap2\n      swap1\n      pop\n      jump\t// out\n        /* \"#utility.yul\":7849:8029   */\n    tag_300:\n        /* \"#utility.yul\":7897:7974   */\n      0x4e487b7100000000000000000000000000000000000000000000000000000000\n        /* \"#utility.yul\":7894:7895   */\n      0x00\n        /* \"#utility.yul\":7887:7975   */\n      mstore\n        /* \"#utility.yul\":7994:7998   */\n      0x11\n        /* \"#utility.yul\":7991:7992   */\n      0x04\n        /* \"#utility.yul\":7984:7999   */\n      mstore\n        /* \"#utility.yul\":8018:8022   */\n      0x24\n        /* \"#utility.yul\":8015:8016   */\n      0x00\n        /* \"#utility.yul\":8008:8023   */\n      revert\n        /* \"#utility.yul\":8035:8226   */\n    tag_156:\n        /* \"#utility.yul\":8075:8078   */\n      0x00\n        /* \"#utility.yul\":8094:8114   */\n      tag_419\n        /* \"#utility.yul\":8112:8113   */\n      dup3\n        /* \"#utility.yul\":8094:8114   */\n      tag_289\n      jump\t// in\n    tag_419:\n        /* \"#utility.yul\":8089:8114   */\n      swap2\n      pop\n        /* \"#utility.yul\":8128:8148   */\n      tag_420\n        /* \"#utility.yul\":8146:8147   */\n      dup4\n        /* \"#utility.yul\":8128:8148   */\n      tag_289\n      jump\t// in\n    tag_420:\n        /* \"#utility.yul\":8123:8148   */\n      swap3\n      pop\n        /* \"#utility.yul\":8171:8172   */\n      dup3\n        /* \"#utility.yul\":8168:8169   */\n      dup3\n        /* \"#utility.yul\":8164:8173   */\n      add\n        /* \"#utility.yul\":8157:8173   */\n      swap1\n      pop\n        /* \"#utility.yul\":8192:8195   */\n      dup1\n        /* \"#utility.yul\":8189:8190   */\n      dup3\n        /* \"#utility.yul\":8186:8196   */\n      gt\n        /* \"#utility.yul\":8183:8219   */\n      iszero\n      tag_421\n      jumpi\n        /* \"#utility.yul\":8199:8217   */\n      tag_422\n      tag_300\n      jump\t// in\n    tag_422:\n        /* \"#utility.yul\":8183:8219   */\n    tag_421:\n        /* \"#utility.yul\":8035:8226   */\n      swap3\n      swap2\n      pop\n      pop\n      jump\t// out\n        /* \"#utility.yul\":8232:8411   */\n    tag_301:\n        /* \"#utility.yul\":8372:8403   */\n      0x696e76616c69642070656e64696e672061646d696e2061646472657373000000\n        /* \"#utility.yul\":8368:8369   */\n      0x00\n        /* \"#utility.yul\":8360:8366   */\n      dup3\n        /* \"#utility.yul\":8356:8370   */\n      add\n        /* \"#utility.yul\":8349:8404   */\n      mstore\n        /* \"#utility.yul\":8232:8411   */\n      pop\n      jump\t// out\n        /* \"#utility.yul\":8417:8783   */\n    tag_302:\n        /* \"#utility.yul\":8559:8562   */\n      0x00\n        /* \"#utility.yul\":8580:8647   */\n      tag_425\n        /* \"#utility.yul\":8644:8646   */\n      0x1d\n        /* \"#utility.yul\":8639:8642   */\n      dup4\n        /* \"#utility.yul\":8580:8647   */\n      tag_277\n      jump\t// in\n    tag_425:\n        /* \"#utility.yul\":8573:8647   */\n      swap2\n      pop\n        /* \"#utility.yul\":8656:8749   */\n      tag_426\n        /* \"#utility.yul\":8745:8748   */\n      dup3\n        /* \"#utility.yul\":8656:8749   */\n      tag_301\n      jump\t// in\n    tag_426:\n        /* \"#utility.yul\":8774:8776   */\n      0x20\n        /* \"#utility.yul\":8769:8772   */\n      dup3\n        /* \"#utility.yul\":8765:8777   */\n      add\n        /* \"#utility.yul\":8758:8777   */\n      swap1\n      pop\n        /* \"#utility.yul\":8417:8783   */\n      swap2\n      swap1\n      pop\n      jump\t// out\n        /* \"#utility.yul\":8789:9208   */\n    tag_163:\n        /* \"#utility.yul\":8955:8959   */\n      0x00\n        /* \"#utility.yul\":8993:8995   */\n      0x20\n        /* \"#utility.yul\":8982:8991   */\n      dup3\n        /* \"#utility.yul\":8978:8996   */\n      add\n        /* \"#utility.yul\":8970:8996   */\n      swap1\n      pop\n        /* \"#utility.yul\":9042:9051   */\n      dup2\n        /* \"#utility.yul\":9036:9040   */\n      dup2\n        /* \"#utility.yul\":9032:9052   */\n      sub\n        /* \"#utility.yul\":9028:9029   */\n      0x00\n        /* \"#utility.yul\":9017:9026   */\n      dup4\n        /* \"#utility.yul\":9013:9030   */\n      add\n        /* \"#utility.yul\":9006:9053   */\n      mstore\n        /* \"#utility.yul\":9070:9201   */\n      tag_428\n        /* \"#utility.yul\":9196:9200   */\n      dup2\n        /* \"#utility.yul\":9070:9201   */\n      tag_302\n      jump\t// in\n    tag_428:\n        /* \"#utility.yul\":9062:9201   */\n      swap1\n      pop\n        /* \"#utility.yul\":8789:9208   */\n      swap2\n      swap1\n      pop\n      jump\t// out\n        /* \"#utility.yul\":9214:9386   */\n    tag_303:\n        /* \"#utility.yul\":9354:9378   */\n      0x696e76616c6964206d696e746572206164647265737300000000000000000000\n        /* \"#utility.yul\":9350:9351   */\n      0x00\n        /* \"#utility.yul\":9342:9348   */\n      dup3\n        /* \"#utility.yul\":9338:9352   */\n      add\n        /* \"#utility.yul\":9331:9379   */\n      mstore\n        /* \"#utility.yul\":9214:9386   */\n      pop\n      jump\t// out\n        /* \"#utility.yul\":9392:9758   */\n    tag_304:\n        /* \"#utility.yul\":9534:9537   */\n      0x00\n        /* \"#utility.yul\":9555:9622   */\n      tag_431\n        /* \"#utility.yul\":9619:9621   */\n      0x16\n        /* \"#utility.yul\":9614:9617   */\n      dup4\n        /* \"#utility.yul\":9555:9622   */\n      tag_277\n      jump\t// in\n    tag_431:\n        /* \"#utility.yul\":9548:9622   */\n      swap2\n      pop\n        /* \"#utility.yul\":9631:9724   */\n      tag_432\n        /* \"#utility.yul\":9720:9723   */\n      dup3\n        /* \"#utility.yul\":9631:9724   */\n      tag_303\n      jump\t// in\n    tag_432:\n        /* \"#utility.yul\":9749:9751   */\n      0x20\n        /* \"#utility.yul\":9744:9747   */\n      dup3\n        /* \"#utility.yul\":9740:9752   */\n      add\n        /* \"#utility.yul\":9733:9752   */\n      swap1\n      pop\n        /* \"#utility.yul\":9392:9758   */\n      swap2\n      swap1\n      pop\n      jump\t// out\n        /* \"#utility.yul\":9764:10183   */\n    tag_170:\n        /* \"#utility.yul\":9930:9934   */\n      0x00\n        /* \"#utility.yul\":9968:9970   */\n      0x20\n        /* \"#utility.yul\":9957:9966   */\n      dup3\n        /* \"#utility.yul\":9953:9971   */\n      add\n        /* \"#utility.yul\":9945:9971   */\n      swap1\n      pop\n        /* \"#utility.yul\":10017:10026   */\n      dup2\n        /* \"#utility.yul\":10011:10015   */\n      dup2\n        /* \"#utility.yul\":10007:10027   */\n      sub\n        /* \"#utility.yul\":10003:10004   */\n      0x00\n        /* \"#utility.yul\":9992:10001   */\n      dup4\n        /* \"#utility.yul\":9988:10005   */\n      add\n        /* \"#utility.yul\":9981:10028   */\n      mstore\n        /* \"#utility.yul\":10045:10176   */\n      tag_434\n        /* \"#utility.yul\":10171:10175   */\n      dup2\n        /* \"#utility.yul\":10045:10176   */\n      tag_304\n      jump\t// in\n    tag_434:\n        /* \"#utility.yul\":10037:10176   */\n      swap1\n      pop\n        /* \"#utility.yul\":9764:10183   */\n      swap2\n      swap1\n      pop\n      jump\t// out\n        /* \"#utility.yul\":10189:10358   */\n    tag_305:\n        /* \"#utility.yul\":10329:10350   */\n      0x6f6e6c792061646d696e2063616e206d696e7400000000000000000000000000\n        /* \"#utility.yul\":10325:10326   */\n      0x00\n        /* \"#utility.yul\":10317:10323   */\n      dup3\n        /* \"#utility.yul\":10313:10327   */\n      add\n        /* \"#utility.yul\":10306:10351   */\n      mstore\n        /* \"#utility.yul\":10189:10358   */\n      pop\n      jump\t// out\n        /* \"#utility.yul\":10364:10730   */\n    tag_306:\n        /* \"#utility.yul\":10506:10509   */\n      0x00\n        /* \"#utility.yul\":10527:10594   */\n      tag_437\n        /* \"#utility.yul\":10591:10593   */\n      0x13\n        /* \"#utility.yul\":10586:10589   */\n      dup4\n        /* \"#utility.yul\":10527:10594   */\n      tag_277\n      jump\t// in\n    tag_437:\n        /* \"#utility.yul\":10520:10594   */\n      swap2\n      pop\n        /* \"#utility.yul\":10603:10696   */\n      tag_438\n        /* \"#utility.yul\":10692:10695   */\n      dup3\n        /* \"#utility.yul\":10603:10696   */\n      tag_305\n      jump\t// in\n    tag_438:\n        /* \"#utility.yul\":10721:10723   */\n      0x20\n        /* \"#utility.yul\":10716:10719   */\n      dup3\n        /* \"#utility.yul\":10712:10724   */\n      add\n        /* \"#utility.yul\":10705:10724   */\n      swap1\n      pop\n        /* \"#utility.yul\":10364:10730   */\n      swap2\n      swap1\n      pop\n      jump\t// out\n        /* \"#utility.yul\":10736:11155   */\n    tag_184:\n        /* \"#utility.yul\":10902:10906   */\n      0x00\n        /* \"#utility.yul\":10940:10942   */\n      0x20\n        /* \"#utility.yul\":10929:10938   */\n      dup3\n        /* \"#utility.yul\":10925:10943   */\n      add\n        /* \"#utility.yul\":10917:10943   */\n      swap1\n      pop\n        /* \"#utility.yul\":10989:10998   */\n      dup2\n        /* \"#utility.yul\":10983:10987   */\n      dup2\n        /* \"#utility.yul\":10979:10999   */\n      sub\n        /* \"#utility.yul\":10975:10976   */\n      0x00\n        /* \"#utility.yul\":10964:10973   */\n      dup4\n        /* \"#utility.yul\":10960:10977   */\n      add\n        /* \"#utility.yul\":10953:11000   */\n      mstore\n        /* \"#utility.yul\":11017:11148   */\n      tag_440\n        /* \"#utility.yul\":11143:11147   */\n      dup2\n        /* \"#utility.yul\":11017:11148   */\n      tag_306\n      jump\t// in\n    tag_440:\n        /* \"#utility.yul\":11009:11148   */\n      swap1\n      pop\n        /* \"#utility.yul\":10736:11155   */\n      swap2\n      swap1\n      pop\n      jump\t// out\n        /* \"#utility.yul\":11161:11304   */\n    tag_307:\n        /* \"#utility.yul\":11218:11223   */\n      0x00\n        /* \"#utility.yul\":11249:11255   */\n      dup2\n        /* \"#utility.yul\":11243:11256   */\n      mload\n        /* \"#utility.yul\":11234:11256   */\n      swap1\n      pop\n        /* \"#utility.yul\":11265:11298   */\n      tag_442\n        /* \"#utility.yul\":11292:11297   */\n      dup2\n        /* \"#utility.yul\":11265:11298   */\n      tag_290\n      jump\t// in\n    tag_442:\n        /* \"#utility.yul\":11161:11304   */\n      swap3\n      swap2\n      pop\n      pop\n      jump\t// out\n        /* \"#utility.yul\":11310:11661   */\n    tag_188:\n        /* \"#utility.yul\":11380:11386   */\n      0x00\n        /* \"#utility.yul\":11429:11431   */\n      0x20\n        /* \"#utility.yul\":11417:11426   */\n      dup3\n        /* \"#utility.yul\":11408:11415   */\n      dup5\n        /* \"#utility.yul\":11404:11427   */\n      sub\n        /* \"#utility.yul\":11400:11432   */\n      slt\n        /* \"#utility.yul\":11397:11516   */\n      iszero\n      tag_444\n      jumpi\n        /* \"#utility.yul\":11435:11514   */\n      tag_445\n      tag_285\n      jump\t// in\n    tag_445:\n        /* \"#utility.yul\":11397:11516   */\n    tag_444:\n        /* \"#utility.yul\":11555:11556   */\n      0x00\n        /* \"#utility.yul\":11580:11644   */\n      tag_446\n        /* \"#utility.yul\":11636:11643   */\n      dup5\n        /* \"#utility.yul\":11627:11633   */\n      dup3\n        /* \"#utility.yul\":11616:11625   */\n      dup6\n        /* \"#utility.yul\":11612:11634   */\n      add\n        /* \"#utility.yul\":11580:11644   */\n      tag_307\n      jump\t// in\n    tag_446:\n        /* \"#utility.yul\":11570:11644   */\n      swap2\n      pop\n        /* \"#utility.yul\":11526:11654   */\n      pop\n        /* \"#utility.yul\":11310:11661   */\n      swap3\n      swap2\n      pop\n      pop\n      jump\t// out\n        /* \"#utility.yul\":11667:11844   */\n    tag_308:\n        /* \"#utility.yul\":11807:11836   */\n      0x616c7265616479206578636565646564206d617820737570706c790000000000\n        /* \"#utility.yul\":11803:11804   */\n      0x00\n        /* \"#utility.yul\":11795:11801   */\n      dup3\n        /* \"#utility.yul\":11791:11805   */\n      add\n        /* \"#utility.yul\":11784:11837   */\n      mstore\n        /* \"#utility.yul\":11667:11844   */\n      pop\n      jump\t// out\n        /* \"#utility.yul\":11850:12216   */\n    tag_309:\n        /* \"#utility.yul\":11992:11995   */\n      0x00\n        /* \"#utility.yul\":12013:12080   */\n      tag_449\n        /* \"#utility.yul\":12077:12079   */\n      0x1b\n        /* \"#utility.yul\":12072:12075   */\n      dup4\n        /* \"#utility.yul\":12013:12080   */\n      tag_277\n      jump\t// in\n    tag_449:\n        /* \"#utility.yul\":12006:12080   */\n      swap2\n      pop\n        /* \"#utility.yul\":12089:12182   */\n      tag_450\n        /* \"#utility.yul\":12178:12181   */\n      dup3\n        /* \"#utility.yul\":12089:12182   */\n      tag_308\n      jump\t// in\n    tag_450:\n        /* \"#utility.yul\":12207:12209   */\n      0x20\n        /* \"#utility.yul\":12202:12205   */\n      dup3\n        /* \"#utility.yul\":12198:12210   */\n      add\n        /* \"#utility.yul\":12191:12210   */\n      swap1\n      pop\n        /* \"#utility.yul\":11850:12216   */\n      swap2\n      swap1\n      pop\n      jump\t// out\n        /* \"#utility.yul\":12222:12641   */\n    tag_191:\n        /* \"#utility.yul\":12388:12392   */\n      0x00\n        /* \"#utility.yul\":12426:12428   */\n      0x20\n        /* \"#utility.yul\":12415:12424   */\n      dup3\n        /* \"#utility.yul\":12411:12429   */\n      add\n        /* \"#utility.yul\":12403:12429   */\n      swap1\n      pop\n        /* \"#utility.yul\":12475:12484   */\n      dup2\n        /* \"#utility.yul\":12469:12473   */\n      dup2\n        /* \"#utility.yul\":12465:12485   */\n      sub\n        /* \"#utility.yul\":12461:12462   */\n      0x00\n        /* \"#utility.yul\":12450:12459   */\n      dup4\n        /* \"#utility.yul\":12446:12463   */\n      add\n        /* \"#utility.yul\":12439:12486   */\n      mstore\n        /* \"#utility.yul\":12503:12634   */\n      tag_452\n        /* \"#utility.yul\":12629:12633   */\n      dup2\n        /* \"#utility.yul\":12503:12634   */\n      tag_309\n      jump\t// in\n    tag_452:\n        /* \"#utility.yul\":12495:12634   */\n      swap1\n      pop\n        /* \"#utility.yul\":12222:12641   */\n      swap2\n      swap1\n      pop\n      jump\t// out\n        /* \"#utility.yul\":12647:12826   */\n    tag_310:\n        /* \"#utility.yul\":12787:12818   */\n      0x6578636565646564206d617820737570706c79206f6620746f6b656e73000000\n        /* \"#utility.yul\":12783:12784   */\n      0x00\n        /* \"#utility.yul\":12775:12781   */\n      dup3\n        /* \"#utility.yul\":12771:12785   */\n      add\n        /* \"#utility.yul\":12764:12819   */\n      mstore\n        /* \"#utility.yul\":12647:12826   */\n      pop\n      jump\t// out\n        /* \"#utility.yul\":12832:13198   */\n    tag_311:\n        /* \"#utility.yul\":12974:12977   */\n      0x00\n        /* \"#utility.yul\":12995:13062   */\n      tag_455\n        /* \"#utility.yul\":13059:13061   */\n      0x1d\n        /* \"#utility.yul\":13054:13057   */\n      dup4\n        /* \"#utility.yul\":12995:13062   */\n      tag_277\n      jump\t// in\n    tag_455:\n        /* \"#utility.yul\":12988:13062   */\n      swap2\n      pop\n        /* \"#utility.yul\":13071:13164   */\n      tag_456\n        /* \"#utility.yul\":13160:13163   */\n      dup3\n        /* \"#utility.yul\":13071:13164   */\n      tag_310\n      jump\t// in\n    tag_456:\n        /* \"#utility.yul\":13189:13191   */\n      0x20\n        /* \"#utility.yul\":13184:13187   */\n      dup3\n        /* \"#utility.yul\":13180:13192   */\n      add\n        /* \"#utility.yul\":13173:13192   */\n      swap1\n      pop\n        /* \"#utility.yul\":12832:13198   */\n      swap2\n      swap1\n      pop\n      jump\t// out\n        /* \"#utility.yul\":13204:13623   */\n    tag_196:\n        /* \"#utility.yul\":13370:13374   */\n      0x00\n        /* \"#utility.yul\":13408:13410   */\n      0x20\n        /* \"#utility.yul\":13397:13406   */\n      dup3\n        /* \"#utility.yul\":13393:13411   */\n      add\n        /* \"#utility.yul\":13385:13411   */\n      swap1\n      pop\n        /* \"#utility.yul\":13457:13466   */\n      dup2\n        /* \"#utility.yul\":13451:13455   */\n      dup2\n        /* \"#utility.yul\":13447:13467   */\n      sub\n        /* \"#utility.yul\":13443:13444   */\n      0x00\n        /* \"#utility.yul\":13432:13441   */\n      dup4\n        /* \"#utility.yul\":13428:13445   */\n      add\n        /* \"#utility.yul\":13421:13468   */\n      mstore\n        /* \"#utility.yul\":13485:13616   */\n      tag_458\n        /* \"#utility.yul\":13611:13615   */\n      dup2\n        /* \"#utility.yul\":13485:13616   */\n      tag_311\n      jump\t// in\n    tag_458:\n        /* \"#utility.yul\":13477:13616   */\n      swap1\n      pop\n        /* \"#utility.yul\":13204:13623   */\n      swap2\n      swap1\n      pop\n      jump\t// out\n        /* \"#utility.yul\":13629:13853   */\n    tag_312:\n        /* \"#utility.yul\":13769:13803   */\n      0x45524332303a2064656372656173656420616c6c6f77616e63652062656c6f77\n        /* \"#utility.yul\":13765:13766   */\n      0x00\n        /* \"#utility.yul\":13757:13763   */\n      dup3\n        /* \"#utility.yul\":13753:13767   */\n      add\n        /* \"#utility.yul\":13746:13804   */\n      mstore\n        /* \"#utility.yul\":13838:13845   */\n      0x207a65726f000000000000000000000000000000000000000000000000000000\n        /* \"#utility.yul\":13833:13835   */\n      0x20\n        /* \"#utility.yul\":13825:13831   */\n      dup3\n        /* \"#utility.yul\":13821:13836   */\n      add\n        /* \"#utility.yul\":13814:13846   */\n      mstore\n        /* \"#utility.yul\":13629:13853   */\n      pop\n      jump\t// out\n        /* \"#utility.yul\":13859:14225   */\n    tag_313:\n        /* \"#utility.yul\":14001:14004   */\n      0x00\n        /* \"#utility.yul\":14022:14089   */\n      tag_461\n        /* \"#utility.yul\":14086:14088   */\n      0x25\n        /* \"#utility.yul\":14081:14084   */\n      dup4\n        /* \"#utility.yul\":14022:14089   */\n      tag_277\n      jump\t// in\n    tag_461:\n        /* \"#utility.yul\":14015:14089   */\n      swap2\n      pop\n        /* \"#utility.yul\":14098:14191   */\n      tag_462\n        /* \"#utility.yul\":14187:14190   */\n      dup3\n        /* \"#utility.yul\":14098:14191   */\n      tag_312\n      jump\t// in\n    tag_462:\n        /* \"#utility.yul\":14216:14218   */\n      0x40\n        /* \"#utility.yul\":14211:14214   */\n      dup3\n        /* \"#utility.yul\":14207:14219   */\n      add\n        /* \"#utility.yul\":14200:14219   */\n      swap1\n      pop\n        /* \"#utility.yul\":13859:14225   */\n      swap2\n      swap1\n      pop\n      jump\t// out\n        /* \"#utility.yul\":14231:14650   */\n    tag_204:\n        /* \"#utility.yul\":14397:14401   */\n      0x00\n        /* \"#utility.yul\":14435:14437   */\n      0x20\n        /* \"#utility.yul\":14424:14433   */\n      dup3\n        /* \"#utility.yul\":14420:14438   */\n      add\n        /* \"#utility.yul\":14412:14438   */\n      swap1\n      pop\n        /* \"#utility.yul\":14484:14493   */\n      dup2\n        /* \"#utility.yul\":14478:14482   */\n      dup2\n        /* \"#utility.yul\":14474:14494   */\n      sub\n        /* \"#utility.yul\":14470:14471   */\n      0x00\n        /* \"#utility.yul\":14459:14468   */\n      dup4\n        /* \"#utility.yul\":14455:14472   */\n      add\n        /* \"#utility.yul\":14448:14495   */\n      mstore\n        /* \"#utility.yul\":14512:14643   */\n      tag_464\n        /* \"#utility.yul\":14638:14642   */\n      dup2\n        /* \"#utility.yul\":14512:14643   */\n      tag_313\n      jump\t// in\n    tag_464:\n        /* \"#utility.yul\":14504:14643   */\n      swap1\n      pop\n        /* \"#utility.yul\":14231:14650   */\n      swap2\n      swap1\n      pop\n      jump\t// out\n        /* \"#utility.yul\":14656:14836   */\n    tag_314:\n        /* \"#utility.yul\":14796:14828   */\n      0x4f6e6c79206d696e7465722063616e206d616b6520746869732063616c6c0000\n        /* \"#utility.yul\":14792:14793   */\n      0x00\n        /* \"#utility.yul\":14784:14790   */\n      dup3\n        /* \"#utility.yul\":14780:14794   */\n      add\n        /* \"#utility.yul\":14773:14829   */\n      mstore\n        /* \"#utility.yul\":14656:14836   */\n      pop\n      jump\t// out\n        /* \"#utility.yul\":14842:15208   */\n    tag_315:\n        /* \"#utility.yul\":14984:14987   */\n      0x00\n        /* \"#utility.yul\":15005:15072   */\n      tag_467\n        /* \"#utility.yul\":15069:15071   */\n      0x1e\n        /* \"#utility.yul\":15064:15067   */\n      dup4\n        /* \"#utility.yul\":15005:15072   */\n      tag_277\n      jump\t// in\n    tag_467:\n        /* \"#utility.yul\":14998:15072   */\n      swap2\n      pop\n        /* \"#utility.yul\":15081:15174   */\n      tag_468\n        /* \"#utility.yul\":15170:15173   */\n      dup3\n        /* \"#utility.yul\":15081:15174   */\n      tag_314\n      jump\t// in\n    tag_468:\n        /* \"#utility.yul\":15199:15201   */\n      0x20\n        /* \"#utility.yul\":15194:15197   */\n      dup3\n        /* \"#utility.yul\":15190:15202   */\n      add\n        /* \"#utility.yul\":15183:15202   */\n      swap1\n      pop\n        /* \"#utility.yul\":14842:15208   */\n      swap2\n      swap1\n      pop\n      jump\t// out\n        /* \"#utility.yul\":15214:15633   */\n    tag_212:\n        /* \"#utility.yul\":15380:15384   */\n      0x00\n        /* \"#utility.yul\":15418:15420   */\n      0x20\n        /* \"#utility.yul\":15407:15416   */\n      dup3\n        /* \"#utility.yul\":15403:15421   */\n      add\n        /* \"#utility.yul\":15395:15421   */\n      swap1\n      pop\n        /* \"#utility.yul\":15467:15476   */\n      dup2\n        /* \"#utility.yul\":15461:15465   */\n      dup2\n        /* \"#utility.yul\":15457:15477   */\n      sub\n        /* \"#utility.yul\":15453:15454   */\n      0x00\n        /* \"#utility.yul\":15442:15451   */\n      dup4\n        /* \"#utility.yul\":15438:15455   */\n      add\n        /* \"#utility.yul\":15431:15478   */\n      mstore\n        /* \"#utility.yul\":15495:15626   */\n      tag_470\n        /* \"#utility.yul\":15621:15625   */\n      dup2\n        /* \"#utility.yul\":15495:15626   */\n      tag_315\n      jump\t// in\n    tag_470:\n        /* \"#utility.yul\":15487:15626   */\n      swap1\n      pop\n        /* \"#utility.yul\":15214:15633   */\n      swap2\n      swap1\n      pop\n      jump\t// out\n        /* \"#utility.yul\":15639:15863   */\n    tag_316:\n        /* \"#utility.yul\":15779:15813   */\n      0x4f6e6c792070656e64696e672061646d696e2063616e206d616b652074686973\n        /* \"#utility.yul\":15775:15776   */\n      0x00\n        /* \"#utility.yul\":15767:15773   */\n      dup3\n        /* \"#utility.yul\":15763:15777   */\n      add\n        /* \"#utility.yul\":15756:15814   */\n      mstore\n        /* \"#utility.yul\":15848:15855   */\n      0x2063616c6c000000000000000000000000000000000000000000000000000000\n        /* \"#utility.yul\":15843:15845   */\n      0x20\n        /* \"#utility.yul\":15835:15841   */\n      dup3\n        /* \"#utility.yul\":15831:15846   */\n      add\n        /* \"#utility.yul\":15824:15856   */\n      mstore\n        /* \"#utility.yul\":15639:15863   */\n      pop\n      jump\t// out\n        /* \"#utility.yul\":15869:16235   */\n    tag_317:\n        /* \"#utility.yul\":16011:16014   */\n      0x00\n        /* \"#utility.yul\":16032:16099   */\n      tag_473\n        /* \"#utility.yul\":16096:16098   */\n      0x25\n        /* \"#utility.yul\":16091:16094   */\n      dup4\n        /* \"#utility.yul\":16032:16099   */\n      tag_277\n      jump\t// in\n    tag_473:\n        /* \"#utility.yul\":16025:16099   */\n      swap2\n      pop\n        /* \"#utility.yul\":16108:16201   */\n      tag_474\n        /* \"#utility.yul\":16197:16200   */\n      dup3\n        /* \"#utility.yul\":16108:16201   */\n      tag_316\n      jump\t// in\n    tag_474:\n        /* \"#utility.yul\":16226:16228   */\n      0x40\n        /* \"#utility.yul\":16221:16224   */\n      dup3\n        /* \"#utility.yul\":16217:16229   */\n      add\n        /* \"#utility.yul\":16210:16229   */\n      swap1\n      pop\n        /* \"#utility.yul\":15869:16235   */\n      swap2\n      swap1\n      pop\n      jump\t// out\n        /* \"#utility.yul\":16241:16660   */\n    tag_227:\n        /* \"#utility.yul\":16407:16411   */\n      0x00\n        /* \"#utility.yul\":16445:16447   */\n      0x20\n        /* \"#utility.yul\":16434:16443   */\n      dup3\n        /* \"#utility.yul\":16430:16448   */\n      add\n        /* \"#utility.yul\":16422:16448   */\n      swap1\n      pop\n        /* \"#utility.yul\":16494:16503   */\n      dup2\n        /* \"#utility.yul\":16488:16492   */\n      dup2\n        /* \"#utility.yul\":16484:16504   */\n      sub\n        /* \"#utility.yul\":16480:16481   */\n      0x00\n        /* \"#utility.yul\":16469:16478   */\n      dup4\n        /* \"#utility.yul\":16465:16482   */\n      add\n        /* \"#utility.yul\":16458:16505   */\n      mstore\n        /* \"#utility.yul\":16522:16653   */\n      tag_476\n        /* \"#utility.yul\":16648:16652   */\n      dup2\n        /* \"#utility.yul\":16522:16653   */\n      tag_317\n      jump\t// in\n    tag_476:\n        /* \"#utility.yul\":16514:16653   */\n      swap1\n      pop\n        /* \"#utility.yul\":16241:16660   */\n      swap2\n      swap1\n      pop\n      jump\t// out\n        /* \"#utility.yul\":16666:16889   */\n    tag_318:\n        /* \"#utility.yul\":16806:16840   */\n      0x45524332303a20617070726f76652066726f6d20746865207a65726f20616464\n        /* \"#utility.yul\":16802:16803   */\n      0x00\n        /* \"#utility.yul\":16794:16800   */\n      dup3\n        /* \"#utility.yul\":16790:16804   */\n      add\n        /* \"#utility.yul\":16783:16841   */\n      mstore\n        /* \"#utility.yul\":16875:16881   */\n      0x7265737300000000000000000000000000000000000000000000000000000000\n        /* \"#utility.yul\":16870:16872   */\n      0x20\n        /* \"#utility.yul\":16862:16868   */\n      dup3\n        /* \"#utility.yul\":16858:16873   */\n      add\n        /* \"#utility.yul\":16851:16882   */\n      mstore\n        /* \"#utility.yul\":16666:16889   */\n      pop\n      jump\t// out\n        /* \"#utility.yul\":16895:17261   */\n    tag_319:\n        /* \"#utility.yul\":17037:17040   */\n      0x00\n        /* \"#utility.yul\":17058:17125   */\n      tag_479\n        /* \"#utility.yul\":17122:17124   */\n      0x24\n        /* \"#utility.yul\":17117:17120   */\n      dup4\n        /* \"#utility.yul\":17058:17125   */\n      tag_277\n      jump\t// in\n    tag_479:\n        /* \"#utility.yul\":17051:17125   */\n      swap2\n      pop\n        /* \"#utility.yul\":17134:17227   */\n      tag_480\n        /* \"#utility.yul\":17223:17226   */\n      dup3\n        /* \"#utility.yul\":17134:17227   */\n      tag_318\n      jump\t// in\n    tag_480:\n        /* \"#utility.yul\":17252:17254   */\n      0x40\n        /* \"#utility.yul\":17247:17250   */\n      dup3\n        /* \"#utility.yul\":17243:17255   */\n      add\n        /* \"#utility.yul\":17236:17255   */\n      swap1\n      pop\n        /* \"#utility.yul\":16895:17261   */\n      swap2\n      swap1\n      pop\n      jump\t// out\n        /* \"#utility.yul\":17267:17686   */\n    tag_234:\n        /* \"#utility.yul\":17433:17437   */\n      0x00\n        /* \"#utility.yul\":17471:17473   */\n      0x20\n        /* \"#utility.yul\":17460:17469   */\n      dup3\n        /* \"#utility.yul\":17456:17474   */\n      add\n        /* \"#utility.yul\":17448:17474   */\n      swap1\n      pop\n        /* \"#utility.yul\":17520:17529   */\n      dup2\n        /* \"#utility.yul\":17514:17518   */\n      dup2\n        /* \"#utility.yul\":17510:17530   */\n      sub\n        /* \"#utility.yul\":17506:17507   */\n      0x00\n        /* \"#utility.yul\":17495:17504   */\n      dup4\n        /* \"#utility.yul\":17491:17508   */\n      add\n        /* \"#utility.yul\":17484:17531   */\n      mstore\n        /* \"#utility.yul\":17548:17679   */\n      tag_482\n        /* \"#utility.yul\":17674:17678   */\n      dup2\n        /* \"#utility.yul\":17548:17679   */\n      tag_319\n      jump\t// in\n    tag_482:\n        /* \"#utility.yul\":17540:17679   */\n      swap1\n      pop\n        /* \"#utility.yul\":17267:17686   */\n      swap2\n      swap1\n      pop\n      jump\t// out\n        /* \"#utility.yul\":17692:17913   */\n    tag_320:\n        /* \"#utility.yul\":17832:17866   */\n      0x45524332303a20617070726f766520746f20746865207a65726f206164647265\n        /* \"#utility.yul\":17828:17829   */\n      0x00\n        /* \"#utility.yul\":17820:17826   */\n      dup3\n        /* \"#utility.yul\":17816:17830   */\n      add\n        /* \"#utility.yul\":17809:17867   */\n      mstore\n        /* \"#utility.yul\":17901:17905   */\n      0x7373000000000000000000000000000000000000000000000000000000000000\n        /* \"#utility.yul\":17896:17898   */\n      0x20\n        /* \"#utility.yul\":17888:17894   */\n      dup3\n        /* \"#utility.yul\":17884:17899   */\n      add\n        /* \"#utility.yul\":17877:17906   */\n      mstore\n        /* \"#utility.yul\":17692:17913   */\n      pop\n      jump\t// out\n        /* \"#utility.yul\":17919:18285   */\n    tag_321:\n        /* \"#utility.yul\":18061:18064   */\n      0x00\n        /* \"#utility.yul\":18082:18149   */\n      tag_485\n        /* \"#utility.yul\":18146:18148   */\n      0x22\n        /* \"#utility.yul\":18141:18144   */\n      dup4\n        /* \"#utility.yul\":18082:18149   */\n      tag_277\n      jump\t// in\n    tag_485:\n        /* \"#utility.yul\":18075:18149   */\n      swap2\n      pop\n        /* \"#utility.yul\":18158:18251   */\n      tag_486\n        /* \"#utility.yul\":18247:18250   */\n      dup3\n        /* \"#utility.yul\":18158:18251   */\n      tag_320\n      jump\t// in\n    tag_486:\n        /* \"#utility.yul\":18276:18278   */\n      0x40\n        /* \"#utility.yul\":18271:18274   */\n      dup3\n        /* \"#utility.yul\":18267:18279   */\n      add\n        /* \"#utility.yul\":18260:18279   */\n      swap1\n      pop\n        /* \"#utility.yul\":17919:18285   */\n      swap2\n      swap1\n      pop\n      jump\t// out\n        /* \"#utility.yul\":18291:18710   */\n    tag_237:\n        /* \"#utility.yul\":18457:18461   */\n      0x00\n        /* \"#utility.yul\":18495:18497   */\n      0x20\n        /* \"#utility.yul\":18484:18493   */\n      dup3\n        /* \"#utility.yul\":18480:18498   */\n      add\n        /* \"#utility.yul\":18472:18498   */\n      swap1\n      pop\n        /* \"#utility.yul\":18544:18553   */\n      dup2\n        /* \"#utility.yul\":18538:18542   */\n      dup2\n        /* \"#utility.yul\":18534:18554   */\n      sub\n        /* \"#utility.yul\":18530:18531   */\n      0x00\n        /* \"#utility.yul\":18519:18528   */\n      dup4\n        /* \"#utility.yul\":18515:18532   */\n      add\n        /* \"#utility.yul\":18508:18555   */\n      mstore\n        /* \"#utility.yul\":18572:18703   */\n      tag_488\n        /* \"#utility.yul\":18698:18702   */\n      dup2\n        /* \"#utility.yul\":18572:18703   */\n      tag_321\n      jump\t// in\n    tag_488:\n        /* \"#utility.yul\":18564:18703   */\n      swap1\n      pop\n        /* \"#utility.yul\":18291:18710   */\n      swap2\n      swap1\n      pop\n      jump\t// out\n        /* \"#utility.yul\":18716:18895   */\n    tag_322:\n        /* \"#utility.yul\":18856:18887   */\n      0x45524332303a20696e73756666696369656e7420616c6c6f77616e6365000000\n        /* \"#utility.yul\":18852:18853   */\n      0x00\n        /* \"#utility.yul\":18844:18850   */\n      dup3\n        /* \"#utility.yul\":18840:18854   */\n      add\n        /* \"#utility.yul\":18833:18888   */\n      mstore\n        /* \"#utility.yul\":18716:18895   */\n      pop\n      jump\t// out\n        /* \"#utility.yul\":18901:19267   */\n    tag_323:\n        /* \"#utility.yul\":19043:19046   */\n      0x00\n        /* \"#utility.yul\":19064:19131   */\n      tag_491\n        /* \"#utility.yul\":19128:19130   */\n      0x1d\n        /* \"#utility.yul\":19123:19126   */\n      dup4\n        /* \"#utility.yul\":19064:19131   */\n      tag_277\n      jump\t// in\n    tag_491:\n        /* \"#utility.yul\":19057:19131   */\n      swap2\n      pop\n        /* \"#utility.yul\":19140:19233   */\n      tag_492\n        /* \"#utility.yul\":19229:19232   */\n      dup3\n        /* \"#utility.yul\":19140:19233   */\n      tag_322\n      jump\t// in\n    tag_492:\n        /* \"#utility.yul\":19258:19260   */\n      0x20\n        /* \"#utility.yul\":19253:19256   */\n      dup3\n        /* \"#utility.yul\":19249:19261   */\n      add\n        /* \"#utility.yul\":19242:19261   */\n      swap1\n      pop\n        /* \"#utility.yul\":18901:19267   */\n      swap2\n      swap1\n      pop\n      jump\t// out\n        /* \"#utility.yul\":19273:19692   */\n    tag_244:\n        /* \"#utility.yul\":19439:19443   */\n      0x00\n        /* \"#utility.yul\":19477:19479   */\n      0x20\n        /* \"#utility.yul\":19466:19475   */\n      dup3\n        /* \"#utility.yul\":19462:19480   */\n      add\n        /* \"#utility.yul\":19454:19480   */\n      swap1\n      pop\n        /* \"#utility.yul\":19526:19535   */\n      dup2\n        /* \"#utility.yul\":19520:19524   */\n      dup2\n        /* \"#utility.yul\":19516:19536   */\n      sub\n        /* \"#utility.yul\":19512:19513   */\n      0x00\n        /* \"#utility.yul\":19501:19510   */\n      dup4\n        /* \"#utility.yul\":19497:19514   */\n      add\n        /* \"#utility.yul\":19490:19537   */\n      mstore\n        /* \"#utility.yul\":19554:19685   */\n      tag_494\n        /* \"#utility.yul\":19680:19684   */\n      dup2\n        /* \"#utility.yul\":19554:19685   */\n      tag_323\n      jump\t// in\n    tag_494:\n        /* \"#utility.yul\":19546:19685   */\n      swap1\n      pop\n        /* \"#utility.yul\":19273:19692   */\n      swap2\n      swap1\n      pop\n      jump\t// out\n        /* \"#utility.yul\":19698:19922   */\n    tag_324:\n        /* \"#utility.yul\":19838:19872   */\n      0x45524332303a207472616e736665722066726f6d20746865207a65726f206164\n        /* \"#utility.yul\":19834:19835   */\n      0x00\n        /* \"#utility.yul\":19826:19832   */\n      dup3\n        /* \"#utility.yul\":19822:19836   */\n      add\n        /* \"#utility.yul\":19815:19873   */\n      mstore\n        /* \"#utility.yul\":19907:19914   */\n      0x6472657373000000000000000000000000000000000000000000000000000000\n        /* \"#utility.yul\":19902:19904   */\n      0x20\n        /* \"#utility.yul\":19894:19900   */\n      dup3\n        /* \"#utility.yul\":19890:19905   */\n      add\n        /* \"#utility.yul\":19883:19915   */\n      mstore\n        /* \"#utility.yul\":19698:19922   */\n      pop\n      jump\t// out\n        /* \"#utility.yul\":19928:20294   */\n    tag_325:\n        /* \"#utility.yul\":20070:20073   */\n      0x00\n        /* \"#utility.yul\":20091:20158   */\n      tag_497\n        /* \"#utility.yul\":20155:20157   */\n      0x25\n        /* \"#utility.yul\":20150:20153   */\n      dup4\n        /* \"#utility.yul\":20091:20158   */\n      tag_277\n      jump\t// in\n    tag_497:\n        /* \"#utility.yul\":20084:20158   */\n      swap2\n      pop\n        /* \"#utility.yul\":20167:20260   */\n      tag_498\n        /* \"#utility.yul\":20256:20259   */\n      dup3\n        /* \"#utility.yul\":20167:20260   */\n      tag_324\n      jump\t// in\n    tag_498:\n        /* \"#utility.yul\":20285:20287   */\n      0x40\n        /* \"#utility.yul\":20280:20283   */\n      dup3\n        /* \"#utility.yul\":20276:20288   */\n      add\n        /* \"#utility.yul\":20269:20288   */\n      swap1\n      pop\n        /* \"#utility.yul\":19928:20294   */\n      swap2\n      swap1\n      pop\n      jump\t// out\n        /* \"#utility.yul\":20300:20719   */\n    tag_249:\n        /* \"#utility.yul\":20466:20470   */\n      0x00\n        /* \"#utility.yul\":20504:20506   */\n      0x20\n        /* \"#utility.yul\":20493:20502   */\n      dup3\n        /* \"#utility.yul\":20489:20507   */\n      add\n        /* \"#utility.yul\":20481:20507   */\n      swap1\n      pop\n        /* \"#utility.yul\":20553:20562   */\n      dup2\n        /* \"#utility.yul\":20547:20551   */\n      dup2\n        /* \"#utility.yul\":20543:20563   */\n      sub\n        /* \"#utility.yul\":20539:20540   */\n      0x00\n        /* \"#utility.yul\":20528:20537   */\n      dup4\n        /* \"#utility.yul\":20524:20541   */\n      add\n        /* \"#utility.yul\":20517:20564   */\n      mstore\n        /* \"#utility.yul\":20581:20712   */\n      tag_500\n        /* \"#utility.yul\":20707:20711   */\n      dup2\n        /* \"#utility.yul\":20581:20712   */\n      tag_325\n      jump\t// in\n    tag_500:\n        /* \"#utility.yul\":20573:20712   */\n      swap1\n      pop\n        /* \"#utility.yul\":20300:20719   */\n      swap2\n      swap1\n      pop\n      jump\t// out\n        /* \"#utility.yul\":20725:20947   */\n    tag_326:\n        /* \"#utility.yul\":20865:20899   */\n      0x45524332303a207472616e7366657220746f20746865207a65726f2061646472\n        /* \"#utility.yul\":20861:20862   */\n      0x00\n        /* \"#utility.yul\":20853:20859   */\n      dup3\n        /* \"#utility.yul\":20849:20863   */\n      add\n        /* \"#utility.yul\":20842:20900   */\n      mstore\n        /* \"#utility.yul\":20934:20939   */\n      0x6573730000000000000000000000000000000000000000000000000000000000\n        /* \"#utility.yul\":20929:20931   */\n      0x20\n        /* \"#utility.yul\":20921:20927   */\n      dup3\n        /* \"#utility.yul\":20917:20932   */\n      add\n        /* \"#utility.yul\":20910:20940   */\n      mstore\n        /* \"#utility.yul\":20725:20947   */\n      pop\n      jump\t// out\n        /* \"#utility.yul\":20953:21319   */\n    tag_327:\n        /* \"#utility.yul\":21095:21098   */\n      0x00\n        /* \"#utility.yul\":21116:21183   */\n      tag_503\n        /* \"#utility.yul\":21180:21182   */\n      0x23\n        /* \"#utility.yul\":21175:21178   */\n      dup4\n        /* \"#utility.yul\":21116:21183   */\n      tag_277\n      jump\t// in\n    tag_503:\n        /* \"#utility.yul\":21109:21183   */\n      swap2\n      pop\n        /* \"#utility.yul\":21192:21285   */\n      tag_504\n        /* \"#utility.yul\":21281:21284   */\n      dup3\n        /* \"#utility.yul\":21192:21285   */\n      tag_326\n      jump\t// in\n    tag_504:\n        /* \"#utility.yul\":21310:21312   */\n      0x40\n        /* \"#utility.yul\":21305:21308   */\n      dup3\n        /* \"#utility.yul\":21301:21313   */\n      add\n        /* \"#utility.yul\":21294:21313   */\n      swap1\n      pop\n        /* \"#utility.yul\":20953:21319   */\n      swap2\n      swap1\n      pop\n      jump\t// out\n        /* \"#utility.yul\":21325:21744   */\n    tag_252:\n        /* \"#utility.yul\":21491:21495   */\n      0x00\n        /* \"#utility.yul\":21529:21531   */\n      0x20\n        /* \"#utility.yul\":21518:21527   */\n      dup3\n        /* \"#utility.yul\":21514:21532   */\n      add\n        /* \"#utility.yul\":21506:21532   */\n      swap1\n      pop\n        /* \"#utility.yul\":21578:21587   */\n      dup2\n        /* \"#utility.yul\":21572:21576   */\n      dup2\n        /* \"#utility.yul\":21568:21588   */\n      sub\n        /* \"#utility.yul\":21564:21565   */\n      0x00\n        /* \"#utility.yul\":21553:21562   */\n      dup4\n        /* \"#utility.yul\":21549:21566   */\n      add\n        /* \"#utility.yul\":21542:21589   */\n      mstore\n        /* \"#utility.yul\":21606:21737   */\n      tag_506\n        /* \"#utility.yul\":21732:21736   */\n      dup2\n        /* \"#utility.yul\":21606:21737   */\n      tag_327\n      jump\t// in\n    tag_506:\n        /* \"#utility.yul\":21598:21737   */\n      swap1\n      pop\n        /* \"#utility.yul\":21325:21744   */\n      swap2\n      swap1\n      pop\n      jump\t// out\n        /* \"#utility.yul\":21750:21975   */\n    tag_328:\n        /* \"#utility.yul\":21890:21924   */\n      0x45524332303a207472616e7366657220616d6f756e7420657863656564732062\n        /* \"#utility.yul\":21886:21887   */\n      0x00\n        /* \"#utility.yul\":21878:21884   */\n      dup3\n        /* \"#utility.yul\":21874:21888   */\n      add\n        /* \"#utility.yul\":21867:21925   */\n      mstore\n        /* \"#utility.yul\":21959:21967   */\n      0x616c616e63650000000000000000000000000000000000000000000000000000\n        /* \"#utility.yul\":21954:21956   */\n      0x20\n        /* \"#utility.yul\":21946:21952   */\n      dup3\n        /* \"#utility.yul\":21942:21957   */\n      add\n        /* \"#utility.yul\":21935:21968   */\n      mstore\n        /* \"#utility.yul\":21750:21975   */\n      pop\n      jump\t// out\n        /* \"#utility.yul\":21981:22347   */\n    tag_329:\n        /* \"#utility.yul\":22123:22126   */\n      0x00\n        /* \"#utility.yul\":22144:22211   */\n      tag_509\n        /* \"#utility.yul\":22208:22210   */\n      0x26\n        /* \"#utility.yul\":22203:22206   */\n      dup4\n        /* \"#utility.yul\":22144:22211   */\n      tag_277\n      jump\t// in\n    tag_509:\n        /* \"#utility.yul\":22137:22211   */\n      swap2\n      pop\n        /* \"#utility.yul\":22220:22313   */\n      tag_510\n        /* \"#utility.yul\":22309:22312   */\n      dup3\n        /* \"#utility.yul\":22220:22313   */\n      tag_328\n      jump\t// in\n    tag_510:\n        /* \"#utility.yul\":22338:22340   */\n      0x40\n        /* \"#utility.yul\":22333:22336   */\n      dup3\n        /* \"#utility.yul\":22329:22341   */\n      add\n        /* \"#utility.yul\":22322:22341   */\n      swap1\n      pop\n        /* \"#utility.yul\":21981:22347   */\n      swap2\n      swap1\n      pop\n      jump\t// out\n        /* \"#utility.yul\":22353:22772   */\n    tag_257:\n        /* \"#utility.yul\":22519:22523   */\n      0x00\n        /* \"#utility.yul\":22557:22559   */\n      0x20\n        /* \"#utility.yul\":22546:22555   */\n      dup3\n        /* \"#utility.yul\":22542:22560   */\n      add\n        /* \"#utility.yul\":22534:22560   */\n      swap1\n      pop\n        /* \"#utility.yul\":22606:22615   */\n      dup2\n        /* \"#utility.yul\":22600:22604   */\n      dup2\n        /* \"#utility.yul\":22596:22616   */\n      sub\n        /* \"#utility.yul\":22592:22593   */\n      0x00\n        /* \"#utility.yul\":22581:22590   */\n      dup4\n        /* \"#utility.yul\":22577:22594   */\n      add\n        /* \"#utility.yul\":22570:22617   */\n      mstore\n        /* \"#utility.yul\":22634:22765   */\n      tag_512\n        /* \"#utility.yul\":22760:22764   */\n      dup2\n        /* \"#utility.yul\":22634:22765   */\n      tag_329\n      jump\t// in\n    tag_512:\n        /* \"#utility.yul\":22626:22765   */\n      swap1\n      pop\n        /* \"#utility.yul\":22353:22772   */\n      swap2\n      swap1\n      pop\n      jump\t// out\n        /* \"#utility.yul\":22778:22959   */\n    tag_330:\n        /* \"#utility.yul\":22918:22951   */\n      0x45524332303a206d696e7420746f20746865207a65726f206164647265737300\n        /* \"#utility.yul\":22914:22915   */\n      0x00\n        /* \"#utility.yul\":22906:22912   */\n      dup3\n        /* \"#utility.yul\":22902:22916   */\n      add\n        /* \"#utility.yul\":22895:22952   */\n      mstore\n        /* \"#utility.yul\":22778:22959   */\n      pop\n      jump\t// out\n        /* \"#utility.yul\":22965:23331   */\n    tag_331:\n        /* \"#utility.yul\":23107:23110   */\n      0x00\n        /* \"#utility.yul\":23128:23195   */\n      tag_515\n        /* \"#utility.yul\":23192:23194   */\n      0x1f\n        /* \"#utility.yul\":23187:23190   */\n      dup4\n        /* \"#utility.yul\":23128:23195   */\n      tag_277\n      jump\t// in\n    tag_515:\n        /* \"#utility.yul\":23121:23195   */\n      swap2\n      pop\n        /* \"#utility.yul\":23204:23297   */\n      tag_516\n        /* \"#utility.yul\":23293:23296   */\n      dup3\n        /* \"#utility.yul\":23204:23297   */\n      tag_330\n      jump\t// in\n    tag_516:\n        /* \"#utility.yul\":23322:23324   */\n      0x20\n        /* \"#utility.yul\":23317:23320   */\n      dup3\n        /* \"#utility.yul\":23313:23325   */\n      add\n        /* \"#utility.yul\":23306:23325   */\n      swap1\n      pop\n        /* \"#utility.yul\":22965:23331   */\n      swap2\n      swap1\n      pop\n      jump\t// out\n        /* \"#utility.yul\":23337:23756   */\n    tag_266:\n        /* \"#utility.yul\":23503:23507   */\n      0x00\n        /* \"#utility.yul\":23541:23543   */\n      0x20\n        /* \"#utility.yul\":23530:23539   */\n      dup3\n        /* \"#utility.yul\":23526:23544   */\n      add\n        /* \"#utility.yul\":23518:23544   */\n      swap1\n      pop\n        /* \"#utility.yul\":23590:23599   */\n      dup2\n        /* \"#utility.yul\":23584:23588   */\n      dup2\n        /* \"#utility.yul\":23580:23600   */\n      sub\n        /* \"#utility.yul\":23576:23577   */\n      0x00\n        /* \"#utility.yul\":23565:23574   */\n      dup4\n        /* \"#utility.yul\":23561:23578   */\n      add\n        /* \"#utility.yul\":23554:23601   */\n      mstore\n        /* \"#utility.yul\":23618:23749   */\n      tag_518\n        /* \"#utility.yul\":23744:23748   */\n      dup2\n        /* \"#utility.yul\":23618:23749   */\n      tag_331\n      jump\t// in\n    tag_518:\n        /* \"#utility.yul\":23610:23749   */\n      swap1\n      pop\n        /* \"#utility.yul\":23337:23756   */\n      swap2\n      swap1\n      pop\n      jump\t// out\n        /* \"#utility.yul\":23762:23956   */\n    tag_273:\n        /* \"#utility.yul\":23802:23806   */\n      0x00\n        /* \"#utility.yul\":23822:23842   */\n      tag_520\n        /* \"#utility.yul\":23840:23841   */\n      dup3\n        /* \"#utility.yul\":23822:23842   */\n      tag_289\n      jump\t// in\n    tag_520:\n        /* \"#utility.yul\":23817:23842   */\n      swap2\n      pop\n        /* \"#utility.yul\":23856:23876   */\n      tag_521\n        /* \"#utility.yul\":23874:23875   */\n      dup4\n        /* \"#utility.yul\":23856:23876   */\n      tag_289\n      jump\t// in\n    tag_521:\n        /* \"#utility.yul\":23851:23876   */\n      swap3\n      pop\n        /* \"#utility.yul\":23900:23901   */\n      dup3\n        /* \"#utility.yul\":23897:23898   */\n      dup3\n        /* \"#utility.yul\":23893:23902   */\n      sub\n        /* \"#utility.yul\":23885:23902   */\n      swap1\n      pop\n        /* \"#utility.yul\":23924:23925   */\n      dup2\n        /* \"#utility.yul\":23918:23922   */\n      dup2\n        /* \"#utility.yul\":23915:23926   */\n      gt\n        /* \"#utility.yul\":23912:23949   */\n      iszero\n      tag_522\n      jumpi\n        /* \"#utility.yul\":23929:23947   */\n      tag_523\n      tag_300\n      jump\t// in\n    tag_523:\n        /* \"#utility.yul\":23912:23949   */\n    tag_522:\n        /* \"#utility.yul\":23762:23956   */\n      swap3\n      swap2\n      pop\n      pop\n      jump\t// out\n\n    auxdata: 0xa264697066735822122087fb5fe3fadef3310681575b7a8ea04f21e32e324a0723135f9a602def82118e64736f6c63430008130033\n}\n",
				"bytecode": {
					"linkReferences": {},
					"object": "60c06040523480156200001157600080fd5b50604051620039aa380380620039aa8339818101604052810190620000379190620008fa565b888881600390816200004a919062000c58565b5080600490816200005c919062000c58565b505050600073ffffffffffffffffffffffffffffffffffffffff168173ffffffffffffffffffffffffffffffffffffffff1603620000d1576040517f08c379a0000000000000000000000000000000000000000000000000000000008152600401620000c89062000da0565b60405180910390fd5b600073ffffffffffffffffffffffffffffffffffffffff168573ffffffffffffffffffffffffffffffffffffffff160362000143576040517f08c379a00000000000000000000000000000000000000000000000000000000081526004016200013a9062000e12565b60405180910390fd5b600073ffffffffffffffffffffffffffffffffffffffff168373ffffffffffffffffffffffffffffffffffffffff1603620001b5576040517f08c379a0000000000000000000000000000000000000000000000000000000008152600401620001ac9062000e84565b60405180910390fd5b60008760ff1603620001fe576040517f08c379a0000000000000000000000000000000000000000000000000000000008152600401620001f59062000ef6565b60405180910390fd5b6000860362000244576040517f08c379a00000000000000000000000000000000000000000000000000000000081526004016200023b9062000f68565b60405180910390fd5b6b033b2e3c9fd0803ce800000086111562000296576040517f08c379a00000000000000000000000000000000000000000000000000000000081526004016200028d9062000fda565b60405180910390fd5b858210620002db576040517f08c379a0000000000000000000000000000000000000000000000000000000008152600401620002d2906200104c565b60405180910390fd5b8660ff1660808160ff16815250508560a0818152505084600660006101000a81548173ffffffffffffffffffffffffffffffffffffffff021916908373ffffffffffffffffffffffffffffffffffffffff1602179055508360058190555080600760006101000a81548173ffffffffffffffffffffffffffffffffffffffff021916908373ffffffffffffffffffffffffffffffffffffffff1602179055506200038c83836200051260201b60201c565b600660009054906101000a900473ffffffffffffffffffffffffffffffffffffffff1673ffffffffffffffffffffffffffffffffffffffff16600960009054906101000a900473ffffffffffffffffffffffffffffffffffffffff1673ffffffffffffffffffffffffffffffffffffffff167ffb80f39493422136408edd986f7ca83c10534204422dd1dfebb055de4ef0fd5360405160405180910390a3600760009054906101000a900473ffffffffffffffffffffffffffffffffffffffff1673ffffffffffffffffffffffffffffffffffffffff16600b60009054906101000a900473ffffffffffffffffffffffffffffffffffffffff1673ffffffffffffffffffffffffffffffffffffffff167fcd6ba6b7da89e039d53b5d981527a893755342bb9d8e5c2f61f6638f1fb5192b60405160405180910390a37fd65d781db82f0bd55f732ea1b96f4c6565750df815c18a70962cd8405274e243600554604051620004fb91906200107f565b60405180910390a150505050505050505062001178565b600073ffffffffffffffffffffffffffffffffffffffff168273ffffffffffffffffffffffffffffffffffffffff160362000584576040517f08c379a00000000000000000000000000000000000000000000000000000000081526004016200057b90620010ec565b60405180910390fd5b62000598600083836200067f60201b60201c565b8060026000828254620005ac91906200113d565b92505081905550806000808473ffffffffffffffffffffffffffffffffffffffff1673ffffffffffffffffffffffffffffffffffffffff168152602001908152602001600020600082825401925050819055508173ffffffffffffffffffffffffffffffffffffffff16600073ffffffffffffffffffffffffffffffffffffffff167fddf252ad1be2c89b69c2b068fc378daa952ba7f163c4a11628f55a4df523b3ef836040516200065f91906200107f565b60405180910390a36200067b600083836200068460201b60201c565b5050565b505050565b505050565b6000604051905090565b600080fd5b600080fd5b600080fd5b600080fd5b6000601f19601f8301169050919050565b7f4e487b7100000000000000000000000000000000000000000000000000000000600052604160045260246000fd5b620006f282620006a7565b810181811067ffffffffffffffff82111715620007145762000713620006b8565b5b80604052505050565b60006200072962000689565b9050620007378282620006e7565b919050565b600067ffffffffffffffff8211156200075a5762000759620006b8565b5b6200076582620006a7565b9050602081019050919050565b60005b838110156200079257808201518184015260208101905062000775565b60008484015250505050565b6000620007b5620007af846200073c565b6200071d565b905082815260208101848484011115620007d457620007d3620006a2565b5b620007e184828562000772565b509392505050565b600082601f8301126200080157620008006200069d565b5b8151620008138482602086016200079e565b91505092915050565b600060ff82169050919050565b62000834816200081c565b81146200084057600080fd5b50565b600081519050620008548162000829565b92915050565b6000819050919050565b6200086f816200085a565b81146200087b57600080fd5b50565b6000815190506200088f8162000864565b92915050565b600073ffffffffffffffffffffffffffffffffffffffff82169050919050565b6000620008c28262000895565b9050919050565b620008d481620008b5565b8114620008e057600080fd5b50565b600081519050620008f481620008c9565b92915050565b60008060008060008060008060006101208a8c03121562000920576200091f62000693565b5b60008a015167ffffffffffffffff81111562000941576200094062000698565b5b6200094f8c828d01620007e9565b99505060208a015167ffffffffffffffff81111562000973576200097262000698565b5b620009818c828d01620007e9565b9850506040620009948c828d0162000843565b9750506060620009a78c828d016200087e565b9650506080620009ba8c828d01620008e3565b95505060a0620009cd8c828d016200087e565b94505060c0620009e08c828d01620008e3565b93505060e0620009f38c828d016200087e565b92505061010062000a078c828d01620008e3565b9150509295985092959850929598565b600081519050919050565b7f4e487b7100000000000000000000000000000000000000000000000000000000600052602260045260246000fd5b6000600282049050600182168062000a6a57607f821691505b60208210810362000a805762000a7f62000a22565b5b50919050565b60008190508160005260206000209050919050565b60006020601f8301049050919050565b600082821b905092915050565b60006008830262000aea7fffffffffffffffffffffffffffffffffffffffffffffffffffffffffffffffff8262000aab565b62000af6868362000aab565b95508019841693508086168417925050509392505050565b6000819050919050565b600062000b3962000b3362000b2d846200085a565b62000b0e565b6200085a565b9050919050565b6000819050919050565b62000b558362000b18565b62000b6d62000b648262000b40565b84845462000ab8565b825550505050565b600090565b62000b8462000b75565b62000b9181848462000b4a565b505050565b5b8181101562000bb95762000bad60008262000b7a565b60018101905062000b97565b5050565b601f82111562000c085762000bd28162000a86565b62000bdd8462000a9b565b8101602085101562000bed578190505b62000c0562000bfc8562000a9b565b83018262000b96565b50505b505050565b600082821c905092915050565b600062000c2d6000198460080262000c0d565b1980831691505092915050565b600062000c48838362000c1a565b9150826002028217905092915050565b62000c638262000a17565b67ffffffffffffffff81111562000c7f5762000c7e620006b8565b5b62000c8b825462000a51565b62000c9882828562000bbd565b600060209050601f83116001811462000cd0576000841562000cbb578287015190505b62000cc7858262000c3a565b86555062000d37565b601f19841662000ce08662000a86565b60005b8281101562000d0a5784890151825560018201915060208501945060208101905062000ce3565b8683101562000d2a578489015162000d26601f89168262000c1a565b8355505b6001600288020188555050505b505050505050565b600082825260208201905092915050565b7f696e76616c69642061646d696e20616464726573730000000000000000000000600082015250565b600062000d8860158362000d3f565b915062000d958262000d50565b602082019050919050565b6000602082019050818103600083015262000dbb8162000d79565b9050919050565b7f696e76616c6964206d696e7465725f2061646472657373000000000000000000600082015250565b600062000dfa60178362000d3f565b915062000e078262000dc2565b602082019050919050565b6000602082019050818103600083015262000e2d8162000deb565b9050919050565b7f696e76616c696420696e6974446973747257616c6c65745f2061646472657373600082015250565b600062000e6c60208362000d3f565b915062000e798262000e34565b602082019050919050565b6000602082019050818103600083015262000e9f8162000e5d565b9050919050565b7f696e76616c696420646563696d616c7300000000000000000000000000000000600082015250565b600062000ede60108362000d3f565b915062000eeb8262000ea6565b602082019050919050565b6000602082019050818103600083015262000f118162000ecf565b9050919050565b7f696e76616c6964206d6178537570706c79000000000000000000000000000000600082015250565b600062000f5060118362000d3f565b915062000f5d8262000f18565b602082019050919050565b6000602082019050818103600083015262000f838162000f41565b9050919050565b7f6d6178537570706c7920746f6f206c6172676500000000000000000000000000600082015250565b600062000fc260138362000d3f565b915062000fcf8262000f8a565b602082019050919050565b6000602082019050818103600083015262000ff58162000fb3565b9050919050565b7f496e697469616c20737570706c7920746f6f206c617267650000000000000000600082015250565b60006200103460188362000d3f565b9150620010418262000ffc565b602082019050919050565b60006020820190508181036000830152620010678162001025565b9050919050565b62001079816200085a565b82525050565b60006020820190506200109660008301846200106e565b92915050565b7f45524332303a206d696e7420746f20746865207a65726f206164647265737300600082015250565b6000620010d4601f8362000d3f565b9150620010e1826200109c565b602082019050919050565b600060208201905081810360008301526200110781620010c5565b9050919050565b7f4e487b7100000000000000000000000000000000000000000000000000000000600052601160045260246000fd5b60006200114a826200085a565b915062001157836200085a565b92508282019050808211156200117257620011716200110e565b5b92915050565b60805160a0516127e9620011c160003960008181610eb901528181610f1c0152818161119c015281816111cd0152818161120b01526114490152600061074101526127e96000f3fe608060405234801561001057600080fd5b50600436106101735760003560e01c80634dd18bf5116100de578063a457c2d711610097578063d3b2f59811610071578063d3b2f59814610464578063d5abeb011461046e578063dd62ed3e1461048c578063f851a440146104bc57610173565b8063a457c2d7146103d4578063a9059cbb14610404578063ab8e786f1461043457610173565b80634dd18bf5146103145780634eb03f6e1461033057806370a082311461034c578063909d6cb41461037c57806395d89b411461039a578063a0712d68146103b857610173565b806323b872dd1161013057806323b872dd1461023e57806324e770d01461026e578063267822471461028c57806329fb7ef6146102aa578063313ce567146102c657806339509351146102e457610173565b806306fdde03146101785780630754617214610196578063095ea7b3146101b45780630b064976146101e457806318160ddd146102025780632147425f14610220575b600080fd5b6101806104da565b60405161018d9190611c07565b60405180910390f35b61019e61056c565b6040516101ab9190611c6a565b60405180910390f35b6101ce60048036038101906101c99190611cec565b610592565b6040516101db9190611d47565b60405180910390f35b6101ec6105b5565b6040516101f99190611c6a565b60405180910390f35b61020a6105db565b6040516102179190611d71565b60405180910390f35b6102286105e5565b6040516102359190611c6a565b60405180910390f35b61025860048036038101906102539190611d8c565b61060b565b6040516102659190611d47565b60405180910390f35b61027661063a565b6040516102839190611d71565b60405180910390f35b610294610644565b6040516102a19190611c6a565b60405180910390f35b6102c460048036038101906102bf9190611ddf565b61066a565b005b6102ce61073d565b6040516102db9190611e28565b60405180910390f35b6102fe60048036038101906102f99190611cec565b610765565b60405161030b9190611d47565b60405180910390f35b61032e60048036038101906103299190611e43565b61079c565b005b61034a60048036038101906103459190611e43565b6109e0565b005b61036660048036038101906103619190611e43565b610c24565b6040516103739190611d71565b60405180910390f35b610384610c6c565b6040516103919190611c6a565b60405180910390f35b6103a2610c92565b6040516103af9190611c07565b60405180910390f35b6103d260048036038101906103cd9190611ddf565b610d24565b005b6103ee60048036038101906103e99190611cec565b610fbe565b6040516103fb9190611d47565b60405180910390f35b61041e60048036038101906104199190611cec565b611035565b60405161042b9190611d47565b60405180910390f35b61044e60048036038101906104499190611cec565b611058565b60405161045b9190611d47565b60405180910390f35b61046c611251565b005b610476611447565b6040516104839190611d71565b60405180910390f35b6104a660048036038101906104a19190611e70565b61146b565b6040516104b39190611d71565b60405180910390f35b6104c46114f2565b6040516104d19190611c6a565b60405180910390f35b6060600380546104e990611edf565b80601f016020809104026020016040519081016040528092919081815260200182805461051590611edf565b80156105625780601f1061053757610100808354040283529160200191610562565b820191906000526020600020905b81548152906001019060200180831161054557829003601f168201915b5050505050905090565b600660009054906101000a900473ffffffffffffffffffffffffffffffffffffffff1681565b60008061059d611518565b90506105aa818585611520565b600191505092915050565b600b60009054906101000a900473ffffffffffffffffffffffffffffffffffffffff1681565b6000600254905090565b600960009054906101000a900473ffffffffffffffffffffffffffffffffffffffff1681565b600080610616611518565b90506106238582856116e9565b61062e858585611775565b60019150509392505050565b6000600554905090565b600860009054906101000a900473ffffffffffffffffffffffffffffffffffffffff1681565b600760009054906101000a900473ffffffffffffffffffffffffffffffffffffffff1673ffffffffffffffffffffffffffffffffffffffff163373ffffffffffffffffffffffffffffffffffffffff16146106fa576040517f08c379a00000000000000000000000000000000000000000000000000000000081526004016106f190611f5c565b60405180910390fd5b806005819055507fd65d781db82f0bd55f732ea1b96f4c6565750df815c18a70962cd8405274e2436005546040516107329190611d71565b60405180910390a150565b60007f0000000000000000000000000000000000000000000000000000000000000000905090565b600080610770611518565b9050610791818585610782858961146b565b61078c9190611fab565b611520565b600191505092915050565b600760009054906101000a900473ffffffffffffffffffffffffffffffffffffffff1673ffffffffffffffffffffffffffffffffffffffff163373ffffffffffffffffffffffffffffffffffffffff161461082c576040517f08c379a000000000000000000000000000000000000000000000000000000000815260040161082390611f5c565b60405180910390fd5b600073ffffffffffffffffffffffffffffffffffffffff168173ffffffffffffffffffffffffffffffffffffffff160361089b576040517f08c379a00000000000000000000000000000000000000000000000000000000081526004016108929061202b565b60405180910390fd5b600860009054906101000a900473ffffffffffffffffffffffffffffffffffffffff16600a60006101000a81548173ffffffffffffffffffffffffffffffffffffffff021916908373ffffffffffffffffffffffffffffffffffffffff16021790555080600860006101000a81548173ffffffffffffffffffffffffffffffffffffffff021916908373ffffffffffffffffffffffffffffffffffffffff160217905550600860009054906101000a900473ffffffffffffffffffffffffffffffffffffffff1673ffffffffffffffffffffffffffffffffffffffff16600a60009054906101000a900473ffffffffffffffffffffffffffffffffffffffff1673ffffffffffffffffffffffffffffffffffffffff167fed1a3b5dea5773c7660d05cc9884b43f5e8e0b581713e873f013560558890f4960405160405180910390a350565b600760009054906101000a900473ffffffffffffffffffffffffffffffffffffffff1673ffffffffffffffffffffffffffffffffffffffff163373ffffffffffffffffffffffffffffffffffffffff1614610a70576040517f08c379a0000000000000000000000000000000000000000000000000000000008152600401610a6790611f5c565b60405180910390fd5b600073ffffffffffffffffffffffffffffffffffffffff168173ffffffffffffffffffffffffffffffffffffffff1603610adf576040517f08c379a0000000000000000000000000000000000000000000000000000000008152600401610ad690612097565b60405180910390fd5b600660009054906101000a900473ffffffffffffffffffffffffffffffffffffffff16600960006101000a81548173ffffffffffffffffffffffffffffffffffffffff021916908373ffffffffffffffffffffffffffffffffffffffff16021790555080600660006101000a81548173ffffffffffffffffffffffffffffffffffffffff021916908373ffffffffffffffffffffffffffffffffffffffff160217905550600660009054906101000a900473ffffffffffffffffffffffffffffffffffffffff1673ffffffffffffffffffffffffffffffffffffffff16600960009054906101000a900473ffffffffffffffffffffffffffffffffffffffff1673ffffffffffffffffffffffffffffffffffffffff167ffb80f39493422136408edd986f7ca83c10534204422dd1dfebb055de4ef0fd5360405160405180910390a350565b60008060008373ffffffffffffffffffffffffffffffffffffffff1673ffffffffffffffffffffffffffffffffffffffff168152602001908152602001600020549050919050565b600a60009054906101000a900473ffffffffffffffffffffffffffffffffffffffff1681565b606060048054610ca190611edf565b80601f0160208091040260200160405190810160405280929190818152602001828054610ccd90611edf565b8015610d1a5780601f10610cef57610100808354040283529160200191610d1a565b820191906000526020600020905b815481529060010190602001808311610cfd57829003601f168201915b5050505050905090565b600760009054906101000a900473ffffffffffffffffffffffffffffffffffffffff1673ffffffffffffffffffffffffffffffffffffffff163373ffffffffffffffffffffffffffffffffffffffff1614610db4576040517f08c379a0000000000000000000000000000000000000000000000000000000008152600401610dab90611f5c565b60405180910390fd5b600760009054906101000a900473ffffffffffffffffffffffffffffffffffffffff1673ffffffffffffffffffffffffffffffffffffffff163373ffffffffffffffffffffffffffffffffffffffff1614610e44576040517f08c379a0000000000000000000000000000000000000000000000000000000008152600401610e3b90612103565b60405180910390fd5b60003073ffffffffffffffffffffffffffffffffffffffff166318160ddd6040518163ffffffff1660e01b8152600401602060405180830381865afa158015610e91573d6000803e3d6000fd5b505050506040513d601f19601f82011682018060405250810190610eb59190612138565b90507f0000000000000000000000000000000000000000000000000000000000000000811115610f1a576040517f08c379a0000000000000000000000000000000000000000000000000000000008152600401610f11906121b1565b60405180910390fd5b7f0000000000000000000000000000000000000000000000000000000000000000610f4e83836119eb90919063ffffffff16565b10610f8e576040517f08c379a0000000000000000000000000000000000000000000000000000000008152600401610f859061221d565b60405180910390fd5b610fba600760009054906101000a900473ffffffffffffffffffffffffffffffffffffffff1683611a01565b5050565b600080610fc9611518565b90506000610fd7828661146b565b90508381101561101c576040517f08c379a0000000000000000000000000000000000000000000000000000000008152600401611013906122af565b60405180910390fd5b6110298286868403611520565b60019250505092915050565b600080611040611518565b905061104d818585611775565b600191505092915050565b6000600660009054906101000a900473ffffffffffffffffffffffffffffffffffffffff1673ffffffffffffffffffffffffffffffffffffffff163373ffffffffffffffffffffffffffffffffffffffff16146110ea576040517f08c379a00000000000000000000000000000000000000000000000000000000081526004016110e19061231b565b60405180910390fd5b600073ffffffffffffffffffffffffffffffffffffffff168373ffffffffffffffffffffffffffffffffffffffff1603611127576000905061124b565b60003073ffffffffffffffffffffffffffffffffffffffff166318160ddd6040518163ffffffff1660e01b8152600401602060405180830381865afa158015611174573d6000803e3d6000fd5b505050506040513d601f19601f820116820180604052508101906111989190612138565b90507f000000000000000000000000000000000000000000000000000000000000000081106111cb57600091505061124b565b7f00000000000000000000000000000000000000000000000000000000000000006111ff84836119eb90919063ffffffff16565b111561123b57611238817f0000000000000000000000000000000000000000000000000000000000000000611b5790919063ffffffff16565b92505b6112458484611a01565b60019150505b92915050565b600860009054906101000a900473ffffffffffffffffffffffffffffffffffffffff1673ffffffffffffffffffffffffffffffffffffffff163373ffffffffffffffffffffffffffffffffffffffff16146112e1576040517f08c379a00000000000000000000000000000000000000000000000000000000081526004016112d8906123ad565b60405180910390fd5b600760009054906101000a900473ffffffffffffffffffffffffffffffffffffffff16600b60006101000a81548173ffffffffffffffffffffffffffffffffffffffff021916908373ffffffffffffffffffffffffffffffffffffffff160217905550600860009054906101000a900473ffffffffffffffffffffffffffffffffffffffff16600760006101000a81548173ffffffffffffffffffffffffffffffffffffffff021916908373ffffffffffffffffffffffffffffffffffffffff160217905550600760009054906101000a900473ffffffffffffffffffffffffffffffffffffffff1673ffffffffffffffffffffffffffffffffffffffff16600b60009054906101000a900473ffffffffffffffffffffffffffffffffffffffff1673ffffffffffffffffffffffffffffffffffffffff167fcd6ba6b7da89e039d53b5d981527a893755342bb9d8e5c2f61f6638f1fb5192b60405160405180910390a3565b7f000000000000000000000000000000000000000000000000000000000000000081565b6000600160008473ffffffffffffffffffffffffffffffffffffffff1673ffffffffffffffffffffffffffffffffffffffff16815260200190815260200160002060008373ffffffffffffffffffffffffffffffffffffffff1673ffffffffffffffffffffffffffffffffffffffff16815260200190815260200160002054905092915050565b600760009054906101000a900473ffffffffffffffffffffffffffffffffffffffff1681565b600033905090565b600073ffffffffffffffffffffffffffffffffffffffff168373ffffffffffffffffffffffffffffffffffffffff160361158f576040517f08c379a00000000000000000000000000000000000000000000000000000000081526004016115869061243f565b60405180910390fd5b600073ffffffffffffffffffffffffffffffffffffffff168273ffffffffffffffffffffffffffffffffffffffff16036115fe576040517f08c379a00000000000000000000000000000000000000000000000000000000081526004016115f5906124d1565b60405180910390fd5b80600160008573ffffffffffffffffffffffffffffffffffffffff1673ffffffffffffffffffffffffffffffffffffffff16815260200190815260200160002060008473ffffffffffffffffffffffffffffffffffffffff1673ffffffffffffffffffffffffffffffffffffffff168152602001908152602001600020819055508173ffffffffffffffffffffffffffffffffffffffff168373ffffffffffffffffffffffffffffffffffffffff167f8c5be1e5ebec7d5bd14f71427d1e84f3dd0314c0f7b2291e5b200ac8c7c3b925836040516116dc9190611d71565b60405180910390a3505050565b60006116f5848461146b565b90507fffffffffffffffffffffffffffffffffffffffffffffffffffffffffffffffff811461176f5781811015611761576040517f08c379a00000000000000000000000000000000000000000000000000000000081526004016117589061253d565b60405180910390fd5b61176e8484848403611520565b5b50505050565b600073ffffffffffffffffffffffffffffffffffffffff168373ffffffffffffffffffffffffffffffffffffffff16036117e4576040517f08c379a00000000000000000000000000000000000000000000000000000000081526004016117db906125cf565b60405180910390fd5b600073ffffffffffffffffffffffffffffffffffffffff168273ffffffffffffffffffffffffffffffffffffffff1603611853576040517f08c379a000000000000000000000000000000000000000000000000000000000815260040161184a90612661565b60405180910390fd5b61185e838383611b6d565b60008060008573ffffffffffffffffffffffffffffffffffffffff1673ffffffffffffffffffffffffffffffffffffffff168152602001908152602001600020549050818110156118e4576040517f08c379a00000000000000000000000000000000000000000000000000000000081526004016118db906126f3565b60405180910390fd5b8181036000808673ffffffffffffffffffffffffffffffffffffffff1673ffffffffffffffffffffffffffffffffffffffff16815260200190815260200160002081905550816000808573ffffffffffffffffffffffffffffffffffffffff1673ffffffffffffffffffffffffffffffffffffffff168152602001908152602001600020600082825401925050819055508273ffffffffffffffffffffffffffffffffffffffff168473ffffffffffffffffffffffffffffffffffffffff167fddf252ad1be2c89b69c2b068fc378daa952ba7f163c4a11628f55a4df523b3ef846040516119d29190611d71565b60405180910390a36119e5848484611b72565b50505050565b600081836119f99190611fab565b905092915050565b600073ffffffffffffffffffffffffffffffffffffffff168273ffffffffffffffffffffffffffffffffffffffff1603611a70576040517f08c379a0000000000000000000000000000000000000000000000000000000008152600401611a679061275f565b60405180910390fd5b611a7c60008383611b6d565b8060026000828254611a8e9190611fab565b92505081905550806000808473ffffffffffffffffffffffffffffffffffffffff1673ffffffffffffffffffffffffffffffffffffffff168152602001908152602001600020600082825401925050819055508173ffffffffffffffffffffffffffffffffffffffff16600073ffffffffffffffffffffffffffffffffffffffff167fddf252ad1be2c89b69c2b068fc378daa952ba7f163c4a11628f55a4df523b3ef83604051611b3f9190611d71565b60405180910390a3611b5360008383611b72565b5050565b60008183611b65919061277f565b905092915050565b505050565b505050565b600081519050919050565b600082825260208201905092915050565b60005b83811015611bb1578082015181840152602081019050611b96565b60008484015250505050565b6000601f19601f8301169050919050565b6000611bd982611b77565b611be38185611b82565b9350611bf3818560208601611b93565b611bfc81611bbd565b840191505092915050565b60006020820190508181036000830152611c218184611bce565b905092915050565b600073ffffffffffffffffffffffffffffffffffffffff82169050919050565b6000611c5482611c29565b9050919050565b611c6481611c49565b82525050565b6000602082019050611c7f6000830184611c5b565b92915050565b600080fd5b611c9381611c49565b8114611c9e57600080fd5b50565b600081359050611cb081611c8a565b92915050565b6000819050919050565b611cc981611cb6565b8114611cd457600080fd5b50565b600081359050611ce681611cc0565b92915050565b60008060408385031215611d0357611d02611c85565b5b6000611d1185828601611ca1565b9250506020611d2285828601611cd7565b9150509250929050565b60008115159050919050565b611d4181611d2c565b82525050565b6000602082019050611d5c6000830184611d38565b92915050565b611d6b81611cb6565b82525050565b6000602082019050611d866000830184611d62565b92915050565b600080600060608486031215611da557611da4611c85565b5b6000611db386828701611ca1565b9350506020611dc486828701611ca1565b9250506040611dd586828701611cd7565b9150509250925092565b600060208284031215611df557611df4611c85565b5b6000611e0384828501611cd7565b91505092915050565b600060ff82169050919050565b611e2281611e0c565b82525050565b6000602082019050611e3d6000830184611e19565b92915050565b600060208284031215611e5957611e58611c85565b5b6000611e6784828501611ca1565b91505092915050565b60008060408385031215611e8757611e86611c85565b5b6000611e9585828601611ca1565b9250506020611ea685828601611ca1565b9150509250929050565b7f4e487b7100000000000000000000000000000000000000000000000000000000600052602260045260246000fd5b60006002820490506001821680611ef757607f821691505b602082108103611f0a57611f09611eb0565b5b50919050565b7f4f6e6c792061646d696e2063616e206d616b6520746869732063616c6c000000600082015250565b6000611f46601d83611b82565b9150611f5182611f10565b602082019050919050565b60006020820190508181036000830152611f7581611f39565b9050919050565b7f4e487b7100000000000000000000000000000000000000000000000000000000600052601160045260246000fd5b6000611fb682611cb6565b9150611fc183611cb6565b9250828201905080821115611fd957611fd8611f7c565b5b92915050565b7f696e76616c69642070656e64696e672061646d696e2061646472657373000000600082015250565b6000612015601d83611b82565b915061202082611fdf565b602082019050919050565b6000602082019050818103600083015261204481612008565b9050919050565b7f696e76616c6964206d696e746572206164647265737300000000000000000000600082015250565b6000612081601683611b82565b915061208c8261204b565b602082019050919050565b600060208201905081810360008301526120b081612074565b9050919050565b7f6f6e6c792061646d696e2063616e206d696e7400000000000000000000000000600082015250565b60006120ed601383611b82565b91506120f8826120b7565b602082019050919050565b6000602082019050818103600083015261211c816120e0565b9050919050565b60008151905061213281611cc0565b92915050565b60006020828403121561214e5761214d611c85565b5b600061215c84828501612123565b91505092915050565b7f616c7265616479206578636565646564206d617820737570706c790000000000600082015250565b600061219b601b83611b82565b91506121a682612165565b602082019050919050565b600060208201905081810360008301526121ca8161218e565b9050919050565b7f6578636565646564206d617820737570706c79206f6620746f6b656e73000000600082015250565b6000612207601d83611b82565b9150612212826121d1565b602082019050919050565b60006020820190508181036000830152612236816121fa565b9050919050565b7f45524332303a2064656372656173656420616c6c6f77616e63652062656c6f7760008201527f207a65726f000000000000000000000000000000000000000000000000000000602082015250565b6000612299602583611b82565b91506122a48261223d565b604082019050919050565b600060208201905081810360008301526122c88161228c565b9050919050565b7f4f6e6c79206d696e7465722063616e206d616b6520746869732063616c6c0000600082015250565b6000612305601e83611b82565b9150612310826122cf565b602082019050919050565b60006020820190508181036000830152612334816122f8565b9050919050565b7f4f6e6c792070656e64696e672061646d696e2063616e206d616b65207468697360008201527f2063616c6c000000000000000000000000000000000000000000000000000000602082015250565b6000612397602583611b82565b91506123a28261233b565b604082019050919050565b600060208201905081810360008301526123c68161238a565b9050919050565b7f45524332303a20617070726f76652066726f6d20746865207a65726f2061646460008201527f7265737300000000000000000000000000000000000000000000000000000000602082015250565b6000612429602483611b82565b9150612434826123cd565b604082019050919050565b600060208201905081810360008301526124588161241c565b9050919050565b7f45524332303a20617070726f766520746f20746865207a65726f20616464726560008201527f7373000000000000000000000000000000000000000000000000000000000000602082015250565b60006124bb602283611b82565b91506124c68261245f565b604082019050919050565b600060208201905081810360008301526124ea816124ae565b9050919050565b7f45524332303a20696e73756666696369656e7420616c6c6f77616e6365000000600082015250565b6000612527601d83611b82565b9150612532826124f1565b602082019050919050565b600060208201905081810360008301526125568161251a565b9050919050565b7f45524332303a207472616e736665722066726f6d20746865207a65726f20616460008201527f6472657373000000000000000000000000000000000000000000000000000000602082015250565b60006125b9602583611b82565b91506125c48261255d565b604082019050919050565b600060208201905081810360008301526125e8816125ac565b9050919050565b7f45524332303a207472616e7366657220746f20746865207a65726f206164647260008201527f6573730000000000000000000000000000000000000000000000000000000000602082015250565b600061264b602383611b82565b9150612656826125ef565b604082019050919050565b6000602082019050818103600083015261267a8161263e565b9050919050565b7f45524332303a207472616e7366657220616d6f756e742065786365656473206260008201527f616c616e63650000000000000000000000000000000000000000000000000000602082015250565b60006126dd602683611b82565b91506126e882612681565b604082019050919050565b6000602082019050818103600083015261270c816126d0565b9050919050565b7f45524332303a206d696e7420746f20746865207a65726f206164647265737300600082015250565b6000612749601f83611b82565b915061275482612713565b602082019050919050565b600060208201905081810360008301526127788161273c565b9050919050565b600061278a82611cb6565b915061279583611cb6565b92508282039050818111156127ad576127ac611f7c565b5b9291505056fea264697066735822122087fb5fe3fadef3310681575b7a8ea04f21e32e324a0723135f9a602def82118e64736f6c63430008130033",
					"opcodes": "PUSH1 0xC0 PUSH1 0x40 MSTORE CALLVALUE DUP1 ISZERO PUSH3 0x11 JUMPI PUSH1 0x0 DUP1 REVERT JUMPDEST POP PUSH1 0x40 MLOAD PUSH3 0x39AA CODESIZE SUB DUP1 PUSH3 0x39AA DUP4 CODECOPY DUP2 DUP2 ADD PUSH1 0x40 MSTORE DUP2 ADD SWAP1 PUSH3 0x37 SWAP2 SWAP1 PUSH3 0x8FA JUMP JUMPDEST DUP9 DUP9 DUP2 PUSH1 0x3 SWAP1 DUP2 PUSH3 0x4A SWAP2 SWAP1 PUSH3 0xC58 JUMP JUMPDEST POP DUP1 PUSH1 0x4 SWAP1 DUP2 PUSH3 0x5C SWAP2 SWAP1 PUSH3 0xC58 JUMP JUMPDEST POP POP POP PUSH1 0x0 PUSH20 0xFFFFFFFFFFFFFFFFFFFFFFFFFFFFFFFFFFFFFFFF AND DUP2 PUSH20 0xFFFFFFFFFFFFFFFFFFFFFFFFFFFFFFFFFFFFFFFF AND SUB PUSH3 0xD1 JUMPI PUSH1 0x40 MLOAD PUSH32 0x8C379A000000000000000000000000000000000000000000000000000000000 DUP2 MSTORE PUSH1 0x4 ADD PUSH3 0xC8 SWAP1 PUSH3 0xDA0 JUMP JUMPDEST PUSH1 0x40 MLOAD DUP1 SWAP2 SUB SWAP1 REVERT JUMPDEST PUSH1 0x0 PUSH20 0xFFFFFFFFFFFFFFFFFFFFFFFFFFFFFFFFFFFFFFFF AND DUP6 PUSH20 0xFFFFFFFFFFFFFFFFFFFFFFFFFFFFFFFFFFFFFFFF AND SUB PUSH3 0x143 JUMPI PUSH1 0x40 MLOAD PUSH32 0x8C379A000000000000000000000000000000000000000000000000000000000 DUP2 MSTORE PUSH1 0x4 ADD PUSH3 0x13A SWAP1 PUSH3 0xE12 JUMP JUMPDEST PUSH1 0x40 MLOAD DUP1 SWAP2 SUB SWAP1 REVERT JUMPDEST PUSH1 0x0 PUSH20 0xFFFFFFFFFFFFFFFFFFFFFFFFFFFFFFFFFFFFFFFF AND DUP4 PUSH20 0xFFFFFFFFFFFFFFFFFFFFFFFFFFFFFFFFFFFFFFFF AND SUB PUSH3 0x1B5 JUMPI PUSH1 0x40 MLOAD PUSH32 0x8C379A000000000000000000000000000000000000000000000000000000000 DUP2 MSTORE PUSH1 0x4 ADD PUSH3 0x1AC SWAP1 PUSH3 0xE84 JUMP JUMPDEST PUSH1 0x40 MLOAD DUP1 SWAP2 SUB SWAP1 REVERT JUMPDEST PUSH1 0x0 DUP8 PUSH1 0xFF AND SUB PUSH3 0x1FE JUMPI PUSH1 0x40 MLOAD PUSH32 0x8C379A000000000000000000000000000000000000000000000000000000000 DUP2 MSTORE PUSH1 0x4 ADD PUSH3 0x1F5 SWAP1 PUSH3 0xEF6 JUMP JUMPDEST PUSH1 0x40 MLOAD DUP1 SWAP2 SUB SWAP1 REVERT JUMPDEST PUSH1 0x0 DUP7 SUB PUSH3 0x244 JUMPI PUSH1 0x40 MLOAD PUSH32 0x8C379A000000000000000000000000000000000000000000000000000000000 DUP2 MSTORE PUSH1 0x4 ADD PUSH3 0x23B SWAP1 PUSH3 0xF68 JUMP JUMPDEST PUSH1 0x40 MLOAD DUP1 SWAP2 SUB SWAP1 REVERT JUMPDEST PUSH12 0x33B2E3C9FD0803CE8000000 DUP7 GT ISZERO PUSH3 0x296 JUMPI PUSH1 0x40 MLOAD PUSH32 0x8C379A000000000000000000000000000000000000000000000000000000000 DUP2 MSTORE PUSH1 0x4 ADD PUSH3 0x28D SWAP1 PUSH3 0xFDA JUMP JUMPDEST PUSH1 0x40 MLOAD DUP1 SWAP2 SUB SWAP1 REVERT JUMPDEST DUP6 DUP3 LT PUSH3 0x2DB JUMPI PUSH1 0x40 MLOAD PUSH32 0x8C379A000000000000000000000000000000000000000000000000000000000 DUP2 MSTORE PUSH1 0x4 ADD PUSH3 0x2D2 SWAP1 PUSH3 0x104C JUMP JUMPDEST PUSH1 0x40 MLOAD DUP1 SWAP2 SUB SWAP1 REVERT JUMPDEST DUP7 PUSH1 0xFF AND PUSH1 0x80 DUP2 PUSH1 0xFF AND DUP2 MSTORE POP POP DUP6 PUSH1 0xA0 DUP2 DUP2 MSTORE POP POP DUP5 PUSH1 0x6 PUSH1 0x0 PUSH2 0x100 EXP DUP2 SLOAD DUP2 PUSH20 0xFFFFFFFFFFFFFFFFFFFFFFFFFFFFFFFFFFFFFFFF MUL NOT AND SWAP1 DUP4 PUSH20 0xFFFFFFFFFFFFFFFFFFFFFFFFFFFFFFFFFFFFFFFF AND MUL OR SWAP1 SSTORE POP DUP4 PUSH1 0x5 DUP2 SWAP1 SSTORE POP DUP1 PUSH1 0x7 PUSH1 0x0 PUSH2 0x100 EXP DUP2 SLOAD DUP2 PUSH20 0xFFFFFFFFFFFFFFFFFFFFFFFFFFFFFFFFFFFFFFFF MUL NOT AND SWAP1 DUP4 PUSH20 0xFFFFFFFFFFFFFFFFFFFFFFFFFFFFFFFFFFFFFFFF AND MUL OR SWAP1 SSTORE POP PUSH3 0x38C DUP4 DUP4 PUSH3 0x512 PUSH1 0x20 SHL PUSH1 0x20 SHR JUMP JUMPDEST PUSH1 0x6 PUSH1 0x0 SWAP1 SLOAD SWAP1 PUSH2 0x100 EXP SWAP1 DIV PUSH20 0xFFFFFFFFFFFFFFFFFFFFFFFFFFFFFFFFFFFFFFFF AND PUSH20 0xFFFFFFFFFFFFFFFFFFFFFFFFFFFFFFFFFFFFFFFF AND PUSH1 0x9 PUSH1 0x0 SWAP1 SLOAD SWAP1 PUSH2 0x100 EXP SWAP1 DIV PUSH20 0xFFFFFFFFFFFFFFFFFFFFFFFFFFFFFFFFFFFFFFFF AND PUSH20 0xFFFFFFFFFFFFFFFFFFFFFFFFFFFFFFFFFFFFFFFF AND PUSH32 0xFB80F39493422136408EDD986F7CA83C10534204422DD1DFEBB055DE4EF0FD53 PUSH1 0x40 MLOAD PUSH1 0x40 MLOAD DUP1 SWAP2 SUB SWAP1 LOG3 PUSH1 0x7 PUSH1 0x0 SWAP1 SLOAD SWAP1 PUSH2 0x100 EXP SWAP1 DIV PUSH20 0xFFFFFFFFFFFFFFFFFFFFFFFFFFFFFFFFFFFFFFFF AND PUSH20 0xFFFFFFFFFFFFFFFFFFFFFFFFFFFFFFFFFFFFFFFF AND PUSH1 0xB PUSH1 0x0 SWAP1 SLOAD SWAP1 PUSH2 0x100 EXP SWAP1 DIV PUSH20 0xFFFFFFFFFFFFFFFFFFFFFFFFFFFFFFFFFFFFFFFF AND PUSH20 0xFFFFFFFFFFFFFFFFFFFFFFFFFFFFFFFFFFFFFFFF AND PUSH32 0xCD6BA6B7DA89E039D53B5D981527A893755342BB9D8E5C2F61F6638F1FB5192B PUSH1 0x40 MLOAD PUSH1 0x40 MLOAD DUP1 SWAP2 SUB SWAP1 LOG3 PUSH32 0xD65D781DB82F0BD55F732EA1B96F4C6565750DF815C18A70962CD8405274E243 PUSH1 0x5 SLOAD PUSH1 0x40 MLOAD PUSH3 0x4FB SWAP2 SWAP1 PUSH3 0x107F JUMP JUMPDEST PUSH1 0x40 MLOAD DUP1 SWAP2 SUB SWAP1 LOG1 POP POP POP POP POP POP POP POP POP PUSH3 0x1178 JUMP JUMPDEST PUSH1 0x0 PUSH20 0xFFFFFFFFFFFFFFFFFFFFFFFFFFFFFFFFFFFFFFFF AND DUP3 PUSH20 0xFFFFFFFFFFFFFFFFFFFFFFFFFFFFFFFFFFFFFFFF AND SUB PUSH3 0x584 JUMPI PUSH1 0x40 MLOAD PUSH32 0x8C379A000000000000000000000000000000000000000000000000000000000 DUP2 MSTORE PUSH1 0x4 ADD PUSH3 0x57B SWAP1 PUSH3 0x10EC JUMP JUMPDEST PUSH1 0x40 MLOAD DUP1 SWAP2 SUB SWAP1 REVERT JUMPDEST PUSH3 0x598 PUSH1 0x0 DUP4 DUP4 PUSH3 0x67F PUSH1 0x20 SHL PUSH1 0x20 SHR JUMP JUMPDEST DUP1 PUSH1 0x2 PUSH1 0x0 DUP3 DUP3 SLOAD PUSH3 0x5AC SWAP2 SWAP1 PUSH3 0x113D JUMP JUMPDEST SWAP3 POP POP DUP2 SWAP1 SSTORE POP DUP1 PUSH1 0x0 DUP1 DUP5 PUSH20 0xFFFFFFFFFFFFFFFFFFFFFFFFFFFFFFFFFFFFFFFF AND PUSH20 0xFFFFFFFFFFFFFFFFFFFFFFFFFFFFFFFFFFFFFFFF AND DUP2 MSTORE PUSH1 0x20 ADD SWAP1 DUP2 MSTORE PUSH1 0x20 ADD PUSH1 0x0 KECCAK256 PUSH1 0x0 DUP3 DUP3 SLOAD ADD SWAP3 POP POP DUP2 SWAP1 SSTORE POP DUP2 PUSH20 0xFFFFFFFFFFFFFFFFFFFFFFFFFFFFFFFFFFFFFFFF AND PUSH1 0x0 PUSH20 0xFFFFFFFFFFFFFFFFFFFFFFFFFFFFFFFFFFFFFFFF AND PUSH32 0xDDF252AD1BE2C89B69C2B068FC378DAA952BA7F163C4A11628F55A4DF523B3EF DUP4 PUSH1 0x40 MLOAD PUSH3 0x65F SWAP2 SWAP1 PUSH3 0x107F JUMP JUMPDEST PUSH1 0x40 MLOAD DUP1 SWAP2 SUB SWAP1 LOG3 PUSH3 0x67B PUSH1 0x0 DUP4 DUP4 PUSH3 0x684 PUSH1 0x20 SHL PUSH1 0x20 SHR JUMP JUMPDEST POP POP JUMP JUMPDEST POP POP POP JUMP JUMPDEST POP POP POP JUMP JUMPDEST PUSH1 0x0 PUSH1 0x40 MLOAD SWAP1 POP SWAP1 JUMP JUMPDEST PUSH1 0x0 DUP1 REVERT JUMPDEST PUSH1 0x0 DUP1 REVERT JUMPDEST PUSH1 0x0 DUP1 REVERT JUMPDEST PUSH1 0x0 DUP1 REVERT JUMPDEST PUSH1 0x0 PUSH1 0x1F NOT PUSH1 0x1F DUP4 ADD AND SWAP1 POP SWAP2 SWAP1 POP JUMP JUMPDEST PUSH32 0x4E487B7100000000000000000000000000000000000000000000000000000000 PUSH1 0x0 MSTORE PUSH1 0x41 PUSH1 0x4 MSTORE PUSH1 0x24 PUSH1 0x0 REVERT JUMPDEST PUSH3 0x6F2 DUP3 PUSH3 0x6A7 JUMP JUMPDEST DUP2 ADD DUP2 DUP2 LT PUSH8 0xFFFFFFFFFFFFFFFF DUP3 GT OR ISZERO PUSH3 0x714 JUMPI PUSH3 0x713 PUSH3 0x6B8 JUMP JUMPDEST JUMPDEST DUP1 PUSH1 0x40 MSTORE POP POP POP JUMP JUMPDEST PUSH1 0x0 PUSH3 0x729 PUSH3 0x689 JUMP JUMPDEST SWAP1 POP PUSH3 0x737 DUP3 DUP3 PUSH3 0x6E7 JUMP JUMPDEST SWAP2 SWAP1 POP JUMP JUMPDEST PUSH1 0x0 PUSH8 0xFFFFFFFFFFFFFFFF DUP3 GT ISZERO PUSH3 0x75A JUMPI PUSH3 0x759 PUSH3 0x6B8 JUMP JUMPDEST JUMPDEST PUSH3 0x765 DUP3 PUSH3 0x6A7 JUMP JUMPDEST SWAP1 POP PUSH1 0x20 DUP2 ADD SWAP1 POP SWAP2 SWAP1 POP JUMP JUMPDEST PUSH1 0x0 JUMPDEST DUP4 DUP2 LT ISZERO PUSH3 0x792 JUMPI DUP1 DUP3 ADD MLOAD DUP2 DUP5 ADD MSTORE PUSH1 0x20 DUP2 ADD SWAP1 POP PUSH3 0x775 JUMP JUMPDEST PUSH1 0x0 DUP5 DUP5 ADD MSTORE POP POP POP POP JUMP JUMPDEST PUSH1 0x0 PUSH3 0x7B5 PUSH3 0x7AF DUP5 PUSH3 0x73C JUMP JUMPDEST PUSH3 0x71D JUMP JUMPDEST SWAP1 POP DUP3 DUP2 MSTORE PUSH1 0x20 DUP2 ADD DUP5 DUP5 DUP5 ADD GT ISZERO PUSH3 0x7D4 JUMPI PUSH3 0x7D3 PUSH3 0x6A2 JUMP JUMPDEST JUMPDEST PUSH3 0x7E1 DUP5 DUP3 DUP6 PUSH3 0x772 JUMP JUMPDEST POP SWAP4 SWAP3 POP POP POP JUMP JUMPDEST PUSH1 0x0 DUP3 PUSH1 0x1F DUP4 ADD SLT PUSH3 0x801 JUMPI PUSH3 0x800 PUSH3 0x69D JUMP JUMPDEST JUMPDEST DUP2 MLOAD PUSH3 0x813 DUP5 DUP3 PUSH1 0x20 DUP7 ADD PUSH3 0x79E JUMP JUMPDEST SWAP2 POP POP SWAP3 SWAP2 POP POP JUMP JUMPDEST PUSH1 0x0 PUSH1 0xFF DUP3 AND SWAP1 POP SWAP2 SWAP1 POP JUMP JUMPDEST PUSH3 0x834 DUP2 PUSH3 0x81C JUMP JUMPDEST DUP2 EQ PUSH3 0x840 JUMPI PUSH1 0x0 DUP1 REVERT JUMPDEST POP JUMP JUMPDEST PUSH1 0x0 DUP2 MLOAD SWAP1 POP PUSH3 0x854 DUP2 PUSH3 0x829 JUMP JUMPDEST SWAP3 SWAP2 POP POP JUMP JUMPDEST PUSH1 0x0 DUP2 SWAP1 POP SWAP2 SWAP1 POP JUMP JUMPDEST PUSH3 0x86F DUP2 PUSH3 0x85A JUMP JUMPDEST DUP2 EQ PUSH3 0x87B JUMPI PUSH1 0x0 DUP1 REVERT JUMPDEST POP JUMP JUMPDEST PUSH1 0x0 DUP2 MLOAD SWAP1 POP PUSH3 0x88F DUP2 PUSH3 0x864 JUMP JUMPDEST SWAP3 SWAP2 POP POP JUMP JUMPDEST PUSH1 0x0 PUSH20 0xFFFFFFFFFFFFFFFFFFFFFFFFFFFFFFFFFFFFFFFF DUP3 AND SWAP1 POP SWAP2 SWAP1 POP JUMP JUMPDEST PUSH1 0x0 PUSH3 0x8C2 DUP3 PUSH3 0x895 JUMP JUMPDEST SWAP1 POP SWAP2 SWAP1 POP JUMP JUMPDEST PUSH3 0x8D4 DUP2 PUSH3 0x8B5 JUMP JUMPDEST DUP2 EQ PUSH3 0x8E0 JUMPI PUSH1 0x0 DUP1 REVERT JUMPDEST POP JUMP JUMPDEST PUSH1 0x0 DUP2 MLOAD SWAP1 POP PUSH3 0x8F4 DUP2 PUSH3 0x8C9 JUMP JUMPDEST SWAP3 SWAP2 POP POP JUMP JUMPDEST PUSH1 0x0 DUP1 PUSH1 0x0 DUP1 PUSH1 0x0 DUP1 PUSH1 0x0 DUP1 PUSH1 0x0 PUSH2 0x120 DUP11 DUP13 SUB SLT ISZERO PUSH3 0x920 JUMPI PUSH3 0x91F PUSH3 0x693 JUMP JUMPDEST JUMPDEST PUSH1 0x0 DUP11 ADD MLOAD PUSH8 0xFFFFFFFFFFFFFFFF DUP2 GT ISZERO PUSH3 0x941 JUMPI PUSH3 0x940 PUSH3 0x698 JUMP JUMPDEST JUMPDEST PUSH3 0x94F DUP13 DUP3 DUP14 ADD PUSH3 0x7E9 JUMP JUMPDEST SWAP10 POP POP PUSH1 0x20 DUP11 ADD MLOAD PUSH8 0xFFFFFFFFFFFFFFFF DUP2 GT ISZERO PUSH3 0x973 JUMPI PUSH3 0x972 PUSH3 0x698 JUMP JUMPDEST JUMPDEST PUSH3 0x981 DUP13 DUP3 DUP14 ADD PUSH3 0x7E9 JUMP JUMPDEST SWAP9 POP POP PUSH1 0x40 PUSH3 0x994 DUP13 DUP3 DUP14 ADD PUSH3 0x843 JUMP JUMPDEST SWAP8 POP POP PUSH1 0x60 PUSH3 0x9A7 DUP13 DUP3 DUP14 ADD PUSH3 0x87E JUMP JUMPDEST SWAP7 POP POP PUSH1 0x80 PUSH3 0x9BA DUP13 DUP3 DUP14 ADD PUSH3 0x8E3 JUMP JUMPDEST SWAP6 POP POP PUSH1 0xA0 PUSH3 0x9CD DUP13 DUP3 DUP14 ADD PUSH3 0x87E JUMP JUMPDEST SWAP5 POP POP PUSH1 0xC0 PUSH3 0x9E0 DUP13 DUP3 DUP14 ADD PUSH3 0x8E3 JUMP JUMPDEST SWAP4 POP POP PUSH1 0xE0 PUSH3 0x9F3 DUP13 DUP3 DUP14 ADD PUSH3 0x87E JUMP JUMPDEST SWAP3 POP POP PUSH2 0x100 PUSH3 0xA07 DUP13 DUP3 DUP14 ADD PUSH3 0x8E3 JUMP JUMPDEST SWAP2 POP POP SWAP3 SWAP6 SWAP9 POP SWAP3 SWAP6 SWAP9 POP SWAP3 SWAP6 SWAP9 JUMP JUMPDEST PUSH1 0x0 DUP2 MLOAD SWAP1 POP SWAP2 SWAP1 POP JUMP JUMPDEST PUSH32 0x4E487B7100000000000000000000000000000000000000000000000000000000 PUSH1 0x0 MSTORE PUSH1 0x22 PUSH1 0x4 MSTORE PUSH1 0x24 PUSH1 0x0 REVERT JUMPDEST PUSH1 0x0 PUSH1 0x2 DUP3 DIV SWAP1 POP PUSH1 0x1 DUP3 AND DUP1 PUSH3 0xA6A JUMPI PUSH1 0x7F DUP3 AND SWAP2 POP JUMPDEST PUSH1 0x20 DUP3 LT DUP2 SUB PUSH3 0xA80 JUMPI PUSH3 0xA7F PUSH3 0xA22 JUMP JUMPDEST JUMPDEST POP SWAP2 SWAP1 POP JUMP JUMPDEST PUSH1 0x0 DUP2 SWAP1 POP DUP2 PUSH1 0x0 MSTORE PUSH1 0x20 PUSH1 0x0 KECCAK256 SWAP1 POP SWAP2 SWAP1 POP JUMP JUMPDEST PUSH1 0x0 PUSH1 0x20 PUSH1 0x1F DUP4 ADD DIV SWAP1 POP SWAP2 SWAP1 POP JUMP JUMPDEST PUSH1 0x0 DUP3 DUP3 SHL SWAP1 POP SWAP3 SWAP2 POP POP JUMP JUMPDEST PUSH1 0x0 PUSH1 0x8 DUP4 MUL PUSH3 0xAEA PUSH32 0xFFFFFFFFFFFFFFFFFFFFFFFFFFFFFFFFFFFFFFFFFFFFFFFFFFFFFFFFFFFFFFFF DUP3 PUSH3 0xAAB JUMP JUMPDEST PUSH3 0xAF6 DUP7 DUP4 PUSH3 0xAAB JUMP JUMPDEST SWAP6 POP DUP1 NOT DUP5 AND SWAP4 POP DUP1 DUP7 AND DUP5 OR SWAP3 POP POP POP SWAP4 SWAP3 POP POP POP JUMP JUMPDEST PUSH1 0x0 DUP2 SWAP1 POP SWAP2 SWAP1 POP JUMP JUMPDEST PUSH1 0x0 PUSH3 0xB39 PUSH3 0xB33 PUSH3 0xB2D DUP5 PUSH3 0x85A JUMP JUMPDEST PUSH3 0xB0E JUMP JUMPDEST PUSH3 0x85A JUMP JUMPDEST SWAP1 POP SWAP2 SWAP1 POP JUMP JUMPDEST PUSH1 0x0 DUP2 SWAP1 POP SWAP2 SWAP1 POP JUMP JUMPDEST PUSH3 0xB55 DUP4 PUSH3 0xB18 JUMP JUMPDEST PUSH3 0xB6D PUSH3 0xB64 DUP3 PUSH3 0xB40 JUMP JUMPDEST DUP5 DUP5 SLOAD PUSH3 0xAB8 JUMP JUMPDEST DUP3 SSTORE POP POP POP POP JUMP JUMPDEST PUSH1 0x0 SWAP1 JUMP JUMPDEST PUSH3 0xB84 PUSH3 0xB75 JUMP JUMPDEST PUSH3 0xB91 DUP2 DUP5 DUP5 PUSH3 0xB4A JUMP JUMPDEST POP POP POP JUMP JUMPDEST JUMPDEST DUP2 DUP2 LT ISZERO PUSH3 0xBB9 JUMPI PUSH3 0xBAD PUSH1 0x0 DUP3 PUSH3 0xB7A JUMP JUMPDEST PUSH1 0x1 DUP2 ADD SWAP1 POP PUSH3 0xB97 JUMP JUMPDEST POP POP JUMP JUMPDEST PUSH1 0x1F DUP3 GT ISZERO PUSH3 0xC08 JUMPI PUSH3 0xBD2 DUP2 PUSH3 0xA86 JUMP JUMPDEST PUSH3 0xBDD DUP5 PUSH3 0xA9B JUMP JUMPDEST DUP2 ADD PUSH1 0x20 DUP6 LT ISZERO PUSH3 0xBED JUMPI DUP2 SWAP1 POP JUMPDEST PUSH3 0xC05 PUSH3 0xBFC DUP6 PUSH3 0xA9B JUMP JUMPDEST DUP4 ADD DUP3 PUSH3 0xB96 JUMP JUMPDEST POP POP JUMPDEST POP POP POP JUMP JUMPDEST PUSH1 0x0 DUP3 DUP3 SHR SWAP1 POP SWAP3 SWAP2 POP POP JUMP JUMPDEST PUSH1 0x0 PUSH3 0xC2D PUSH1 0x0 NOT DUP5 PUSH1 0x8 MUL PUSH3 0xC0D JUMP JUMPDEST NOT DUP1 DUP4 AND SWAP2 POP POP SWAP3 SWAP2 POP POP JUMP JUMPDEST PUSH1 0x0 PUSH3 0xC48 DUP4 DUP4 PUSH3 0xC1A JUMP JUMPDEST SWAP2 POP DUP3 PUSH1 0x2 MUL DUP3 OR SWAP1 POP SWAP3 SWAP2 POP POP JUMP JUMPDEST PUSH3 0xC63 DUP3 PUSH3 0xA17 JUMP JUMPDEST PUSH8 0xFFFFFFFFFFFFFFFF DUP2 GT ISZERO PUSH3 0xC7F JUMPI PUSH3 0xC7E PUSH3 0x6B8 JUMP JUMPDEST JUMPDEST PUSH3 0xC8B DUP3 SLOAD PUSH3 0xA51 JUMP JUMPDEST PUSH3 0xC98 DUP3 DUP3 DUP6 PUSH3 0xBBD JUMP JUMPDEST PUSH1 0x0 PUSH1 0x20 SWAP1 POP PUSH1 0x1F DUP4 GT PUSH1 0x1 DUP2 EQ PUSH3 0xCD0 JUMPI PUSH1 0x0 DUP5 ISZERO PUSH3 0xCBB JUMPI DUP3 DUP8 ADD MLOAD SWAP1 POP JUMPDEST PUSH3 0xCC7 DUP6 DUP3 PUSH3 0xC3A JUMP JUMPDEST DUP7 SSTORE POP PUSH3 0xD37 JUMP JUMPDEST PUSH1 0x1F NOT DUP5 AND PUSH3 0xCE0 DUP7 PUSH3 0xA86 JUMP JUMPDEST PUSH1 0x0 JUMPDEST DUP3 DUP2 LT ISZERO PUSH3 0xD0A JUMPI DUP5 DUP10 ADD MLOAD DUP3 SSTORE PUSH1 0x1 DUP3 ADD SWAP2 POP PUSH1 0x20 DUP6 ADD SWAP5 POP PUSH1 0x20 DUP2 ADD SWAP1 POP PUSH3 0xCE3 JUMP JUMPDEST DUP7 DUP4 LT ISZERO PUSH3 0xD2A JUMPI DUP5 DUP10 ADD MLOAD PUSH3 0xD26 PUSH1 0x1F DUP10 AND DUP3 PUSH3 0xC1A JUMP JUMPDEST DUP4 SSTORE POP JUMPDEST PUSH1 0x1 PUSH1 0x2 DUP9 MUL ADD DUP9 SSTORE POP POP POP JUMPDEST POP POP POP POP POP POP JUMP JUMPDEST PUSH1 0x0 DUP3 DUP3 MSTORE PUSH1 0x20 DUP3 ADD SWAP1 POP SWAP3 SWAP2 POP POP JUMP JUMPDEST PUSH32 0x696E76616C69642061646D696E20616464726573730000000000000000000000 PUSH1 0x0 DUP3 ADD MSTORE POP JUMP JUMPDEST PUSH1 0x0 PUSH3 0xD88 PUSH1 0x15 DUP4 PUSH3 0xD3F JUMP JUMPDEST SWAP2 POP PUSH3 0xD95 DUP3 PUSH3 0xD50 JUMP JUMPDEST PUSH1 0x20 DUP3 ADD SWAP1 POP SWAP2 SWAP1 POP JUMP JUMPDEST PUSH1 0x0 PUSH1 0x20 DUP3 ADD SWAP1 POP DUP2 DUP2 SUB PUSH1 0x0 DUP4 ADD MSTORE PUSH3 0xDBB DUP2 PUSH3 0xD79 JUMP JUMPDEST SWAP1 POP SWAP2 SWAP1 POP JUMP JUMPDEST PUSH32 0x696E76616C6964206D696E7465725F2061646472657373000000000000000000 PUSH1 0x0 DUP3 ADD MSTORE POP JUMP JUMPDEST PUSH1 0x0 PUSH3 0xDFA PUSH1 0x17 DUP4 PUSH3 0xD3F JUMP JUMPDEST SWAP2 POP PUSH3 0xE07 DUP3 PUSH3 0xDC2 JUMP JUMPDEST PUSH1 0x20 DUP3 ADD SWAP1 POP SWAP2 SWAP1 POP JUMP JUMPDEST PUSH1 0x0 PUSH1 0x20 DUP3 ADD SWAP1 POP DUP2 DUP2 SUB PUSH1 0x0 DUP4 ADD MSTORE PUSH3 0xE2D DUP2 PUSH3 0xDEB JUMP JUMPDEST SWAP1 POP SWAP2 SWAP1 POP JUMP JUMPDEST PUSH32 0x696E76616C696420696E6974446973747257616C6C65745F2061646472657373 PUSH1 0x0 DUP3 ADD MSTORE POP JUMP JUMPDEST PUSH1 0x0 PUSH3 0xE6C PUSH1 0x20 DUP4 PUSH3 0xD3F JUMP JUMPDEST SWAP2 POP PUSH3 0xE79 DUP3 PUSH3 0xE34 JUMP JUMPDEST PUSH1 0x20 DUP3 ADD SWAP1 POP SWAP2 SWAP1 POP JUMP JUMPDEST PUSH1 0x0 PUSH1 0x20 DUP3 ADD SWAP1 POP DUP2 DUP2 SUB PUSH1 0x0 DUP4 ADD MSTORE PUSH3 0xE9F DUP2 PUSH3 0xE5D JUMP JUMPDEST SWAP1 POP SWAP2 SWAP1 POP JUMP JUMPDEST PUSH32 0x696E76616C696420646563696D616C7300000000000000000000000000000000 PUSH1 0x0 DUP3 ADD MSTORE POP JUMP JUMPDEST PUSH1 0x0 PUSH3 0xEDE PUSH1 0x10 DUP4 PUSH3 0xD3F JUMP JUMPDEST SWAP2 POP PUSH3 0xEEB DUP3 PUSH3 0xEA6 JUMP JUMPDEST PUSH1 0x20 DUP3 ADD SWAP1 POP SWAP2 SWAP1 POP JUMP JUMPDEST PUSH1 0x0 PUSH1 0x20 DUP3 ADD SWAP1 POP DUP2 DUP2 SUB PUSH1 0x0 DUP4 ADD MSTORE PUSH3 0xF11 DUP2 PUSH3 0xECF JUMP JUMPDEST SWAP1 POP SWAP2 SWAP1 POP JUMP JUMPDEST PUSH32 0x696E76616C6964206D6178537570706C79000000000000000000000000000000 PUSH1 0x0 DUP3 ADD MSTORE POP JUMP JUMPDEST PUSH1 0x0 PUSH3 0xF50 PUSH1 0x11 DUP4 PUSH3 0xD3F JUMP JUMPDEST SWAP2 POP PUSH3 0xF5D DUP3 PUSH3 0xF18 JUMP JUMPDEST PUSH1 0x20 DUP3 ADD SWAP1 POP SWAP2 SWAP1 POP JUMP JUMPDEST PUSH1 0x0 PUSH1 0x20 DUP3 ADD SWAP1 POP DUP2 DUP2 SUB PUSH1 0x0 DUP4 ADD MSTORE PUSH3 0xF83 DUP2 PUSH3 0xF41 JUMP JUMPDEST SWAP1 POP SWAP2 SWAP1 POP JUMP JUMPDEST PUSH32 0x6D6178537570706C7920746F6F206C6172676500000000000000000000000000 PUSH1 0x0 DUP3 ADD MSTORE POP JUMP JUMPDEST PUSH1 0x0 PUSH3 0xFC2 PUSH1 0x13 DUP4 PUSH3 0xD3F JUMP JUMPDEST SWAP2 POP PUSH3 0xFCF DUP3 PUSH3 0xF8A JUMP JUMPDEST PUSH1 0x20 DUP3 ADD SWAP1 POP SWAP2 SWAP1 POP JUMP JUMPDEST PUSH1 0x0 PUSH1 0x20 DUP3 ADD SWAP1 POP DUP2 DUP2 SUB PUSH1 0x0 DUP4 ADD MSTORE PUSH3 0xFF5 DUP2 PUSH3 0xFB3 JUMP JUMPDEST SWAP1 POP SWAP2 SWAP1 POP JUMP JUMPDEST PUSH32 0x496E697469616C20737570706C7920746F6F206C617267650000000000000000 PUSH1 0x0 DUP3 ADD MSTORE POP JUMP JUMPDEST PUSH1 0x0 PUSH3 0x1034 PUSH1 0x18 DUP4 PUSH3 0xD3F JUMP JUMPDEST SWAP2 POP PUSH3 0x1041 DUP3 PUSH3 0xFFC JUMP JUMPDEST PUSH1 0x20 DUP3 ADD SWAP1 POP SWAP2 SWAP1 POP JUMP JUMPDEST PUSH1 0x0 PUSH1 0x20 DUP3 ADD SWAP1 POP DUP2 DUP2 SUB PUSH1 0x0 DUP4 ADD MSTORE PUSH3 0x1067 DUP2 PUSH3 0x1025 JUMP JUMPDEST SWAP1 POP SWAP2 SWAP1 POP JUMP JUMPDEST PUSH3 0x1079 DUP2 PUSH3 0x85A JUMP JUMPDEST DUP3 MSTORE POP POP JUMP JUMPDEST PUSH1 0x0 PUSH1 0x20 DUP3 ADD SWAP1 POP PUSH3 0x1096 PUSH1 0x0 DUP4 ADD DUP5 PUSH3 0x106E JUMP JUMPDEST SWAP3 SWAP2 POP POP JUMP JUMPDEST PUSH32 0x45524332303A206D696E7420746F20746865207A65726F206164647265737300 PUSH1 0x0 DUP3 ADD MSTORE POP JUMP JUMPDEST PUSH1 0x0 PUSH3 0x10D4 PUSH1 0x1F DUP4 PUSH3 0xD3F JUMP JUMPDEST SWAP2 POP PUSH3 0x10E1 DUP3 PUSH3 0x109C JUMP JUMPDEST PUSH1 0x20 DUP3 ADD SWAP1 POP SWAP2 SWAP1 POP JUMP JUMPDEST PUSH1 0x0 PUSH1 0x20 DUP3 ADD SWAP1 POP DUP2 DUP2 SUB PUSH1 0x0 DUP4 ADD MSTORE PUSH3 0x1107 DUP2 PUSH3 0x10C5 JUMP JUMPDEST SWAP1 POP SWAP2 SWAP1 POP JUMP JUMPDEST PUSH32 0x4E487B7100000000000000000000000000000000000000000000000000000000 PUSH1 0x0 MSTORE PUSH1 0x11 PUSH1 0x4 MSTORE PUSH1 0x24 PUSH1 0x0 REVERT JUMPDEST PUSH1 0x0 PUSH3 0x114A DUP3 PUSH3 0x85A JUMP JUMPDEST SWAP2 POP PUSH3 0x1157 DUP4 PUSH3 0x85A JUMP JUMPDEST SWAP3 POP DUP3 DUP3 ADD SWAP1 POP DUP1 DUP3 GT ISZERO PUSH3 0x1172 JUMPI PUSH3 0x1171 PUSH3 0x110E JUMP JUMPDEST JUMPDEST SWAP3 SWAP2 POP POP JUMP JUMPDEST PUSH1 0x80 MLOAD PUSH1 0xA0 MLOAD PUSH2 0x27E9 PUSH3 0x11C1 PUSH1 0x0 CODECOPY PUSH1 0x0 DUP2 DUP2 PUSH2 0xEB9 ADD MSTORE DUP2 DUP2 PUSH2 0xF1C ADD MSTORE DUP2 DUP2 PUSH2 0x119C ADD MSTORE DUP2 DUP2 PUSH2 0x11CD ADD MSTORE DUP2 DUP2 PUSH2 0x120B ADD MSTORE PUSH2 0x1449 ADD MSTORE PUSH1 0x0 PUSH2 0x741 ADD MSTORE PUSH2 0x27E9 PUSH1 0x0 RETURN INVALID PUSH1 0x80 PUSH1 0x40 MSTORE CALLVALUE DUP1 ISZERO PUSH2 0x10 JUMPI PUSH1 0x0 DUP1 REVERT JUMPDEST POP PUSH1 0x4 CALLDATASIZE LT PUSH2 0x173 JUMPI PUSH1 0x0 CALLDATALOAD PUSH1 0xE0 SHR DUP1 PUSH4 0x4DD18BF5 GT PUSH2 0xDE JUMPI DUP1 PUSH4 0xA457C2D7 GT PUSH2 0x97 JUMPI DUP1 PUSH4 0xD3B2F598 GT PUSH2 0x71 JUMPI DUP1 PUSH4 0xD3B2F598 EQ PUSH2 0x464 JUMPI DUP1 PUSH4 0xD5ABEB01 EQ PUSH2 0x46E JUMPI DUP1 PUSH4 0xDD62ED3E EQ PUSH2 0x48C JUMPI DUP1 PUSH4 0xF851A440 EQ PUSH2 0x4BC JUMPI PUSH2 0x173 JUMP JUMPDEST DUP1 PUSH4 0xA457C2D7 EQ PUSH2 0x3D4 JUMPI DUP1 PUSH4 0xA9059CBB EQ PUSH2 0x404 JUMPI DUP1 PUSH4 0xAB8E786F EQ PUSH2 0x434 JUMPI PUSH2 0x173 JUMP JUMPDEST DUP1 PUSH4 0x4DD18BF5 EQ PUSH2 0x314 JUMPI DUP1 PUSH4 0x4EB03F6E EQ PUSH2 0x330 JUMPI DUP1 PUSH4 0x70A08231 EQ PUSH2 0x34C JUMPI DUP1 PUSH4 0x909D6CB4 EQ PUSH2 0x37C JUMPI DUP1 PUSH4 0x95D89B41 EQ PUSH2 0x39A JUMPI DUP1 PUSH4 0xA0712D68 EQ PUSH2 0x3B8 JUMPI PUSH2 0x173 JUMP JUMPDEST DUP1 PUSH4 0x23B872DD GT PUSH2 0x130 JUMPI DUP1 PUSH4 0x23B872DD EQ PUSH2 0x23E JUMPI DUP1 PUSH4 0x24E770D0 EQ PUSH2 0x26E JUMPI DUP1 PUSH4 0x26782247 EQ PUSH2 0x28C JUMPI DUP1 PUSH4 0x29FB7EF6 EQ PUSH2 0x2AA JUMPI DUP1 PUSH4 0x313CE567 EQ PUSH2 0x2C6 JUMPI DUP1 PUSH4 0x39509351 EQ PUSH2 0x2E4 JUMPI PUSH2 0x173 JUMP JUMPDEST DUP1 PUSH4 0x6FDDE03 EQ PUSH2 0x178 JUMPI DUP1 PUSH4 0x7546172 EQ PUSH2 0x196 JUMPI DUP1 PUSH4 0x95EA7B3 EQ PUSH2 0x1B4 JUMPI DUP1 PUSH4 0xB064976 EQ PUSH2 0x1E4 JUMPI DUP1 PUSH4 0x18160DDD EQ PUSH2 0x202 JUMPI DUP1 PUSH4 0x2147425F EQ PUSH2 0x220 JUMPI JUMPDEST PUSH1 0x0 DUP1 REVERT JUMPDEST PUSH2 0x180 PUSH2 0x4DA JUMP JUMPDEST PUSH1 0x40 MLOAD PUSH2 0x18D SWAP2 SWAP1 PUSH2 0x1C07 JUMP JUMPDEST PUSH1 0x40 MLOAD DUP1 SWAP2 SUB SWAP1 RETURN JUMPDEST PUSH2 0x19E PUSH2 0x56C JUMP JUMPDEST PUSH1 0x40 MLOAD PUSH2 0x1AB SWAP2 SWAP1 PUSH2 0x1C6A JUMP JUMPDEST PUSH1 0x40 MLOAD DUP1 SWAP2 SUB SWAP1 RETURN JUMPDEST PUSH2 0x1CE PUSH1 0x4 DUP1 CALLDATASIZE SUB DUP2 ADD SWAP1 PUSH2 0x1C9 SWAP2 SWAP1 PUSH2 0x1CEC JUMP JUMPDEST PUSH2 0x592 JUMP JUMPDEST PUSH1 0x40 MLOAD PUSH2 0x1DB SWAP2 SWAP1 PUSH2 0x1D47 JUMP JUMPDEST PUSH1 0x40 MLOAD DUP1 SWAP2 SUB SWAP1 RETURN JUMPDEST PUSH2 0x1EC PUSH2 0x5B5 JUMP JUMPDEST PUSH1 0x40 MLOAD PUSH2 0x1F9 SWAP2 SWAP1 PUSH2 0x1C6A JUMP JUMPDEST PUSH1 0x40 MLOAD DUP1 SWAP2 SUB SWAP1 RETURN JUMPDEST PUSH2 0x20A PUSH2 0x5DB JUMP JUMPDEST PUSH1 0x40 MLOAD PUSH2 0x217 SWAP2 SWAP1 PUSH2 0x1D71 JUMP JUMPDEST PUSH1 0x40 MLOAD DUP1 SWAP2 SUB SWAP1 RETURN JUMPDEST PUSH2 0x228 PUSH2 0x5E5 JUMP JUMPDEST PUSH1 0x40 MLOAD PUSH2 0x235 SWAP2 SWAP1 PUSH2 0x1C6A JUMP JUMPDEST PUSH1 0x40 MLOAD DUP1 SWAP2 SUB SWAP1 RETURN JUMPDEST PUSH2 0x258 PUSH1 0x4 DUP1 CALLDATASIZE SUB DUP2 ADD SWAP1 PUSH2 0x253 SWAP2 SWAP1 PUSH2 0x1D8C JUMP JUMPDEST PUSH2 0x60B JUMP JUMPDEST PUSH1 0x40 MLOAD PUSH2 0x265 SWAP2 SWAP1 PUSH2 0x1D47 JUMP JUMPDEST PUSH1 0x40 MLOAD DUP1 SWAP2 SUB SWAP1 RETURN JUMPDEST PUSH2 0x276 PUSH2 0x63A JUMP JUMPDEST PUSH1 0x40 MLOAD PUSH2 0x283 SWAP2 SWAP1 PUSH2 0x1D71 JUMP JUMPDEST PUSH1 0x40 MLOAD DUP1 SWAP2 SUB SWAP1 RETURN JUMPDEST PUSH2 0x294 PUSH2 0x644 JUMP JUMPDEST PUSH1 0x40 MLOAD PUSH2 0x2A1 SWAP2 SWAP1 PUSH2 0x1C6A JUMP JUMPDEST PUSH1 0x40 MLOAD DUP1 SWAP2 SUB SWAP1 RETURN JUMPDEST PUSH2 0x2C4 PUSH1 0x4 DUP1 CALLDATASIZE SUB DUP2 ADD SWAP1 PUSH2 0x2BF SWAP2 SWAP1 PUSH2 0x1DDF JUMP JUMPDEST PUSH2 0x66A JUMP JUMPDEST STOP JUMPDEST PUSH2 0x2CE PUSH2 0x73D JUMP JUMPDEST PUSH1 0x40 MLOAD PUSH2 0x2DB SWAP2 SWAP1 PUSH2 0x1E28 JUMP JUMPDEST PUSH1 0x40 MLOAD DUP1 SWAP2 SUB SWAP1 RETURN JUMPDEST PUSH2 0x2FE PUSH1 0x4 DUP1 CALLDATASIZE SUB DUP2 ADD SWAP1 PUSH2 0x2F9 SWAP2 SWAP1 PUSH2 0x1CEC JUMP JUMPDEST PUSH2 0x765 JUMP JUMPDEST PUSH1 0x40 MLOAD PUSH2 0x30B SWAP2 SWAP1 PUSH2 0x1D47 JUMP JUMPDEST PUSH1 0x40 MLOAD DUP1 SWAP2 SUB SWAP1 RETURN JUMPDEST PUSH2 0x32E PUSH1 0x4 DUP1 CALLDATASIZE SUB DUP2 ADD SWAP1 PUSH2 0x329 SWAP2 SWAP1 PUSH2 0x1E43 JUMP JUMPDEST PUSH2 0x79C JUMP JUMPDEST STOP JUMPDEST PUSH2 0x34A PUSH1 0x4 DUP1 CALLDATASIZE SUB DUP2 ADD SWAP1 PUSH2 0x345 SWAP2 SWAP1 PUSH2 0x1E43 JUMP JUMPDEST PUSH2 0x9E0 JUMP JUMPDEST STOP JUMPDEST PUSH2 0x366 PUSH1 0x4 DUP1 CALLDATASIZE SUB DUP2 ADD SWAP1 PUSH2 0x361 SWAP2 SWAP1 PUSH2 0x1E43 JUMP JUMPDEST PUSH2 0xC24 JUMP JUMPDEST PUSH1 0x40 MLOAD PUSH2 0x373 SWAP2 SWAP1 PUSH2 0x1D71 JUMP JUMPDEST PUSH1 0x40 MLOAD DUP1 SWAP2 SUB SWAP1 RETURN JUMPDEST PUSH2 0x384 PUSH2 0xC6C JUMP JUMPDEST PUSH1 0x40 MLOAD PUSH2 0x391 SWAP2 SWAP1 PUSH2 0x1C6A JUMP JUMPDEST PUSH1 0x40 MLOAD DUP1 SWAP2 SUB SWAP1 RETURN JUMPDEST PUSH2 0x3A2 PUSH2 0xC92 JUMP JUMPDEST PUSH1 0x40 MLOAD PUSH2 0x3AF SWAP2 SWAP1 PUSH2 0x1C07 JUMP JUMPDEST PUSH1 0x40 MLOAD DUP1 SWAP2 SUB SWAP1 RETURN JUMPDEST PUSH2 0x3D2 PUSH1 0x4 DUP1 CALLDATASIZE SUB DUP2 ADD SWAP1 PUSH2 0x3CD SWAP2 SWAP1 PUSH2 0x1DDF JUMP JUMPDEST PUSH2 0xD24 JUMP JUMPDEST STOP JUMPDEST PUSH2 0x3EE PUSH1 0x4 DUP1 CALLDATASIZE SUB DUP2 ADD SWAP1 PUSH2 0x3E9 SWAP2 SWAP1 PUSH2 0x1CEC JUMP JUMPDEST PUSH2 0xFBE JUMP JUMPDEST PUSH1 0x40 MLOAD PUSH2 0x3FB SWAP2 SWAP1 PUSH2 0x1D47 JUMP JUMPDEST PUSH1 0x40 MLOAD DUP1 SWAP2 SUB SWAP1 RETURN JUMPDEST PUSH2 0x41E PUSH1 0x4 DUP1 CALLDATASIZE SUB DUP2 ADD SWAP1 PUSH2 0x419 SWAP2 SWAP1 PUSH2 0x1CEC JUMP JUMPDEST PUSH2 0x1035 JUMP JUMPDEST PUSH1 0x40 MLOAD PUSH2 0x42B SWAP2 SWAP1 PUSH2 0x1D47 JUMP JUMPDEST PUSH1 0x40 MLOAD DUP1 SWAP2 SUB SWAP1 RETURN JUMPDEST PUSH2 0x44E PUSH1 0x4 DUP1 CALLDATASIZE SUB DUP2 ADD SWAP1 PUSH2 0x449 SWAP2 SWAP1 PUSH2 0x1CEC JUMP JUMPDEST PUSH2 0x1058 JUMP JUMPDEST PUSH1 0x40 MLOAD PUSH2 0x45B SWAP2 SWAP1 PUSH2 0x1D47 JUMP JUMPDEST PUSH1 0x40 MLOAD DUP1 SWAP2 SUB SWAP1 RETURN JUMPDEST PUSH2 0x46C PUSH2 0x1251 JUMP JUMPDEST STOP JUMPDEST PUSH2 0x476 PUSH2 0x1447 JUMP JUMPDEST PUSH1 0x40 MLOAD PUSH2 0x483 SWAP2 SWAP1 PUSH2 0x1D71 JUMP JUMPDEST PUSH1 0x40 MLOAD DUP1 SWAP2 SUB SWAP1 RETURN JUMPDEST PUSH2 0x4A6 PUSH1 0x4 DUP1 CALLDATASIZE SUB DUP2 ADD SWAP1 PUSH2 0x4A1 SWAP2 SWAP1 PUSH2 0x1E70 JUMP JUMPDEST PUSH2 0x146B JUMP JUMPDEST PUSH1 0x40 MLOAD PUSH2 0x4B3 SWAP2 SWAP1 PUSH2 0x1D71 JUMP JUMPDEST PUSH1 0x40 MLOAD DUP1 SWAP2 SUB SWAP1 RETURN JUMPDEST PUSH2 0x4C4 PUSH2 0x14F2 JUMP JUMPDEST PUSH1 0x40 MLOAD PUSH2 0x4D1 SWAP2 SWAP1 PUSH2 0x1C6A JUMP JUMPDEST PUSH1 0x40 MLOAD DUP1 SWAP2 SUB SWAP1 RETURN JUMPDEST PUSH1 0x60 PUSH1 0x3 DUP1 SLOAD PUSH2 0x4E9 SWAP1 PUSH2 0x1EDF JUMP JUMPDEST DUP1 PUSH1 0x1F ADD PUSH1 0x20 DUP1 SWAP2 DIV MUL PUSH1 0x20 ADD PUSH1 0x40 MLOAD SWAP1 DUP2 ADD PUSH1 0x40 MSTORE DUP1 SWAP3 SWAP2 SWAP1 DUP2 DUP2 MSTORE PUSH1 0x20 ADD DUP3 DUP1 SLOAD PUSH2 0x515 SWAP1 PUSH2 0x1EDF JUMP JUMPDEST DUP1 ISZERO PUSH2 0x562 JUMPI DUP1 PUSH1 0x1F LT PUSH2 0x537 JUMPI PUSH2 0x100 DUP1 DUP4 SLOAD DIV MUL DUP4 MSTORE SWAP2 PUSH1 0x20 ADD SWAP2 PUSH2 0x562 JUMP JUMPDEST DUP3 ADD SWAP2 SWAP1 PUSH1 0x0 MSTORE PUSH1 0x20 PUSH1 0x0 KECCAK256 SWAP1 JUMPDEST DUP2 SLOAD DUP2 MSTORE SWAP1 PUSH1 0x1 ADD SWAP1 PUSH1 0x20 ADD DUP1 DUP4 GT PUSH2 0x545 JUMPI DUP3 SWAP1 SUB PUSH1 0x1F AND DUP3 ADD SWAP2 JUMPDEST POP POP POP POP POP SWAP1 POP SWAP1 JUMP JUMPDEST PUSH1 0x6 PUSH1 0x0 SWAP1 SLOAD SWAP1 PUSH2 0x100 EXP SWAP1 DIV PUSH20 0xFFFFFFFFFFFFFFFFFFFFFFFFFFFFFFFFFFFFFFFF AND DUP2 JUMP JUMPDEST PUSH1 0x0 DUP1 PUSH2 0x59D PUSH2 0x1518 JUMP JUMPDEST SWAP1 POP PUSH2 0x5AA DUP2 DUP6 DUP6 PUSH2 0x1520 JUMP JUMPDEST PUSH1 0x1 SWAP2 POP POP SWAP3 SWAP2 POP POP JUMP JUMPDEST PUSH1 0xB PUSH1 0x0 SWAP1 SLOAD SWAP1 PUSH2 0x100 EXP SWAP1 DIV PUSH20 0xFFFFFFFFFFFFFFFFFFFFFFFFFFFFFFFFFFFFFFFF AND DUP2 JUMP JUMPDEST PUSH1 0x0 PUSH1 0x2 SLOAD SWAP1 POP SWAP1 JUMP JUMPDEST PUSH1 0x9 PUSH1 0x0 SWAP1 SLOAD SWAP1 PUSH2 0x100 EXP SWAP1 DIV PUSH20 0xFFFFFFFFFFFFFFFFFFFFFFFFFFFFFFFFFFFFFFFF AND DUP2 JUMP JUMPDEST PUSH1 0x0 DUP1 PUSH2 0x616 PUSH2 0x1518 JUMP JUMPDEST SWAP1 POP PUSH2 0x623 DUP6 DUP3 DUP6 PUSH2 0x16E9 JUMP JUMPDEST PUSH2 0x62E DUP6 DUP6 DUP6 PUSH2 0x1775 JUMP JUMPDEST PUSH1 0x1 SWAP2 POP POP SWAP4 SWAP3 POP POP POP JUMP JUMPDEST PUSH1 0x0 PUSH1 0x5 SLOAD SWAP1 POP SWAP1 JUMP JUMPDEST PUSH1 0x8 PUSH1 0x0 SWAP1 SLOAD SWAP1 PUSH2 0x100 EXP SWAP1 DIV PUSH20 0xFFFFFFFFFFFFFFFFFFFFFFFFFFFFFFFFFFFFFFFF AND DUP2 JUMP JUMPDEST PUSH1 0x7 PUSH1 0x0 SWAP1 SLOAD SWAP1 PUSH2 0x100 EXP SWAP1 DIV PUSH20 0xFFFFFFFFFFFFFFFFFFFFFFFFFFFFFFFFFFFFFFFF AND PUSH20 0xFFFFFFFFFFFFFFFFFFFFFFFFFFFFFFFFFFFFFFFF AND CALLER PUSH20 0xFFFFFFFFFFFFFFFFFFFFFFFFFFFFFFFFFFFFFFFF AND EQ PUSH2 0x6FA JUMPI PUSH1 0x40 MLOAD PUSH32 0x8C379A000000000000000000000000000000000000000000000000000000000 DUP2 MSTORE PUSH1 0x4 ADD PUSH2 0x6F1 SWAP1 PUSH2 0x1F5C JUMP JUMPDEST PUSH1 0x40 MLOAD DUP1 SWAP2 SUB SWAP1 REVERT JUMPDEST DUP1 PUSH1 0x5 DUP2 SWAP1 SSTORE POP PUSH32 0xD65D781DB82F0BD55F732EA1B96F4C6565750DF815C18A70962CD8405274E243 PUSH1 0x5 SLOAD PUSH1 0x40 MLOAD PUSH2 0x732 SWAP2 SWAP1 PUSH2 0x1D71 JUMP JUMPDEST PUSH1 0x40 MLOAD DUP1 SWAP2 SUB SWAP1 LOG1 POP JUMP JUMPDEST PUSH1 0x0 PUSH32 0x0 SWAP1 POP SWAP1 JUMP JUMPDEST PUSH1 0x0 DUP1 PUSH2 0x770 PUSH2 0x1518 JUMP JUMPDEST SWAP1 POP PUSH2 0x791 DUP2 DUP6 DUP6 PUSH2 0x782 DUP6 DUP10 PUSH2 0x146B JUMP JUMPDEST PUSH2 0x78C SWAP2 SWAP1 PUSH2 0x1FAB JUMP JUMPDEST PUSH2 0x1520 JUMP JUMPDEST PUSH1 0x1 SWAP2 POP POP SWAP3 SWAP2 POP POP JUMP JUMPDEST PUSH1 0x7 PUSH1 0x0 SWAP1 SLOAD SWAP1 PUSH2 0x100 EXP SWAP1 DIV PUSH20 0xFFFFFFFFFFFFFFFFFFFFFFFFFFFFFFFFFFFFFFFF AND PUSH20 0xFFFFFFFFFFFFFFFFFFFFFFFFFFFFFFFFFFFFFFFF AND CALLER PUSH20 0xFFFFFFFFFFFFFFFFFFFFFFFFFFFFFFFFFFFFFFFF AND EQ PUSH2 0x82C JUMPI PUSH1 0x40 MLOAD PUSH32 0x8C379A000000000000000000000000000000000000000000000000000000000 DUP2 MSTORE PUSH1 0x4 ADD PUSH2 0x823 SWAP1 PUSH2 0x1F5C JUMP JUMPDEST PUSH1 0x40 MLOAD DUP1 SWAP2 SUB SWAP1 REVERT JUMPDEST PUSH1 0x0 PUSH20 0xFFFFFFFFFFFFFFFFFFFFFFFFFFFFFFFFFFFFFFFF AND DUP2 PUSH20 0xFFFFFFFFFFFFFFFFFFFFFFFFFFFFFFFFFFFFFFFF AND SUB PUSH2 0x89B JUMPI PUSH1 0x40 MLOAD PUSH32 0x8C379A000000000000000000000000000000000000000000000000000000000 DUP2 MSTORE PUSH1 0x4 ADD PUSH2 0x892 SWAP1 PUSH2 0x202B JUMP JUMPDEST PUSH1 0x40 MLOAD DUP1 SWAP2 SUB SWAP1 REVERT JUMPDEST PUSH1 0x8 PUSH1 0x0 SWAP1 SLOAD SWAP1 PUSH2 0x100 EXP SWAP1 DIV PUSH20 0xFFFFFFFFFFFFFFFFFFFFFFFFFFFFFFFFFFFFFFFF AND PUSH1 0xA PUSH1 0x0 PUSH2 0x100 EXP DUP2 SLOAD DUP2 PUSH20 0xFFFFFFFFFFFFFFFFFFFFFFFFFFFFFFFFFFFFFFFF MUL NOT AND SWAP1 DUP4 PUSH20 0xFFFFFFFFFFFFFFFFFFFFFFFFFFFFFFFFFFFFFFFF AND MUL OR SWAP1 SSTORE POP DUP1 PUSH1 0x8 PUSH1 0x0 PUSH2 0x100 EXP DUP2 SLOAD DUP2 PUSH20 0xFFFFFFFFFFFFFFFFFFFFFFFFFFFFFFFFFFFFFFFF MUL NOT AND SWAP1 DUP4 PUSH20 0xFFFFFFFFFFFFFFFFFFFFFFFFFFFFFFFFFFFFFFFF AND MUL OR SWAP1 SSTORE POP PUSH1 0x8 PUSH1 0x0 SWAP1 SLOAD SWAP1 PUSH2 0x100 EXP SWAP1 DIV PUSH20 0xFFFFFFFFFFFFFFFFFFFFFFFFFFFFFFFFFFFFFFFF AND PUSH20 0xFFFFFFFFFFFFFFFFFFFFFFFFFFFFFFFFFFFFFFFF AND PUSH1 0xA PUSH1 0x0 SWAP1 SLOAD SWAP1 PUSH2 0x100 EXP SWAP1 DIV PUSH20 0xFFFFFFFFFFFFFFFFFFFFFFFFFFFFFFFFFFFFFFFF AND PUSH20 0xFFFFFFFFFFFFFFFFFFFFFFFFFFFFFFFFFFFFFFFF AND PUSH32 0xED1A3B5DEA5773C7660D05CC9884B43F5E8E0B581713E873F013560558890F49 PUSH1 0x40 MLOAD PUSH1 0x40 MLOAD DUP1 SWAP2 SUB SWAP1 LOG3 POP JUMP JUMPDEST PUSH1 0x7 PUSH1 0x0 SWAP1 SLOAD SWAP1 PUSH2 0x100 EXP SWAP1 DIV PUSH20 0xFFFFFFFFFFFFFFFFFFFFFFFFFFFFFFFFFFFFFFFF AND PUSH20 0xFFFFFFFFFFFFFFFFFFFFFFFFFFFFFFFFFFFFFFFF AND CALLER PUSH20 0xFFFFFFFFFFFFFFFFFFFFFFFFFFFFFFFFFFFFFFFF AND EQ PUSH2 0xA70 JUMPI PUSH1 0x40 MLOAD PUSH32 0x8C379A000000000000000000000000000000000000000000000000000000000 DUP2 MSTORE PUSH1 0x4 ADD PUSH2 0xA67 SWAP1 PUSH2 0x1F5C JUMP JUMPDEST PUSH1 0x40 MLOAD DUP1 SWAP2 SUB SWAP1 REVERT JUMPDEST PUSH1 0x0 PUSH20 0xFFFFFFFFFFFFFFFFFFFFFFFFFFFFFFFFFFFFFFFF AND DUP2 PUSH20 0xFFFFFFFFFFFFFFFFFFFFFFFFFFFFFFFFFFFFFFFF AND SUB PUSH2 0xADF JUMPI PUSH1 0x40 MLOAD PUSH32 0x8C379A000000000000000000000000000000000000000000000000000000000 DUP2 MSTORE PUSH1 0x4 ADD PUSH2 0xAD6 SWAP1 PUSH2 0x2097 JUMP JUMPDEST PUSH1 0x40 MLOAD DUP1 SWAP2 SUB SWAP1 REVERT JUMPDEST PUSH1 0x6 PUSH1 0x0 SWAP1 SLOAD SWAP1 PUSH2 0x100 EXP SWAP1 DIV PUSH20 0xFFFFFFFFFFFFFFFFFFFFFFFFFFFFFFFFFFFFFFFF AND PUSH1 0x9 PUSH1 0x0 PUSH2 0x100 EXP DUP2 SLOAD DUP2 PUSH20 0xFFFFFFFFFFFFFFFFFFFFFFFFFFFFFFFFFFFFFFFF MUL NOT AND SWAP1 DUP4 PUSH20 0xFFFFFFFFFFFFFFFFFFFFFFFFFFFFFFFFFFFFFFFF AND MUL OR SWAP1 SSTORE POP DUP1 PUSH1 0x6 PUSH1 0x0 PUSH2 0x100 EXP DUP2 SLOAD DUP2 PUSH20 0xFFFFFFFFFFFFFFFFFFFFFFFFFFFFFFFFFFFFFFFF MUL NOT AND SWAP1 DUP4 PUSH20 0xFFFFFFFFFFFFFFFFFFFFFFFFFFFFFFFFFFFFFFFF AND MUL OR SWAP1 SSTORE POP PUSH1 0x6 PUSH1 0x0 SWAP1 SLOAD SWAP1 PUSH2 0x100 EXP SWAP1 DIV PUSH20 0xFFFFFFFFFFFFFFFFFFFFFFFFFFFFFFFFFFFFFFFF AND PUSH20 0xFFFFFFFFFFFFFFFFFFFFFFFFFFFFFFFFFFFFFFFF AND PUSH1 0x9 PUSH1 0x0 SWAP1 SLOAD SWAP1 PUSH2 0x100 EXP SWAP1 DIV PUSH20 0xFFFFFFFFFFFFFFFFFFFFFFFFFFFFFFFFFFFFFFFF AND PUSH20 0xFFFFFFFFFFFFFFFFFFFFFFFFFFFFFFFFFFFFFFFF AND PUSH32 0xFB80F39493422136408EDD986F7CA83C10534204422DD1DFEBB055DE4EF0FD53 PUSH1 0x40 MLOAD PUSH1 0x40 MLOAD DUP1 SWAP2 SUB SWAP1 LOG3 POP JUMP JUMPDEST PUSH1 0x0 DUP1 PUSH1 0x0 DUP4 PUSH20 0xFFFFFFFFFFFFFFFFFFFFFFFFFFFFFFFFFFFFFFFF AND PUSH20 0xFFFFFFFFFFFFFFFFFFFFFFFFFFFFFFFFFFFFFFFF AND DUP2 MSTORE PUSH1 0x20 ADD SWAP1 DUP2 MSTORE PUSH1 0x20 ADD PUSH1 0x0 KECCAK256 SLOAD SWAP1 POP SWAP2 SWAP1 POP JUMP JUMPDEST PUSH1 0xA PUSH1 0x0 SWAP1 SLOAD SWAP1 PUSH2 0x100 EXP SWAP1 DIV PUSH20 0xFFFFFFFFFFFFFFFFFFFFFFFFFFFFFFFFFFFFFFFF AND DUP2 JUMP JUMPDEST PUSH1 0x60 PUSH1 0x4 DUP1 SLOAD PUSH2 0xCA1 SWAP1 PUSH2 0x1EDF JUMP JUMPDEST DUP1 PUSH1 0x1F ADD PUSH1 0x20 DUP1 SWAP2 DIV MUL PUSH1 0x20 ADD PUSH1 0x40 MLOAD SWAP1 DUP2 ADD PUSH1 0x40 MSTORE DUP1 SWAP3 SWAP2 SWAP1 DUP2 DUP2 MSTORE PUSH1 0x20 ADD DUP3 DUP1 SLOAD PUSH2 0xCCD SWAP1 PUSH2 0x1EDF JUMP JUMPDEST DUP1 ISZERO PUSH2 0xD1A JUMPI DUP1 PUSH1 0x1F LT PUSH2 0xCEF JUMPI PUSH2 0x100 DUP1 DUP4 SLOAD DIV MUL DUP4 MSTORE SWAP2 PUSH1 0x20 ADD SWAP2 PUSH2 0xD1A JUMP JUMPDEST DUP3 ADD SWAP2 SWAP1 PUSH1 0x0 MSTORE PUSH1 0x20 PUSH1 0x0 KECCAK256 SWAP1 JUMPDEST DUP2 SLOAD DUP2 MSTORE SWAP1 PUSH1 0x1 ADD SWAP1 PUSH1 0x20 ADD DUP1 DUP4 GT PUSH2 0xCFD JUMPI DUP3 SWAP1 SUB PUSH1 0x1F AND DUP3 ADD SWAP2 JUMPDEST POP POP POP POP POP SWAP1 POP SWAP1 JUMP JUMPDEST PUSH1 0x7 PUSH1 0x0 SWAP1 SLOAD SWAP1 PUSH2 0x100 EXP SWAP1 DIV PUSH20 0xFFFFFFFFFFFFFFFFFFFFFFFFFFFFFFFFFFFFFFFF AND PUSH20 0xFFFFFFFFFFFFFFFFFFFFFFFFFFFFFFFFFFFFFFFF AND CALLER PUSH20 0xFFFFFFFFFFFFFFFFFFFFFFFFFFFFFFFFFFFFFFFF AND EQ PUSH2 0xDB4 JUMPI PUSH1 0x40 MLOAD PUSH32 0x8C379A000000000000000000000000000000000000000000000000000000000 DUP2 MSTORE PUSH1 0x4 ADD PUSH2 0xDAB SWAP1 PUSH2 0x1F5C JUMP JUMPDEST PUSH1 0x40 MLOAD DUP1 SWAP2 SUB SWAP1 REVERT JUMPDEST PUSH1 0x7 PUSH1 0x0 SWAP1 SLOAD SWAP1 PUSH2 0x100 EXP SWAP1 DIV PUSH20 0xFFFFFFFFFFFFFFFFFFFFFFFFFFFFFFFFFFFFFFFF AND PUSH20 0xFFFFFFFFFFFFFFFFFFFFFFFFFFFFFFFFFFFFFFFF AND CALLER PUSH20 0xFFFFFFFFFFFFFFFFFFFFFFFFFFFFFFFFFFFFFFFF AND EQ PUSH2 0xE44 JUMPI PUSH1 0x40 MLOAD PUSH32 0x8C379A000000000000000000000000000000000000000000000000000000000 DUP2 MSTORE PUSH1 0x4 ADD PUSH2 0xE3B SWAP1 PUSH2 0x2103 JUMP JUMPDEST PUSH1 0x40 MLOAD DUP1 SWAP2 SUB SWAP1 REVERT JUMPDEST PUSH1 0x0 ADDRESS PUSH20 0xFFFFFFFFFFFFFFFFFFFFFFFFFFFFFFFFFFFFFFFF AND PUSH4 0x18160DDD PUSH1 0x40 MLOAD DUP2 PUSH4 0xFFFFFFFF AND PUSH1 0xE0 SHL DUP2 MSTORE PUSH1 0x4 ADD PUSH1 0x20 PUSH1 0x40 MLOAD DUP1 DUP4 SUB DUP2 DUP7 GAS STATICCALL ISZERO DUP1 ISZERO PUSH2 0xE91 JUMPI RETURNDATASIZE PUSH1 0x0 DUP1 RETURNDATACOPY RETURNDATASIZE PUSH1 0x0 REVERT JUMPDEST POP POP POP POP PUSH1 0x40 MLOAD RETURNDATASIZE PUSH1 0x1F NOT PUSH1 0x1F DUP3 ADD AND DUP3 ADD DUP1 PUSH1 0x40 MSTORE POP DUP2 ADD SWAP1 PUSH2 0xEB5 SWAP2 SWAP1 PUSH2 0x2138 JUMP JUMPDEST SWAP1 POP PUSH32 0x0 DUP2 GT ISZERO PUSH2 0xF1A JUMPI PUSH1 0x40 MLOAD PUSH32 0x8C379A000000000000000000000000000000000000000000000000000000000 DUP2 MSTORE PUSH1 0x4 ADD PUSH2 0xF11 SWAP1 PUSH2 0x21B1 JUMP JUMPDEST PUSH1 0x40 MLOAD DUP1 SWAP2 SUB SWAP1 REVERT JUMPDEST PUSH32 0x0 PUSH2 0xF4E DUP4 DUP4 PUSH2 0x19EB SWAP1 SWAP2 SWAP1 PUSH4 0xFFFFFFFF AND JUMP JUMPDEST LT PUSH2 0xF8E JUMPI PUSH1 0x40 MLOAD PUSH32 0x8C379A000000000000000000000000000000000000000000000000000000000 DUP2 MSTORE PUSH1 0x4 ADD PUSH2 0xF85 SWAP1 PUSH2 0x221D JUMP JUMPDEST PUSH1 0x40 MLOAD DUP1 SWAP2 SUB SWAP1 REVERT JUMPDEST PUSH2 0xFBA PUSH1 0x7 PUSH1 0x0 SWAP1 SLOAD SWAP1 PUSH2 0x100 EXP SWAP1 DIV PUSH20 0xFFFFFFFFFFFFFFFFFFFFFFFFFFFFFFFFFFFFFFFF AND DUP4 PUSH2 0x1A01 JUMP JUMPDEST POP POP JUMP JUMPDEST PUSH1 0x0 DUP1 PUSH2 0xFC9 PUSH2 0x1518 JUMP JUMPDEST SWAP1 POP PUSH1 0x0 PUSH2 0xFD7 DUP3 DUP7 PUSH2 0x146B JUMP JUMPDEST SWAP1 POP DUP4 DUP2 LT ISZERO PUSH2 0x101C JUMPI PUSH1 0x40 MLOAD PUSH32 0x8C379A000000000000000000000000000000000000000000000000000000000 DUP2 MSTORE PUSH1 0x4 ADD PUSH2 0x1013 SWAP1 PUSH2 0x22AF JUMP JUMPDEST PUSH1 0x40 MLOAD DUP1 SWAP2 SUB SWAP1 REVERT JUMPDEST PUSH2 0x1029 DUP3 DUP7 DUP7 DUP5 SUB PUSH2 0x1520 JUMP JUMPDEST PUSH1 0x1 SWAP3 POP POP POP SWAP3 SWAP2 POP POP JUMP JUMPDEST PUSH1 0x0 DUP1 PUSH2 0x1040 PUSH2 0x1518 JUMP JUMPDEST SWAP1 POP PUSH2 0x104D DUP2 DUP6 DUP6 PUSH2 0x1775 JUMP JUMPDEST PUSH1 0x1 SWAP2 POP POP SWAP3 SWAP2 POP POP JUMP JUMPDEST PUSH1 0x0 PUSH1 0x6 PUSH1 0x0 SWAP1 SLOAD SWAP1 PUSH2 0x100 EXP SWAP1 DIV PUSH20 0xFFFFFFFFFFFFFFFFFFFFFFFFFFFFFFFFFFFFFFFF AND PUSH20 0xFFFFFFFFFFFFFFFFFFFFFFFFFFFFFFFFFFFFFFFF AND CALLER PUSH20 0xFFFFFFFFFFFFFFFFFFFFFFFFFFFFFFFFFFFFFFFF AND EQ PUSH2 0x10EA JUMPI PUSH1 0x40 MLOAD PUSH32 0x8C379A000000000000000000000000000000000000000000000000000000000 DUP2 MSTORE PUSH1 0x4 ADD PUSH2 0x10E1 SWAP1 PUSH2 0x231B JUMP JUMPDEST PUSH1 0x40 MLOAD DUP1 SWAP2 SUB SWAP1 REVERT JUMPDEST PUSH1 0x0 PUSH20 0xFFFFFFFFFFFFFFFFFFFFFFFFFFFFFFFFFFFFFFFF AND DUP4 PUSH20 0xFFFFFFFFFFFFFFFFFFFFFFFFFFFFFFFFFFFFFFFF AND SUB PUSH2 0x1127 JUMPI PUSH1 0x0 SWAP1 POP PUSH2 0x124B JUMP JUMPDEST PUSH1 0x0 ADDRESS PUSH20 0xFFFFFFFFFFFFFFFFFFFFFFFFFFFFFFFFFFFFFFFF AND PUSH4 0x18160DDD PUSH1 0x40 MLOAD DUP2 PUSH4 0xFFFFFFFF AND PUSH1 0xE0 SHL DUP2 MSTORE PUSH1 0x4 ADD PUSH1 0x20 PUSH1 0x40 MLOAD DUP1 DUP4 SUB DUP2 DUP7 GAS STATICCALL ISZERO DUP1 ISZERO PUSH2 0x1174 JUMPI RETURNDATASIZE PUSH1 0x0 DUP1 RETURNDATACOPY RETURNDATASIZE PUSH1 0x0 REVERT JUMPDEST POP POP POP POP PUSH1 0x40 MLOAD RETURNDATASIZE PUSH1 0x1F NOT PUSH1 0x1F DUP3 ADD AND DUP3 ADD DUP1 PUSH1 0x40 MSTORE POP DUP2 ADD SWAP1 PUSH2 0x1198 SWAP2 SWAP1 PUSH2 0x2138 JUMP JUMPDEST SWAP1 POP PUSH32 0x0 DUP2 LT PUSH2 0x11CB JUMPI PUSH1 0x0 SWAP2 POP POP PUSH2 0x124B JUMP JUMPDEST PUSH32 0x0 PUSH2 0x11FF DUP5 DUP4 PUSH2 0x19EB SWAP1 SWAP2 SWAP1 PUSH4 0xFFFFFFFF AND JUMP JUMPDEST GT ISZERO PUSH2 0x123B JUMPI PUSH2 0x1238 DUP2 PUSH32 0x0 PUSH2 0x1B57 SWAP1 SWAP2 SWAP1 PUSH4 0xFFFFFFFF AND JUMP JUMPDEST SWAP3 POP JUMPDEST PUSH2 0x1245 DUP5 DUP5 PUSH2 0x1A01 JUMP JUMPDEST PUSH1 0x1 SWAP2 POP POP JUMPDEST SWAP3 SWAP2 POP POP JUMP JUMPDEST PUSH1 0x8 PUSH1 0x0 SWAP1 SLOAD SWAP1 PUSH2 0x100 EXP SWAP1 DIV PUSH20 0xFFFFFFFFFFFFFFFFFFFFFFFFFFFFFFFFFFFFFFFF AND PUSH20 0xFFFFFFFFFFFFFFFFFFFFFFFFFFFFFFFFFFFFFFFF AND CALLER PUSH20 0xFFFFFFFFFFFFFFFFFFFFFFFFFFFFFFFFFFFFFFFF AND EQ PUSH2 0x12E1 JUMPI PUSH1 0x40 MLOAD PUSH32 0x8C379A000000000000000000000000000000000000000000000000000000000 DUP2 MSTORE PUSH1 0x4 ADD PUSH2 0x12D8 SWAP1 PUSH2 0x23AD JUMP JUMPDEST PUSH1 0x40 MLOAD DUP1 SWAP2 SUB SWAP1 REVERT JUMPDEST PUSH1 0x7 PUSH1 0x0 SWAP1 SLOAD SWAP1 PUSH2 0x100 EXP SWAP1 DIV PUSH20 0xFFFFFFFFFFFFFFFFFFFFFFFFFFFFFFFFFFFFFFFF AND PUSH1 0xB PUSH1 0x0 PUSH2 0x100 EXP DUP2 SLOAD DUP2 PUSH20 0xFFFFFFFFFFFFFFFFFFFFFFFFFFFFFFFFFFFFFFFF MUL NOT AND SWAP1 DUP4 PUSH20 0xFFFFFFFFFFFFFFFFFFFFFFFFFFFFFFFFFFFFFFFF AND MUL OR SWAP1 SSTORE POP PUSH1 0x8 PUSH1 0x0 SWAP1 SLOAD SWAP1 PUSH2 0x100 EXP SWAP1 DIV PUSH20 0xFFFFFFFFFFFFFFFFFFFFFFFFFFFFFFFFFFFFFFFF AND PUSH1 0x7 PUSH1 0x0 PUSH2 0x100 EXP DUP2 SLOAD DUP2 PUSH20 0xFFFFFFFFFFFFFFFFFFFFFFFFFFFFFFFFFFFFFFFF MUL NOT AND SWAP1 DUP4 PUSH20 0xFFFFFFFFFFFFFFFFFFFFFFFFFFFFFFFFFFFFFFFF AND MUL OR SWAP1 SSTORE POP PUSH1 0x7 PUSH1 0x0 SWAP1 SLOAD SWAP1 PUSH2 0x100 EXP SWAP1 DIV PUSH20 0xFFFFFFFFFFFFFFFFFFFFFFFFFFFFFFFFFFFFFFFF AND PUSH20 0xFFFFFFFFFFFFFFFFFFFFFFFFFFFFFFFFFFFFFFFF AND PUSH1 0xB PUSH1 0x0 SWAP1 SLOAD SWAP1 PUSH2 0x100 EXP SWAP1 DIV PUSH20 0xFFFFFFFFFFFFFFFFFFFFFFFFFFFFFFFFFFFFFFFF AND PUSH20 0xFFFFFFFFFFFFFFFFFFFFFFFFFFFFFFFFFFFFFFFF AND PUSH32 0xCD6BA6B7DA89E039D53B5D981527A893755342BB9D8E5C2F61F6638F1FB5192B PUSH1 0x40 MLOAD PUSH1 0x40 MLOAD DUP1 SWAP2 SUB SWAP1 LOG3 JUMP JUMPDEST PUSH32 0x0 DUP2 JUMP JUMPDEST PUSH1 0x0 PUSH1 0x1 PUSH1 0x0 DUP5 PUSH20 0xFFFFFFFFFFFFFFFFFFFFFFFFFFFFFFFFFFFFFFFF AND PUSH20 0xFFFFFFFFFFFFFFFFFFFFFFFFFFFFFFFFFFFFFFFF AND DUP2 MSTORE PUSH1 0x20 ADD SWAP1 DUP2 MSTORE PUSH1 0x20 ADD PUSH1 0x0 KECCAK256 PUSH1 0x0 DUP4 PUSH20 0xFFFFFFFFFFFFFFFFFFFFFFFFFFFFFFFFFFFFFFFF AND PUSH20 0xFFFFFFFFFFFFFFFFFFFFFFFFFFFFFFFFFFFFFFFF AND DUP2 MSTORE PUSH1 0x20 ADD SWAP1 DUP2 MSTORE PUSH1 0x20 ADD PUSH1 0x0 KECCAK256 SLOAD SWAP1 POP SWAP3 SWAP2 POP POP JUMP JUMPDEST PUSH1 0x7 PUSH1 0x0 SWAP1 SLOAD SWAP1 PUSH2 0x100 EXP SWAP1 DIV PUSH20 0xFFFFFFFFFFFFFFFFFFFFFFFFFFFFFFFFFFFFFFFF AND DUP2 JUMP JUMPDEST PUSH1 0x0 CALLER SWAP1 POP SWAP1 JUMP JUMPDEST PUSH1 0x0 PUSH20 0xFFFFFFFFFFFFFFFFFFFFFFFFFFFFFFFFFFFFFFFF AND DUP4 PUSH20 0xFFFFFFFFFFFFFFFFFFFFFFFFFFFFFFFFFFFFFFFF AND SUB PUSH2 0x158F JUMPI PUSH1 0x40 MLOAD PUSH32 0x8C379A000000000000000000000000000000000000000000000000000000000 DUP2 MSTORE PUSH1 0x4 ADD PUSH2 0x1586 SWAP1 PUSH2 0x243F JUMP JUMPDEST PUSH1 0x40 MLOAD DUP1 SWAP2 SUB SWAP1 REVERT JUMPDEST PUSH1 0x0 PUSH20 0xFFFFFFFFFFFFFFFFFFFFFFFFFFFFFFFFFFFFFFFF AND DUP3 PUSH20 0xFFFFFFFFFFFFFFFFFFFFFFFFFFFFFFFFFFFFFFFF AND SUB PUSH2 0x15FE JUMPI PUSH1 0x40 MLOAD PUSH32 0x8C379A000000000000000000000000000000000000000000000000000000000 DUP2 MSTORE PUSH1 0x4 ADD PUSH2 0x15F5 SWAP1 PUSH2 0x24D1 JUMP JUMPDEST PUSH1 0x40 MLOAD DUP1 SWAP2 SUB SWAP1 REVERT JUMPDEST DUP1 PUSH1 0x1 PUSH1 0x0 DUP6 PUSH20 0xFFFFFFFFFFFFFFFFFFFFFFFFFFFFFFFFFFFFFFFF AND PUSH20 0xFFFFFFFFFFFFFFFFFFFFFFFFFFFFFFFFFFFFFFFF AND DUP2 MSTORE PUSH1 0x20 ADD SWAP1 DUP2 MSTORE PUSH1 0x20 ADD PUSH1 0x0 KECCAK256 PUSH1 0x0 DUP5 PUSH20 0xFFFFFFFFFFFFFFFFFFFFFFFFFFFFFFFFFFFFFFFF AND PUSH20 0xFFFFFFFFFFFFFFFFFFFFFFFFFFFFFFFFFFFFFFFF AND DUP2 MSTORE PUSH1 0x20 ADD SWAP1 DUP2 MSTORE PUSH1 0x20 ADD PUSH1 0x0 KECCAK256 DUP2 SWAP1 SSTORE POP DUP2 PUSH20 0xFFFFFFFFFFFFFFFFFFFFFFFFFFFFFFFFFFFFFFFF AND DUP4 PUSH20 0xFFFFFFFFFFFFFFFFFFFFFFFFFFFFFFFFFFFFFFFF AND PUSH32 0x8C5BE1E5EBEC7D5BD14F71427D1E84F3DD0314C0F7B2291E5B200AC8C7C3B925 DUP4 PUSH1 0x40 MLOAD PUSH2 0x16DC SWAP2 SWAP1 PUSH2 0x1D71 JUMP JUMPDEST PUSH1 0x40 MLOAD DUP1 SWAP2 SUB SWAP1 LOG3 POP POP POP JUMP JUMPDEST PUSH1 0x0 PUSH2 0x16F5 DUP5 DUP5 PUSH2 0x146B JUMP JUMPDEST SWAP1 POP PUSH32 0xFFFFFFFFFFFFFFFFFFFFFFFFFFFFFFFFFFFFFFFFFFFFFFFFFFFFFFFFFFFFFFFF DUP2 EQ PUSH2 0x176F JUMPI DUP2 DUP2 LT ISZERO PUSH2 0x1761 JUMPI PUSH1 0x40 MLOAD PUSH32 0x8C379A000000000000000000000000000000000000000000000000000000000 DUP2 MSTORE PUSH1 0x4 ADD PUSH2 0x1758 SWAP1 PUSH2 0x253D JUMP JUMPDEST PUSH1 0x40 MLOAD DUP1 SWAP2 SUB SWAP1 REVERT JUMPDEST PUSH2 0x176E DUP5 DUP5 DUP5 DUP5 SUB PUSH2 0x1520 JUMP JUMPDEST JUMPDEST POP POP POP POP JUMP JUMPDEST PUSH1 0x0 PUSH20 0xFFFFFFFFFFFFFFFFFFFFFFFFFFFFFFFFFFFFFFFF AND DUP4 PUSH20 0xFFFFFFFFFFFFFFFFFFFFFFFFFFFFFFFFFFFFFFFF AND SUB PUSH2 0x17E4 JUMPI PUSH1 0x40 MLOAD PUSH32 0x8C379A000000000000000000000000000000000000000000000000000000000 DUP2 MSTORE PUSH1 0x4 ADD PUSH2 0x17DB SWAP1 PUSH2 0x25CF JUMP JUMPDEST PUSH1 0x40 MLOAD DUP1 SWAP2 SUB SWAP1 REVERT JUMPDEST PUSH1 0x0 PUSH20 0xFFFFFFFFFFFFFFFFFFFFFFFFFFFFFFFFFFFFFFFF AND DUP3 PUSH20 0xFFFFFFFFFFFFFFFFFFFFFFFFFFFFFFFFFFFFFFFF AND SUB PUSH2 0x1853 JUMPI PUSH1 0x40 MLOAD PUSH32 0x8C379A000000000000000000000000000000000000000000000000000000000 DUP2 MSTORE PUSH1 0x4 ADD PUSH2 0x184A SWAP1 PUSH2 0x2661 JUMP JUMPDEST PUSH1 0x40 MLOAD DUP1 SWAP2 SUB SWAP1 REVERT JUMPDEST PUSH2 0x185E DUP4 DUP4 DUP4 PUSH2 0x1B6D JUMP JUMPDEST PUSH1 0x0 DUP1 PUSH1 0x0 DUP6 PUSH20 0xFFFFFFFFFFFFFFFFFFFFFFFFFFFFFFFFFFFFFFFF AND PUSH20 0xFFFFFFFFFFFFFFFFFFFFFFFFFFFFFFFFFFFFFFFF AND DUP2 MSTORE PUSH1 0x20 ADD SWAP1 DUP2 MSTORE PUSH1 0x20 ADD PUSH1 0x0 KECCAK256 SLOAD SWAP1 POP DUP2 DUP2 LT ISZERO PUSH2 0x18E4 JUMPI PUSH1 0x40 MLOAD PUSH32 0x8C379A000000000000000000000000000000000000000000000000000000000 DUP2 MSTORE PUSH1 0x4 ADD PUSH2 0x18DB SWAP1 PUSH2 0x26F3 JUMP JUMPDEST PUSH1 0x40 MLOAD DUP1 SWAP2 SUB SWAP1 REVERT JUMPDEST DUP2 DUP2 SUB PUSH1 0x0 DUP1 DUP7 PUSH20 0xFFFFFFFFFFFFFFFFFFFFFFFFFFFFFFFFFFFFFFFF AND PUSH20 0xFFFFFFFFFFFFFFFFFFFFFFFFFFFFFFFFFFFFFFFF AND DUP2 MSTORE PUSH1 0x20 ADD SWAP1 DUP2 MSTORE PUSH1 0x20 ADD PUSH1 0x0 KECCAK256 DUP2 SWAP1 SSTORE POP DUP2 PUSH1 0x0 DUP1 DUP6 PUSH20 0xFFFFFFFFFFFFFFFFFFFFFFFFFFFFFFFFFFFFFFFF AND PUSH20 0xFFFFFFFFFFFFFFFFFFFFFFFFFFFFFFFFFFFFFFFF AND DUP2 MSTORE PUSH1 0x20 ADD SWAP1 DUP2 MSTORE PUSH1 0x20 ADD PUSH1 0x0 KECCAK256 PUSH1 0x0 DUP3 DUP3 SLOAD ADD SWAP3 POP POP DUP2 SWAP1 SSTORE POP DUP3 PUSH20 0xFFFFFFFFFFFFFFFFFFFFFFFFFFFFFFFFFFFFFFFF AND DUP5 PUSH20 0xFFFFFFFFFFFFFFFFFFFFFFFFFFFFFFFFFFFFFFFF AND PUSH32 0xDDF252AD1BE2C89B69C2B068FC378DAA952BA7F163C4A11628F55A4DF523B3EF DUP5 PUSH1 0x40 MLOAD PUSH2 0x19D2 SWAP2 SWAP1 PUSH2 0x1D71 JUMP JUMPDEST PUSH1 0x40 MLOAD DUP1 SWAP2 SUB SWAP1 LOG3 PUSH2 0x19E5 DUP5 DUP5 DUP5 PUSH2 0x1B72 JUMP JUMPDEST POP POP POP POP JUMP JUMPDEST PUSH1 0x0 DUP2 DUP4 PUSH2 0x19F9 SWAP2 SWAP1 PUSH2 0x1FAB JUMP JUMPDEST SWAP1 POP SWAP3 SWAP2 POP POP JUMP JUMPDEST PUSH1 0x0 PUSH20 0xFFFFFFFFFFFFFFFFFFFFFFFFFFFFFFFFFFFFFFFF AND DUP3 PUSH20 0xFFFFFFFFFFFFFFFFFFFFFFFFFFFFFFFFFFFFFFFF AND SUB PUSH2 0x1A70 JUMPI PUSH1 0x40 MLOAD PUSH32 0x8C379A000000000000000000000000000000000000000000000000000000000 DUP2 MSTORE PUSH1 0x4 ADD PUSH2 0x1A67 SWAP1 PUSH2 0x275F JUMP JUMPDEST PUSH1 0x40 MLOAD DUP1 SWAP2 SUB SWAP1 REVERT JUMPDEST PUSH2 0x1A7C PUSH1 0x0 DUP4 DUP4 PUSH2 0x1B6D JUMP JUMPDEST DUP1 PUSH1 0x2 PUSH1 0x0 DUP3 DUP3 SLOAD PUSH2 0x1A8E SWAP2 SWAP1 PUSH2 0x1FAB JUMP JUMPDEST SWAP3 POP POP DUP2 SWAP1 SSTORE POP DUP1 PUSH1 0x0 DUP1 DUP5 PUSH20 0xFFFFFFFFFFFFFFFFFFFFFFFFFFFFFFFFFFFFFFFF AND PUSH20 0xFFFFFFFFFFFFFFFFFFFFFFFFFFFFFFFFFFFFFFFF AND DUP2 MSTORE PUSH1 0x20 ADD SWAP1 DUP2 MSTORE PUSH1 0x20 ADD PUSH1 0x0 KECCAK256 PUSH1 0x0 DUP3 DUP3 SLOAD ADD SWAP3 POP POP DUP2 SWAP1 SSTORE POP DUP2 PUSH20 0xFFFFFFFFFFFFFFFFFFFFFFFFFFFFFFFFFFFFFFFF AND PUSH1 0x0 PUSH20 0xFFFFFFFFFFFFFFFFFFFFFFFFFFFFFFFFFFFFFFFF AND PUSH32 0xDDF252AD1BE2C89B69C2B068FC378DAA952BA7F163C4A11628F55A4DF523B3EF DUP4 PUSH1 0x40 MLOAD PUSH2 0x1B3F SWAP2 SWAP1 PUSH2 0x1D71 JUMP JUMPDEST PUSH1 0x40 MLOAD DUP1 SWAP2 SUB SWAP1 LOG3 PUSH2 0x1B53 PUSH1 0x0 DUP4 DUP4 PUSH2 0x1B72 JUMP JUMPDEST POP POP JUMP JUMPDEST PUSH1 0x0 DUP2 DUP4 PUSH2 0x1B65 SWAP2 SWAP1 PUSH2 0x277F JUMP JUMPDEST SWAP1 POP SWAP3 SWAP2 POP POP JUMP JUMPDEST POP POP POP JUMP JUMPDEST POP POP POP JUMP JUMPDEST PUSH1 0x0 DUP2 MLOAD SWAP1 POP SWAP2 SWAP1 POP JUMP JUMPDEST PUSH1 0x0 DUP3 DUP3 MSTORE PUSH1 0x20 DUP3 ADD SWAP1 POP SWAP3 SWAP2 POP POP JUMP JUMPDEST PUSH1 0x0 JUMPDEST DUP4 DUP2 LT ISZERO PUSH2 0x1BB1 JUMPI DUP1 DUP3 ADD MLOAD DUP2 DUP5 ADD MSTORE PUSH1 0x20 DUP2 ADD SWAP1 POP PUSH2 0x1B96 JUMP JUMPDEST PUSH1 0x0 DUP5 DUP5 ADD MSTORE POP POP POP POP JUMP JUMPDEST PUSH1 0x0 PUSH1 0x1F NOT PUSH1 0x1F DUP4 ADD AND SWAP1 POP SWAP2 SWAP1 POP JUMP JUMPDEST PUSH1 0x0 PUSH2 0x1BD9 DUP3 PUSH2 0x1B77 JUMP JUMPDEST PUSH2 0x1BE3 DUP2 DUP6 PUSH2 0x1B82 JUMP JUMPDEST SWAP4 POP PUSH2 0x1BF3 DUP2 DUP6 PUSH1 0x20 DUP7 ADD PUSH2 0x1B93 JUMP JUMPDEST PUSH2 0x1BFC DUP2 PUSH2 0x1BBD JUMP JUMPDEST DUP5 ADD SWAP2 POP POP SWAP3 SWAP2 POP POP JUMP JUMPDEST PUSH1 0x0 PUSH1 0x20 DUP3 ADD SWAP1 POP DUP2 DUP2 SUB PUSH1 0x0 DUP4 ADD MSTORE PUSH2 0x1C21 DUP2 DUP5 PUSH2 0x1BCE JUMP JUMPDEST SWAP1 POP SWAP3 SWAP2 POP POP JUMP JUMPDEST PUSH1 0x0 PUSH20 0xFFFFFFFFFFFFFFFFFFFFFFFFFFFFFFFFFFFFFFFF DUP3 AND SWAP1 POP SWAP2 SWAP1 POP JUMP JUMPDEST PUSH1 0x0 PUSH2 0x1C54 DUP3 PUSH2 0x1C29 JUMP JUMPDEST SWAP1 POP SWAP2 SWAP1 POP JUMP JUMPDEST PUSH2 0x1C64 DUP2 PUSH2 0x1C49 JUMP JUMPDEST DUP3 MSTORE POP POP JUMP JUMPDEST PUSH1 0x0 PUSH1 0x20 DUP3 ADD SWAP1 POP PUSH2 0x1C7F PUSH1 0x0 DUP4 ADD DUP5 PUSH2 0x1C5B JUMP JUMPDEST SWAP3 SWAP2 POP POP JUMP JUMPDEST PUSH1 0x0 DUP1 REVERT JUMPDEST PUSH2 0x1C93 DUP2 PUSH2 0x1C49 JUMP JUMPDEST DUP2 EQ PUSH2 0x1C9E JUMPI PUSH1 0x0 DUP1 REVERT JUMPDEST POP JUMP JUMPDEST PUSH1 0x0 DUP2 CALLDATALOAD SWAP1 POP PUSH2 0x1CB0 DUP2 PUSH2 0x1C8A JUMP JUMPDEST SWAP3 SWAP2 POP POP JUMP JUMPDEST PUSH1 0x0 DUP2 SWAP1 POP SWAP2 SWAP1 POP JUMP JUMPDEST PUSH2 0x1CC9 DUP2 PUSH2 0x1CB6 JUMP JUMPDEST DUP2 EQ PUSH2 0x1CD4 JUMPI PUSH1 0x0 DUP1 REVERT JUMPDEST POP JUMP JUMPDEST PUSH1 0x0 DUP2 CALLDATALOAD SWAP1 POP PUSH2 0x1CE6 DUP2 PUSH2 0x1CC0 JUMP JUMPDEST SWAP3 SWAP2 POP POP JUMP JUMPDEST PUSH1 0x0 DUP1 PUSH1 0x40 DUP4 DUP6 SUB SLT ISZERO PUSH2 0x1D03 JUMPI PUSH2 0x1D02 PUSH2 0x1C85 JUMP JUMPDEST JUMPDEST PUSH1 0x0 PUSH2 0x1D11 DUP6 DUP3 DUP7 ADD PUSH2 0x1CA1 JUMP JUMPDEST SWAP3 POP POP PUSH1 0x20 PUSH2 0x1D22 DUP6 DUP3 DUP7 ADD PUSH2 0x1CD7 JUMP JUMPDEST SWAP2 POP POP SWAP3 POP SWAP3 SWAP1 POP JUMP JUMPDEST PUSH1 0x0 DUP2 ISZERO ISZERO SWAP1 POP SWAP2 SWAP1 POP JUMP JUMPDEST PUSH2 0x1D41 DUP2 PUSH2 0x1D2C JUMP JUMPDEST DUP3 MSTORE POP POP JUMP JUMPDEST PUSH1 0x0 PUSH1 0x20 DUP3 ADD SWAP1 POP PUSH2 0x1D5C PUSH1 0x0 DUP4 ADD DUP5 PUSH2 0x1D38 JUMP JUMPDEST SWAP3 SWAP2 POP POP JUMP JUMPDEST PUSH2 0x1D6B DUP2 PUSH2 0x1CB6 JUMP JUMPDEST DUP3 MSTORE POP POP JUMP JUMPDEST PUSH1 0x0 PUSH1 0x20 DUP3 ADD SWAP1 POP PUSH2 0x1D86 PUSH1 0x0 DUP4 ADD DUP5 PUSH2 0x1D62 JUMP JUMPDEST SWAP3 SWAP2 POP POP JUMP JUMPDEST PUSH1 0x0 DUP1 PUSH1 0x0 PUSH1 0x60 DUP5 DUP7 SUB SLT ISZERO PUSH2 0x1DA5 JUMPI PUSH2 0x1DA4 PUSH2 0x1C85 JUMP JUMPDEST JUMPDEST PUSH1 0x0 PUSH2 0x1DB3 DUP7 DUP3 DUP8 ADD PUSH2 0x1CA1 JUMP JUMPDEST SWAP4 POP POP PUSH1 0x20 PUSH2 0x1DC4 DUP7 DUP3 DUP8 ADD PUSH2 0x1CA1 JUMP JUMPDEST SWAP3 POP POP PUSH1 0x40 PUSH2 0x1DD5 DUP7 DUP3 DUP8 ADD PUSH2 0x1CD7 JUMP JUMPDEST SWAP2 POP POP SWAP3 POP SWAP3 POP SWAP3 JUMP JUMPDEST PUSH1 0x0 PUSH1 0x20 DUP3 DUP5 SUB SLT ISZERO PUSH2 0x1DF5 JUMPI PUSH2 0x1DF4 PUSH2 0x1C85 JUMP JUMPDEST JUMPDEST PUSH1 0x0 PUSH2 0x1E03 DUP5 DUP3 DUP6 ADD PUSH2 0x1CD7 JUMP JUMPDEST SWAP2 POP POP SWAP3 SWAP2 POP POP JUMP JUMPDEST PUSH1 0x0 PUSH1 0xFF DUP3 AND SWAP1 POP SWAP2 SWAP1 POP JUMP JUMPDEST PUSH2 0x1E22 DUP2 PUSH2 0x1E0C JUMP JUMPDEST DUP3 MSTORE POP POP JUMP JUMPDEST PUSH1 0x0 PUSH1 0x20 DUP3 ADD SWAP1 POP PUSH2 0x1E3D PUSH1 0x0 DUP4 ADD DUP5 PUSH2 0x1E19 JUMP JUMPDEST SWAP3 SWAP2 POP POP JUMP JUMPDEST PUSH1 0x0 PUSH1 0x20 DUP3 DUP5 SUB SLT ISZERO PUSH2 0x1E59 JUMPI PUSH2 0x1E58 PUSH2 0x1C85 JUMP JUMPDEST JUMPDEST PUSH1 0x0 PUSH2 0x1E67 DUP5 DUP3 DUP6 ADD PUSH2 0x1CA1 JUMP JUMPDEST SWAP2 POP POP SWAP3 SWAP2 POP POP JUMP JUMPDEST PUSH1 0x0 DUP1 PUSH1 0x40 DUP4 DUP6 SUB SLT ISZERO PUSH2 0x1E87 JUMPI PUSH2 0x1E86 PUSH2 0x1C85 JUMP JUMPDEST JUMPDEST PUSH1 0x0 PUSH2 0x1E95 DUP6 DUP3 DUP7 ADD PUSH2 0x1CA1 JUMP JUMPDEST SWAP3 POP POP PUSH1 0x20 PUSH2 0x1EA6 DUP6 DUP3 DUP7 ADD PUSH2 0x1CA1 JUMP JUMPDEST SWAP2 POP POP SWAP3 POP SWAP3 SWAP1 POP JUMP JUMPDEST PUSH32 0x4E487B7100000000000000000000000000000000000000000000000000000000 PUSH1 0x0 MSTORE PUSH1 0x22 PUSH1 0x4 MSTORE PUSH1 0x24 PUSH1 0x0 REVERT JUMPDEST PUSH1 0x0 PUSH1 0x2 DUP3 DIV SWAP1 POP PUSH1 0x1 DUP3 AND DUP1 PUSH2 0x1EF7 JUMPI PUSH1 0x7F DUP3 AND SWAP2 POP JUMPDEST PUSH1 0x20 DUP3 LT DUP2 SUB PUSH2 0x1F0A JUMPI PUSH2 0x1F09 PUSH2 0x1EB0 JUMP JUMPDEST JUMPDEST POP SWAP2 SWAP1 POP JUMP JUMPDEST PUSH32 0x4F6E6C792061646D696E2063616E206D616B6520746869732063616C6C000000 PUSH1 0x0 DUP3 ADD MSTORE POP JUMP JUMPDEST PUSH1 0x0 PUSH2 0x1F46 PUSH1 0x1D DUP4 PUSH2 0x1B82 JUMP JUMPDEST SWAP2 POP PUSH2 0x1F51 DUP3 PUSH2 0x1F10 JUMP JUMPDEST PUSH1 0x20 DUP3 ADD SWAP1 POP SWAP2 SWAP1 POP JUMP JUMPDEST PUSH1 0x0 PUSH1 0x20 DUP3 ADD SWAP1 POP DUP2 DUP2 SUB PUSH1 0x0 DUP4 ADD MSTORE PUSH2 0x1F75 DUP2 PUSH2 0x1F39 JUMP JUMPDEST SWAP1 POP SWAP2 SWAP1 POP JUMP JUMPDEST PUSH32 0x4E487B7100000000000000000000000000000000000000000000000000000000 PUSH1 0x0 MSTORE PUSH1 0x11 PUSH1 0x4 MSTORE PUSH1 0x24 PUSH1 0x0 REVERT JUMPDEST PUSH1 0x0 PUSH2 0x1FB6 DUP3 PUSH2 0x1CB6 JUMP JUMPDEST SWAP2 POP PUSH2 0x1FC1 DUP4 PUSH2 0x1CB6 JUMP JUMPDEST SWAP3 POP DUP3 DUP3 ADD SWAP1 POP DUP1 DUP3 GT ISZERO PUSH2 0x1FD9 JUMPI PUSH2 0x1FD8 PUSH2 0x1F7C JUMP JUMPDEST JUMPDEST SWAP3 SWAP2 POP POP JUMP JUMPDEST PUSH32 0x696E76616C69642070656E64696E672061646D696E2061646472657373000000 PUSH1 0x0 DUP3 ADD MSTORE POP JUMP JUMPDEST PUSH1 0x0 PUSH2 0x2015 PUSH1 0x1D DUP4 PUSH2 0x1B82 JUMP JUMPDEST SWAP2 POP PUSH2 0x2020 DUP3 PUSH2 0x1FDF JUMP JUMPDEST PUSH1 0x20 DUP3 ADD SWAP1 POP SWAP2 SWAP1 POP JUMP JUMPDEST PUSH1 0x0 PUSH1 0x20 DUP3 ADD SWAP1 POP DUP2 DUP2 SUB PUSH1 0x0 DUP4 ADD MSTORE PUSH2 0x2044 DUP2 PUSH2 0x2008 JUMP JUMPDEST SWAP1 POP SWAP2 SWAP1 POP JUMP JUMPDEST PUSH32 0x696E76616C6964206D696E746572206164647265737300000000000000000000 PUSH1 0x0 DUP3 ADD MSTORE POP JUMP JUMPDEST PUSH1 0x0 PUSH2 0x2081 PUSH1 0x16 DUP4 PUSH2 0x1B82 JUMP JUMPDEST SWAP2 POP PUSH2 0x208C DUP3 PUSH2 0x204B JUMP JUMPDEST PUSH1 0x20 DUP3 ADD SWAP1 POP SWAP2 SWAP1 POP JUMP JUMPDEST PUSH1 0x0 PUSH1 0x20 DUP3 ADD SWAP1 POP DUP2 DUP2 SUB PUSH1 0x0 DUP4 ADD MSTORE PUSH2 0x20B0 DUP2 PUSH2 0x2074 JUMP JUMPDEST SWAP1 POP SWAP2 SWAP1 POP JUMP JUMPDEST PUSH32 0x6F6E6C792061646D696E2063616E206D696E7400000000000000000000000000 PUSH1 0x0 DUP3 ADD MSTORE POP JUMP JUMPDEST PUSH1 0x0 PUSH2 0x20ED PUSH1 0x13 DUP4 PUSH2 0x1B82 JUMP JUMPDEST SWAP2 POP PUSH2 0x20F8 DUP3 PUSH2 0x20B7 JUMP JUMPDEST PUSH1 0x20 DUP3 ADD SWAP1 POP SWAP2 SWAP1 POP JUMP JUMPDEST PUSH1 0x0 PUSH1 0x20 DUP3 ADD SWAP1 POP DUP2 DUP2 SUB PUSH1 0x0 DUP4 ADD MSTORE PUSH2 0x211C DUP2 PUSH2 0x20E0 JUMP JUMPDEST SWAP1 POP SWAP2 SWAP1 POP JUMP JUMPDEST PUSH1 0x0 DUP2 MLOAD SWAP1 POP PUSH2 0x2132 DUP2 PUSH2 0x1CC0 JUMP JUMPDEST SWAP3 SWAP2 POP POP JUMP JUMPDEST PUSH1 0x0 PUSH1 0x20 DUP3 DUP5 SUB SLT ISZERO PUSH2 0x214E JUMPI PUSH2 0x214D PUSH2 0x1C85 JUMP JUMPDEST JUMPDEST PUSH1 0x0 PUSH2 0x215C DUP5 DUP3 DUP6 ADD PUSH2 0x2123 JUMP JUMPDEST SWAP2 POP POP SWAP3 SWAP2 POP POP JUMP JUMPDEST PUSH32 0x616C7265616479206578636565646564206D617820737570706C790000000000 PUSH1 0x0 DUP3 ADD MSTORE POP JUMP JUMPDEST PUSH1 0x0 PUSH2 0x219B PUSH1 0x1B DUP4 PUSH2 0x1B82 JUMP JUMPDEST SWAP2 POP PUSH2 0x21A6 DUP3 PUSH2 0x2165 JUMP JUMPDEST PUSH1 0x20 DUP3 ADD SWAP1 POP SWAP2 SWAP1 POP JUMP JUMPDEST PUSH1 0x0 PUSH1 0x20 DUP3 ADD SWAP1 POP DUP2 DUP2 SUB PUSH1 0x0 DUP4 ADD MSTORE PUSH2 0x21CA DUP2 PUSH2 0x218E JUMP JUMPDEST SWAP1 POP SWAP2 SWAP1 POP JUMP JUMPDEST PUSH32 0x6578636565646564206D617820737570706C79206F6620746F6B656E73000000 PUSH1 0x0 DUP3 ADD MSTORE POP JUMP JUMPDEST PUSH1 0x0 PUSH2 0x2207 PUSH1 0x1D DUP4 PUSH2 0x1B82 JUMP JUMPDEST SWAP2 POP PUSH2 0x2212 DUP3 PUSH2 0x21D1 JUMP JUMPDEST PUSH1 0x20 DUP3 ADD SWAP1 POP SWAP2 SWAP1 POP JUMP JUMPDEST PUSH1 0x0 PUSH1 0x20 DUP3 ADD SWAP1 POP DUP2 DUP2 SUB PUSH1 0x0 DUP4 ADD MSTORE PUSH2 0x2236 DUP2 PUSH2 0x21FA JUMP JUMPDEST SWAP1 POP SWAP2 SWAP1 POP JUMP JUMPDEST PUSH32 0x45524332303A2064656372656173656420616C6C6F77616E63652062656C6F77 PUSH1 0x0 DUP3 ADD MSTORE PUSH32 0x207A65726F000000000000000000000000000000000000000000000000000000 PUSH1 0x20 DUP3 ADD MSTORE POP JUMP JUMPDEST PUSH1 0x0 PUSH2 0x2299 PUSH1 0x25 DUP4 PUSH2 0x1B82 JUMP JUMPDEST SWAP2 POP PUSH2 0x22A4 DUP3 PUSH2 0x223D JUMP JUMPDEST PUSH1 0x40 DUP3 ADD SWAP1 POP SWAP2 SWAP1 POP JUMP JUMPDEST PUSH1 0x0 PUSH1 0x20 DUP3 ADD SWAP1 POP DUP2 DUP2 SUB PUSH1 0x0 DUP4 ADD MSTORE PUSH2 0x22C8 DUP2 PUSH2 0x228C JUMP JUMPDEST SWAP1 POP SWAP2 SWAP1 POP JUMP JUMPDEST PUSH32 0x4F6E6C79206D696E7465722063616E206D616B6520746869732063616C6C0000 PUSH1 0x0 DUP3 ADD MSTORE POP JUMP JUMPDEST PUSH1 0x0 PUSH2 0x2305 PUSH1 0x1E DUP4 PUSH2 0x1B82 JUMP JUMPDEST SWAP2 POP PUSH2 0x2310 DUP3 PUSH2 0x22CF JUMP JUMPDEST PUSH1 0x20 DUP3 ADD SWAP1 POP SWAP2 SWAP1 POP JUMP JUMPDEST PUSH1 0x0 PUSH1 0x20 DUP3 ADD SWAP1 POP DUP2 DUP2 SUB PUSH1 0x0 DUP4 ADD MSTORE PUSH2 0x2334 DUP2 PUSH2 0x22F8 JUMP JUMPDEST SWAP1 POP SWAP2 SWAP1 POP JUMP JUMPDEST PUSH32 0x4F6E6C792070656E64696E672061646D696E2063616E206D616B652074686973 PUSH1 0x0 DUP3 ADD MSTORE PUSH32 0x2063616C6C000000000000000000000000000000000000000000000000000000 PUSH1 0x20 DUP3 ADD MSTORE POP JUMP JUMPDEST PUSH1 0x0 PUSH2 0x2397 PUSH1 0x25 DUP4 PUSH2 0x1B82 JUMP JUMPDEST SWAP2 POP PUSH2 0x23A2 DUP3 PUSH2 0x233B JUMP JUMPDEST PUSH1 0x40 DUP3 ADD SWAP1 POP SWAP2 SWAP1 POP JUMP JUMPDEST PUSH1 0x0 PUSH1 0x20 DUP3 ADD SWAP1 POP DUP2 DUP2 SUB PUSH1 0x0 DUP4 ADD MSTORE PUSH2 0x23C6 DUP2 PUSH2 0x238A JUMP JUMPDEST SWAP1 POP SWAP2 SWAP1 POP JUMP JUMPDEST PUSH32 0x45524332303A20617070726F76652066726F6D20746865207A65726F20616464 PUSH1 0x0 DUP3 ADD MSTORE PUSH32 0x7265737300000000000000000000000000000000000000000000000000000000 PUSH1 0x20 DUP3 ADD MSTORE POP JUMP JUMPDEST PUSH1 0x0 PUSH2 0x2429 PUSH1 0x24 DUP4 PUSH2 0x1B82 JUMP JUMPDEST SWAP2 POP PUSH2 0x2434 DUP3 PUSH2 0x23CD JUMP JUMPDEST PUSH1 0x40 DUP3 ADD SWAP1 POP SWAP2 SWAP1 POP JUMP JUMPDEST PUSH1 0x0 PUSH1 0x20 DUP3 ADD SWAP1 POP DUP2 DUP2 SUB PUSH1 0x0 DUP4 ADD MSTORE PUSH2 0x2458 DUP2 PUSH2 0x241C JUMP JUMPDEST SWAP1 POP SWAP2 SWAP1 POP JUMP JUMPDEST PUSH32 0x45524332303A20617070726F766520746F20746865207A65726F206164647265 PUSH1 0x0 DUP3 ADD MSTORE PUSH32 0x7373000000000000000000000000000000000000000000000000000000000000 PUSH1 0x20 DUP3 ADD MSTORE POP JUMP JUMPDEST PUSH1 0x0 PUSH2 0x24BB PUSH1 0x22 DUP4 PUSH2 0x1B82 JUMP JUMPDEST SWAP2 POP PUSH2 0x24C6 DUP3 PUSH2 0x245F JUMP JUMPDEST PUSH1 0x40 DUP3 ADD SWAP1 POP SWAP2 SWAP1 POP JUMP JUMPDEST PUSH1 0x0 PUSH1 0x20 DUP3 ADD SWAP1 POP DUP2 DUP2 SUB PUSH1 0x0 DUP4 ADD MSTORE PUSH2 0x24EA DUP2 PUSH2 0x24AE JUMP JUMPDEST SWAP1 POP SWAP2 SWAP1 POP JUMP JUMPDEST PUSH32 0x45524332303A20696E73756666696369656E7420616C6C6F77616E6365000000 PUSH1 0x0 DUP3 ADD MSTORE POP JUMP JUMPDEST PUSH1 0x0 PUSH2 0x2527 PUSH1 0x1D DUP4 PUSH2 0x1B82 JUMP JUMPDEST SWAP2 POP PUSH2 0x2532 DUP3 PUSH2 0x24F1 JUMP JUMPDEST PUSH1 0x20 DUP3 ADD SWAP1 POP SWAP2 SWAP1 POP JUMP JUMPDEST PUSH1 0x0 PUSH1 0x20 DUP3 ADD SWAP1 POP DUP2 DUP2 SUB PUSH1 0x0 DUP4 ADD MSTORE PUSH2 0x2556 DUP2 PUSH2 0x251A JUMP JUMPDEST SWAP1 POP SWAP2 SWAP1 POP JUMP JUMPDEST PUSH32 0x45524332303A207472616E736665722066726F6D20746865207A65726F206164 PUSH1 0x0 DUP3 ADD MSTORE PUSH32 0x6472657373000000000000000000000000000000000000000000000000000000 PUSH1 0x20 DUP3 ADD MSTORE POP JUMP JUMPDEST PUSH1 0x0 PUSH2 0x25B9 PUSH1 0x25 DUP4 PUSH2 0x1B82 JUMP JUMPDEST SWAP2 POP PUSH2 0x25C4 DUP3 PUSH2 0x255D JUMP JUMPDEST PUSH1 0x40 DUP3 ADD SWAP1 POP SWAP2 SWAP1 POP JUMP JUMPDEST PUSH1 0x0 PUSH1 0x20 DUP3 ADD SWAP1 POP DUP2 DUP2 SUB PUSH1 0x0 DUP4 ADD MSTORE PUSH2 0x25E8 DUP2 PUSH2 0x25AC JUMP JUMPDEST SWAP1 POP SWAP2 SWAP1 POP JUMP JUMPDEST PUSH32 0x45524332303A207472616E7366657220746F20746865207A65726F2061646472 PUSH1 0x0 DUP3 ADD MSTORE PUSH32 0x6573730000000000000000000000000000000000000000000000000000000000 PUSH1 0x20 DUP3 ADD MSTORE POP JUMP JUMPDEST PUSH1 0x0 PUSH2 0x264B PUSH1 0x23 DUP4 PUSH2 0x1B82 JUMP JUMPDEST SWAP2 POP PUSH2 0x2656 DUP3 PUSH2 0x25EF JUMP JUMPDEST PUSH1 0x40 DUP3 ADD SWAP1 POP SWAP2 SWAP1 POP JUMP JUMPDEST PUSH1 0x0 PUSH1 0x20 DUP3 ADD SWAP1 POP DUP2 DUP2 SUB PUSH1 0x0 DUP4 ADD MSTORE PUSH2 0x267A DUP2 PUSH2 0x263E JUMP JUMPDEST SWAP1 POP SWAP2 SWAP1 POP JUMP JUMPDEST PUSH32 0x45524332303A207472616E7366657220616D6F756E7420657863656564732062 PUSH1 0x0 DUP3 ADD MSTORE PUSH32 0x616C616E63650000000000000000000000000000000000000000000000000000 PUSH1 0x20 DUP3 ADD MSTORE POP JUMP JUMPDEST PUSH1 0x0 PUSH2 0x26DD PUSH1 0x26 DUP4 PUSH2 0x1B82 JUMP JUMPDEST SWAP2 POP PUSH2 0x26E8 DUP3 PUSH2 0x2681 JUMP JUMPDEST PUSH1 0x40 DUP3 ADD SWAP1 POP SWAP2 SWAP1 POP JUMP JUMPDEST PUSH1 0x0 PUSH1 0x20 DUP3 ADD SWAP1 POP DUP2 DUP2 SUB PUSH1 0x0 DUP4 ADD MSTORE PUSH2 0x270C DUP2 PUSH2 0x26D0 JUMP JUMPDEST SWAP1 POP SWAP2 SWAP1 POP JUMP JUMPDEST PUSH32 0x45524332303A206D696E7420746F20746865207A65726F206164647265737300 PUSH1 0x0 DUP3 ADD MSTORE POP JUMP JUMPDEST PUSH1 0x0 PUSH2 0x2749 PUSH1 0x1F DUP4 PUSH2 0x1B82 JUMP JUMPDEST SWAP2 POP PUSH2 0x2754 DUP3 PUSH2 0x2713 JUMP JUMPDEST PUSH1 0x20 DUP3 ADD SWAP1 POP SWAP2 SWAP1 POP JUMP JUMPDEST PUSH1 0x0 PUSH1 0x20 DUP3 ADD SWAP1 POP DUP2 DUP2 SUB PUSH1 0x0 DUP4 ADD MSTORE PUSH2 0x2778 DUP2 PUSH2 0x273C JUMP JUMPDEST SWAP1 POP SWAP2 SWAP1 POP JUMP JUMPDEST PUSH1 0x0 PUSH2 0x278A DUP3 PUSH2 0x1CB6 JUMP JUMPDEST SWAP2 POP PUSH2 0x2795 DUP4 PUSH2 0x1CB6 JUMP JUMPDEST SWAP3 POP DUP3 DUP3 SUB SWAP1 POP DUP2 DUP2 GT ISZERO PUSH2 0x27AD JUMPI PUSH2 0x27AC PUSH2 0x1F7C JUMP JUMPDEST JUMPDEST SWAP3 SWAP2 POP POP JUMP INVALID LOG2 PUSH5 0x6970667358 0x22 SLT KECCAK256 DUP8 0xFB 0x5F 0xE3 STATICCALL 0xDE RETURN BALANCE MOD DUP2 JUMPI JUMPDEST PUSH27 0x8EA04F21E32E324A0723135F9A602DEF82118E64736F6C63430008 SGT STOP CALLER "
				},
				"gasEstimates": {
					"creation": {
						"codeDepositCost": "2043400",
						"executionCost": "infinite",
						"totalCost": "infinite"
					},
					"external": {
						"admin()": "2624",
						"allowance(address,address)": "infinite",
						"approve(address,uint256)": "infinite",
						"balanceOf(address)": "2908",
						"decimals()": "infinite",
						"decreaseAllowance(address,uint256)": "infinite",
						"increaseAllowance(address,uint256)": "infinite",
						"maxSupply()": "infinite",
						"mint(uint256)": "infinite",
						"mintStakerReward(address,uint256)": "infinite",
						"minter()": "2560",
						"name()": "infinite",
						"pendingAdmin()": "2581",
						"previousAdmin()": "2604",
						"previousMinter()": "2648",
						"previousPendingAdmin()": "2603",
						"setPendingAdmin(address)": "59170",
						"stakerRewardPerBlock()": "2482",
						"symbol()": "infinite",
						"totalSupply()": "2549",
						"transfer(address,uint256)": "infinite",
						"transferFrom(address,address,uint256)": "infinite",
						"updateAdmin()": "60981",
						"updateMinter(address)": "59192",
						"updateStakerRewardPerBlock(uint256)": "infinite"
					}
				},
				"methodIdentifiers": {
					"admin()": "f851a440",
					"allowance(address,address)": "dd62ed3e",
					"approve(address,uint256)": "095ea7b3",
					"balanceOf(address)": "70a08231",
					"decimals()": "313ce567",
					"decreaseAllowance(address,uint256)": "a457c2d7",
					"increaseAllowance(address,uint256)": "39509351",
					"maxSupply()": "d5abeb01",
					"mint(uint256)": "a0712d68",
					"mintStakerReward(address,uint256)": "ab8e786f",
					"minter()": "07546172",
					"name()": "06fdde03",
					"pendingAdmin()": "26782247",
					"previousAdmin()": "0b064976",
					"previousMinter()": "2147425f",
					"previousPendingAdmin()": "909d6cb4",
					"setPendingAdmin(address)": "4dd18bf5",
					"stakerRewardPerBlock()": "24e770d0",
					"symbol()": "95d89b41",
					"totalSupply()": "18160ddd",
					"transfer(address,uint256)": "a9059cbb",
					"transferFrom(address,address,uint256)": "23b872dd",
					"updateAdmin()": "d3b2f598",
					"updateMinter(address)": "4eb03f6e",
					"updateStakerRewardPerBlock(uint256)": "29fb7ef6"
				}
			},
			"storageLayout": {
				"storage": [
					{
						"astId": 15,
						"contract": "contracts/ReplayToken.sol:ReplayToken",
						"label": "_balances",
						"offset": 0,
						"slot": "0",
						"type": "t_mapping(t_address,t_uint256)"
					},
					{
						"astId": 21,
						"contract": "contracts/ReplayToken.sol:ReplayToken",
						"label": "_allowances",
						"offset": 0,
						"slot": "1",
						"type": "t_mapping(t_address,t_mapping(t_address,t_uint256))"
					},
					{
						"astId": 23,
						"contract": "contracts/ReplayToken.sol:ReplayToken",
						"label": "_totalSupply",
						"offset": 0,
						"slot": "2",
						"type": "t_uint256"
					},
					{
						"astId": 25,
						"contract": "contracts/ReplayToken.sol:ReplayToken",
						"label": "_name",
						"offset": 0,
						"slot": "3",
						"type": "t_string_storage"
					},
					{
						"astId": 27,
						"contract": "contracts/ReplayToken.sol:ReplayToken",
						"label": "_symbol",
						"offset": 0,
						"slot": "4",
						"type": "t_string_storage"
					},
					{
						"astId": 1049,
						"contract": "contracts/ReplayToken.sol:ReplayToken",
						"label": "_stakerRewardPerBlock",
						"offset": 0,
						"slot": "5",
						"type": "t_uint256"
					},
					{
						"astId": 1055,
						"contract": "contracts/ReplayToken.sol:ReplayToken",
						"label": "minter",
						"offset": 0,
						"slot": "6",
						"type": "t_address"
					},
					{
						"astId": 1058,
						"contract": "contracts/ReplayToken.sol:ReplayToken",
						"label": "admin",
						"offset": 0,
						"slot": "7",
						"type": "t_address"
					},
					{
						"astId": 1061,
						"contract": "contracts/ReplayToken.sol:ReplayToken",
						"label": "pendingAdmin",
						"offset": 0,
						"slot": "8",
						"type": "t_address"
					},
					{
						"astId": 1064,
						"contract": "contracts/ReplayToken.sol:ReplayToken",
						"label": "previousMinter",
						"offset": 0,
						"slot": "9",
						"type": "t_address"
					},
					{
						"astId": 1067,
						"contract": "contracts/ReplayToken.sol:ReplayToken",
						"label": "previousPendingAdmin",
						"offset": 0,
						"slot": "10",
						"type": "t_address"
					},
					{
						"astId": 1070,
						"contract": "contracts/ReplayToken.sol:ReplayToken",
						"label": "previousAdmin",
						"offset": 0,
						"slot": "11",
						"type": "t_address"
					}
				],
				"types": {
					"t_address": {
						"encoding": "inplace",
						"label": "address",
						"numberOfBytes": "20"
					},
					"t_mapping(t_address,t_mapping(t_address,t_uint256))": {
						"encoding": "mapping",
						"key": "t_address",
						"label": "mapping(address => mapping(address => uint256))",
						"numberOfBytes": "32",
						"value": "t_mapping(t_address,t_uint256)"
					},
					"t_mapping(t_address,t_uint256)": {
						"encoding": "mapping",
						"key": "t_address",
						"label": "mapping(address => uint256)",
						"numberOfBytes": "32",
						"value": "t_uint256"
					},
					"t_string_storage": {
						"encoding": "bytes",
						"label": "string",
						"numberOfBytes": "32"
					},
					"t_uint256": {
						"encoding": "inplace",
						"label": "uint256",
						"numberOfBytes": "32"
					}
				}
			},
			"userdoc": {
				"kind": "user",
				"methods": {
					"updateStakerRewardPerBlock(uint256)": {
						"notice": "This value will be cut in half based on the rules in per white paper."
					}
				},
				"notice": "TNT20 token for Replay subchain on theta network blockchain",
				"version": 1
			}
		}
	}
}