{
  "contractName": "BridgeTnt",
  "abi": [
    {
      "inputs": [
        {
          "internalType": "address",
          "name": "token",
          "type": "address"
        }
      ],
      "stateMutability": "nonpayable",
      "type": "constructor"
    },
    {
      "anonymous": false,
      "inputs": [
        {
          "indexed": false,
          "internalType": "address",
          "name": "from",
          "type": "address"
        },
        {
          "indexed": false,
          "internalType": "address",
          "name": "to",
          "type": "address"
        },
        {
          "indexed": false,
          "internalType": "uint256",
          "name": "amount",
          "type": "uint256"
        },
        {
          "indexed": false,
          "internalType": "uint256",
          "name": "date",
          "type": "uint256"
        },
        {
          "indexed": false,
          "internalType": "uint256",
          "name": "nonce",
          "type": "uint256"
        },
        {
          "indexed": false,
          "internalType": "bytes",
          "name": "signature",
          "type": "bytes"
        },
        {
          "indexed": true,
          "internalType": "enum BridgeBase.Step",
          "name": "step",
          "type": "uint8"
        }
      ],
      "name": "Transfer",
      "type": "event"
    },
    {
      "stateMutability": "payable",
      "type": "fallback"
    },
    {
      "inputs": [],
      "name": "admin",
      "outputs": [
        {
          "internalType": "address",
          "name": "",
          "type": "address"
        }
      ],
      "stateMutability": "view",
      "type": "function"
    },
    {
      "inputs": [
        {
          "internalType": "address",
          "name": "to",
          "type": "address"
        },
        {
          "internalType": "uint256",
          "name": "amount",
          "type": "uint256"
        },
        {
          "internalType": "uint256",
          "name": "nonce",
          "type": "uint256"
        },
        {
          "internalType": "bytes",
          "name": "signature",
          "type": "bytes"
        }
      ],
      "name": "burn",
      "outputs": [],
      "stateMutability": "nonpayable",
      "type": "function"
    },
    {
      "inputs": [
        {
          "internalType": "address",
          "name": "from",
          "type": "address"
        },
        {
          "internalType": "address",
          "name": "to",
          "type": "address"
        },
        {
          "internalType": "uint256",
          "name": "amount",
          "type": "uint256"
        },
        {
          "internalType": "uint256",
          "name": "nonce",
          "type": "uint256"
        },
        {
          "internalType": "bytes",
          "name": "signature",
          "type": "bytes"
        }
      ],
      "name": "mint",
      "outputs": [],
      "stateMutability": "nonpayable",
      "type": "function"
    },
    {
      "inputs": [
        {
          "internalType": "address",
          "name": "",
          "type": "address"
        },
        {
          "internalType": "uint256",
          "name": "",
          "type": "uint256"
        }
      ],
      "name": "processedNonces",
      "outputs": [
        {
          "internalType": "bool",
          "name": "",
          "type": "bool"
        }
      ],
      "stateMutability": "view",
      "type": "function"
    },
    {
      "inputs": [],
      "name": "token",
      "outputs": [
        {
          "internalType": "contract IToken",
          "name": "",
          "type": "address"
        }
      ],
      "stateMutability": "view",
      "type": "function"
    },
    {
      "inputs": [],
      "name": "updateAdmin",
      "outputs": [],
      "stateMutability": "nonpayable",
      "type": "function"
    },
    {
      "stateMutability": "payable",
      "type": "receive"
    }
  ],
  "bytecode": "0x60806040523480156200001157600080fd5b506040516200125838038062001258833981810160405281019062000037919062000134565b80600160008190555033600160006101000a81548173ffffffffffffffffffffffffffffffffffffffff021916908373ffffffffffffffffffffffffffffffffffffffff16021790555080600260006101000a81548173ffffffffffffffffffffffffffffffffffffffff021916908373ffffffffffffffffffffffffffffffffffffffff160217905550505062000166565b600080fd5b600073ffffffffffffffffffffffffffffffffffffffff82169050919050565b6000620000fc82620000cf565b9050919050565b6200010e81620000ef565b81146200011a57600080fd5b50565b6000815190506200012e8162000103565b92915050565b6000602082840312156200014d576200014c620000ca565b5b60006200015d848285016200011d565b91505092915050565b6110e280620001766000396000f3fe6080604052600436106100595760003560e01c806352555702146100625780637cc702401461008b5780638a94b05f146100c8578063d3b2f598146100f1578063f851a44014610108578063fc0c546a1461013357610060565b3661006057005b005b34801561006e57600080fd5b5061008960048036038101906100849190610a19565b61015e565b005b34801561009757600080fd5b506100b260048036038101906100ad9190610ab3565b610214565b6040516100bf9190610b0e565b60405180910390f35b3480156100d457600080fd5b506100ef60048036038101906100ea9190610b29565b610243565b005b3480156100fd57600080fd5b50610106610549565b005b34801561011457600080fd5b5061011d6105e3565b60405161012a9190610bc0565b60405180910390f35b34801561013f57600080fd5b50610148610609565b6040516101559190610c3a565b60405180910390f35b61016661062f565b600160009054906101000a900473ffffffffffffffffffffffffffffffffffffffff1673ffffffffffffffffffffffffffffffffffffffff163373ffffffffffffffffffffffffffffffffffffffff16146101f6576040517f08c379a00000000000000000000000000000000000000000000000000000000081526004016101ed90610cb2565b60405180910390fd5b61020486868686868661067e565b61020c610888565b505050505050565b60036020528160005260406000206020528060005260406000206000915091509054906101000a900460ff1681565b61024b61062f565b60001515600360003373ffffffffffffffffffffffffffffffffffffffff1673ffffffffffffffffffffffffffffffffffffffff168152602001908152602001600020600085815260200190815260200160002060009054906101000a900460ff161515146102ef576040517f08c379a00000000000000000000000000000000000000000000000000000000081526004016102e690610d1e565b60405180910390fd5b6001600360003373ffffffffffffffffffffffffffffffffffffffff1673ffffffffffffffffffffffffffffffffffffffff168152602001908152602001600020600085815260200190815260200160002060006101000a81548160ff021916908315150217905550600061dead905084600260009054906101000a900473ffffffffffffffffffffffffffffffffffffffff1673ffffffffffffffffffffffffffffffffffffffff1663dd62ed3e33306040518363ffffffff1660e01b81526004016103bd929190610d3e565b602060405180830381865afa1580156103da573d6000803e3d6000fd5b505050506040513d601f19601f820116820180604052508101906103fe9190610d7c565b101561043f576040517f08c379a000000000000000000000000000000000000000000000000000000000815260040161043690610df5565b60405180910390fd5b600260009054906101000a900473ffffffffffffffffffffffffffffffffffffffff1673ffffffffffffffffffffffffffffffffffffffff166323b872dd3383886040518463ffffffff1660e01b815260040161049e93929190610e24565b6020604051808303816000875af11580156104bd573d6000803e3d6000fd5b505050506040513d601f19601f820116820180604052508101906104e19190610e87565b50600060018111156104f6576104f5610eb4565b5b7fce5a9b86edd3b998c3948a7934c7ecf7dba73c4c5bcf56cf576bca4aa2beeb30338888428989896040516105319796959493929190610f41565b60405180910390a250610542610888565b5050505050565b600160009054906101000a900473ffffffffffffffffffffffffffffffffffffffff1673ffffffffffffffffffffffffffffffffffffffff163373ffffffffffffffffffffffffffffffffffffffff16146105d9576040517f08c379a00000000000000000000000000000000000000000000000000000000081526004016105d090610ff7565b60405180910390fd5b6105e1610892565b565b600160009054906101000a900473ffffffffffffffffffffffffffffffffffffffff1681565b600260009054906101000a900473ffffffffffffffffffffffffffffffffffffffff1681565b600260005403610674576040517f08c379a000000000000000000000000000000000000000000000000000000000815260040161066b90611063565b60405180910390fd5b6002600081905550565b61068661062f565b60001515600360008873ffffffffffffffffffffffffffffffffffffffff1673ffffffffffffffffffffffffffffffffffffffff168152602001908152602001600020600085815260200190815260200160002060009054906101000a900460ff1615151461072a576040517f08c379a000000000000000000000000000000000000000000000000000000000815260040161072190610d1e565b60405180910390fd5b6001600360008873ffffffffffffffffffffffffffffffffffffffff1673ffffffffffffffffffffffffffffffffffffffff168152602001908152602001600020600085815260200190815260200160002060006101000a81548160ff021916908315150217905550600260009054906101000a900473ffffffffffffffffffffffffffffffffffffffff1673ffffffffffffffffffffffffffffffffffffffff166340c10f1986866040518363ffffffff1660e01b81526004016107f0929190611083565b600060405180830381600087803b15801561080a57600080fd5b505af115801561081e573d6000803e3d6000fd5b5050505060018081111561083557610834610eb4565b5b7fce5a9b86edd3b998c3948a7934c7ecf7dba73c4c5bcf56cf576bca4aa2beeb30878787428888886040516108709796959493929190610f41565b60405180910390a2610880610888565b505050505050565b6001600081905550565b600260009054906101000a900473ffffffffffffffffffffffffffffffffffffffff1673ffffffffffffffffffffffffffffffffffffffff1663d3b2f5986040518163ffffffff1660e01b8152600401600060405180830381600087803b1580156108fc57600080fd5b505af1158015610910573d6000803e3d6000fd5b50505050565b600080fd5b600080fd5b600073ffffffffffffffffffffffffffffffffffffffff82169050919050565b600061094b82610920565b9050919050565b61095b81610940565b811461096657600080fd5b50565b60008135905061097881610952565b92915050565b6000819050919050565b6109918161097e565b811461099c57600080fd5b50565b6000813590506109ae81610988565b92915050565b600080fd5b600080fd5b600080fd5b60008083601f8401126109d9576109d86109b4565b5b8235905067ffffffffffffffff8111156109f6576109f56109b9565b5b602083019150836001820283011115610a1257610a116109be565b5b9250929050565b60008060008060008060a08789031215610a3657610a35610916565b5b6000610a4489828a01610969565b9650506020610a5589828a01610969565b9550506040610a6689828a0161099f565b9450506060610a7789828a0161099f565b935050608087013567ffffffffffffffff811115610a9857610a9761091b565b5b610aa489828a016109c3565b92509250509295509295509295565b60008060408385031215610aca57610ac9610916565b5b6000610ad885828601610969565b9250506020610ae98582860161099f565b9150509250929050565b60008115159050919050565b610b0881610af3565b82525050565b6000602082019050610b236000830184610aff565b92915050565b600080600080600060808688031215610b4557610b44610916565b5b6000610b5388828901610969565b9550506020610b648882890161099f565b9450506040610b758882890161099f565b935050606086013567ffffffffffffffff811115610b9657610b9561091b565b5b610ba2888289016109c3565b92509250509295509295909350565b610bba81610940565b82525050565b6000602082019050610bd56000830184610bb1565b92915050565b6000819050919050565b6000610c00610bfb610bf684610920565b610bdb565b610920565b9050919050565b6000610c1282610be5565b9050919050565b6000610c2482610c07565b9050919050565b610c3481610c19565b82525050565b6000602082019050610c4f6000830184610c2b565b92915050565b600082825260208201905092915050565b7f4f6e6c792061646d696e2063616e206d696e7420636f696e7300000000000000600082015250565b6000610c9c601983610c55565b9150610ca782610c66565b602082019050919050565b60006020820190508181036000830152610ccb81610c8f565b9050919050565b7f7472616e7366657220616c72656164792070726f636573736564000000000000600082015250565b6000610d08601a83610c55565b9150610d1382610cd2565b602082019050919050565b60006020820190508181036000830152610d3781610cfb565b9050919050565b6000604082019050610d536000830185610bb1565b610d606020830184610bb1565b9392505050565b600081519050610d7681610988565b92915050565b600060208284031215610d9257610d91610916565b5b6000610da084828501610d67565b91505092915050565b7f496e73756666696369656e7420616c6c6f77616e636500000000000000000000600082015250565b6000610ddf601683610c55565b9150610dea82610da9565b602082019050919050565b60006020820190508181036000830152610e0e81610dd2565b9050919050565b610e1e8161097e565b82525050565b6000606082019050610e396000830186610bb1565b610e466020830185610bb1565b610e536040830184610e15565b949350505050565b610e6481610af3565b8114610e6f57600080fd5b50565b600081519050610e8181610e5b565b92915050565b600060208284031215610e9d57610e9c610916565b5b6000610eab84828501610e72565b91505092915050565b7f4e487b7100000000000000000000000000000000000000000000000000000000600052602160045260246000fd5b600082825260208201905092915050565b82818337600083830152505050565b6000601f19601f8301169050919050565b6000610f208385610ee3565b9350610f2d838584610ef4565b610f3683610f03565b840190509392505050565b600060c082019050610f56600083018a610bb1565b610f636020830189610bb1565b610f706040830188610e15565b610f7d6060830187610e15565b610f8a6080830186610e15565b81810360a0830152610f9d818486610f14565b905098975050505050505050565b7f4f6e6c792061646d696e2063616e207570646174652061646d696e0000000000600082015250565b6000610fe1601b83610c55565b9150610fec82610fab565b602082019050919050565b6000602082019050818103600083015261101081610fd4565b9050919050565b7f5265656e7472616e637947756172643a207265656e7472616e742063616c6c00600082015250565b600061104d601f83610c55565b915061105882611017565b602082019050919050565b6000602082019050818103600083015261107c81611040565b9050919050565b60006040820190506110986000830185610bb1565b6110a56020830184610e15565b939250505056fea26469706673582212203bfdf8036f0c68e3a930b753e29c753c9cae63fdb3c139ded8364c2601137bb164736f6c63430008130033",
  "immutableReferences": {},
  "source": "// SPDX-License-Identifier: GPL-3.0\npragma solidity 0.8.19;\n\nimport \"./BridgeBase.sol\";\n\ncontract BridgeTnt is BridgeBase {\n    constructor(address token) BridgeBase(token) {}\n}\n",
  "sourcePath": "/Users/enriquesouzasoares/projects/theta/theta-bridge/contracts/BridgeTnt.sol",
  "compiler": {
    "name": "solc",
    "version": "0.8.19+commit.7dd6d404.Emscripten.clang"
  },
  "schemaVersion": "3.4.16",
  "updatedAt": "2024-03-17T01:21:33.128Z",
  "devdoc": {
    "kind": "dev",
    "methods": {},
    "version": 1
  },
  "userdoc": {
    "kind": "user",
    "methods": {},
    "version": 1
  }
}