{
  "contractName": "BridgeEth",
  "abi": [
    {
      "inputs": [
        {
          "internalType": "address",
          "name": "token",
          "type": "address"
        }
      ],
      "stateMutability": "nonpayable",
      "type": "constructor"
    },
    {
      "anonymous": false,
      "inputs": [
        {
          "indexed": false,
          "internalType": "address",
          "name": "from",
          "type": "address"
        },
        {
          "indexed": false,
          "internalType": "address",
          "name": "to",
          "type": "address"
        },
        {
          "indexed": false,
          "internalType": "uint256",
          "name": "amount",
          "type": "uint256"
        },
        {
          "indexed": false,
          "internalType": "uint256",
          "name": "date",
          "type": "uint256"
        },
        {
          "indexed": false,
          "internalType": "uint256",
          "name": "nonce",
          "type": "uint256"
        },
        {
          "indexed": false,
          "internalType": "bytes",
          "name": "signature",
          "type": "bytes"
        },
        {
          "indexed": true,
          "internalType": "enum BridgeBase.Step",
          "name": "step",
          "type": "uint8"
        }
      ],
      "name": "Transfer",
      "type": "event"
    },
    {
      "inputs": [],
      "name": "admin",
      "outputs": [
        {
          "internalType": "address",
          "name": "",
          "type": "address"
        }
      ],
      "stateMutability": "view",
      "type": "function"
    },
    {
      "inputs": [
        {
          "internalType": "address",
          "name": "to",
          "type": "address"
        },
        {
          "internalType": "uint256",
          "name": "amount",
          "type": "uint256"
        },
        {
          "internalType": "uint256",
          "name": "nonce",
          "type": "uint256"
        },
        {
          "internalType": "bytes",
          "name": "signature",
          "type": "bytes"
        }
      ],
      "name": "burn",
      "outputs": [],
      "stateMutability": "nonpayable",
      "type": "function"
    },
    {
      "inputs": [
        {
          "internalType": "address",
          "name": "from",
          "type": "address"
        },
        {
          "internalType": "address",
          "name": "to",
          "type": "address"
        },
        {
          "internalType": "uint256",
          "name": "amount",
          "type": "uint256"
        },
        {
          "internalType": "uint256",
          "name": "nonce",
          "type": "uint256"
        },
        {
          "internalType": "bytes",
          "name": "signature",
          "type": "bytes"
        }
      ],
      "name": "mint",
      "outputs": [],
      "stateMutability": "nonpayable",
      "type": "function"
    },
    {
      "inputs": [
        {
          "internalType": "address",
          "name": "",
          "type": "address"
        },
        {
          "internalType": "uint256",
          "name": "",
          "type": "uint256"
        }
      ],
      "name": "processedNonces",
      "outputs": [
        {
          "internalType": "bool",
          "name": "",
          "type": "bool"
        }
      ],
      "stateMutability": "view",
      "type": "function"
    },
    {
      "inputs": [],
      "name": "token",
      "outputs": [
        {
          "internalType": "contract IToken",
          "name": "",
          "type": "address"
        }
      ],
      "stateMutability": "view",
      "type": "function"
    },
    {
      "inputs": [],
      "name": "updateAdmin",
      "outputs": [],
      "stateMutability": "nonpayable",
      "type": "function"
    }
  ],
  "bytecode": "0x608060405234801561001057600080fd5b50604051610d79380380610d7983398181016040528101906100329190610127565b80600160008190555033600160006101000a81548173ffffffffffffffffffffffffffffffffffffffff021916908373ffffffffffffffffffffffffffffffffffffffff16021790555080600260006101000a81548173ffffffffffffffffffffffffffffffffffffffff021916908373ffffffffffffffffffffffffffffffffffffffff1602179055505050610154565b600080fd5b600073ffffffffffffffffffffffffffffffffffffffff82169050919050565b60006100f4826100c9565b9050919050565b610104816100e9565b811461010f57600080fd5b50565b600081519050610121816100fb565b92915050565b60006020828403121561013d5761013c6100c4565b5b600061014b84828501610112565b91505092915050565b610c16806101636000396000f3fe608060405234801561001057600080fd5b50600436106100625760003560e01c806352555702146100675780637cc70240146100835780638a94b05f146100b3578063d3b2f598146100cf578063f851a440146100d9578063fc0c546a146100f7575b600080fd5b610081600480360381019061007c919061078c565b610115565b005b61009d60048036038101906100989190610826565b61031f565b6040516100aa9190610881565b60405180910390f35b6100cd60048036038101906100c8919061089c565b61034e565b005b6100d7610560565b005b6100e16105e4565b6040516100ee9190610933565b60405180910390f35b6100ff61060a565b60405161010c91906109ad565b60405180910390f35b61011d610630565b60001515600360008873ffffffffffffffffffffffffffffffffffffffff1673ffffffffffffffffffffffffffffffffffffffff168152602001908152602001600020600085815260200190815260200160002060009054906101000a900460ff161515146101c1576040517f08c379a00000000000000000000000000000000000000000000000000000000081526004016101b890610a25565b60405180910390fd5b6001600360008873ffffffffffffffffffffffffffffffffffffffff1673ffffffffffffffffffffffffffffffffffffffff168152602001908152602001600020600085815260200190815260200160002060006101000a81548160ff021916908315150217905550600260009054906101000a900473ffffffffffffffffffffffffffffffffffffffff1673ffffffffffffffffffffffffffffffffffffffff166340c10f1986866040518363ffffffff1660e01b8152600401610287929190610a54565b600060405180830381600087803b1580156102a157600080fd5b505af11580156102b5573d6000803e3d6000fd5b505050506001808111156102cc576102cb610a7d565b5b7fce5a9b86edd3b998c3948a7934c7ecf7dba73c4c5bcf56cf576bca4aa2beeb30878787428888886040516103079796959493929190610b0a565b60405180910390a261031761067f565b505050505050565b60036020528160005260406000206020528060005260406000206000915091509054906101000a900460ff1681565b610356610630565b60001515600360003373ffffffffffffffffffffffffffffffffffffffff1673ffffffffffffffffffffffffffffffffffffffff168152602001908152602001600020600085815260200190815260200160002060009054906101000a900460ff161515146103fa576040517f08c379a00000000000000000000000000000000000000000000000000000000081526004016103f190610a25565b60405180910390fd5b6001600360003373ffffffffffffffffffffffffffffffffffffffff1673ffffffffffffffffffffffffffffffffffffffff168152602001908152602001600020600085815260200190815260200160002060006101000a81548160ff021916908315150217905550600061dead9050600260009054906101000a900473ffffffffffffffffffffffffffffffffffffffff1673ffffffffffffffffffffffffffffffffffffffff1663a9059cbb82876040518363ffffffff1660e01b81526004016104c7929190610a54565b600060405180830381600087803b1580156104e157600080fd5b505af11580156104f5573d6000803e3d6000fd5b505050506000600181111561050d5761050c610a7d565b5b7fce5a9b86edd3b998c3948a7934c7ecf7dba73c4c5bcf56cf576bca4aa2beeb30338888428989896040516105489796959493929190610b0a565b60405180910390a25061055961067f565b5050505050565b600260009054906101000a900473ffffffffffffffffffffffffffffffffffffffff1673ffffffffffffffffffffffffffffffffffffffff1663d3b2f5986040518163ffffffff1660e01b8152600401600060405180830381600087803b1580156105ca57600080fd5b505af11580156105de573d6000803e3d6000fd5b50505050565b600160009054906101000a900473ffffffffffffffffffffffffffffffffffffffff1681565b600260009054906101000a900473ffffffffffffffffffffffffffffffffffffffff1681565b600260005403610675576040517f08c379a000000000000000000000000000000000000000000000000000000000815260040161066c90610bc0565b60405180910390fd5b6002600081905550565b6001600081905550565b600080fd5b600080fd5b600073ffffffffffffffffffffffffffffffffffffffff82169050919050565b60006106be82610693565b9050919050565b6106ce816106b3565b81146106d957600080fd5b50565b6000813590506106eb816106c5565b92915050565b6000819050919050565b610704816106f1565b811461070f57600080fd5b50565b600081359050610721816106fb565b92915050565b600080fd5b600080fd5b600080fd5b60008083601f84011261074c5761074b610727565b5b8235905067ffffffffffffffff8111156107695761076861072c565b5b60208301915083600182028301111561078557610784610731565b5b9250929050565b60008060008060008060a087890312156107a9576107a8610689565b5b60006107b789828a016106dc565b96505060206107c889828a016106dc565b95505060406107d989828a01610712565b94505060606107ea89828a01610712565b935050608087013567ffffffffffffffff81111561080b5761080a61068e565b5b61081789828a01610736565b92509250509295509295509295565b6000806040838503121561083d5761083c610689565b5b600061084b858286016106dc565b925050602061085c85828601610712565b9150509250929050565b60008115159050919050565b61087b81610866565b82525050565b60006020820190506108966000830184610872565b92915050565b6000806000806000608086880312156108b8576108b7610689565b5b60006108c6888289016106dc565b95505060206108d788828901610712565b94505060406108e888828901610712565b935050606086013567ffffffffffffffff8111156109095761090861068e565b5b61091588828901610736565b92509250509295509295909350565b61092d816106b3565b82525050565b60006020820190506109486000830184610924565b92915050565b6000819050919050565b600061097361096e61096984610693565b61094e565b610693565b9050919050565b600061098582610958565b9050919050565b60006109978261097a565b9050919050565b6109a78161098c565b82525050565b60006020820190506109c2600083018461099e565b92915050565b600082825260208201905092915050565b7f7472616e7366657220616c72656164792070726f636573736564000000000000600082015250565b6000610a0f601a836109c8565b9150610a1a826109d9565b602082019050919050565b60006020820190508181036000830152610a3e81610a02565b9050919050565b610a4e816106f1565b82525050565b6000604082019050610a696000830185610924565b610a766020830184610a45565b9392505050565b7f4e487b7100000000000000000000000000000000000000000000000000000000600052602160045260246000fd5b600082825260208201905092915050565b82818337600083830152505050565b6000601f19601f8301169050919050565b6000610ae98385610aac565b9350610af6838584610abd565b610aff83610acc565b840190509392505050565b600060c082019050610b1f600083018a610924565b610b2c6020830189610924565b610b396040830188610a45565b610b466060830187610a45565b610b536080830186610a45565b81810360a0830152610b66818486610add565b905098975050505050505050565b7f5265656e7472616e637947756172643a207265656e7472616e742063616c6c00600082015250565b6000610baa601f836109c8565b9150610bb582610b74565b602082019050919050565b60006020820190508181036000830152610bd981610b9d565b905091905056fea264697066735822122003a7147a009c40d0979f5ce419391c3fc4919ebd99c98849f11d27506437dedb64736f6c63430008130033",
  "immutableReferences": {},
  "source": "// SPDX-License-Identifier: GPL-3.0\npragma solidity 0.8.19;\n\nimport \"./BridgeBase.sol\";\n\ncontract BridgeEth is BridgeBase {\n    constructor(address token) BridgeBase(token) {}\n}\n",
  "sourcePath": "/Users/enriquesouzasoares/projects/theta/theta-bridge/contracts/BridgeEth.sol",
  "compiler": {
    "name": "solc",
    "version": "0.8.19+commit.7dd6d404.Emscripten.clang"
  },
  "schemaVersion": "3.4.16",
  "updatedAt": "2024-03-13T06:24:17.327Z",
  "devdoc": {
    "kind": "dev",
    "methods": {},
    "version": 1
  },
  "userdoc": {
    "kind": "user",
    "methods": {},
    "version": 1
  }
}