{
  "contractName": "BridgeBase",
  "abi": [
    {
      "inputs": [
        {
          "internalType": "address",
          "name": "_token",
          "type": "address"
        }
      ],
      "stateMutability": "nonpayable",
      "type": "constructor"
    },
    {
      "anonymous": false,
      "inputs": [
        {
          "indexed": false,
          "internalType": "address",
          "name": "from",
          "type": "address"
        },
        {
          "indexed": false,
          "internalType": "address",
          "name": "to",
          "type": "address"
        },
        {
          "indexed": false,
          "internalType": "uint256",
          "name": "amount",
          "type": "uint256"
        },
        {
          "indexed": false,
          "internalType": "uint256",
          "name": "date",
          "type": "uint256"
        },
        {
          "indexed": false,
          "internalType": "uint256",
          "name": "nonce",
          "type": "uint256"
        },
        {
          "indexed": false,
          "internalType": "bytes",
          "name": "signature",
          "type": "bytes"
        },
        {
          "indexed": true,
          "internalType": "enum BridgeBase.Step",
          "name": "step",
          "type": "uint8"
        }
      ],
      "name": "Transfer",
      "type": "event"
    },
    {
      "stateMutability": "payable",
      "type": "fallback"
    },
    {
      "inputs": [],
      "name": "admin",
      "outputs": [
        {
          "internalType": "address",
          "name": "",
          "type": "address"
        }
      ],
      "stateMutability": "view",
      "type": "function"
    },
    {
      "inputs": [
        {
          "internalType": "address",
          "name": "",
          "type": "address"
        },
        {
          "internalType": "uint256",
          "name": "",
          "type": "uint256"
        }
      ],
      "name": "processedNonces",
      "outputs": [
        {
          "internalType": "bool",
          "name": "",
          "type": "bool"
        }
      ],
      "stateMutability": "view",
      "type": "function"
    },
    {
      "inputs": [],
      "name": "token",
      "outputs": [
        {
          "internalType": "contract IToken",
          "name": "",
          "type": "address"
        }
      ],
      "stateMutability": "view",
      "type": "function"
    },
    {
      "stateMutability": "payable",
      "type": "receive"
    },
    {
      "inputs": [],
      "name": "updateAdmin",
      "outputs": [],
      "stateMutability": "nonpayable",
      "type": "function"
    },
    {
      "inputs": [
        {
          "internalType": "address",
          "name": "to",
          "type": "address"
        },
        {
          "internalType": "uint256",
          "name": "amount",
          "type": "uint256"
        },
        {
          "internalType": "uint256",
          "name": "nonce",
          "type": "uint256"
        },
        {
          "internalType": "bytes",
          "name": "signature",
          "type": "bytes"
        }
      ],
      "name": "burn",
      "outputs": [],
      "stateMutability": "nonpayable",
      "type": "function"
    },
    {
      "inputs": [
        {
          "internalType": "address",
          "name": "from",
          "type": "address"
        },
        {
          "internalType": "address",
          "name": "to",
          "type": "address"
        },
        {
          "internalType": "uint256",
          "name": "amount",
          "type": "uint256"
        },
        {
          "internalType": "uint256",
          "name": "nonce",
          "type": "uint256"
        },
        {
          "internalType": "bytes",
          "name": "signature",
          "type": "bytes"
        }
      ],
      "name": "mint",
      "outputs": [],
      "stateMutability": "nonpayable",
      "type": "function"
    },
    {
      "inputs": [
        {
          "internalType": "address",
          "name": "recipient",
          "type": "address"
        },
        {
          "internalType": "uint256",
          "name": "amount",
          "type": "uint256"
        }
      ],
      "name": "transferReplayToken",
      "outputs": [],
      "stateMutability": "nonpayable",
      "type": "function"
    }
  ],
  "bytecode": "0x60806040523480156200001157600080fd5b50604051620010d5380380620010d5833981810160405281019062000037919062000132565b600160008190555033600160006101000a81548173ffffffffffffffffffffffffffffffffffffffff021916908373ffffffffffffffffffffffffffffffffffffffff16021790555080600260006101000a81548173ffffffffffffffffffffffffffffffffffffffff021916908373ffffffffffffffffffffffffffffffffffffffff1602179055505062000164565b600080fd5b600073ffffffffffffffffffffffffffffffffffffffff82169050919050565b6000620000fa82620000cd565b9050919050565b6200010c81620000ed565b81146200011857600080fd5b50565b6000815190506200012c8162000101565b92915050565b6000602082840312156200014b576200014a620000c8565b5b60006200015b848285016200011b565b91505092915050565b610f6180620001746000396000f3fe6080604052600436106100745760003560e01c80638a94b05f1161004e5780638a94b05f1461010c578063d3b2f59814610135578063f851a4401461014c578063fc0c546a146101775761007b565b80633e20e1191461007d57806352555702146100a65780637cc70240146100cf5761007b565b3661007b57005b005b34801561008957600080fd5b506100a4600480360381019061009f9190610884565b6101a2565b005b3480156100b257600080fd5b506100cd60048036038101906100c89190610929565b6101b0565b005b3480156100db57600080fd5b506100f660048036038101906100f19190610884565b6101c6565b60405161010391906109de565b60405180910390f35b34801561011857600080fd5b50610133600480360381019061012e91906109f9565b6101f5565b005b34801561014157600080fd5b5061014a6104fb565b005b34801561015857600080fd5b50610161610595565b60405161016e9190610a90565b60405180910390f35b34801561018357600080fd5b5061018c6105bb565b6040516101999190610b0a565b60405180910390f35b6101ac82826105e1565b5050565b6101be868686868686610674565b505050505050565b60036020528160005260406000206020528060005260406000206000915091509054906101000a900460ff1681565b6101fd610709565b60001515600360003373ffffffffffffffffffffffffffffffffffffffff1673ffffffffffffffffffffffffffffffffffffffff168152602001908152602001600020600085815260200190815260200160002060009054906101000a900460ff161515146102a1576040517f08c379a000000000000000000000000000000000000000000000000000000000815260040161029890610b82565b60405180910390fd5b6001600360003373ffffffffffffffffffffffffffffffffffffffff1673ffffffffffffffffffffffffffffffffffffffff168152602001908152602001600020600085815260200190815260200160002060006101000a81548160ff021916908315150217905550600061dead905084600260009054906101000a900473ffffffffffffffffffffffffffffffffffffffff1673ffffffffffffffffffffffffffffffffffffffff1663dd62ed3e33306040518363ffffffff1660e01b815260040161036f929190610ba2565b602060405180830381865afa15801561038c573d6000803e3d6000fd5b505050506040513d601f19601f820116820180604052508101906103b09190610be0565b10156103f1576040517f08c379a00000000000000000000000000000000000000000000000000000000081526004016103e890610c59565b60405180910390fd5b600260009054906101000a900473ffffffffffffffffffffffffffffffffffffffff1673ffffffffffffffffffffffffffffffffffffffff166323b872dd3383886040518463ffffffff1660e01b815260040161045093929190610c88565b6020604051808303816000875af115801561046f573d6000803e3d6000fd5b505050506040513d601f19601f820116820180604052508101906104939190610ceb565b50600060018111156104a8576104a7610d18565b5b7fce5a9b86edd3b998c3948a7934c7ecf7dba73c4c5bcf56cf576bca4aa2beeb30338888428989896040516104e39796959493929190610da5565b60405180910390a2506104f4610758565b5050505050565b600160009054906101000a900473ffffffffffffffffffffffffffffffffffffffff1673ffffffffffffffffffffffffffffffffffffffff163373ffffffffffffffffffffffffffffffffffffffff161461058b576040517f08c379a000000000000000000000000000000000000000000000000000000000815260040161058290610e5b565b60405180910390fd5b610593610762565b565b600160009054906101000a900473ffffffffffffffffffffffffffffffffffffffff1681565b600260009054906101000a900473ffffffffffffffffffffffffffffffffffffffff1681565b600260009054906101000a900473ffffffffffffffffffffffffffffffffffffffff1673ffffffffffffffffffffffffffffffffffffffff1663a9059cbb83836040518363ffffffff1660e01b815260040161063e929190610e7b565b600060405180830381600087803b15801561065857600080fd5b505af115801561066c573d6000803e3d6000fd5b505050505050565b600260009054906101000a900473ffffffffffffffffffffffffffffffffffffffff1673ffffffffffffffffffffffffffffffffffffffff1663a0712d68856040518263ffffffff1660e01b81526004016106cf9190610ea4565b600060405180830381600087803b1580156106e957600080fd5b505af11580156106fd573d6000803e3d6000fd5b50505050505050505050565b60026000540361074e576040517f08c379a000000000000000000000000000000000000000000000000000000000815260040161074590610f0b565b60405180910390fd5b6002600081905550565b6001600081905550565b600260009054906101000a900473ffffffffffffffffffffffffffffffffffffffff1673ffffffffffffffffffffffffffffffffffffffff1663d3b2f5986040518163ffffffff1660e01b8152600401600060405180830381600087803b1580156107cc57600080fd5b505af11580156107e0573d6000803e3d6000fd5b50505050565b600080fd5b600080fd5b600073ffffffffffffffffffffffffffffffffffffffff82169050919050565b600061081b826107f0565b9050919050565b61082b81610810565b811461083657600080fd5b50565b60008135905061084881610822565b92915050565b6000819050919050565b6108618161084e565b811461086c57600080fd5b50565b60008135905061087e81610858565b92915050565b6000806040838503121561089b5761089a6107e6565b5b60006108a985828601610839565b92505060206108ba8582860161086f565b9150509250929050565b600080fd5b600080fd5b600080fd5b60008083601f8401126108e9576108e86108c4565b5b8235905067ffffffffffffffff811115610906576109056108c9565b5b602083019150836001820283011115610922576109216108ce565b5b9250929050565b60008060008060008060a08789031215610946576109456107e6565b5b600061095489828a01610839565b965050602061096589828a01610839565b955050604061097689828a0161086f565b945050606061098789828a0161086f565b935050608087013567ffffffffffffffff8111156109a8576109a76107eb565b5b6109b489828a016108d3565b92509250509295509295509295565b60008115159050919050565b6109d8816109c3565b82525050565b60006020820190506109f360008301846109cf565b92915050565b600080600080600060808688031215610a1557610a146107e6565b5b6000610a2388828901610839565b9550506020610a348882890161086f565b9450506040610a458882890161086f565b935050606086013567ffffffffffffffff811115610a6657610a656107eb565b5b610a72888289016108d3565b92509250509295509295909350565b610a8a81610810565b82525050565b6000602082019050610aa56000830184610a81565b92915050565b6000819050919050565b6000610ad0610acb610ac6846107f0565b610aab565b6107f0565b9050919050565b6000610ae282610ab5565b9050919050565b6000610af482610ad7565b9050919050565b610b0481610ae9565b82525050565b6000602082019050610b1f6000830184610afb565b92915050565b600082825260208201905092915050565b7f7472616e7366657220616c72656164792070726f636573736564000000000000600082015250565b6000610b6c601a83610b25565b9150610b7782610b36565b602082019050919050565b60006020820190508181036000830152610b9b81610b5f565b9050919050565b6000604082019050610bb76000830185610a81565b610bc46020830184610a81565b9392505050565b600081519050610bda81610858565b92915050565b600060208284031215610bf657610bf56107e6565b5b6000610c0484828501610bcb565b91505092915050565b7f496e73756666696369656e7420616c6c6f77616e636500000000000000000000600082015250565b6000610c43601683610b25565b9150610c4e82610c0d565b602082019050919050565b60006020820190508181036000830152610c7281610c36565b9050919050565b610c828161084e565b82525050565b6000606082019050610c9d6000830186610a81565b610caa6020830185610a81565b610cb76040830184610c79565b949350505050565b610cc8816109c3565b8114610cd357600080fd5b50565b600081519050610ce581610cbf565b92915050565b600060208284031215610d0157610d006107e6565b5b6000610d0f84828501610cd6565b91505092915050565b7f4e487b7100000000000000000000000000000000000000000000000000000000600052602160045260246000fd5b600082825260208201905092915050565b82818337600083830152505050565b6000601f19601f8301169050919050565b6000610d848385610d47565b9350610d91838584610d58565b610d9a83610d67565b840190509392505050565b600060c082019050610dba600083018a610a81565b610dc76020830189610a81565b610dd46040830188610c79565b610de16060830187610c79565b610dee6080830186610c79565b81810360a0830152610e01818486610d78565b905098975050505050505050565b7f4f6e6c792061646d696e2063616e207570646174652061646d696e0000000000600082015250565b6000610e45601b83610b25565b9150610e5082610e0f565b602082019050919050565b60006020820190508181036000830152610e7481610e38565b9050919050565b6000604082019050610e906000830185610a81565b610e9d6020830184610c79565b9392505050565b6000602082019050610eb96000830184610c79565b92915050565b7f5265656e7472616e637947756172643a207265656e7472616e742063616c6c00600082015250565b6000610ef5601f83610b25565b9150610f0082610ebf565b602082019050919050565b60006020820190508181036000830152610f2481610ee8565b905091905056fea2646970667358221220c6908736b277a70c5c8044c95b003af158514ef6cea088141941f774bc7974e964736f6c63430008130033",
  "immutableReferences": {},
  "source": "// SPDX-License-Identifier: GPL-3.0\npragma solidity 0.8.19;\n\nimport \"./IToken.sol\";\nimport \"@openzeppelin/contracts/token/ERC20/IERC20.sol\";\nimport \"@openzeppelin/contracts/security/ReentrancyGuard.sol\";\nimport \"@openzeppelin/contracts/utils/math/SafeMath.sol\";\n\ncontract BridgeBase is ReentrancyGuard {\n    using SafeMath for uint;\n\n    address public admin;\n    IToken public token;\n    mapping(address => mapping(uint => bool)) public processedNonces;\n\n    enum Step {\n        Burn,\n        Mint\n    }\n    event Transfer(\n        address from,\n        address to,\n        uint amount,\n        uint date,\n        uint nonce,\n        bytes signature,\n        Step indexed step\n    );\n\n    constructor(address _token) {\n        admin = msg.sender;\n        token = IToken(_token);\n    }\n\n    fallback() external payable {}\n\n    receive() external payable {}\n\n    function internalUpdateAdmin() internal {\n        token.updateAdmin();\n    }\n\n    function updateAdmin() external {\n        require(msg.sender == admin, \"Only admin can update admin\");\n        internalUpdateAdmin();\n    }\n\n    function burn(\n        address to,\n        uint amount,\n        uint nonce,\n        bytes calldata signature\n    ) external nonReentrant {\n        require(\n            processedNonces[msg.sender][nonce] == false,\n            \"transfer already processed\"\n        );\n        processedNonces[msg.sender][nonce] = true;\n\n        address burnAddress = 0x000000000000000000000000000000000000dEaD;\n\n        // Ensure the contract has the necessary allowance\n        require(\n            token.allowance(msg.sender, address(this)) >= amount,\n            \"Insufficient allowance\"\n        );\n\n        // Transfer tokens from the user to the burn address\n        token.transferFrom(msg.sender, burnAddress, amount);\n\n        emit Transfer(\n            msg.sender,\n            to,\n            amount,\n            block.timestamp,\n            nonce,\n            signature,\n            Step.Burn\n        );\n    }\n\n    function internalMint(\n        address from,\n        address to,\n        uint amount,\n        uint nonce,\n        bytes calldata signature\n    ) internal {\n        // TODO: use the signature for testnet and mainnet. Locally it will only work if you use the same private keys.\n        // bytes32 message = keccak256(abi.encodePacked(from, to, amount, nonce));\n        // require(recoverSigner(message, signature) == from, \"wrong signature\");\n        // require(\n        //     processedNonces[from][nonce] == false,\n        //     \"transfer already processed\"\n        // );\n        // processedNonces[from][nonce] = true;\n        token.mint(amount);\n        // internalTransferReplayToken(to, amount);\n        // emit Transfer(\n        //     from,\n        //     to,\n        //     amount,\n        //     block.timestamp,\n        //     nonce,\n        //     signature,\n        //     Step.Mint\n        // );\n    }\n\n    function mint(\n        address from,\n        address to,\n        uint amount,\n        uint nonce,\n        bytes calldata signature\n    ) external {\n        //require(msg.sender == admin, \"Only admin can mint coins\");\n        internalMint(from, to, amount, nonce, signature);\n    }\n\n    function internalTransferReplayToken(address recipient, uint256 amount) internal  {\n        token.transfer(recipient, amount);\n    }\n\n    function transferReplayToken(address recipient, uint256 amount) external {\n        internalTransferReplayToken(recipient, amount);\n    }\n\n    function recoverSigner(\n        bytes32 message,\n        bytes memory sig\n    ) internal pure returns (address) {\n        (uint8 v, bytes32 r, bytes32 s) = splitSignature(sig);\n\n        return ecrecover(message, v, r, s);\n    }\n\n    function splitSignature(\n        bytes memory sig\n    ) internal pure returns (uint8, bytes32, bytes32) {\n        require(sig.length == 68, \"Invalid signature length\");\n\n        uint8 v;\n        bytes32 r;\n        bytes32 s;\n\n        assembly {\n            // first 32 bytes, after the length prefix\n            r := mload(add(sig, 32))\n            // second 32 bytes\n            s := mload(add(sig, 64))\n            // final byte (first byte of the next 32 bytes)\n            v := byte(0, mload(add(sig, 96)))\n        }\n\n        return (v, r, s);\n    }\n}\n",
  "sourcePath": "/Users/enriquesouzasoares/projects/theta/theta-bridge/contracts/BridgeBase.sol",
  "compiler": {
    "name": "solc",
    "version": "0.8.19+commit.7dd6d404.Emscripten.clang"
  },
  "schemaVersion": "3.4.16",
  "updatedAt": "2024-03-17T03:39:31.752Z",
  "devdoc": {
    "kind": "dev",
    "methods": {},
    "version": 1
  },
  "userdoc": {
    "kind": "user",
    "methods": {},
    "version": 1
  }
}