{
  "contractName": "BridgeEth",
  "abi": [
    {
      "inputs": [
        {
          "internalType": "address",
          "name": "token",
          "type": "address"
        }
      ],
      "stateMutability": "nonpayable",
      "type": "constructor"
    },
    {
      "anonymous": false,
      "inputs": [
        {
          "indexed": false,
          "internalType": "address",
          "name": "from",
          "type": "address"
        },
        {
          "indexed": false,
          "internalType": "address",
          "name": "to",
          "type": "address"
        },
        {
          "indexed": false,
          "internalType": "uint256",
          "name": "amount",
          "type": "uint256"
        },
        {
          "indexed": false,
          "internalType": "uint256",
          "name": "date",
          "type": "uint256"
        },
        {
          "indexed": false,
          "internalType": "uint256",
          "name": "nonce",
          "type": "uint256"
        },
        {
          "indexed": false,
          "internalType": "bytes",
          "name": "signature",
          "type": "bytes"
        },
        {
          "indexed": true,
          "internalType": "enum BridgeBase.Step",
          "name": "step",
          "type": "uint8"
        }
      ],
      "name": "Transfer",
      "type": "event"
    },
    {
      "inputs": [],
      "name": "admin",
      "outputs": [
        {
          "internalType": "address",
          "name": "",
          "type": "address"
        }
      ],
      "stateMutability": "view",
      "type": "function"
    },
    {
      "inputs": [
        {
          "internalType": "address",
          "name": "to",
          "type": "address"
        },
        {
          "internalType": "uint256",
          "name": "amount",
          "type": "uint256"
        },
        {
          "internalType": "uint256",
          "name": "nonce",
          "type": "uint256"
        },
        {
          "internalType": "bytes",
          "name": "signature",
          "type": "bytes"
        }
      ],
      "name": "burn",
      "outputs": [],
      "stateMutability": "nonpayable",
      "type": "function"
    },
    {
      "inputs": [
        {
          "internalType": "address",
          "name": "from",
          "type": "address"
        },
        {
          "internalType": "address",
          "name": "to",
          "type": "address"
        },
        {
          "internalType": "uint256",
          "name": "amount",
          "type": "uint256"
        },
        {
          "internalType": "uint256",
          "name": "nonce",
          "type": "uint256"
        },
        {
          "internalType": "bytes",
          "name": "signature",
          "type": "bytes"
        }
      ],
      "name": "mint",
      "outputs": [],
      "stateMutability": "nonpayable",
      "type": "function"
    },
    {
      "inputs": [
        {
          "internalType": "address",
          "name": "",
          "type": "address"
        },
        {
          "internalType": "uint256",
          "name": "",
          "type": "uint256"
        }
      ],
      "name": "processedNonces",
      "outputs": [
        {
          "internalType": "bool",
          "name": "",
          "type": "bool"
        }
      ],
      "stateMutability": "view",
      "type": "function"
    },
    {
      "inputs": [],
      "name": "token",
      "outputs": [
        {
          "internalType": "contract IToken",
          "name": "",
          "type": "address"
        }
      ],
      "stateMutability": "view",
      "type": "function"
    }
  ],
  "bytecode": "0x60806040523480156200001157600080fd5b50604051620010c9380380620010c9833981810160405281019062000037919062000134565b80600160008190555033600160006101000a81548173ffffffffffffffffffffffffffffffffffffffff021916908373ffffffffffffffffffffffffffffffffffffffff16021790555080600260006101000a81548173ffffffffffffffffffffffffffffffffffffffff021916908373ffffffffffffffffffffffffffffffffffffffff160217905550505062000166565b600080fd5b600073ffffffffffffffffffffffffffffffffffffffff82169050919050565b6000620000fc82620000cf565b9050919050565b6200010e81620000ef565b81146200011a57600080fd5b50565b6000815190506200012e8162000103565b92915050565b6000602082840312156200014d576200014c620000ca565b5b60006200015d848285016200011d565b91505092915050565b610f5380620001766000396000f3fe608060405234801561001057600080fd5b50600436106100575760003560e01c8063525557021461005c5780637cc70240146100785780638a94b05f146100a8578063f851a440146100c4578063fc0c546a146100e2575b600080fd5b610076600480360381019061007191906108c0565b610100565b005b610092600480360381019061008d919061095a565b6103f7565b60405161009f91906109b5565b60405180910390f35b6100c260048036038101906100bd91906109d0565b610426565b005b6100cc610630565b6040516100d99190610a67565b60405180910390f35b6100ea610656565b6040516100f79190610ae1565b60405180910390f35b61010861067c565b6000868686866040516020016101219493929190610b65565b6040516020818303038152906040528051906020012090508673ffffffffffffffffffffffffffffffffffffffff1661019e8285858080601f016020809104026020016040519081016040528093929190818152602001838380828437600081840152601f19601f820116905080830192505050505050506106cb565b73ffffffffffffffffffffffffffffffffffffffff16146101f4576040517f08c379a00000000000000000000000000000000000000000000000000000000081526004016101eb90610c10565b60405180910390fd5b60001515600360008973ffffffffffffffffffffffffffffffffffffffff1673ffffffffffffffffffffffffffffffffffffffff168152602001908152602001600020600086815260200190815260200160002060009054906101000a900460ff16151514610298576040517f08c379a000000000000000000000000000000000000000000000000000000000815260040161028f90610c7c565b60405180910390fd5b6001600360008973ffffffffffffffffffffffffffffffffffffffff1673ffffffffffffffffffffffffffffffffffffffff168152602001908152602001600020600086815260200190815260200160002060006101000a81548160ff021916908315150217905550600260009054906101000a900473ffffffffffffffffffffffffffffffffffffffff1673ffffffffffffffffffffffffffffffffffffffff166340c10f1987876040518363ffffffff1660e01b815260040161035e929190610cab565b600060405180830381600087803b15801561037857600080fd5b505af115801561038c573d6000803e3d6000fd5b505050506001808111156103a3576103a2610cd4565b5b7fce5a9b86edd3b998c3948a7934c7ecf7dba73c4c5bcf56cf576bca4aa2beeb30888888428989896040516103de9796959493929190610d61565b60405180910390a2506103ef61073a565b505050505050565b60036020528160005260406000206020528060005260406000206000915091509054906101000a900460ff1681565b61042e61067c565b60001515600360003373ffffffffffffffffffffffffffffffffffffffff1673ffffffffffffffffffffffffffffffffffffffff168152602001908152602001600020600085815260200190815260200160002060009054906101000a900460ff161515146104d2576040517f08c379a00000000000000000000000000000000000000000000000000000000081526004016104c990610c7c565b60405180910390fd5b6001600360003373ffffffffffffffffffffffffffffffffffffffff1673ffffffffffffffffffffffffffffffffffffffff168152602001908152602001600020600085815260200190815260200160002060006101000a81548160ff021916908315150217905550600260009054906101000a900473ffffffffffffffffffffffffffffffffffffffff1673ffffffffffffffffffffffffffffffffffffffff16639dc29fac33866040518363ffffffff1660e01b8152600401610598929190610cab565b600060405180830381600087803b1580156105b257600080fd5b505af11580156105c6573d6000803e3d6000fd5b50505050600060018111156105de576105dd610cd4565b5b7fce5a9b86edd3b998c3948a7934c7ecf7dba73c4c5bcf56cf576bca4aa2beeb30338787428888886040516106199796959493929190610d61565b60405180910390a261062961073a565b5050505050565b600160009054906101000a900473ffffffffffffffffffffffffffffffffffffffff1681565b600260009054906101000a900473ffffffffffffffffffffffffffffffffffffffff1681565b6002600054036106c1576040517f08c379a00000000000000000000000000000000000000000000000000000000081526004016106b890610e17565b60405180910390fd5b6002600081905550565b6000806000806106da85610744565b925092509250600186848484604051600081526020016040526040516107039493929190610e6c565b6020604051602081039080840390855afa158015610725573d6000803e3d6000fd5b50505060206040510351935050505092915050565b6001600081905550565b6000806000604484511461078d576040517f08c379a000000000000000000000000000000000000000000000000000000000815260040161078490610efd565b60405180910390fd5b60008060006020870151915060408701519050606087015160001a92508282829550955095505050509193909250565b600080fd5b600080fd5b600073ffffffffffffffffffffffffffffffffffffffff82169050919050565b60006107f2826107c7565b9050919050565b610802816107e7565b811461080d57600080fd5b50565b60008135905061081f816107f9565b92915050565b6000819050919050565b61083881610825565b811461084357600080fd5b50565b6000813590506108558161082f565b92915050565b600080fd5b600080fd5b600080fd5b60008083601f8401126108805761087f61085b565b5b8235905067ffffffffffffffff81111561089d5761089c610860565b5b6020830191508360018202830111156108b9576108b8610865565b5b9250929050565b60008060008060008060a087890312156108dd576108dc6107bd565b5b60006108eb89828a01610810565b96505060206108fc89828a01610810565b955050604061090d89828a01610846565b945050606061091e89828a01610846565b935050608087013567ffffffffffffffff81111561093f5761093e6107c2565b5b61094b89828a0161086a565b92509250509295509295509295565b60008060408385031215610971576109706107bd565b5b600061097f85828601610810565b925050602061099085828601610846565b9150509250929050565b60008115159050919050565b6109af8161099a565b82525050565b60006020820190506109ca60008301846109a6565b92915050565b6000806000806000608086880312156109ec576109eb6107bd565b5b60006109fa88828901610810565b9550506020610a0b88828901610846565b9450506040610a1c88828901610846565b935050606086013567ffffffffffffffff811115610a3d57610a3c6107c2565b5b610a498882890161086a565b92509250509295509295909350565b610a61816107e7565b82525050565b6000602082019050610a7c6000830184610a58565b92915050565b6000819050919050565b6000610aa7610aa2610a9d846107c7565b610a82565b6107c7565b9050919050565b6000610ab982610a8c565b9050919050565b6000610acb82610aae565b9050919050565b610adb81610ac0565b82525050565b6000602082019050610af66000830184610ad2565b92915050565b60008160601b9050919050565b6000610b1482610afc565b9050919050565b6000610b2682610b09565b9050919050565b610b3e610b39826107e7565b610b1b565b82525050565b6000819050919050565b610b5f610b5a82610825565b610b44565b82525050565b6000610b718287610b2d565b601482019150610b818286610b2d565b601482019150610b918285610b4e565b602082019150610ba18284610b4e565b60208201915081905095945050505050565b600082825260208201905092915050565b7f77726f6e67207369676e61747572650000000000000000000000000000000000600082015250565b6000610bfa600f83610bb3565b9150610c0582610bc4565b602082019050919050565b60006020820190508181036000830152610c2981610bed565b9050919050565b7f7472616e7366657220616c72656164792070726f636573736564000000000000600082015250565b6000610c66601a83610bb3565b9150610c7182610c30565b602082019050919050565b60006020820190508181036000830152610c9581610c59565b9050919050565b610ca581610825565b82525050565b6000604082019050610cc06000830185610a58565b610ccd6020830184610c9c565b9392505050565b7f4e487b7100000000000000000000000000000000000000000000000000000000600052602160045260246000fd5b600082825260208201905092915050565b82818337600083830152505050565b6000601f19601f8301169050919050565b6000610d408385610d03565b9350610d4d838584610d14565b610d5683610d23565b840190509392505050565b600060c082019050610d76600083018a610a58565b610d836020830189610a58565b610d906040830188610c9c565b610d9d6060830187610c9c565b610daa6080830186610c9c565b81810360a0830152610dbd818486610d34565b905098975050505050505050565b7f5265656e7472616e637947756172643a207265656e7472616e742063616c6c00600082015250565b6000610e01601f83610bb3565b9150610e0c82610dcb565b602082019050919050565b60006020820190508181036000830152610e3081610df4565b9050919050565b6000819050919050565b610e4a81610e37565b82525050565b600060ff82169050919050565b610e6681610e50565b82525050565b6000608082019050610e816000830187610e41565b610e8e6020830186610e5d565b610e9b6040830185610e41565b610ea86060830184610e41565b95945050505050565b7f496e76616c6964207369676e6174757265206c656e6774680000000000000000600082015250565b6000610ee7601883610bb3565b9150610ef282610eb1565b602082019050919050565b60006020820190508181036000830152610f1681610eda565b905091905056fea26469706673582212205e947a3500f74a0658f607674996179333d6884a7e1acd2be45d68fa4ecf36fb64736f6c63430008130033",
  "immutableReferences": {},
  "source": "pragma solidity 0.8.19;\n\nimport \"./BridgeBase.sol\";\n\ncontract BridgeEth is BridgeBase {\n    constructor(address token) BridgeBase(token) {}\n}\n",
  "sourcePath": "/Users/enriquesouzasoares/projects/es_digital/bridge/contracts/BridgeEth.sol",
  "compiler": {
    "name": "solc",
    "version": "0.8.19+commit.7dd6d404.Emscripten.clang"
  },
  "schemaVersion": "3.4.16",
  "updatedAt": "2024-01-29T21:07:06.570Z",
  "networkType": "ethereum",
  "devdoc": {
    "kind": "dev",
    "methods": {},
    "version": 1
  },
  "userdoc": {
    "kind": "user",
    "methods": {},
    "version": 1
  }
}