{
  "contractName": "ReplayToken",
  "abi": [
    {
      "inputs": [
        {
          "internalType": "string",
          "name": "name_",
          "type": "string"
        },
        {
          "internalType": "string",
          "name": "symbol_",
          "type": "string"
        },
        {
          "internalType": "uint8",
          "name": "decimals_",
          "type": "uint8"
        },
        {
          "internalType": "uint256",
          "name": "maxSupply_",
          "type": "uint256"
        },
        {
          "internalType": "address",
          "name": "minter_",
          "type": "address"
        },
        {
          "internalType": "uint256",
          "name": "stakerRewardPerBlock_",
          "type": "uint256"
        },
        {
          "internalType": "address",
          "name": "initDistrWallet_",
          "type": "address"
        },
        {
          "internalType": "uint256",
          "name": "initMintAmount_",
          "type": "uint256"
        },
        {
          "internalType": "address",
          "name": "admin_",
          "type": "address"
        }
      ],
      "stateMutability": "nonpayable",
      "type": "constructor"
    },
    {
      "anonymous": false,
      "inputs": [
        {
          "indexed": true,
          "internalType": "address",
          "name": "owner",
          "type": "address"
        },
        {
          "indexed": true,
          "internalType": "address",
          "name": "spender",
          "type": "address"
        },
        {
          "indexed": false,
          "internalType": "uint256",
          "name": "value",
          "type": "uint256"
        }
      ],
      "name": "Approval",
      "type": "event"
    },
    {
      "anonymous": false,
      "inputs": [
        {
          "indexed": true,
          "internalType": "address",
          "name": "previousPendingAdmin",
          "type": "address"
        },
        {
          "indexed": true,
          "internalType": "address",
          "name": "newPendingAdmin",
          "type": "address"
        }
      ],
      "name": "SetPendingAdmin",
      "type": "event"
    },
    {
      "anonymous": false,
      "inputs": [
        {
          "indexed": true,
          "internalType": "address",
          "name": "from",
          "type": "address"
        },
        {
          "indexed": true,
          "internalType": "address",
          "name": "to",
          "type": "address"
        },
        {
          "indexed": false,
          "internalType": "uint256",
          "name": "value",
          "type": "uint256"
        }
      ],
      "name": "Transfer",
      "type": "event"
    },
    {
      "anonymous": false,
      "inputs": [
        {
          "indexed": true,
          "internalType": "address",
          "name": "previousAdmin",
          "type": "address"
        },
        {
          "indexed": true,
          "internalType": "address",
          "name": "newAdmin",
          "type": "address"
        }
      ],
      "name": "UpdateAdmin",
      "type": "event"
    },
    {
      "anonymous": false,
      "inputs": [
        {
          "indexed": true,
          "internalType": "address",
          "name": "previousMinter",
          "type": "address"
        },
        {
          "indexed": true,
          "internalType": "address",
          "name": "newMinter",
          "type": "address"
        }
      ],
      "name": "UpdateMinter",
      "type": "event"
    },
    {
      "anonymous": false,
      "inputs": [
        {
          "indexed": false,
          "internalType": "uint256",
          "name": "newStakerRewardPerBlock",
          "type": "uint256"
        }
      ],
      "name": "UpdateStakerRewardPerBlock",
      "type": "event"
    },
    {
      "inputs": [],
      "name": "admin",
      "outputs": [
        {
          "internalType": "address",
          "name": "",
          "type": "address"
        }
      ],
      "stateMutability": "view",
      "type": "function"
    },
    {
      "inputs": [
        {
          "internalType": "address",
          "name": "owner",
          "type": "address"
        },
        {
          "internalType": "address",
          "name": "spender",
          "type": "address"
        }
      ],
      "name": "allowance",
      "outputs": [
        {
          "internalType": "uint256",
          "name": "",
          "type": "uint256"
        }
      ],
      "stateMutability": "view",
      "type": "function"
    },
    {
      "inputs": [
        {
          "internalType": "address",
          "name": "spender",
          "type": "address"
        },
        {
          "internalType": "uint256",
          "name": "amount",
          "type": "uint256"
        }
      ],
      "name": "approve",
      "outputs": [
        {
          "internalType": "bool",
          "name": "",
          "type": "bool"
        }
      ],
      "stateMutability": "nonpayable",
      "type": "function"
    },
    {
      "inputs": [
        {
          "internalType": "address",
          "name": "account",
          "type": "address"
        }
      ],
      "name": "balanceOf",
      "outputs": [
        {
          "internalType": "uint256",
          "name": "",
          "type": "uint256"
        }
      ],
      "stateMutability": "view",
      "type": "function"
    },
    {
      "inputs": [
        {
          "internalType": "address",
          "name": "spender",
          "type": "address"
        },
        {
          "internalType": "uint256",
          "name": "subtractedValue",
          "type": "uint256"
        }
      ],
      "name": "decreaseAllowance",
      "outputs": [
        {
          "internalType": "bool",
          "name": "",
          "type": "bool"
        }
      ],
      "stateMutability": "nonpayable",
      "type": "function"
    },
    {
      "inputs": [
        {
          "internalType": "address",
          "name": "spender",
          "type": "address"
        },
        {
          "internalType": "uint256",
          "name": "addedValue",
          "type": "uint256"
        }
      ],
      "name": "increaseAllowance",
      "outputs": [
        {
          "internalType": "bool",
          "name": "",
          "type": "bool"
        }
      ],
      "stateMutability": "nonpayable",
      "type": "function"
    },
    {
      "inputs": [],
      "name": "maxSupply",
      "outputs": [
        {
          "internalType": "uint256",
          "name": "",
          "type": "uint256"
        }
      ],
      "stateMutability": "view",
      "type": "function"
    },
    {
      "inputs": [],
      "name": "minter",
      "outputs": [
        {
          "internalType": "address",
          "name": "",
          "type": "address"
        }
      ],
      "stateMutability": "view",
      "type": "function"
    },
    {
      "inputs": [],
      "name": "name",
      "outputs": [
        {
          "internalType": "string",
          "name": "",
          "type": "string"
        }
      ],
      "stateMutability": "view",
      "type": "function"
    },
    {
      "inputs": [],
      "name": "pendingAdmin",
      "outputs": [
        {
          "internalType": "address",
          "name": "",
          "type": "address"
        }
      ],
      "stateMutability": "view",
      "type": "function"
    },
    {
      "inputs": [],
      "name": "previousAdmin",
      "outputs": [
        {
          "internalType": "address",
          "name": "",
          "type": "address"
        }
      ],
      "stateMutability": "view",
      "type": "function"
    },
    {
      "inputs": [],
      "name": "previousMinter",
      "outputs": [
        {
          "internalType": "address",
          "name": "",
          "type": "address"
        }
      ],
      "stateMutability": "view",
      "type": "function"
    },
    {
      "inputs": [],
      "name": "previousPendingAdmin",
      "outputs": [
        {
          "internalType": "address",
          "name": "",
          "type": "address"
        }
      ],
      "stateMutability": "view",
      "type": "function"
    },
    {
      "inputs": [],
      "name": "symbol",
      "outputs": [
        {
          "internalType": "string",
          "name": "",
          "type": "string"
        }
      ],
      "stateMutability": "view",
      "type": "function"
    },
    {
      "inputs": [],
      "name": "totalSupply",
      "outputs": [
        {
          "internalType": "uint256",
          "name": "",
          "type": "uint256"
        }
      ],
      "stateMutability": "view",
      "type": "function"
    },
    {
      "inputs": [
        {
          "internalType": "address",
          "name": "to",
          "type": "address"
        },
        {
          "internalType": "uint256",
          "name": "amount",
          "type": "uint256"
        }
      ],
      "name": "transfer",
      "outputs": [
        {
          "internalType": "bool",
          "name": "",
          "type": "bool"
        }
      ],
      "stateMutability": "nonpayable",
      "type": "function"
    },
    {
      "inputs": [
        {
          "internalType": "address",
          "name": "from",
          "type": "address"
        },
        {
          "internalType": "address",
          "name": "to",
          "type": "address"
        },
        {
          "internalType": "uint256",
          "name": "amount",
          "type": "uint256"
        }
      ],
      "name": "transferFrom",
      "outputs": [
        {
          "internalType": "bool",
          "name": "",
          "type": "bool"
        }
      ],
      "stateMutability": "nonpayable",
      "type": "function"
    },
    {
      "inputs": [
        {
          "internalType": "address",
          "name": "account",
          "type": "address"
        },
        {
          "internalType": "uint256",
          "name": "amount",
          "type": "uint256"
        }
      ],
      "name": "mintStakerReward",
      "outputs": [
        {
          "internalType": "bool",
          "name": "",
          "type": "bool"
        }
      ],
      "stateMutability": "nonpayable",
      "type": "function"
    },
    {
      "inputs": [
        {
          "internalType": "uint256",
          "name": "amount",
          "type": "uint256"
        }
      ],
      "name": "mint",
      "outputs": [],
      "stateMutability": "nonpayable",
      "type": "function"
    },
    {
      "inputs": [
        {
          "internalType": "uint256",
          "name": "stakerRewardPerBlock_",
          "type": "uint256"
        }
      ],
      "name": "updateStakerRewardPerBlock",
      "outputs": [],
      "stateMutability": "nonpayable",
      "type": "function"
    },
    {
      "inputs": [
        {
          "internalType": "address",
          "name": "minter_",
          "type": "address"
        }
      ],
      "name": "updateMinter",
      "outputs": [],
      "stateMutability": "nonpayable",
      "type": "function"
    },
    {
      "inputs": [
        {
          "internalType": "address",
          "name": "admin_",
          "type": "address"
        }
      ],
      "name": "setPendingAdmin",
      "outputs": [],
      "stateMutability": "nonpayable",
      "type": "function"
    },
    {
      "inputs": [],
      "name": "updateAdmin",
      "outputs": [],
      "stateMutability": "nonpayable",
      "type": "function"
    },
    {
      "inputs": [],
      "name": "stakerRewardPerBlock",
      "outputs": [
        {
          "internalType": "uint256",
          "name": "",
          "type": "uint256"
        }
      ],
      "stateMutability": "view",
      "type": "function"
    },
    {
      "inputs": [],
      "name": "decimals",
      "outputs": [
        {
          "internalType": "uint8",
          "name": "",
          "type": "uint8"
        }
      ],
      "stateMutability": "view",
      "type": "function"
    }
  ],
  "bytecode": "0x60c06040523480156200001157600080fd5b50604051620039aa380380620039aa8339818101604052810190620000379190620008fa565b888881600390816200004a919062000c58565b5080600490816200005c919062000c58565b505050600073ffffffffffffffffffffffffffffffffffffffff168173ffffffffffffffffffffffffffffffffffffffff1603620000d1576040517f08c379a0000000000000000000000000000000000000000000000000000000008152600401620000c89062000da0565b60405180910390fd5b600073ffffffffffffffffffffffffffffffffffffffff168573ffffffffffffffffffffffffffffffffffffffff160362000143576040517f08c379a00000000000000000000000000000000000000000000000000000000081526004016200013a9062000e12565b60405180910390fd5b600073ffffffffffffffffffffffffffffffffffffffff168373ffffffffffffffffffffffffffffffffffffffff1603620001b5576040517f08c379a0000000000000000000000000000000000000000000000000000000008152600401620001ac9062000e84565b60405180910390fd5b60008760ff1603620001fe576040517f08c379a0000000000000000000000000000000000000000000000000000000008152600401620001f59062000ef6565b60405180910390fd5b6000860362000244576040517f08c379a00000000000000000000000000000000000000000000000000000000081526004016200023b9062000f68565b60405180910390fd5b6b033b2e3c9fd0803ce800000086111562000296576040517f08c379a00000000000000000000000000000000000000000000000000000000081526004016200028d9062000fda565b60405180910390fd5b858210620002db576040517f08c379a0000000000000000000000000000000000000000000000000000000008152600401620002d2906200104c565b60405180910390fd5b8660ff1660808160ff16815250508560a0818152505084600660006101000a81548173ffffffffffffffffffffffffffffffffffffffff021916908373ffffffffffffffffffffffffffffffffffffffff1602179055508360058190555080600760006101000a81548173ffffffffffffffffffffffffffffffffffffffff021916908373ffffffffffffffffffffffffffffffffffffffff1602179055506200038c83836200051260201b60201c565b600660009054906101000a900473ffffffffffffffffffffffffffffffffffffffff1673ffffffffffffffffffffffffffffffffffffffff16600960009054906101000a900473ffffffffffffffffffffffffffffffffffffffff1673ffffffffffffffffffffffffffffffffffffffff167ffb80f39493422136408edd986f7ca83c10534204422dd1dfebb055de4ef0fd5360405160405180910390a3600760009054906101000a900473ffffffffffffffffffffffffffffffffffffffff1673ffffffffffffffffffffffffffffffffffffffff16600b60009054906101000a900473ffffffffffffffffffffffffffffffffffffffff1673ffffffffffffffffffffffffffffffffffffffff167fcd6ba6b7da89e039d53b5d981527a893755342bb9d8e5c2f61f6638f1fb5192b60405160405180910390a37fd65d781db82f0bd55f732ea1b96f4c6565750df815c18a70962cd8405274e243600554604051620004fb91906200107f565b60405180910390a150505050505050505062001178565b600073ffffffffffffffffffffffffffffffffffffffff168273ffffffffffffffffffffffffffffffffffffffff160362000584576040517f08c379a00000000000000000000000000000000000000000000000000000000081526004016200057b90620010ec565b60405180910390fd5b62000598600083836200067f60201b60201c565b8060026000828254620005ac91906200113d565b92505081905550806000808473ffffffffffffffffffffffffffffffffffffffff1673ffffffffffffffffffffffffffffffffffffffff168152602001908152602001600020600082825401925050819055508173ffffffffffffffffffffffffffffffffffffffff16600073ffffffffffffffffffffffffffffffffffffffff167fddf252ad1be2c89b69c2b068fc378daa952ba7f163c4a11628f55a4df523b3ef836040516200065f91906200107f565b60405180910390a36200067b600083836200068460201b60201c565b5050565b505050565b505050565b6000604051905090565b600080fd5b600080fd5b600080fd5b600080fd5b6000601f19601f8301169050919050565b7f4e487b7100000000000000000000000000000000000000000000000000000000600052604160045260246000fd5b620006f282620006a7565b810181811067ffffffffffffffff82111715620007145762000713620006b8565b5b80604052505050565b60006200072962000689565b9050620007378282620006e7565b919050565b600067ffffffffffffffff8211156200075a5762000759620006b8565b5b6200076582620006a7565b9050602081019050919050565b60005b838110156200079257808201518184015260208101905062000775565b60008484015250505050565b6000620007b5620007af846200073c565b6200071d565b905082815260208101848484011115620007d457620007d3620006a2565b5b620007e184828562000772565b509392505050565b600082601f8301126200080157620008006200069d565b5b8151620008138482602086016200079e565b91505092915050565b600060ff82169050919050565b62000834816200081c565b81146200084057600080fd5b50565b600081519050620008548162000829565b92915050565b6000819050919050565b6200086f816200085a565b81146200087b57600080fd5b50565b6000815190506200088f8162000864565b92915050565b600073ffffffffffffffffffffffffffffffffffffffff82169050919050565b6000620008c28262000895565b9050919050565b620008d481620008b5565b8114620008e057600080fd5b50565b600081519050620008f481620008c9565b92915050565b60008060008060008060008060006101208a8c03121562000920576200091f62000693565b5b60008a015167ffffffffffffffff81111562000941576200094062000698565b5b6200094f8c828d01620007e9565b99505060208a015167ffffffffffffffff81111562000973576200097262000698565b5b620009818c828d01620007e9565b9850506040620009948c828d0162000843565b9750506060620009a78c828d016200087e565b9650506080620009ba8c828d01620008e3565b95505060a0620009cd8c828d016200087e565b94505060c0620009e08c828d01620008e3565b93505060e0620009f38c828d016200087e565b92505061010062000a078c828d01620008e3565b9150509295985092959850929598565b600081519050919050565b7f4e487b7100000000000000000000000000000000000000000000000000000000600052602260045260246000fd5b6000600282049050600182168062000a6a57607f821691505b60208210810362000a805762000a7f62000a22565b5b50919050565b60008190508160005260206000209050919050565b60006020601f8301049050919050565b600082821b905092915050565b60006008830262000aea7fffffffffffffffffffffffffffffffffffffffffffffffffffffffffffffffff8262000aab565b62000af6868362000aab565b95508019841693508086168417925050509392505050565b6000819050919050565b600062000b3962000b3362000b2d846200085a565b62000b0e565b6200085a565b9050919050565b6000819050919050565b62000b558362000b18565b62000b6d62000b648262000b40565b84845462000ab8565b825550505050565b600090565b62000b8462000b75565b62000b9181848462000b4a565b505050565b5b8181101562000bb95762000bad60008262000b7a565b60018101905062000b97565b5050565b601f82111562000c085762000bd28162000a86565b62000bdd8462000a9b565b8101602085101562000bed578190505b62000c0562000bfc8562000a9b565b83018262000b96565b50505b505050565b600082821c905092915050565b600062000c2d6000198460080262000c0d565b1980831691505092915050565b600062000c48838362000c1a565b9150826002028217905092915050565b62000c638262000a17565b67ffffffffffffffff81111562000c7f5762000c7e620006b8565b5b62000c8b825462000a51565b62000c9882828562000bbd565b600060209050601f83116001811462000cd0576000841562000cbb578287015190505b62000cc7858262000c3a565b86555062000d37565b601f19841662000ce08662000a86565b60005b8281101562000d0a5784890151825560018201915060208501945060208101905062000ce3565b8683101562000d2a578489015162000d26601f89168262000c1a565b8355505b6001600288020188555050505b505050505050565b600082825260208201905092915050565b7f696e76616c69642061646d696e20616464726573730000000000000000000000600082015250565b600062000d8860158362000d3f565b915062000d958262000d50565b602082019050919050565b6000602082019050818103600083015262000dbb8162000d79565b9050919050565b7f696e76616c6964206d696e7465725f2061646472657373000000000000000000600082015250565b600062000dfa60178362000d3f565b915062000e078262000dc2565b602082019050919050565b6000602082019050818103600083015262000e2d8162000deb565b9050919050565b7f696e76616c696420696e6974446973747257616c6c65745f2061646472657373600082015250565b600062000e6c60208362000d3f565b915062000e798262000e34565b602082019050919050565b6000602082019050818103600083015262000e9f8162000e5d565b9050919050565b7f696e76616c696420646563696d616c7300000000000000000000000000000000600082015250565b600062000ede60108362000d3f565b915062000eeb8262000ea6565b602082019050919050565b6000602082019050818103600083015262000f118162000ecf565b9050919050565b7f696e76616c6964206d6178537570706c79000000000000000000000000000000600082015250565b600062000f5060118362000d3f565b915062000f5d8262000f18565b602082019050919050565b6000602082019050818103600083015262000f838162000f41565b9050919050565b7f6d6178537570706c7920746f6f206c6172676500000000000000000000000000600082015250565b600062000fc260138362000d3f565b915062000fcf8262000f8a565b602082019050919050565b6000602082019050818103600083015262000ff58162000fb3565b9050919050565b7f496e697469616c20737570706c7920746f6f206c617267650000000000000000600082015250565b60006200103460188362000d3f565b9150620010418262000ffc565b602082019050919050565b60006020820190508181036000830152620010678162001025565b9050919050565b62001079816200085a565b82525050565b60006020820190506200109660008301846200106e565b92915050565b7f45524332303a206d696e7420746f20746865207a65726f206164647265737300600082015250565b6000620010d4601f8362000d3f565b9150620010e1826200109c565b602082019050919050565b600060208201905081810360008301526200110781620010c5565b9050919050565b7f4e487b7100000000000000000000000000000000000000000000000000000000600052601160045260246000fd5b60006200114a826200085a565b915062001157836200085a565b92508282019050808211156200117257620011716200110e565b5b92915050565b60805160a0516127e9620011c160003960008181610eb901528181610f1c0152818161119c015281816111cd0152818161120b01526114490152600061074101526127e96000f3fe608060405234801561001057600080fd5b50600436106101735760003560e01c80634dd18bf5116100de578063a457c2d711610097578063d3b2f59811610071578063d3b2f59814610464578063d5abeb011461046e578063dd62ed3e1461048c578063f851a440146104bc57610173565b8063a457c2d7146103d4578063a9059cbb14610404578063ab8e786f1461043457610173565b80634dd18bf5146103145780634eb03f6e1461033057806370a082311461034c578063909d6cb41461037c57806395d89b411461039a578063a0712d68146103b857610173565b806323b872dd1161013057806323b872dd1461023e57806324e770d01461026e578063267822471461028c57806329fb7ef6146102aa578063313ce567146102c657806339509351146102e457610173565b806306fdde03146101785780630754617214610196578063095ea7b3146101b45780630b064976146101e457806318160ddd146102025780632147425f14610220575b600080fd5b6101806104da565b60405161018d9190611c07565b60405180910390f35b61019e61056c565b6040516101ab9190611c6a565b60405180910390f35b6101ce60048036038101906101c99190611cec565b610592565b6040516101db9190611d47565b60405180910390f35b6101ec6105b5565b6040516101f99190611c6a565b60405180910390f35b61020a6105db565b6040516102179190611d71565b60405180910390f35b6102286105e5565b6040516102359190611c6a565b60405180910390f35b61025860048036038101906102539190611d8c565b61060b565b6040516102659190611d47565b60405180910390f35b61027661063a565b6040516102839190611d71565b60405180910390f35b610294610644565b6040516102a19190611c6a565b60405180910390f35b6102c460048036038101906102bf9190611ddf565b61066a565b005b6102ce61073d565b6040516102db9190611e28565b60405180910390f35b6102fe60048036038101906102f99190611cec565b610765565b60405161030b9190611d47565b60405180910390f35b61032e60048036038101906103299190611e43565b61079c565b005b61034a60048036038101906103459190611e43565b6109e0565b005b61036660048036038101906103619190611e43565b610c24565b6040516103739190611d71565b60405180910390f35b610384610c6c565b6040516103919190611c6a565b60405180910390f35b6103a2610c92565b6040516103af9190611c07565b60405180910390f35b6103d260048036038101906103cd9190611ddf565b610d24565b005b6103ee60048036038101906103e99190611cec565b610fbe565b6040516103fb9190611d47565b60405180910390f35b61041e60048036038101906104199190611cec565b611035565b60405161042b9190611d47565b60405180910390f35b61044e60048036038101906104499190611cec565b611058565b60405161045b9190611d47565b60405180910390f35b61046c611251565b005b610476611447565b6040516104839190611d71565b60405180910390f35b6104a660048036038101906104a19190611e70565b61146b565b6040516104b39190611d71565b60405180910390f35b6104c46114f2565b6040516104d19190611c6a565b60405180910390f35b6060600380546104e990611edf565b80601f016020809104026020016040519081016040528092919081815260200182805461051590611edf565b80156105625780601f1061053757610100808354040283529160200191610562565b820191906000526020600020905b81548152906001019060200180831161054557829003601f168201915b5050505050905090565b600660009054906101000a900473ffffffffffffffffffffffffffffffffffffffff1681565b60008061059d611518565b90506105aa818585611520565b600191505092915050565b600b60009054906101000a900473ffffffffffffffffffffffffffffffffffffffff1681565b6000600254905090565b600960009054906101000a900473ffffffffffffffffffffffffffffffffffffffff1681565b600080610616611518565b90506106238582856116e9565b61062e858585611775565b60019150509392505050565b6000600554905090565b600860009054906101000a900473ffffffffffffffffffffffffffffffffffffffff1681565b600760009054906101000a900473ffffffffffffffffffffffffffffffffffffffff1673ffffffffffffffffffffffffffffffffffffffff163373ffffffffffffffffffffffffffffffffffffffff16146106fa576040517f08c379a00000000000000000000000000000000000000000000000000000000081526004016106f190611f5c565b60405180910390fd5b806005819055507fd65d781db82f0bd55f732ea1b96f4c6565750df815c18a70962cd8405274e2436005546040516107329190611d71565b60405180910390a150565b60007f0000000000000000000000000000000000000000000000000000000000000000905090565b600080610770611518565b9050610791818585610782858961146b565b61078c9190611fab565b611520565b600191505092915050565b600760009054906101000a900473ffffffffffffffffffffffffffffffffffffffff1673ffffffffffffffffffffffffffffffffffffffff163373ffffffffffffffffffffffffffffffffffffffff161461082c576040517f08c379a000000000000000000000000000000000000000000000000000000000815260040161082390611f5c565b60405180910390fd5b600073ffffffffffffffffffffffffffffffffffffffff168173ffffffffffffffffffffffffffffffffffffffff160361089b576040517f08c379a00000000000000000000000000000000000000000000000000000000081526004016108929061202b565b60405180910390fd5b600860009054906101000a900473ffffffffffffffffffffffffffffffffffffffff16600a60006101000a81548173ffffffffffffffffffffffffffffffffffffffff021916908373ffffffffffffffffffffffffffffffffffffffff16021790555080600860006101000a81548173ffffffffffffffffffffffffffffffffffffffff021916908373ffffffffffffffffffffffffffffffffffffffff160217905550600860009054906101000a900473ffffffffffffffffffffffffffffffffffffffff1673ffffffffffffffffffffffffffffffffffffffff16600a60009054906101000a900473ffffffffffffffffffffffffffffffffffffffff1673ffffffffffffffffffffffffffffffffffffffff167fed1a3b5dea5773c7660d05cc9884b43f5e8e0b581713e873f013560558890f4960405160405180910390a350565b600760009054906101000a900473ffffffffffffffffffffffffffffffffffffffff1673ffffffffffffffffffffffffffffffffffffffff163373ffffffffffffffffffffffffffffffffffffffff1614610a70576040517f08c379a0000000000000000000000000000000000000000000000000000000008152600401610a6790611f5c565b60405180910390fd5b600073ffffffffffffffffffffffffffffffffffffffff168173ffffffffffffffffffffffffffffffffffffffff1603610adf576040517f08c379a0000000000000000000000000000000000000000000000000000000008152600401610ad690612097565b60405180910390fd5b600660009054906101000a900473ffffffffffffffffffffffffffffffffffffffff16600960006101000a81548173ffffffffffffffffffffffffffffffffffffffff021916908373ffffffffffffffffffffffffffffffffffffffff16021790555080600660006101000a81548173ffffffffffffffffffffffffffffffffffffffff021916908373ffffffffffffffffffffffffffffffffffffffff160217905550600660009054906101000a900473ffffffffffffffffffffffffffffffffffffffff1673ffffffffffffffffffffffffffffffffffffffff16600960009054906101000a900473ffffffffffffffffffffffffffffffffffffffff1673ffffffffffffffffffffffffffffffffffffffff167ffb80f39493422136408edd986f7ca83c10534204422dd1dfebb055de4ef0fd5360405160405180910390a350565b60008060008373ffffffffffffffffffffffffffffffffffffffff1673ffffffffffffffffffffffffffffffffffffffff168152602001908152602001600020549050919050565b600a60009054906101000a900473ffffffffffffffffffffffffffffffffffffffff1681565b606060048054610ca190611edf565b80601f0160208091040260200160405190810160405280929190818152602001828054610ccd90611edf565b8015610d1a5780601f10610cef57610100808354040283529160200191610d1a565b820191906000526020600020905b815481529060010190602001808311610cfd57829003601f168201915b5050505050905090565b600760009054906101000a900473ffffffffffffffffffffffffffffffffffffffff1673ffffffffffffffffffffffffffffffffffffffff163373ffffffffffffffffffffffffffffffffffffffff1614610db4576040517f08c379a0000000000000000000000000000000000000000000000000000000008152600401610dab90611f5c565b60405180910390fd5b600760009054906101000a900473ffffffffffffffffffffffffffffffffffffffff1673ffffffffffffffffffffffffffffffffffffffff163373ffffffffffffffffffffffffffffffffffffffff1614610e44576040517f08c379a0000000000000000000000000000000000000000000000000000000008152600401610e3b90612103565b60405180910390fd5b60003073ffffffffffffffffffffffffffffffffffffffff166318160ddd6040518163ffffffff1660e01b8152600401602060405180830381865afa158015610e91573d6000803e3d6000fd5b505050506040513d601f19601f82011682018060405250810190610eb59190612138565b90507f0000000000000000000000000000000000000000000000000000000000000000811115610f1a576040517f08c379a0000000000000000000000000000000000000000000000000000000008152600401610f11906121b1565b60405180910390fd5b7f0000000000000000000000000000000000000000000000000000000000000000610f4e83836119eb90919063ffffffff16565b10610f8e576040517f08c379a0000000000000000000000000000000000000000000000000000000008152600401610f859061221d565b60405180910390fd5b610fba600760009054906101000a900473ffffffffffffffffffffffffffffffffffffffff1683611a01565b5050565b600080610fc9611518565b90506000610fd7828661146b565b90508381101561101c576040517f08c379a0000000000000000000000000000000000000000000000000000000008152600401611013906122af565b60405180910390fd5b6110298286868403611520565b60019250505092915050565b600080611040611518565b905061104d818585611775565b600191505092915050565b6000600660009054906101000a900473ffffffffffffffffffffffffffffffffffffffff1673ffffffffffffffffffffffffffffffffffffffff163373ffffffffffffffffffffffffffffffffffffffff16146110ea576040517f08c379a00000000000000000000000000000000000000000000000000000000081526004016110e19061231b565b60405180910390fd5b600073ffffffffffffffffffffffffffffffffffffffff168373ffffffffffffffffffffffffffffffffffffffff1603611127576000905061124b565b60003073ffffffffffffffffffffffffffffffffffffffff166318160ddd6040518163ffffffff1660e01b8152600401602060405180830381865afa158015611174573d6000803e3d6000fd5b505050506040513d601f19601f820116820180604052508101906111989190612138565b90507f000000000000000000000000000000000000000000000000000000000000000081106111cb57600091505061124b565b7f00000000000000000000000000000000000000000000000000000000000000006111ff84836119eb90919063ffffffff16565b111561123b57611238817f0000000000000000000000000000000000000000000000000000000000000000611b5790919063ffffffff16565b92505b6112458484611a01565b60019150505b92915050565b600860009054906101000a900473ffffffffffffffffffffffffffffffffffffffff1673ffffffffffffffffffffffffffffffffffffffff163373ffffffffffffffffffffffffffffffffffffffff16146112e1576040517f08c379a00000000000000000000000000000000000000000000000000000000081526004016112d8906123ad565b60405180910390fd5b600760009054906101000a900473ffffffffffffffffffffffffffffffffffffffff16600b60006101000a81548173ffffffffffffffffffffffffffffffffffffffff021916908373ffffffffffffffffffffffffffffffffffffffff160217905550600860009054906101000a900473ffffffffffffffffffffffffffffffffffffffff16600760006101000a81548173ffffffffffffffffffffffffffffffffffffffff021916908373ffffffffffffffffffffffffffffffffffffffff160217905550600760009054906101000a900473ffffffffffffffffffffffffffffffffffffffff1673ffffffffffffffffffffffffffffffffffffffff16600b60009054906101000a900473ffffffffffffffffffffffffffffffffffffffff1673ffffffffffffffffffffffffffffffffffffffff167fcd6ba6b7da89e039d53b5d981527a893755342bb9d8e5c2f61f6638f1fb5192b60405160405180910390a3565b7f000000000000000000000000000000000000000000000000000000000000000081565b6000600160008473ffffffffffffffffffffffffffffffffffffffff1673ffffffffffffffffffffffffffffffffffffffff16815260200190815260200160002060008373ffffffffffffffffffffffffffffffffffffffff1673ffffffffffffffffffffffffffffffffffffffff16815260200190815260200160002054905092915050565b600760009054906101000a900473ffffffffffffffffffffffffffffffffffffffff1681565b600033905090565b600073ffffffffffffffffffffffffffffffffffffffff168373ffffffffffffffffffffffffffffffffffffffff160361158f576040517f08c379a00000000000000000000000000000000000000000000000000000000081526004016115869061243f565b60405180910390fd5b600073ffffffffffffffffffffffffffffffffffffffff168273ffffffffffffffffffffffffffffffffffffffff16036115fe576040517f08c379a00000000000000000000000000000000000000000000000000000000081526004016115f5906124d1565b60405180910390fd5b80600160008573ffffffffffffffffffffffffffffffffffffffff1673ffffffffffffffffffffffffffffffffffffffff16815260200190815260200160002060008473ffffffffffffffffffffffffffffffffffffffff1673ffffffffffffffffffffffffffffffffffffffff168152602001908152602001600020819055508173ffffffffffffffffffffffffffffffffffffffff168373ffffffffffffffffffffffffffffffffffffffff167f8c5be1e5ebec7d5bd14f71427d1e84f3dd0314c0f7b2291e5b200ac8c7c3b925836040516116dc9190611d71565b60405180910390a3505050565b60006116f5848461146b565b90507fffffffffffffffffffffffffffffffffffffffffffffffffffffffffffffffff811461176f5781811015611761576040517f08c379a00000000000000000000000000000000000000000000000000000000081526004016117589061253d565b60405180910390fd5b61176e8484848403611520565b5b50505050565b600073ffffffffffffffffffffffffffffffffffffffff168373ffffffffffffffffffffffffffffffffffffffff16036117e4576040517f08c379a00000000000000000000000000000000000000000000000000000000081526004016117db906125cf565b60405180910390fd5b600073ffffffffffffffffffffffffffffffffffffffff168273ffffffffffffffffffffffffffffffffffffffff1603611853576040517f08c379a000000000000000000000000000000000000000000000000000000000815260040161184a90612661565b60405180910390fd5b61185e838383611b6d565b60008060008573ffffffffffffffffffffffffffffffffffffffff1673ffffffffffffffffffffffffffffffffffffffff168152602001908152602001600020549050818110156118e4576040517f08c379a00000000000000000000000000000000000000000000000000000000081526004016118db906126f3565b60405180910390fd5b8181036000808673ffffffffffffffffffffffffffffffffffffffff1673ffffffffffffffffffffffffffffffffffffffff16815260200190815260200160002081905550816000808573ffffffffffffffffffffffffffffffffffffffff1673ffffffffffffffffffffffffffffffffffffffff168152602001908152602001600020600082825401925050819055508273ffffffffffffffffffffffffffffffffffffffff168473ffffffffffffffffffffffffffffffffffffffff167fddf252ad1be2c89b69c2b068fc378daa952ba7f163c4a11628f55a4df523b3ef846040516119d29190611d71565b60405180910390a36119e5848484611b72565b50505050565b600081836119f99190611fab565b905092915050565b600073ffffffffffffffffffffffffffffffffffffffff168273ffffffffffffffffffffffffffffffffffffffff1603611a70576040517f08c379a0000000000000000000000000000000000000000000000000000000008152600401611a679061275f565b60405180910390fd5b611a7c60008383611b6d565b8060026000828254611a8e9190611fab565b92505081905550806000808473ffffffffffffffffffffffffffffffffffffffff1673ffffffffffffffffffffffffffffffffffffffff168152602001908152602001600020600082825401925050819055508173ffffffffffffffffffffffffffffffffffffffff16600073ffffffffffffffffffffffffffffffffffffffff167fddf252ad1be2c89b69c2b068fc378daa952ba7f163c4a11628f55a4df523b3ef83604051611b3f9190611d71565b60405180910390a3611b5360008383611b72565b5050565b60008183611b65919061277f565b905092915050565b505050565b505050565b600081519050919050565b600082825260208201905092915050565b60005b83811015611bb1578082015181840152602081019050611b96565b60008484015250505050565b6000601f19601f8301169050919050565b6000611bd982611b77565b611be38185611b82565b9350611bf3818560208601611b93565b611bfc81611bbd565b840191505092915050565b60006020820190508181036000830152611c218184611bce565b905092915050565b600073ffffffffffffffffffffffffffffffffffffffff82169050919050565b6000611c5482611c29565b9050919050565b611c6481611c49565b82525050565b6000602082019050611c7f6000830184611c5b565b92915050565b600080fd5b611c9381611c49565b8114611c9e57600080fd5b50565b600081359050611cb081611c8a565b92915050565b6000819050919050565b611cc981611cb6565b8114611cd457600080fd5b50565b600081359050611ce681611cc0565b92915050565b60008060408385031215611d0357611d02611c85565b5b6000611d1185828601611ca1565b9250506020611d2285828601611cd7565b9150509250929050565b60008115159050919050565b611d4181611d2c565b82525050565b6000602082019050611d5c6000830184611d38565b92915050565b611d6b81611cb6565b82525050565b6000602082019050611d866000830184611d62565b92915050565b600080600060608486031215611da557611da4611c85565b5b6000611db386828701611ca1565b9350506020611dc486828701611ca1565b9250506040611dd586828701611cd7565b9150509250925092565b600060208284031215611df557611df4611c85565b5b6000611e0384828501611cd7565b91505092915050565b600060ff82169050919050565b611e2281611e0c565b82525050565b6000602082019050611e3d6000830184611e19565b92915050565b600060208284031215611e5957611e58611c85565b5b6000611e6784828501611ca1565b91505092915050565b60008060408385031215611e8757611e86611c85565b5b6000611e9585828601611ca1565b9250506020611ea685828601611ca1565b9150509250929050565b7f4e487b7100000000000000000000000000000000000000000000000000000000600052602260045260246000fd5b60006002820490506001821680611ef757607f821691505b602082108103611f0a57611f09611eb0565b5b50919050565b7f4f6e6c792061646d696e2063616e206d616b6520746869732063616c6c000000600082015250565b6000611f46601d83611b82565b9150611f5182611f10565b602082019050919050565b60006020820190508181036000830152611f7581611f39565b9050919050565b7f4e487b7100000000000000000000000000000000000000000000000000000000600052601160045260246000fd5b6000611fb682611cb6565b9150611fc183611cb6565b9250828201905080821115611fd957611fd8611f7c565b5b92915050565b7f696e76616c69642070656e64696e672061646d696e2061646472657373000000600082015250565b6000612015601d83611b82565b915061202082611fdf565b602082019050919050565b6000602082019050818103600083015261204481612008565b9050919050565b7f696e76616c6964206d696e746572206164647265737300000000000000000000600082015250565b6000612081601683611b82565b915061208c8261204b565b602082019050919050565b600060208201905081810360008301526120b081612074565b9050919050565b7f6f6e6c792061646d696e2063616e206d696e7400000000000000000000000000600082015250565b60006120ed601383611b82565b91506120f8826120b7565b602082019050919050565b6000602082019050818103600083015261211c816120e0565b9050919050565b60008151905061213281611cc0565b92915050565b60006020828403121561214e5761214d611c85565b5b600061215c84828501612123565b91505092915050565b7f616c7265616479206578636565646564206d617820737570706c790000000000600082015250565b600061219b601b83611b82565b91506121a682612165565b602082019050919050565b600060208201905081810360008301526121ca8161218e565b9050919050565b7f6578636565646564206d617820737570706c79206f6620746f6b656e73000000600082015250565b6000612207601d83611b82565b9150612212826121d1565b602082019050919050565b60006020820190508181036000830152612236816121fa565b9050919050565b7f45524332303a2064656372656173656420616c6c6f77616e63652062656c6f7760008201527f207a65726f000000000000000000000000000000000000000000000000000000602082015250565b6000612299602583611b82565b91506122a48261223d565b604082019050919050565b600060208201905081810360008301526122c88161228c565b9050919050565b7f4f6e6c79206d696e7465722063616e206d616b6520746869732063616c6c0000600082015250565b6000612305601e83611b82565b9150612310826122cf565b602082019050919050565b60006020820190508181036000830152612334816122f8565b9050919050565b7f4f6e6c792070656e64696e672061646d696e2063616e206d616b65207468697360008201527f2063616c6c000000000000000000000000000000000000000000000000000000602082015250565b6000612397602583611b82565b91506123a28261233b565b604082019050919050565b600060208201905081810360008301526123c68161238a565b9050919050565b7f45524332303a20617070726f76652066726f6d20746865207a65726f2061646460008201527f7265737300000000000000000000000000000000000000000000000000000000602082015250565b6000612429602483611b82565b9150612434826123cd565b604082019050919050565b600060208201905081810360008301526124588161241c565b9050919050565b7f45524332303a20617070726f766520746f20746865207a65726f20616464726560008201527f7373000000000000000000000000000000000000000000000000000000000000602082015250565b60006124bb602283611b82565b91506124c68261245f565b604082019050919050565b600060208201905081810360008301526124ea816124ae565b9050919050565b7f45524332303a20696e73756666696369656e7420616c6c6f77616e6365000000600082015250565b6000612527601d83611b82565b9150612532826124f1565b602082019050919050565b600060208201905081810360008301526125568161251a565b9050919050565b7f45524332303a207472616e736665722066726f6d20746865207a65726f20616460008201527f6472657373000000000000000000000000000000000000000000000000000000602082015250565b60006125b9602583611b82565b91506125c48261255d565b604082019050919050565b600060208201905081810360008301526125e8816125ac565b9050919050565b7f45524332303a207472616e7366657220746f20746865207a65726f206164647260008201527f6573730000000000000000000000000000000000000000000000000000000000602082015250565b600061264b602383611b82565b9150612656826125ef565b604082019050919050565b6000602082019050818103600083015261267a8161263e565b9050919050565b7f45524332303a207472616e7366657220616d6f756e742065786365656473206260008201527f616c616e63650000000000000000000000000000000000000000000000000000602082015250565b60006126dd602683611b82565b91506126e882612681565b604082019050919050565b6000602082019050818103600083015261270c816126d0565b9050919050565b7f45524332303a206d696e7420746f20746865207a65726f206164647265737300600082015250565b6000612749601f83611b82565b915061275482612713565b602082019050919050565b600060208201905081810360008301526127788161273c565b9050919050565b600061278a82611cb6565b915061279583611cb6565b92508282039050818111156127ad576127ac611f7c565b5b9291505056fea26469706673582212205881aae44e6a7ae2d720c8d34cdf04d6f581a6fb90d157b21cd699c23d4cee0364736f6c63430008130033",
  "immutableReferences": {
    "1498": [
      {
        "length": 32,
        "start": 1857
      }
    ],
    "1504": [
      {
        "length": 32,
        "start": 3769
      },
      {
        "length": 32,
        "start": 3868
      },
      {
        "length": 32,
        "start": 4508
      },
      {
        "length": 32,
        "start": 4557
      },
      {
        "length": 32,
        "start": 4619
      },
      {
        "length": 32,
        "start": 5193
      }
    ]
  },
  "source": "// SPDX-License-Identifier: GPL-3.0\npragma solidity 0.8.19;\n\nimport { SafeMath } from \"@openzeppelin/contracts/utils/math/SafeMath.sol\";\nimport { ERC20 } from \"@openzeppelin/contracts/token/ERC20/ERC20.sol\";\n\n/**\n* @title ReplayToken\n* @notice TNT20 token for Replay subchain on theta network blockchain\n* @dev This token is the Governance token of Replay subchain on Theta Blockchain\n*/\ncontract ReplayToken is ERC20 {\n    using SafeMath for uint256;\n    /**\n     * @dev represents the decimal value of the token. Once set in constructor cannot be changes. Its set to 18\n     */\n    uint8 private immutable _decimals;\n\n    /**\n     * @dev Rewards earned by staker per block based on staked amount\n     */\n    uint256 private _stakerRewardPerBlock;\n\n    /**\n     * @dev Max supply of the token\n     */\n    uint256 public immutable maxSupply;\n\n    /**\n     * @dev Minter is the one who mints tokens per each block based on _stakerRewardPerBlock\n     */\n    address public minter;\n\n    /**\n     * @dev Admin of the contract - can mint tokens, change pendingAdmin and _stakerRewardPerBlock\n     */\n    address public admin;\n\n    /**\n     * @dev Pending admin can update the admin\n     */\n    address public pendingAdmin;\n\n    /**\n     * @dev Previous Minter emitted when replaced by new minter address\n     */\n    address public previousMinter;\n\n    /**\n     * @dev Previous Pending Admin emitted when replaced by new admin\n     */\n    address public previousPendingAdmin;\n\n    /**\n     * @dev Previous Admin emitted when replaced by new pending admin\n     */\n    address public previousAdmin;\n\n    /**\n     * @dev Event emitted when _stakerRewardPerBlock is updated by admin.\n     * @param newStakerRewardPerBlock - this is the new _stakerRewardPerBlock value updated by admin.\n     */\n    event UpdateStakerRewardPerBlock(uint256 newStakerRewardPerBlock);\n\n    /**\n     * @dev Event emitted when setPendingAdmin is updated by admin.\n     * @param previousPendingAdmin - the previous pendingAdmin value that was updated by admin\n     * @param newPendingAdmin - the current pendingAdmin value that was added by admin\n     */\n    event SetPendingAdmin(address indexed previousPendingAdmin, address indexed newPendingAdmin);\n\n    /**\n     * @dev Event emitted when admin is updated - only pending admin can update.\n     * @param previousAdmin - the previous admin value that was updated by pendingAdmin\n     * @param newAdmin - the current admin value - this is usually the pendingAdmin value and only called by pendingAdmin to perform this function\n     */\n    event UpdateAdmin(address indexed previousAdmin, address indexed newAdmin);\n\n    /**\n     * @dev Event emitted when minted address is updated.\n     * @param previousMinter - the address of previous minter\n     * @param newMinter - the address of current minter\n     */\n    event UpdateMinter(address indexed previousMinter, address indexed newMinter);\n\n    /**\n     * @dev Restricts a function so it can only be executed by an admin role\n     */\n    modifier adminOnly() {\n        require(msg.sender == admin, \"Only admin can make this call\");\n        _;\n    }\n\n    /**\n     * @dev Restricts a function so it can only be executed by a pending admin role\n     */\n    modifier pendingAdminOnly() {\n        require(msg.sender == pendingAdmin, \"Only pending admin can make this call\");\n        _;\n    }\n\n    /**\n     * @dev Restricts a function so it can only be executed by a minter\n     */\n    modifier minterOnly() {\n        require(msg.sender == minter, \"Only minter can make this call\");\n        _;\n    }\n\n    /**\n     * @dev Initializes the contract during deployment\n     * @param name_ is the name of the token\n     * @param symbol_ is the ticker symbol of the token\n     * @param decimals_ set to 18 on deploy.\n     * @param maxSupply_ is set to maxSupply of tokens allowed. The total supply of tokens should never exceed more than 1 billion\n     * @param minter_ is the contract address of ValidatorStakeManager.\n     * @param stakerRewardPerBlock_ will mint tokens based on stakerRewardPerBlock_ to reward the Subchain validator stakers.\n     * @param initDistrWallet_ will hold the initial minted tokens\n     * @param initMintAmount_ the initial mint tokens that will be held by initDistrWallet_\n     * @param admin_ is the admin of the contract\n     */\n    constructor(\n        string memory name_,\n        string memory symbol_,\n        uint8 decimals_,\n        uint256 maxSupply_,\n        address minter_,\n        uint256 stakerRewardPerBlock_,\n        address initDistrWallet_,\n        uint256 initMintAmount_,\n        address admin_\n    ) ERC20(name_, symbol_)\n    {\n        require(admin_ != address(0x0), \"invalid admin address\");\n        require(minter_ != address(0x0), \"invalid minter_ address\");\n        require(initDistrWallet_ != address(0x0), \"invalid initDistrWallet_ address\");\n        require(decimals_ != 0, \"invalid decimals\");\n        require(maxSupply_ != 0, \"invalid maxSupply\");\n        require(maxSupply_ <= 10 ** 27, \"maxSupply too large\");\n        require(\n            initMintAmount_ < maxSupply_,\n            \"Initial supply too large\"\n        );\n        _decimals = decimals_;\n        maxSupply = maxSupply_;\n        minter = minter_;\n        _stakerRewardPerBlock = stakerRewardPerBlock_;\n        admin = admin_;\n        _mint(initDistrWallet_, initMintAmount_);\n        emit UpdateMinter(previousMinter, minter);\n        emit UpdateAdmin(previousAdmin, admin);\n        emit UpdateStakerRewardPerBlock(_stakerRewardPerBlock);\n    }\n\n    /**\n     * @dev This method allows the minter (e.g. the ValidatorStakeManager contract) to mint new tokens to reward, Minter is the ValidatorStakeManager contract.\n     * @param account - account to which the staker amount and rewards will be minted\n     * @param amount - amount that needs to be minted by the VSM\n     * @return bool - This returns true - if the rewards are minted and false if they are not.\n     */\n    function mintStakerReward(address account, uint256 amount)\n        external\n        minterOnly\n        returns (bool)\n    {\n        if (account == address(0x0)) {\n            return false;\n        }\n        uint256 currentSupply = this.totalSupply();\n        if (currentSupply >= maxSupply) {\n            return false;\n        }\n        if (currentSupply.add(amount) > maxSupply) {\n            amount = maxSupply.sub(currentSupply);\n        }\n        _mint(account, amount);\n        return true;\n    }\n\n    /**\n     * @dev This function allows admin to mint additional tokens.\n     * @param amount - amount of tokens that will be minted by admin. They are minted to admin wallet.\n     */\n    function mint(uint256 amount) external adminOnly {\n        require(msg.sender == admin, \"only admin can mint\");\n        uint256 currentSupply = this.totalSupply();\n        require(currentSupply <= maxSupply, \"already exceeded max supply\");\n        require(currentSupply.add(amount) < maxSupply, \"exceeded max supply of tokens\" );\n        _mint(admin, amount);\n    }\n\n    /**\n     * @dev This function allows admin to update Staker reward per block\n     * @notice This value will be cut in half based on the rules in per white paper.\n     * @param stakerRewardPerBlock_ - Minter will mint tokens based on stakerRewardPerBlock_ to reward the Subchain validator stakers.\n     */\n    function updateStakerRewardPerBlock(uint256 stakerRewardPerBlock_)\n        external\n        adminOnly\n    {\n        _stakerRewardPerBlock = stakerRewardPerBlock_;\n        emit UpdateStakerRewardPerBlock(_stakerRewardPerBlock);\n    }\n\n    /**\n     * @dev This function updates Minter and can be called by admin only.\n     * @param minter_ - The address of the minted contract this will be VSM - Validator Stake manager.\n     */\n    function updateMinter(address minter_) external adminOnly {\n        require(minter_ != address(0x0), \"invalid minter address\");\n        previousMinter = minter;\n        minter = minter_;\n        emit UpdateMinter(previousMinter, minter);\n    }\n\n    /**\n     * @dev Pending admin is an intermediate role which is only used to update an admin\n     * @param admin_ the address of the pending admin that needs to be set\n     */\n    function setPendingAdmin(address admin_) external adminOnly {\n        require(admin_ != address(0x0), \"invalid pending admin address\");\n        previousPendingAdmin = pendingAdmin;\n        pendingAdmin = admin_;\n        emit SetPendingAdmin(previousPendingAdmin, pendingAdmin);\n    }\n\n    /**\n     * @dev This function updates admin - only invoked by pending admin\n     */\n    function updateAdmin() external pendingAdminOnly {\n        previousAdmin = admin;\n        admin = pendingAdmin;\n        emit UpdateAdmin(previousAdmin, admin);\n    }\n\n    /**\n     * @dev This method tells the minter - ValidatorStakeManager contract how many new tokens are minted per block for the Subchain validator stakers\n     * @return Returns reward per block that gets minted by minter for stakers based on their staked amount.\n     */\n    function stakerRewardPerBlock() external view returns (uint256) {\n        return _stakerRewardPerBlock;\n    }\n\n    /**\n     * @dev Read only function for returning the decimals of token.\n     */\n    function decimals() public view virtual override returns (uint8) {\n        return _decimals;\n    }\n}",
  "sourcePath": "/Users/enriquesouzasoares/projects/theta/theta-bridge/contracts/ReplayToken.sol",
  "compiler": {
    "name": "solc",
    "version": "0.8.19+commit.7dd6d404.Emscripten.clang"
  },
  "schemaVersion": "3.4.16",
  "updatedAt": "2024-03-16T20:27:34.124Z",
  "devdoc": {
    "details": "This token is the Governance token of Replay subchain on Theta Blockchain",
    "events": {
      "Approval(address,address,uint256)": {
        "details": "Emitted when the allowance of a `spender` for an `owner` is set by a call to {approve}. `value` is the new allowance."
      },
      "SetPendingAdmin(address,address)": {
        "details": "Event emitted when setPendingAdmin is updated by admin.",
        "params": {
          "newPendingAdmin": "- the current pendingAdmin value that was added by admin",
          "previousPendingAdmin": "- the previous pendingAdmin value that was updated by admin"
        }
      },
      "Transfer(address,address,uint256)": {
        "details": "Emitted when `value` tokens are moved from one account (`from`) to another (`to`). Note that `value` may be zero."
      },
      "UpdateAdmin(address,address)": {
        "details": "Event emitted when admin is updated - only pending admin can update.",
        "params": {
          "newAdmin": "- the current admin value - this is usually the pendingAdmin value and only called by pendingAdmin to perform this function",
          "previousAdmin": "- the previous admin value that was updated by pendingAdmin"
        }
      },
      "UpdateMinter(address,address)": {
        "details": "Event emitted when minted address is updated.",
        "params": {
          "newMinter": "- the address of current minter",
          "previousMinter": "- the address of previous minter"
        }
      },
      "UpdateStakerRewardPerBlock(uint256)": {
        "details": "Event emitted when _stakerRewardPerBlock is updated by admin.",
        "params": {
          "newStakerRewardPerBlock": "- this is the new _stakerRewardPerBlock value updated by admin."
        }
      }
    },
    "kind": "dev",
    "methods": {
      "allowance(address,address)": {
        "details": "See {IERC20-allowance}."
      },
      "approve(address,uint256)": {
        "details": "See {IERC20-approve}. NOTE: If `amount` is the maximum `uint256`, the allowance is not updated on `transferFrom`. This is semantically equivalent to an infinite approval. Requirements: - `spender` cannot be the zero address."
      },
      "balanceOf(address)": {
        "details": "See {IERC20-balanceOf}."
      },
      "constructor": {
        "details": "Initializes the contract during deployment",
        "params": {
          "admin_": "is the admin of the contract",
          "decimals_": "set to 18 on deploy.",
          "initDistrWallet_": "will hold the initial minted tokens",
          "initMintAmount_": "the initial mint tokens that will be held by initDistrWallet_",
          "maxSupply_": "is set to maxSupply of tokens allowed. The total supply of tokens should never exceed more than 1 billion",
          "minter_": "is the contract address of ValidatorStakeManager.",
          "name_": "is the name of the token",
          "stakerRewardPerBlock_": "will mint tokens based on stakerRewardPerBlock_ to reward the Subchain validator stakers.",
          "symbol_": "is the ticker symbol of the token"
        }
      },
      "decimals()": {
        "details": "Read only function for returning the decimals of token."
      },
      "decreaseAllowance(address,uint256)": {
        "details": "Atomically decreases the allowance granted to `spender` by the caller. This is an alternative to {approve} that can be used as a mitigation for problems described in {IERC20-approve}. Emits an {Approval} event indicating the updated allowance. Requirements: - `spender` cannot be the zero address. - `spender` must have allowance for the caller of at least `subtractedValue`."
      },
      "increaseAllowance(address,uint256)": {
        "details": "Atomically increases the allowance granted to `spender` by the caller. This is an alternative to {approve} that can be used as a mitigation for problems described in {IERC20-approve}. Emits an {Approval} event indicating the updated allowance. Requirements: - `spender` cannot be the zero address."
      },
      "mint(uint256)": {
        "details": "This function allows admin to mint additional tokens.",
        "params": {
          "amount": "- amount of tokens that will be minted by admin. They are minted to admin wallet."
        }
      },
      "mintStakerReward(address,uint256)": {
        "details": "This method allows the minter (e.g. the ValidatorStakeManager contract) to mint new tokens to reward, Minter is the ValidatorStakeManager contract.",
        "params": {
          "account": "- account to which the staker amount and rewards will be minted",
          "amount": "- amount that needs to be minted by the VSM"
        },
        "returns": {
          "_0": "bool - This returns true - if the rewards are minted and false if they are not."
        }
      },
      "name()": {
        "details": "Returns the name of the token."
      },
      "setPendingAdmin(address)": {
        "details": "Pending admin is an intermediate role which is only used to update an admin",
        "params": {
          "admin_": "the address of the pending admin that needs to be set"
        }
      },
      "stakerRewardPerBlock()": {
        "details": "This method tells the minter - ValidatorStakeManager contract how many new tokens are minted per block for the Subchain validator stakers",
        "returns": {
          "_0": "Returns reward per block that gets minted by minter for stakers based on their staked amount."
        }
      },
      "symbol()": {
        "details": "Returns the symbol of the token, usually a shorter version of the name."
      },
      "totalSupply()": {
        "details": "See {IERC20-totalSupply}."
      },
      "transfer(address,uint256)": {
        "details": "See {IERC20-transfer}. Requirements: - `to` cannot be the zero address. - the caller must have a balance of at least `amount`."
      },
      "transferFrom(address,address,uint256)": {
        "details": "See {IERC20-transferFrom}. Emits an {Approval} event indicating the updated allowance. This is not required by the EIP. See the note at the beginning of {ERC20}. NOTE: Does not update the allowance if the current allowance is the maximum `uint256`. Requirements: - `from` and `to` cannot be the zero address. - `from` must have a balance of at least `amount`. - the caller must have allowance for ``from``'s tokens of at least `amount`."
      },
      "updateAdmin()": {
        "details": "This function updates admin - only invoked by pending admin"
      },
      "updateMinter(address)": {
        "details": "This function updates Minter and can be called by admin only.",
        "params": {
          "minter_": "- The address of the minted contract this will be VSM - Validator Stake manager."
        }
      },
      "updateStakerRewardPerBlock(uint256)": {
        "details": "This function allows admin to update Staker reward per block",
        "params": {
          "stakerRewardPerBlock_": "- Minter will mint tokens based on stakerRewardPerBlock_ to reward the Subchain validator stakers."
        }
      }
    },
    "stateVariables": {
      "_decimals": {
        "details": "represents the decimal value of the token. Once set in constructor cannot be changes. Its set to 18"
      },
      "_stakerRewardPerBlock": {
        "details": "Rewards earned by staker per block based on staked amount"
      },
      "admin": {
        "details": "Admin of the contract - can mint tokens, change pendingAdmin and _stakerRewardPerBlock"
      },
      "maxSupply": {
        "details": "Max supply of the token"
      },
      "minter": {
        "details": "Minter is the one who mints tokens per each block based on _stakerRewardPerBlock"
      },
      "pendingAdmin": {
        "details": "Pending admin can update the admin"
      },
      "previousAdmin": {
        "details": "Previous Admin emitted when replaced by new pending admin"
      },
      "previousMinter": {
        "details": "Previous Minter emitted when replaced by new minter address"
      },
      "previousPendingAdmin": {
        "details": "Previous Pending Admin emitted when replaced by new admin"
      }
    },
    "title": "ReplayToken",
    "version": 1
  },
  "userdoc": {
    "kind": "user",
    "methods": {
      "updateStakerRewardPerBlock(uint256)": {
        "notice": "This value will be cut in half based on the rules in per white paper."
      }
    },
    "notice": "TNT20 token for Replay subchain on theta network blockchain",
    "version": 1
  }
}